:10000000FAC000000C944F180C947A180C94A518A0
:100010000C94D0180C94FB180C9426190C945119BC
:100020000C947C19F4C5000095C60000CFC60000F2
:1000300013C1000011C100000FC100000DC100007C
:100040000BC1000009C1000007C1000005C100008C
:1000500003C1000001C10000FFC000000C94A719FB
:10006000FBC000000C942C1D0C94621DF5C0000018
:10007000F3C00000F1C00000EFC00000EDC00000C0
:10008000EBC00000E9C00000E7C00000E5C00000D0
:100090000C94B81D0C94EE1DDFC000000C947D0A7A
:1000A000DBC00000D9C00000D7C00000D5C00000F0
:1000B000D3C00000D1C00000CFC00000CDC0000000
:1000C000CBC00000C9C000000C94DA140C94441E8C
:1000D0000C947A1EC1C000000C94D01E0C94061F14
:1000E000BBC0000000000A0B02090C0D0E0807033C
:1000F00004010000000000000000000000000000FB
:1001000000000000000000000000000000000000EF
:1001100012111000000000000000000000000000AC
:100120000000000000000000000001021020200874
:100130000810204010204080020102010804020142
:1001400001020408102040808040201008040201B1
:10015000800402018040201008040201080402010A
:100160000102040810204080010204081020408091
:1001700005050505070508080808020202020A0A23
:100180000808040404040101010101010101030341
:10019000030303030303040707070C0C0C0C0C0CEC
:1001A0000C0C0202020206060606060606060B0BE9
:1001B0000B0B0B0B0B0B00002200250028002B0063
:1001C0002E003100340002010000050108010B017E
:1001D00000002100240027002A002D0030003300F9
:1001E00001010000040107010A016E09A40D8B1D25
:1001F000171EA31E2F1F11241FBECFEFD1E2DEBF9B
:10020000CDBF00E00CBF12E0A0E0B2E0E8E6F4E40D
:1002100000E00BBF02C007900D92A43BB107D9F7D5
:1002200026E0A4EBB2E001C01D92AE3DB207E1F7BB
:1002300010E0CBEFD0E000E006C021970109802F4D
:10024000FE010E94B421C53FD10780E00807A9F74D
:100250000E9449150C943222D3CE8823E1F08230DB
:1002600061F0833089F08130B1F440E052EC61E01C
:1002700070E081E090E00C94BD1440E855E260E04D
:1002800070E082E090E0F7CF40E855E260E070E097
:1002900083E090E0F0CF08954F925F926F927F924B
:1002A0008F929F92AF92BF92CF92EF92FF920F9355
:1002B0001F93CF93DF93CDB7DEB72B013A01F02E1A
:1002C000B40130E02830310511F424E030E00AE0D8
:1002D00010E0CC2061F091E000E110E0C91639F0A7
:1002E000E2E008E010E0CE1611F002E010E081300C
:1002F00009F4E8C0B0F0823009F4C5C1833009F4D4
:10030000A3C2DF91CF911F910F91FF90EF90CF90FB
:10031000BF90AF909F908F907F906F905F904F9025
:100320000895F1101BC0269DA001279D500D369DFC
:10033000500D1124B20184EE93E0DF91CF911F9113
:100340000F91FF90EF90CF90BF90AF909F908F90C4
:100350007F906F905F904F900C945C1F84EE93E0C1
:100360000E94981FE11014C0640C751C641475047D
:1003700041F2F20161912F01F1E0A80184EE93E0D6
:10038000FF1203C00E946A20F1CF0E947020EECFBE
:1003900081E0E81215C091E0691A710808F4B1CF44
:1003A000F201619171912F01F1E0A80184EE93E0D7
:1003B000FF1203C00E948020EECF0E948520EBCF69
:1003C00082E0E81217C091E0691A710808F499CF29
:1003D000F20141915191619171912F01F1E09801E8
:1003E00084EE93E0FF1203C00E945E20ECCF0E94D7
:1003F0009520E9CF83E0E81218C0640C751C6414E2
:10040000750409F47ECFF20161912F01062E000CD4
:10041000770BF1E0A80184EE93E0FF1203C00E9485
:100420003820EDCF0E943E20EACF84E0E81215C0CC
:1004300091E0691A710808F464CFF2016191719139
:100440002F01F1E0A80184EE93E0FF1203C00E94A7
:100450003820EECF0E943E20EBCF85E0E81217C097
:1004600091E0691A710808F44CCFF2014191519161
:10047000619171912F01F1E0980184EE93E0FF12F8
:1004800003C00E94F31FECCF0E944E20E9CF86E00C
:10049000E81237CFB12C91E0691A710808F431CF16
:1004A000F20141915191619171912F01F1E095011A
:1004B00084EE93E0FF1203C00E948121ECCF0E94E2
:1004C0008221E9CFF1100BC0269DA001279D500D80
:1004D000369D500D1124B20181E894E02ECF81E8C1
:1004E00094E00E94981FE11015C0640C751C46141E
:1004F000570409F406CFF20161912F01F1E0A80140
:1005000081E894E0FF1203C00E946A20F0CF0E94AD
:100510007020EDCF81E0E81215C091E0691A7108F2
:1005200008F4EFCEF201619171912F01F1E0A80181
:1005300081E894E0FF1203C00E948020EECF0E9469
:100540008520EBCF82E0E81217C091E0691A7108AC
:1005500008F4D7CEF20141915191619171912F012F
:10056000F1E0980181E894E0FF1203C00E945E2050
:10057000ECCF0E949520E9CF83E0E81218C0640C0C
:10058000751C6414750409F4BCCEF20161912F014D
:10059000062E000C770BF1E0A80181E894E0FF1231
:1005A00003C00E943820EDCF0E943E20EACF84E0B5
:1005B000E81215C091E0691A710808F4A2CEF201A0
:1005C000619171912F01F1E0A80181E894E0FF129F
:1005D00003C00E943820EECF0E943E20EBCF85E082
:1005E000E81217C091E0691A710808F48ACEF20186
:1005F00041915191619171912F01F1E0980181E850
:1006000094E0FF1203C00E94F31FECCF0E944E2023
:10061000E9CF86E0E81275CEB12C91E0691A710835
:1006200008F46FCEF20141915191619171912F01C6
:10063000F1E0FF1214C0C11006C0950181E894E0FA
:100640000E948121EACFCB01BA010E94E915AB01DA
:10065000BC01980181E894E00E94F31FDECFC11035
:1006600006C0950181E894E00E948221D6CFCB019B
:10067000BA010E94E915AB01BC01980181E894E040
:100680000E944E20CACFF1100BC0269DA001279DCD
:10069000500D369D500D1124B2018EE195E04DCEE6
:1006A0008EE195E00E94981FE11015C0640C751C46
:1006B0004614570409F425CEF20161912F01F1E0AF
:1006C000A8018EE195E0FF1203C00E946A20F0CFDE
:1006D0000E947020EDCF81E0E81215C091E0691A08
:1006E000710808F40ECEF201619171912F01F1E0D1
:1006F000A8018EE195E0FF1203C00E948020EECF9A
:100700000E948520EBCF82E0E81217C091E0691AC1
:10071000710808F4F6CDF201419151916191719106
:100720002F01F1E098018EE195E0FF1203C00E94D5
:100730005E20ECCF0E949520E9CF83E0E81218C03C
:10074000640C751C6414750409F4DBCDF20161912D
:100750002F01062E000C770BF1E0A8018EE195E049
:10076000FF1203C00E943820EDCF0E943E20EACF46
:1007700084E0E81215C091E0691A710808F4C1CD4F
:10078000F201619171912F01F1E0A8018EE195E0F4
:10079000FF1203C00E943820EECF0E943E20EBCF14
:1007A00085E0E81217C091E0691A710808F4A9CD34
:1007B000F20141915191619171912F01F1E0980104
:1007C0008EE195E0FF1203C00E94F31FECCF0E9460
:1007D0004E20E9CF86E0E81294CDB12C91E0691A61
:1007E000710808F48ECDF20141915191619171919E
:1007F0002F01F1E0FF1214C0C11006C095018EE177
:1008000095E00E948121EACFCB01BA010E94E9154F
:10081000AB01BC0198018EE195E00E94F31FDECF91
:10082000C11006C095018EE195E00E948221D6CFCD
:10083000CB01BA010E94E915AB01BC0198018EE120
:1008400095E00E944E20CACFF1100BC0269DA0015A
:10085000279D500D369D500D1124B2018BEB95E074
:100860006CCD8BEB95E00E94981FE11015C0640CD5
:10087000751C6414750409F444CDF20161912F01D3
:10088000F1E0A8018BEB95E0FF1203C00E946A2003
:10089000F0CF0E947020EDCF81E0E81215C091E00A
:1008A000691A710808F42DCDF201619171912F013F
:1008B000F1E0A8018BEB95E0FF1203C00E948020BD
:1008C000EECF0E948520EBCF82E0E81217C091E0C6
:1008D000691A710808F415CDF201419151916191A5
:1008E00071912F01F1E098018BEB95E0FF1203C0AD
:1008F0000E945E20ECCF0E949520E9CF83E0E812B1
:1009000018C0640C751C6414750409F4FACCF20167
:1009100061912F01062E000C770BF1E0A8018BEB03
:1009200095E0FF1203C00E943820EDCF0E943E20C8
:10093000EACF84E0E81215C091E0691A710808F462
:10094000E0CCF201619171912F01F1E0A8018BEBF4
:1009500095E0FF1203C00E943820EECF0E943E2097
:10096000EBCF85E0E81217C091E0691A710808F42E
:10097000C8CCF20141915191619171912F01F1E047
:1009800098018BEB95E0FF1203C00E94F31FECCFA0
:100990000E944E20E9CF86E0E812B3CCB12C91E062
:1009A000691A710808F4ADCCF2014191519161913D
:1009B00071912F01F1E0FF1214C0C11006C0950122
:1009C0008BEB95E00E948121EACFCB01BA010E9416
:1009D000E915AB01BC0198018BEB95E00E94F31F78
:1009E000DECFC11006C095018BEB95E00E948221FD
:1009F000D6CFCB01BA010E94E915AB01BC01980129
:100A00008BEB95E00E944E20CACF9CB1892F80725B
:100A100094FF16C0811116C08091B8029091B9025E
:100A2000A091BA02B091BB020196A11DB11D8093A5
:100A3000B8029093B902A093BA02B093BB02089592
:100A40008111EACF8091B8029091B902A091BA02C7
:100A5000B091BB020197A109B109E9CF99B1892FE2
:100A6000847093FF16C08823B1F08091C6029091E4
:100A7000C702A091C802B091C9020196A11DB11D83
:100A80008093C6029093C702A093C802B093C90294
:100A90000895882351F38091C6029091C702A091D6
:100AA000C802B091C9020197A109B109E9CF8CB17F
:100AB00090E09C01220F232F221F330B86FF16C0CC
:100AC0008091D4029091D502A091D602B091D70224
:100AD000232BB9F40196A11DB11D8093D4029093EC
:100AE000D502A093D602B093D70208958091D40284
:100AF0009091D502A091D602B091D7022130310554
:100B000049F30197A109B109E8CF9CB1892F807100
:100B100095FF16C08823B1F08091B8029091B90278
:100B2000A091BA02B091BB020196A11DB11D8093A4
:100B3000B8029093B902A093BA02B093BB02089591
:100B4000882351F38091B8029091B902A091BA0222
:100B5000B091BB020197A109B109E9CF99B1892FE1
:100B6000887092FF16C0811116C08091C6029091C4
:100B7000C702A091C802B091C9020196A11DB11D82
:100B80008093C6029093C702A093C802B093C90293
:100B900008958111EACF8091C6029091C702A09179
:100BA000C802B091C9020197A109B109E9CF8CB17E
:100BB00090E086FB222720F930E0880F892F881FDC
:100BC000990B0197B1F48091D4029091D502A09134
:100BD000D602B091D702232BB1F00196A11DB11D11
:100BE0008093D4029093D502A093D602B093D702FB
:100BF00008958091D4029091D502A091D602B0912F
:100C0000D702232B51F30197A109B109E9CF1F9214
:100C10000F920FB60F9211242F933F934F935F9330
:100C20008F939F93AF93BF9383B121E030E0982FD0
:100C3000907285FD02C030E020E080744091F8029F
:100C40005091F9024217530709F062C021E030E0E9
:100C5000811102C030E020E03093F7022093F602C9
:100C6000882309F1911121C08091F0029091F10245
:100C7000A091F202B091F3020196A11DB11D8093E3
:100C8000F0029093F102A093F202B093F3028091EC
:100C9000F0029091F102A091F202B091F30201965C
:100CA000A11DB11D20C09111DFCF8091F002909164
:100CB000F102A091F202B091F3020197A109B109EA
:100CC0008093F0029093F102A093F202B093F302AA
:100CD0008091F0029091F102A091F202B091F302A2
:100CE0000197A109B1098093F0029093F102A093BA
:100CF000F202B093F302BF91AF919F918F915F91F8
:100D00004F913F912F910F900FBE0F901F9018950C
:100D10003093F9022093F802992371F0882371F03F
:100D20008091F0029091F102A091F202B091F30251
:100D30000196A11DB11DC4CF882391F38091F002CB
:100D40009091F102A091F202B091F3020197A109F2
:100D5000B10995CF1F920F920FB60F9211248F9366
:100D60009F93AF93BF93809106018170909103018F
:100D700090FF1EC081111EC08091E2029091E3029B
:100D8000A091E402B091E5020196A11DB11D8093EE
:100D9000E2029093E302A093E402B093E502BF91D4
:100DA000AF919F918F910F900FBE0F901F9018954C
:100DB0008111E2CF8091E2029091E302A091E402DE
:100DC000B091E5020197A109B109E1CF1F920F92FD
:100DD0000FB60F9211248F939F93AF93BF9380917F
:100DE000030181709091060190FF1EC08823F1F0ED
:100DF0008091E2029091E302A091E402B091E502B9
:100E00000196A11DB11D8093E2029093E302A0938D
:100E1000E402B093E502BF91AF919F918F910F9043
:100E20000FBE0F901F901895882311F38091E20256
:100E30009091E302A091E402B091E5020197A1092B
:100E4000B109E1CF0F931F93CF93DF938C018EE015
:100E5000809FE001819FD00D1124CC54DD4F798318
:100E600068835B834A838881998160E00E94991B33
:100E70008A819B8160E00E94991B8881998161E051
:100E80000E94D51B8A819B8161E00E94D51B0230A4
:100E9000110509F487C064F40115110501F1013051
:100EA000110509F450C0DF91CF911F910F91089562
:100EB0000330110509F4A5C004301105A1F7809194
:100EC000680081608093680080916B0080628093ED
:100ED0006B0080916B00806480936B00E4CF809105
:100EE000B4029091B50202978431910530F585598D
:100EF0009D4FFC018081082E000C990B41E050E0D1
:100F000065E075E00E94D5178091B6029091B70216
:100F1000029784319105A0F485599D4FFC01808191
:100F2000082E000C990B41E050E065E875E0DF9178
:100F3000CF911F910F910C94D5178FEF9FEFDECFBC
:100F40008FEF9FEFF0CF8091C2029091C302029782
:100F50008431910508F585599D4FFC018081082E4B
:100F6000000C990B41E050E06EEA75E00E94D51745
:100F70008091C4029091C50202978431910578F462
:100F800085599D4FFC018081082E000C990B41E092
:100F900050E06EE275E0CBCF8FEF9FEFE3CF8FEFA6
:100FA0009FEFF5CF8091D0029091D10202978431CA
:100FB000910508F585599D4FFC018081082E000C94
:100FC000990B41E050E067E575E00E94D5178091EC
:100FD000D2029091D30202978431910578F4855919
:100FE0009D4FFC018081082E000C990B41E050E0E0
:100FF00067ED75E09CCF8FEF9FEFE3CF8FEF9FEF13
:10100000F5CF8091680084608093680080916800CB
:1010100082608093680080916D00816080936D0094
:1010200080916C00826080936C003DCF2EE0269F03
:10103000F001279FF00D1124EC54FD4F6481758160
:1010400086819781089590E080E0089580912E0335
:1010500090912F03891B990B089590912F038091F4
:101060002E032FEF3FEF981748F4E92FF0E0E05DF3
:10107000FC4F208130E09F5F90932F03C9010895BA
:10108000E0912F0380912E03E81730F4F0E0E05D4B
:10109000FC4F808190E008958FEF9FEF08950895B1
:1010A000CF93DF93EC01E0910603F09107033097B3
:1010B000F1F090912F0380912E039817C0F090E0EB
:1010C000292F30E02617370754F4DE01A20FB31F93
:1010D0004C91205D3C4FD9014C939F5FF1CF109212
:1010E0002F0360932E03CB01DF91CF911994DF91F1
:1010F000CF910895E0910803F0910903309729F00A
:1011000010920C0310920B0319940895CF93DF9360
:101110001F92CDB7DEB7698320910A032223F9F02D
:1011200020910B03203258F021E030E0FC013383A2
:10113000228390E080E00F90DF91CF91089580911D
:101140000C03E82FF0E0E35FFC4F998190838F5F01
:1011500080930C0380930B0381E090E0ECCF61E07F
:10116000CE01019689D1F8CFCF92DF92EF92FF9214
:101170000F931F93CF93DF937C01CB018A012091C2
:101180000A03222389F0EB016B01C40ED51ECC1596
:10119000DD0561F06991D701ED91FC910190F0813D
:1011A000E02DC7011995F3CF642F66D1C801DF91F7
:1011B000CF911F910F91FF90EF90DF90CF90089506
:1011C00010922F0310922E0310920C0310920B0317
:1011D00096D08AE798E07CD180E598E074C181E000
:1011E00080930A0360932D0310920C0310920B035B
:1011F00008950F93062F21E040910B036DE073E0FB
:1012000080912D03E2D010920C0310920B031092E8
:101210000A030F9108954F925F926F927F92AF925F
:10122000BF92CF92EF92FF920F931F93CF93DF93D2
:101230005C01F62ED42F28013901EE2009F1CFDF11
:10124000CE2DC43008F0C3E0C150B8F028E0C29FF2
:10125000C0011124A301920104C05695479537950A
:1012600027958A95D2F7B901D501ED91FC910190AE
:10127000F081E02DC5011995E7CF60E0C501B9DF28
:101280004D2FD13208F040E22C2D60E373E08F2D1A
:1012900054D010922F0380932E03DF91CF911F9192
:1012A0000F91FF90EF90CF90BF90AF907F906F9095
:1012B0005F904F900895CF92EF920F931F93C22E9D
:1012C000E12C00E010E09801A6DF1F910F91EF9054
:1012D000CF90089521E0EFCF61E08BCFEAEFF2E00D
:1012E0001382128288EE93E0A0E0B0E084839583BD
:1012F000A683B78383E892E0918380830895109258
:10130000BD0381E08093BB031092BA0361E084E1E6
:101310000E94D51B61E085E10E94D51BE9EBF0E05E
:1013200080818E7F808380818D7F808388E480931D
:10133000B80085E48093BC000895413208F043C0B2
:101340009091BD039111FCCF91E09093BD03209348
:10135000BB032FEF2093500310929503240F20938B
:1013600094039093BC039091BC03880F892B8093C6
:10137000BC038091BA03813009F51092BA038091C1
:10138000BC038093BB008091BC0083FDF8CF85EC4B
:101390008093BC008091BD038130E1F3809195037F
:1013A000841710F440919503A6E9B3E0962FFB0152
:1013B0008E2F891B841720F0842F089585EEE8CFA7
:1013C0008D918193F5CF40E0F7CF0F93413208F034
:1013D0004BC09091BD039111FCCF92E09093BD035F
:1013E0000093BB039FEF909350031092950340939B
:1013F0009403362FA6E9B3E0FB019E2F931B9417AD
:1014000070F11092BC039091BC03880F892B8093DC
:10141000BC038091BA03813029F51092BA03809100
:10142000BC038093BB008091BC0083FDF8CF85ECAA
:101430008093BC00222321F08091BD038230D1F340
:10144000809150038F3F91F080915003803281F062
:1014500080915003803371F084E00F910895919151
:101460009D93CBCF85EEE4CF81E0F7CF80E0F5CF41
:1014700082E0F3CF83E0F1CF20917203260F332770
:10148000331F21323105ECF42091BD03FC0190E0C3
:1014900080E0243069F082E00895A09172032191E8
:1014A000AC014C585C4FA40FB52FB11D2C93019685
:1014B000861798F380917203680F6093720380E03F
:1014C000089581E008959093B7038093B60308953B
:1014D0009093B9038093B803089585ED8093BC0081
:1014E0008091BC0084FDFCCF1092BD03089585EC73
:1014F0008093BC001092BD0308951F920F920FB607
:101500000F9211240BB60F922F933F934F935F933B
:101510006F937F938F939F93AF93BF93EF93FF93BB
:101520008091B900887F803609F44CC008F03FC034
:10153000883209F4A8C028F5803109F49CC0C8F4A9
:10154000882309F4F8C0883009F495C0FF91EF9121
:10155000BF91AF919F918F917F916F915F914F91CB
:101560003F912F910F900BBE0F900FBE0F901F90C9
:101570001895883109F487C0803241F78093500371
:1015800014C0803409F49CC040F48033B9F388332C
:10159000E9F680935003ABDFD9CF803509F484C0DE
:1015A000883509F495C0883489F697DFCFCF88391C
:1015B00009F48CC038F5883729F050F4883611F0DA
:1015C000803721F683E08093BD031092510357C00A
:1015D000883809F47BC0803919F0803809F0B6CF1B
:1015E00080915103803208F071C0E091510381E095
:1015F0008E0F809351038091BB00F0E0EE5AFC4FB8
:1016000080833DC0803B39F0E0F4803A09F479C032
:10161000883A09F09BCF84E08093BD031092730356
:1016200010927203E091B803F091B903199580917B
:10163000720381110FC081E08093720310927403D2
:1016400009C0803C09F475C0883C09F472C0883B2D
:1016500009F07CCFE091730381E08E0F80937303D8
:10166000F0E0EC58FC4F80818093BB0090917303B5
:101670008091720329C08091BC038093BB0085ECEC
:101680008093BC0063CF9091950380919403981749
:1016900058F5E091950381E08E0F80939503F0E07B
:1016A000EA56FC4F8081E9CFE091950381E08E0FEF
:1016B000809395038091BB00F0E0EA56FC4F808355
:1016C00090919503809194039817C8F285E8D8CF3C
:1016D000E091950381E08E0F809395038091BB008C
:1016E000F0E0EA56FC4F80838091BB0381115DCF0F
:1016F00081E08093BA0384EA8093BC001092BD031A
:1017000025CFF5DE80915103803230F4E091510312
:10171000F0E0EE5AFC4F10826091510370E0E091CE
:10172000B603F091B70382E593E019951092510347
:101730000DCF85ECE1CF1092500337CFFF920F937E
:101740001F93CF93DF93C62F042FF22E132F682FF2
:101750008AEF92E044DD6C2F8AEF92E0D7DCCF2D48
:10176000D12F0C0F1D2F111DC017D10729F0699122
:101770008AEF92E0CBDCF8CF8AEF92E0ADDD91E02A
:10178000811190E0892FDF91CF911F910F91FF90F0
:101790000895CF93DF931F92CDB7DEB749839E01A3
:1017A0002F5F3F4F41E0CADF0F90DF91CF91089547
:1017B0002F923F924F925F926F927F928F929F9261
:1017C000AF92BF92CF92DF92EF92FF920F931F934F
:1017D000CF93DF9300D0CDB7DEB7E82E69834B837C
:1017E00069010E94F1194B015C01F12C1A822B81D5
:1017F000222E312C2801712C612C8B81F81608F0D7
:1018000044C06E2D8AEF92E0EADC69818AEF92E0B3
:101810007DDC8AEF92E060DD6E2D8AEF92E0DFDC06
:10182000A1014F1951094132510514F040E250E035
:101830006E2D8AEF92E04EDD8AEF92E007DC892B75
:10184000D9F00115110569F48AEF92E006DCF60182
:101850009A81E90FF11D97FDFA9580839F5F9A8326
:10186000EBCF0E94F119681979098A099B0964155F
:1018700075058605970540F38AEF92E02DDD8B8193
:10188000813208F080E2F80EB8CF01151105C1F0E1
:101890000E94F119681979098A099B0930E020E052
:1018A000601771078207930758F02A81822F220F51
:1018B000990B2B812817190619F014F08FEF8A83E2
:1018C0008A810F900F900F90DF91CF911F910F9110
:1018D000FF90EF90DF90CF90BF90AF909F908F9050
:1018E0007F906F905F904F903F902F9008950F934F
:1018F0001F9389019A0141E05BDF1F910F910895C9
:10190000EF92FF920F931F93CF93DF931F92CDB768
:10191000DEB7182F062FE42EF22E20910002309110
:101920000102AE014F5F5F4FE2DF81E090E001C056
:10193000880FEA94EAF74981FF2069F0482B498330
:10194000602F812F26DF0F90DF91CF911F910F9194
:10195000FF90EF90089580954823F1CFDF92EF92AA
:10196000FF920F931F93CF93DF931F92CDB7DEB7F4
:10197000F82EE62E142FD22E209100023091010273
:10198000AE014F5F5F4FB3DF882351F1812F8D1977
:10199000990BAC014F5F5F4F81E090E002C0880F70
:1019A000991FDA94E2F70197042E01C0880F0A9478
:1019B000EAF701C0000F4A95EAF7482F4095998150
:1019C00049238023482B49836E2D8F2DE2DE0F9013
:1019D000DF91CF911F910F91FF90EF90DF900895CD
:1019E00080E0F5CF28E6FC01208308950F93062FB1
:1019F00023E042E06AE1FC018081B0DF0F910895AD
:101A00000F93062F22E044E06BE1FC018081A6DF0A
:101A10000F9108950F93062F22E044E06CE1FC0142
:101A200080819CDF0F9108950F931F93CF93DF93D5
:101A3000EC0100910002109101029C012F5F3F4FC9
:101A400042E063E48881B4DE89819A8198278927FE
:101A50009827DF91CF911F910F9108950F931F93B6
:101A6000CF93DF93EC0100910002109101029C01E1
:101A70002F5F3F4F42E065E488819ADE89819A8139
:101A8000982789279827DF91CF911F910F9108956B
:101A90000F931F93CF93DF93EC01009100021091FD
:101AA00001029C012F5F3F4F42E067E4888180DEA6
:101AB00089819A81982789279827DF91CF911F9153
:101AC0000F910895262F46E06BE6FC01808118CF28
:101AD0000F93062F23E042E06BE6FC0180813EDF9E
:101AE0000F910895CF93DF93EC0161E0F1DF60E0A7
:101AF000CE0186DF60E0CE018DDF60E0CE01DF91B8
:101B0000CF91E0CFCF93C82F8AEF92E059DB6C2FB3
:101B10008EEB93E06BDF8EEB93E0CF91E3CFCF932F
:101B2000DF93EC018EEB93E07FDF998388838EEB6C
:101B300093E094DF9B838A838EEB93E0A9DF9D8300
:101B40008C83DF91CF9108958EEB93E04BCF6111A1
:101B500002C00C94991B6130E1F362E0FACF662376
:101B600019F061E00C94D51B60E0FCCF0895CF9292
:101B7000DF92EF92FF92CF93882351F16A017B01AC
:101B8000CFEFC80F20E030E0A901CB01B6010E94E1
:101B9000E51587FF11C0C701B60190580E94EE15E8
:101BA0009B01AC016C2F70E090E080E0CF91FF9042
:101BB000EF90DF90CF90B0C0C701B6010E94E91549
:101BC0008C2FCF91FF90EF90DF90CF900C945F1A05
:101BD000CF91FF90EF90DF90CF9008950F931F93D8
:101BE0008B019C0183E036952795179507958A957B
:101BF000D1F703531C4F462F477021E030E0F90125
:101C000002C0EE0FFF1F4A95E2F7AF01F8012081F5
:101C10002423CB010196211102C090E080E01F91A6
:101C20000F9108950F931F938B019C0183E03695CC
:101C30002795179507958A95D1F7677081E090E011
:101C400001C0880F6A95EAF7F801E353FC4F208141
:101C5000452B31F48095822380831F910F91089545
:101C6000822BFACF2F923F924F925F926F927F9288
:101C70008F929F92AF92BF92CF92DF92EF92FF929C
:101C80000F931F93CF93DF93D62EC72E782E692EF6
:101C900049015A01280161E08D2D0E94991BCD2D2B
:101CA000DC2D8E010F5F1F4FA8016D2D7C2D872D20
:101CB000962DB8DF20E030E0A901C201B7010E94F3
:101CC0006D17181654F4C201B70188D72B01C5014E
:101CD000B40184D7A201CE0123D0C801DF91CF91F6
:101CE0001F910F91FF90EF90DF90CF90BF90AF903A
:101CF0009F908F907F906F905F904F903F902F902C
:101D00000895882341F08150682F70E090E080E0D2
:101D100050E040E087CF0895862FB9010C945F1AF8
:101D20009C01FC01EC51FF4FE491E150E231E0F401
:101D3000F0E08827E156F14F8F4F0C94B421B10E9B
:101D4000B80EBB0ED20EE70EB40EFC0E080F0C0F31
:101D5000230F380F4D0F640F790FB40E8E0FA50FA0
:101D6000BA0F84B5806884BD60E0822F0C94D51BC7
:101D700084B58062F8CF809180008C7F82608093F0
:101D8000800080918100807E8061682B609381005B
:101D900050938700409386008091800080688093F4
:101DA0008000E2CF809180008C7F826080938000F1
:101DB00080918100807E8061682B609381005093C8
:101DC000870040938600809180008062E8CF8091F8
:101DD00080008C7F82608093800080918100807E73
:101DE0008061682B60938100509387004093860048
:101DF000809180008860D3CF8091B000806880930C
:101E0000B0008091B100887F682B6093B100ACCFA7
:101E10008091B0008062F3CF809190008C7F8260CF
:101E20008093900080919100807E8061682B609308
:101E300091005093970040939600809190008068A5
:101E40008093900091CF809190008C7F82608093EE
:101E5000900080919100807E8061682B609391005A
:101E60005093970040939600809190008062E8CF55
:101E7000809190008C7F826080939000809191008F
:101E8000807E8061682B609391005093970040930F
:101E90009600809190008860D3CF8091A0008C7FC5
:101EA00082608093A0008091A100807E8061682B79
:101EB0006093A1005093A7004093A6008091A000DA
:101EC00080688093A00050CF8091A0008C7F8260BA
:101ED0008093A0008091A100807E8061682B609338
:101EE000A1005093A7004093A6008091A0008062BB
:101EF000E8CF8091A0008C7F82608093A0008091C9
:101F0000A100807E8061682B6093A1005093A700A0
:101F10004093A6008091A0008860D3CF80912001DB
:101F20008C7F82608093200180912101807E80617E
:101F3000682B6093210150932701409326018091E3
:101F400020018068809320010FCF809120018C7F39
:101F500082608093200180912101807E8061682BC6
:101F60006093210150932701409326018091200125
:101F70008062E8CF809120018C7F82608093200175
:101F800080912101807E8061682B609321015093B4
:101F9000270140932601809120018860D3CF2F92A2
:101FA0003F924F925F926F927F928F929F92AF92E9
:101FB000BF92CF92DF92EF92FF920F931F93CF9336
:101FC000DF93CDB7DEB76D970FB6F894DEBF0FBEC7
:101FD000CDBFC090B806D090B906E090BA06F09098
:101FE000BB0620910A0230910B0240910C025091E5
:101FF0000D02C701B60175D72091C0063091C10608
:102000004091C2065091C3067BD5209122023091A7
:102010002302409124025091250263D72B013C01F9
:1020200020912602309127024091280250912902E6
:10203000C701B60156D72091BC063091BD0640912C
:10204000BE065091BF065DD5A30192015AD56F8B94
:102050007B8FB82E9C8F10912A0230902B022090FB
:102060002C0280912D028E8B9B014B2D592F612FBD
:10207000732D822D9E89A9D587FD19C010911E024E
:1020800030901F0220902002809121028E8B2F8998
:102090003B8D4B2D5C8D612F732D822D9E891DD71D
:1020A00018162CF01F893B8C2B2C8C8D8E8B20E0EE
:1020B00030E040E251E4612F732D822D9E8921D5BD
:1020C0002DEC3CEC4CE455E40CD7F1D56B017C01D4
:1020D0002DD4811153C2C701B601FFD381114EC265
:1020E00020E030E040E857E4C701B601FAD56B01C3
:1020F0007C0120E030E0A90168D587FF42C2C7011A
:10210000B60190586BD57195619571097A836B838F
:1021100061E070E080E090E00E9416088DD520918B
:102120004A0230914B0240914C0250914D02D9D657
:102130002091060230910702409108025091090255
:10214000D0D620E030E040E251E4DBD42DEC3CEC92
:102150004CE455E4C6D6ABD56B017C01E7D38111C5
:1021600014C2C701B601B9D381110FC220E030E01B
:1021700040E857E4C701B601B4D56B017C0120E00B
:1021800030E0A90122D587FF03C2C701B6019058EC
:1021900025D57195619571097C836D8320E030E0D0
:1021A00040E251E46091B8067091B9068091BA0698
:1021B0009091BB06A6D42DEC3CEC4CE455E491D6B2
:1021C00076D56B017C01B2D38111E6C1C701B6019E
:1021D00084D38111E1C120E030E040E857E4C70139
:1021E000B6017FD56B017C0120E030E0A901EDD480
:1021F00087FFD5C1C701B6019058F0D4882499242F
:10220000861A970AC0903202D0903302E0903402CE
:10221000F0903502A701960160917E0670917F06CD
:102220008091800690918106D0D4882341F0C0929D
:102230007E06D0927F06E0928006F0928106809121
:102240005A0289839E828F8280E8888719868A87CE
:102250001B868C871D868E871F86609192067091E3
:1022600093068091940690919506B8D4C62E6091FD
:102270008A0670918B0680918C0690918D06AED463
:10228000E62E60918E0670918F0680919006909157
:102290009106A4D4062F60918606709187068091DE
:1022A0008806909189069AD46D8F6091820670910C
:1022B0008306809184069091850690D4862F912C78
:1022C000812C92E0A92E2D8D4FE050E0BE016F5F72
:1022D0007F4F0E944C012F893B8D4B2D5C8D612FD0
:1022E000732D822D9E890CD420911A0230911B02ED
:1022F00040911C0250911D02F4D54B015C01C0902D
:10230000B806D090B906E090BA06F090BB062091CE
:102310000E0230910F024091100250911102C7013C
:10232000B601DFD56F8B788F898F9A8FC701B60181
:102330009F7720E030E040E45FE347D420E030E0E6
:10234000A90187FF04C020E030E040E85FE3612F8F
:10235000732D822D9E89C5D5D62EE72EF82E192FE6
:10236000CE014096DCDB01E02D2D3E2D4F2D512F6F
:102370006091360270913702809138029091390253
:10238000ACD518160CF000E0602F88E0E8DBC090B8
:102390002E0230902F0220903002009131022D2D1C
:1023A0003E2D4F2D512F6C2D732D822D902F0DD43E
:1023B00087FD17C0C0905202309053022090540203
:1023C000009155022D2D3E2D4F2D512F6C2D732D2B
:1023D000822D902F82D5181624F0CD2C3E2C2F2C38
:1023E000012F6091A0067091A1068091A2069091A4
:1023F000A306F4DB90939F0680939E0620915602DD
:102400003091570240915802509159026C2D732D12
:10241000822D902F66D54BD46B017C0187D2811120
:10242000C3C0C701B60159D28111BEC020E030E05F
:1024300040E853E4C701B60154D46B017C0120E0AD
:1024400030E0A901C2D387FFB2C0C701B6019058DE
:10245000C5D3619570E090E080E0EED3AB01BC01A4
:1024600080919E0690919F0682DB68897989072E6C
:10247000000C880B990BE0D32091020230910302EB
:1024800040910402509105023BD320914E023091BD
:102490004F02409150025091510223D520913A02AF
:1024A00030913B0240913C0250913D021AD520915F
:1024B000B8063091B9064091BA065091BB0621D3B7
:1024C0006093B8067093B9068093BA069093BB06E2
:1024D0002F89388D498D5A8DC501B40112D32091B1
:1024E0004202309143024091440250914502F9D496
:1024F0002091BC063091BD064091BE065091BF06AA
:1025000000D36093BC067093BD068093BE06909383
:10251000BF062091460230914702409148025091F7
:102520004902C301B201DDD42091C0063091C10639
:102530004091C2065091C306E4D26093C0067093E6
:10254000C1068093C2069093C3066D960FB6F894A9
:10255000DEBF0FBECDBFDF91CF911F910F91FF90D6
:10256000EF90DF90CF90BF90AF909F908F907F9033
:102570006F905F904F903F902F900895C12CD12C79
:102580007601C701B6012AD3C1CDC12CD12C760169
:10259000C701B60123D300CEC12CD12C7601C701CF
:1025A000B6011CD34B012ECEC12CD12C7601C70114
:1025B000B60114D34FCF4F925F926F927F928F925A
:1025C0009F92AF92BF92DF92EF92FF920F931F9371
:1025D000CF93DF9384E090E049D11092D70310921B
:1025E000D603C8E5D6E08CE6FE0111928A95E9F79C
:1025F000412C512C320143944092A5065092A606DC
:102600006092A7067092A80642E150E063E170E094
:1026100081E090E00E942207DD24D394D092A906A5
:10262000188292E0A92E92E0B92EF50180A991A915
:10263000A2A9B3A98EA39FA3A8A7B9A749825A822A
:102640006B827C821AA61BA61CA61DA680E090E0C9
:10265000A0E8BFE38EA79FA7A8ABB9AB1AAA1BAA95
:102660001CAA1DAA1EAA1FAA18AE19AE1AAE1BAE2E
:102670001CAE1DAE80E00E942D01DD821092AA06E4
:102680004092AB065092AC066092AD067092AE06D8
:1026900090E080E037DAD092AF061092B006409218
:1026A000B1065092B2066092B3067092B40661E031
:1026B00088E04DDAD092B5061092980620EA822E74
:1026C00026E0922E86E090E0A0E0B0E0F401808366
:1026D0009183A283B383CDE9D6E018824092990614
:1026E00050929A0660929B0670929C06E12CF12C07
:1026F0008701A801970166E070E080E090E0B2DA1F
:102700000EE916E0F80191838083F4016081718104
:102710008281938163DAF8019183808327DAD882FA
:10272000F50184AD95ADA6ADB7AD8093B806909395
:10273000B906A093BA06B093BB0684899589A68989
:10274000B7898093BC069093BD06A093BE06B09354
:10275000BF0680899189A289B3898093C00690932E
:10276000C106A093C206B093C306DF91CF911F911B
:102770000F91FF90EF90DF90BF90AF909F908F9060
:102780007F906F905F904F9008958091A406811183
:1027900003C081E08093A40680915806811103C094
:1027A00081E0809358068091AA06811103C081E0E0
:1027B0008093AA068091B006811103C081E08093C6
:1027C000B00680919806811132C081E0809398060E
:1027D0008091990690919A06A0919B06B0919C06D3
:1027E0000197A105B10519F580919D068823F9F09F
:1027F0006091A0067091A1068091A2069091A30617
:10280000EDD990939F0680939E0640E050E0BA0178
:10281000AED96091A0067091A1068091A206909118
:10282000A306DCD990939F0680939E066ACA0895FA
:1028300060E070E080E89FE7089560E070E080E885
:102840009FE7089560E070E080E89FEF089560E002
:1028500070E080E89FEF089560E070E080EC9FEF0B
:10286000089560E070E080EC9FEF0895F5DF6093DD
:10287000D0067093D1068093D2069093D306F1DFF1
:102880006093C4067093C5068093C6069093C706EE
:10289000CFDF6093CC067093CD068093CE069093E5
:1028A000CF06CBDF6093C8067093C9068093CA0633
:1028B0009093CB06C7DF6093D4067093D5068093C0
:1028C000D6069093D706C3DF6093D8067093D906D7
:1028D0008093DA069093DB060895CF92DF92EF9211
:1028E000FF92CF936B017C01AC019B016091C80604
:1028F0007091C9068091CA069091CB0666D1C1E05D
:10290000882369F0A70196016091D8067091D906D5
:102910008091DA069091DB0658D18111C0E08C2FAE
:10292000CF91FF90EF90DF90CF9008950F931F937A
:102930008B019C010027112720783F770115110595
:1029400020483F4749F4AB01BC016F77772781E00E
:10295000452B462B472B09F480E01F910F910895DA
:1029600040E052EC61E070E090E080E006D061E091
:102970008DE0DFD660E08DE018C78130910571F001
:102980001CF4892B39F008958230910559F0039792
:1029900069F0089526E084EE93E0FEC726E081E822
:1029A00094E0FBCF26E08EE195E0F7CF26E08BEBBD
:1029B00095E0F3CF1F920F920FB60F9211240BB632
:1029C0000F922F933F934F935F936F937F938F93C8
:1029D0009F93AF93BF93EF93FF938EE19BEF909301
:1029E0002501809324018091D9039091DA03019706
:1029F00019F461E08DE0D9D634D0FF91EF91BF9109
:102A0000AF919F918F917F916F915F914F913F9186
:102A10002F910F900BBE0F900FBE0F901F90189527
:102A20008EE19BEF9093250180932401A3E7B0E012
:102A30008C918E7F8C93E0E2F1E080818C7F8083AB
:102A4000E1E2F1E08081877E808380818360808302
:102A500080818B7F80838C9181608C93089581E04D
:102A600008958091D80391E0980F9093D80388231C
:102A700049F021E030E03093DA032093D9038093CA
:102A8000D803089578948BDAF8948091D803815014
:102A9000F6CFCF93DF931092DD061092DC06ADD413
:102AA0005FDFC0919102D09192021982188283DD7A
:102AB000F894B6DF81E028813981232B09F080E08A
:102AC0008093DC06789478948091DC06811107C0AD
:102AD0005CDEF89490E080E0DF91CF91089581E092
:102AE00028813981232B09F480E08093DD069091C1
:102AF000DD0681E0911180E08093DC06B0DFE4CF59
:102B00005058BB27AA270ED097C188D130F08DD15D
:102B100020F031F49F3F11F41EF47DC10EF4E095D6
:102B2000E7FB4AC1E92F99D180F3BA17620773070F
:102B30008407950718F071F49EF5C8C10EF4E0956E
:102B40000B2EBA2FA02D0B01B90190010C01CA0167
:102B5000A0011124FF27591B99F0593F50F4503E12
:102B600068F11A16F040A22F232F342F4427585F04
:102B7000F3CF469537952795A795F0405395C9F71C
:102B80007EF41F16BA0B620B730B840BBAF09150D4
:102B9000A1F0FF0FBB1F661F771F881FC2F70EC073
:102BA000BA0F621F731F841F48F487957795679546
:102BB000B795F7959E3F08F0B3CF9395880F08F02F
:102BC0009927EE0F979587950895D2D008F481E064
:102BD000089504D06894B1117AC1089546D188F05F
:102BE0009F5790F0B92F9927B751A0F0D1F0660FF9
:102BF000771F881F991F1AF0BA95C9F712C0B13014
:102C000081F064D1B1E0089561C1672F782F8827E2
:102C1000B85F39F0B93FCCF3869577956795B39552
:102C2000D9F73EF490958095709561957F4F8F4FC1
:102C30009F4F0895E89409C097FB3EF490958095C6
:102C4000709561957F4F8F4F9F4F9923A9F0F92F72
:102C500096E9BB279395F695879577956795B795F0
:102C6000F111F8CFFAF4BB0F11F460FF1BC06F5FD6
:102C70007F4F8F4F9F4F16C0882311F096E911C0E8
:102C8000772321F09EE8872F762F05C0662371F009
:102C900096E8862F70E060E02AF09A95660F771F1D
:102CA000881FDAF7880F9695879597F90895F7D0DA
:102CB00080F09F3740F491110EF009C160E070E0A0
:102CC00080E89FEB089526F41B16611D711D811D80
:102CD00079C093C0A3D018F011F0A7D038F49BC0EE
:102CE000F6C0E92FBAD0B0F35523C9F3E7FB62175A
:102CF000730784079507A8F199F3E92FFF27882325
:102D00002AF03197660F771F881FDAF7952F55271E
:102D1000442332F091505040220F331F441FD2F70A
:102D2000BB27E91BF50B621B730B840BB109C1F2C6
:102D300022F4620F731F841FB11D31972AF0660FB2
:102D4000771F881FBB1FEFCF915050405AF041F0C2
:102D5000882332F0660F771F881F91505040C1F7CB
:102D600093954BC08695779567959F5FD9F7F8CF78
:102D7000990F0008550FAA0BE0E8FEEF161617068C
:102D8000E807F907C0F012161306E407F50798F0F4
:102D9000621B730B840B950B39F40A2661F0232B0D
:102DA000242B252B21F408950A2609F4A140A69589
:102DB0008FEF811D811D089597F99F6780E870E06E
:102DC00060E00895882371F4772321F09850872BD1
:102DD000762F07C0662311F499270DC09051862BDA
:102DE00070E060E02AF09A95660F771F881FDAF787
:102DF000880F9695879597F908959F3F31F09150E8
:102E000020F4879577956795B795880F911D9695CE
:102E1000879597F908959FEF80EC089500240A9410
:102E20001616170618060906089500240A941216A5
:102E30001306140605060895092E0394000C11F4D8
:102E4000882352F0BB0F40F4BF2B11F460FF04C085
:102E50006F5F7F4F8F4F9F4F089557FD9058440FDE
:102E6000551F59F05F3F71F04795880F97FB991FE9
:102E700061F09F3F79F087950895121613061406A6
:102E8000551FF2CF4695F1DF08C016161706180633
:102E9000991FF1CF86957105610508940895E5DFC6
:102EA000A0F0BEE7B91788F4BB279F3860F4161668
:102EB000B11D672F782F8827985FF7CF8695779574
:102EC0006795B11D93959639C8F30895E894BB278B
:102ED00066277727CB0197F908954ADF08F48FEF2B
:102EE00008950BD0A9CF9ADF28F09FDF18F0952323
:102EF00009F062CF90CF1124EACFAFDFA0F3959F06
:102F0000D1F3950F50E0551F629FF001729FBB27D0
:102F1000F00DB11D639FAA27F00DB11DAA1F649F7C
:102F20006627B00DA11D661F829F2227B00DA11D2F
:102F3000621F739FB00DA11D621F839FA00D611DB5
:102F4000221F749F3327A00D611D231F849F600DD6
:102F5000211D822F762F6A2F11249F5750408AF00F
:102F6000E1F088234AF0EE0FFF1FBB1F661F771F9B
:102F7000881F91505040A9F79E3F510570F01CCF1B
:102F8000A6CF5F3FECF3983EDCF386957795679587
:102F9000B795F795E7959F5FC1F7FE2B880F911DB9
:102FA0009695879597F908950895883008F076C02A
:102FB000E82FF0E0EE0FFF1FE55AFD4F71836083AD
:102FC0008150873008F03DC0E82FF0E08827E451B9
:102FD000F84E8F4F0C94B4212918F317FB170718DC
:102FE000141835184218809169008C7F482B409343
:102FF0006900E89A089580916900837F440F551F06
:10300000440F551F482B40936900E99A0895809119
:1030100069008F7C74E0440F551F7A95E1F7482BC7
:1030200040936900EA9A0895809169008F7366E081
:10303000440F551F6A95E1F7482B40936900EB9ABE
:10304000089580916A008C7F482B40936A00EC9A27
:10305000089580916A00837F440F551F440F551FC8
:10306000482B40936A00ED9A089580916A008F7C06
:1030700024E0440F551F2A95E1F7482B40936A003E
:10308000EE9A089580916A008F7396E0440F551F61
:103090009A95E1F7482B40936A00EF9A08951F92A2
:1030A0000F920FB60F9211240BB60F922F933F93EE
:1030B0004F935F936F937F938F939F93AF93BF9340
:1030C000EF93FF93E0915F02F09160021995FF91F9
:1030D000EF91BF91AF919F918F917F916F915F9190
:1030E0004F913F912F910F900BBE0F900FBE0F90FD
:1030F0001F9018951F920F920FB60F9211240BB6C6
:103100000F922F933F934F935F936F937F938F9380
:103110009F93AF93BF93EF93FF93E0916102F09180
:1031200062021995FF91EF91BF91AF919F918F919D
:103130007F916F915F914F913F912F910F900BBEB7
:103140000F900FBE0F901F9018951F920F920FB601
:103150000F9211240BB60F922F933F934F935F93CF
:103160006F937F938F939F93AF93BF93EF93FF934F
:10317000E0916302F09164021995FF91EF91BF9184
:10318000AF919F918F917F916F915F914F913F91FF
:103190002F910F900BBE0F900FBE0F901F901895A0
:1031A0001F920F920FB60F9211240BB60F922F930E
:1031B0003F934F935F936F937F938F939F93AF93BF
:1031C000BF93EF93FF93E0916502F091660219952A
:1031D000FF91EF91BF91AF919F918F917F916F91EF
:1031E0005F914F913F912F910F900BBE0F900FBEAB
:1031F0000F901F9018951F920F920FB60F921124E7
:103200000BB60F922F933F934F935F936F937F93E0
:103210008F939F93AF93BF93EF93FF93E0915B02E4
:10322000F0915C021995FF91EF91BF91AF919F9141
:103230008F917F916F915F914F913F912F910F905F
:103240000BBE0F900FBE0F901F9018951F920F92FC
:103250000FB60F9211240BB60F922F933F934F93FB
:103260005F936F937F938F939F93AF93BF93EF93EE
:10327000FF93E0915D02F0915E021995FF91EF914D
:10328000BF91AF919F918F917F916F915F914F917E
:103290003F912F910F900BBE0F900FBE0F901F907C
:1032A00018951F920F920FB60F9211240BB60F9222
:1032B0002F933F934F935F936F937F938F939F933E
:1032C000AF93BF93EF93FF93E0916702F091680291
:1032D0001995FF91EF91BF91AF919F918F917F9140
:1032E0006F915F914F913F912F910F900BBE0F9077
:1032F0000FBE0F901F9018951F920F920FB60F924E
:1033000011240BB60F922F933F934F935F936F93BC
:103310007F938F939F93AF93BF93EF93FF93E0912E
:103320006902F0916A021995FF91EF91BF91AF91F7
:103330009F918F917F916F915F914F913F912F91CD
:103340000F900BBE0F900FBE0F901F9018951F92FD
:103350000F920FB60F9211242F933F938F939F9349
:10336000AF93BF938091DC039091DD03A091DE03C6
:10337000B091DF033091DB0323E0230F2D3758F5A5
:103380000196A11DB11D2093DB038093DC03909374
:10339000DD03A093DE03B093DF038091E0039091FF
:1033A000E103A091E203B091E3030196A11DB11DD9
:1033B0008093E0039093E103A093E203B093E303CF
:1033C000BF91AF919F918F913F912F910F900FBE21
:1033D0000F901F90189526E8230F0296A11DB11D8E
:1033E000D2CF2FB7F8946091DC037091DD03809108
:1033F000DE039091DF032FBF0895789484B5826037
:1034000084BD84B5816084BD85B5826085BD85B588
:10341000816085BDEEE6F0E0808181608083E1E837
:10342000F0E010828081826080838081816080836F
:10343000E0E8F0E0808181608083E1EBF0E0808172
:1034400084608083E0EBF0E0808181608083E1E94B
:10345000F0E0808182608083808181608083E0E908
:10346000F0E0808181608083E1EAF0E08081826029
:103470008083808181608083E0EAF0E080818160E8
:103480008083E1E2F1E080818260808380818160DD
:103490008083E0E2F1E0808181608083EAE7F0E010
:1034A000808184608083808182608083808181606C
:1034B00080838081806880831092C10008951F936B
:1034C000CF93DF93182FEB0161E033D1209731F4D4
:1034D00060E0812FDF91CF911F9167C1CF3FD10570
:1034E00011F461E0F6CFE12FF0E0EC51FF4FE491F1
:1034F000E150E23108F0B2C0F0E08827EE57F54E17
:103500008F4F32C7941A9C1AA11AAB1AB51A2E1BE8
:10351000BF1AC71ACF1AD91AE31AED1AFC1A061BDA
:103520002E1B101B1A1B241B84B5806884BDC7BDCD
:10353000DF91CF911F91089584B5806284BDC8BD8D
:10354000F7CF80918000806880938000D0938900BD
:10355000C0938800EDCF80918000806280938000CE
:10356000D0938B00C0938A00E3CF80918000886065
:1035700080938000D0938D00C0938C00D9CF809130
:10358000B00080688093B000C093B300D1CF809129
:10359000B00080628093B000C093B400C9CF809126
:1035A0009000806880939000D0939900C093980019
:1035B000BFCF80919000806280939000D0939B0059
:1035C000C0939A00B5CF809190008860809390005E
:1035D000D0939D00C0939C00ABCF8091A0008068E9
:1035E0008093A0008091A0008F7B8093A000D09357
:1035F000A900C093A8009CCF8091A0008062809316
:10360000A000D093AB00C093AA0092CF8091A000FD
:1036100088608093A000D093AD00C093AC0088CFA9
:1036200080912001806880932001D0932901C0936C
:1036300028017ECF80912001806280932001D09369
:103640002B01C0932A0174CF809120018860809360
:103650002001D0932D01C0932C016ACFC038D10531
:103660000CF03FCF35CF8150823108F059C0E82FA0
:10367000F0E08827E25CF44E8F4F76C65E1B621B3B
:10368000501B561B5A1B901B651B6B1B6F1B751B1E
:10369000791B7D1B831B871B901B8B1B911B951B11
:1036A000809180008F7780938000089580918000C2
:1036B0008F7DF9CF80918000877FF5CF84B58F779C
:1036C00084BD089584B58F7DFBCF8091B0008F7746
:1036D0008093B00008958091B0008F7DF9CF8091E4
:1036E00090008F77809390000895809190008F7D57
:1036F000F9CF80919000877FF5CF8091A0008F77E0
:103700008093A00008958091A0008F7DF9CF8091D3
:10371000A000877FF5CF809120018F7780932001D3
:103720000895809120018F7DF9CF80912001877FBE
:10373000F5CFCF93DF9390E0FC01E65DFE4F24913F
:1037400080599E4FFC0184918823C9F090E0880F36
:10375000991FFC01E053FE4FA591B491FC01EA547E
:10376000FE4FC591D49161110DC09FB7F8948C9113
:10377000209582238C938881282328839FBFDF9103
:10378000CF910895623051F49FB7F8943C91822F05
:10379000809583238C93E8812E2BEFCF8FB7F894FD
:1037A000EC912E2B2C938FBFEACF1F93CF93DF93F7
:1037B000282F30E0F901EC51FF4F8491F901E65DCB
:1037C000FE4FD491F901E059FE4FC491CC23A1F0F2
:1037D000162F811148DFEC2FF0E0EE0FFF1FEA54A7
:1037E000FE4FA591B4918FB7F894EC91111108C0D8
:1037F000D095DE23DC938FBFDF91CF911F91089589
:10380000DE2BF8CFFC01918D228D892F90E0805C1A
:103810009F4F821B91098F7399270895FC01918D09
:10382000828D981731F0828DE80FF11D858D90E023
:1038300008958FEF9FEF0895FC01918D828D981769
:1038400061F0A28DAE0FBF2FB11D5D968C91928D50
:103850009F5F9F73928F90E008958FEF9FEF089581
:10386000FC01538D448D252F30E0842F90E0821B86
:10387000930B541710F0CF96089501970895FC010B
:10388000A48DA80FB92FB11DA35ABF4F2C91848DC1
:1038900090E001968F739927848FA689B7892C931E
:1038A000A089B1898C91837080648C93938D848D71
:1038B000981306C00288F389E02D80818F7D808374
:1038C0000895CF93DF93EC01888D8823B1F0AA8906
:1038D000BB89E889F9898C9185FD03C0808186FDCB
:1038E0000CC00FB607FCF7CF8C9185FFF2CF80811B
:1038F00085FFEDCFCE01C3DFEACFDF91CF910895F1
:10390000EF92FF920F931F93CF93DF93EC0181E02F
:10391000888F9B8D8C8D98131AC0E889F9898081D6
:1039200085FF15C09FB7F894EE89FF896083E88909
:10393000F98980818370806480839FBF81E090E0FB
:10394000DF91CF911F910F91FF90EF900895F62E88
:103950000B8D10E00F5F1F4F0F731127E02E8C8D22
:103960008E110BC00FB607FCFACFE889F989808168
:1039700085FFF5CFCE0183DFF2CFEB8DEC0FFD2F6E
:10398000F11DE35AFF4FF0829FB7F8940B8FEA893D
:10399000FB8980818062D0CFCF92DF92EF92FF923D
:1039A0001F93CF93DF93EC016A017B01122FE8890B
:1039B000F98982E08083C11481EED806E104F10424
:1039C00099F060E079E08DE390E0A7019601AAD438
:1039D0002150310941095109569547953795279549
:1039E000211580E1380790F0E889F989108260E8B4
:1039F00074E88EE190E0A701960194D4215031093A
:103A0000410951095695479537952795EC85FD85D0
:103A10003083EE85FF852083188EEC89FD89108325
:103A2000EA89FB89808180618083EA89FB898081C2
:103A300088608083EA89FB89808180688083EA8945
:103A4000FB8980818F7D8083DF91CF911F91FF90D3
:103A5000EF90DF90CF9008951F920F920FB60F92C4
:103A600011240BB60F922F938F939F93EF93FF9395
:103A7000E091F403F091F5038081E091FA03F09175
:103A8000FB0382FD1DC090818091FD038F5F8F73CA
:103A90002091FE03821741F0E091FD03F0E0EC512C
:103AA000FC4F958F8093FD03FF91EF919F918F9134
:103AB0002F910F900BBE0F900FBE0F901F90189577
:103AC0008081F2CF1F920F920FB60F9211240BB686
:103AD0000F922F933F934F935F936F937F938F93A7
:103AE0009F93AF93BF93EF93FF9384EE93E0C7DE72
:103AF000FF91EF91BF91AF919F918F917F916F91C6
:103B00005F914F913F912F910F900BBE0F900FBE81
:103B10000F901F901895E4EEF3E01382128288EE66
:103B200093E0A0E0B0E084839583A683B78387E920
:103B300092E09183808385EC90E09587848784EC84
:103B400090E09787868780EC90E0918B808B81EC6A
:103B500090E0938B828B82EC90E0958B848B86EC4B
:103B600090E0978B868B118E128E138E148E089593
:103B70001F920F920FB60F9211240BB60F922F9334
:103B80008F939F93EF93FF93E0919104F0919204B0
:103B90008081E0919704F091980482FD1DC090818E
:103BA00080919A048F5F8F7320919B04821741F05C
:103BB000E0919A04F0E0EF57FB4F958F80939A04C1
:103BC000FF91EF919F918F912F910F900BBE0F90CE
:103BD0000FBE0F901F9018958081F2CF1F920F9209
:103BE0000FB60F9211240BB60F922F933F934F9362
:103BF0005F936F937F938F939F93AF93BF93EF9355
:103C0000FF9381E894E03BDEFF91EF91BF91AF918C
:103C10009F918F917F916F915F914F913F912F91E4
:103C20000F900BBE0F900FBE0F901F901895E1E8FC
:103C3000F4E01382128288EE93E0A0E0B0E0848387
:103C40009583A683B78387E992E0918380838DEC87
:103C500090E0958784878CEC90E09787868788EC46
:103C600090E0918B808B89EC90E0938B828B8AEC37
:103C700090E0958B848B8EEC90E0978B868B118EE9
:103C8000128E138E148E08951F920F920FB60F92FC
:103C900011240BB60F922F938F939F93EF93FF9363
:103CA000E0912E05F0912F058081E0913405F0918F
:103CB000350582FD1DC09081809137058F5F8F7320
:103CC00020913805821741F0E0913705F0E0E25E7F
:103CD000FA4F958F80933705FF91EF919F918F91C8
:103CE0002F910F900BBE0F900FBE0F901F90189545
:103CF0008081F2CF1F920F920FB60F9211240BB654
:103D00000F922F933F934F935F936F937F938F9374
:103D10009F93AF93BF93EF93FF938EE195E0AFDD59
:103D2000FF91EF91BF91AF919F918F917F916F9193
:103D30005F914F913F912F910F900BBE0F900FBE4F
:103D40000F901F901895EEE1F5E01382128288EE35
:103D500093E0A0E0B0E084839583A683B78387E9EE
:103D600092E09183808385ED90E09587848784ED50
:103D700090E09787868780ED90E0918B808B81ED36
:103D800090E0938B828B82ED90E0958B848B86ED17
:103D900090E0978B868B118E128E138E148E089561
:103DA0001F920F920FB60F9211240BB60F922F9302
:103DB0008F939F93EF93FF93E091CB05F091CC0508
:103DC0008081E091D105F091D20582FD1DC09081E6
:103DD0008091D4058F5F8F732091D505821741F0B4
:103DE000E091D405F0E0E554FA4F958F8093D40527
:103DF000FF91EF919F918F912F910F900BBE0F909C
:103E00000FBE0F901F9018958081F2CF1F920F92D6
:103E10000FB60F9211240BB60F922F933F934F932F
:103E20005F936F937F938F939F93AF93BF93EF9322
:103E3000FF938BEB95E023DDFF91EF91BF91AF9165
:103E40009F918F917F916F915F914F913F912F91B2
:103E50000F900BBE0F900FBE0F901F901895EBEBBD
:103E6000F5E01382128288EE93E0A0E0B0E0848354
:103E70009583A683B78387E992E09183808385E366
:103E800091E09587848784E391E09787868780E334
:103E900091E0918B808B81E391E0938B828B82E325
:103EA00091E0958B848B86E391E0978B868B118EC6
:103EB000128E138E148E0895AF92BF92CF92DF921E
:103EC000EF92FF920F931F93CF93DF936C017B01CF
:103ED0008B01040F151FEB015E01AE18BF08C01760
:103EE000D10759F06991D601ED91FC910190F081D3
:103EF000E02DC6011995892B79F7C501DF91CF9186
:103F00001F910F91FF90EF90DF90CF90BF90AF90F7
:103F10000895FB0101900020E9F73197AF01461B9E
:103F2000570BDC01ED91FC910280F381E02D199497
:103F30006115710509F0EDCF90E080E00895DC0196
:103F4000ED91FC910190F081E02D199465EA72E009
:103F5000E0CF8F929F92AF92BF92EF92FF920F931A
:103F60001F93CF93DF93CDB7DEB7A1970FB6F89429
:103F7000DEBF0FBECDBF7C01FA01CB0119A22230FA
:103F800008F42AE08E010F5D1F4F822E912CB12C78
:103F9000A12CBF01A5019401C5D1F901CA016A3064
:103FA00004F5605DD8016E938D01232B242B252B06
:103FB00081F790E080E0109719F0BD01C701A9DFFB
:103FC000A1960FB6F894DEBF0FBECDBFDF91CF91A3
:103FD0001F910F91FF90EF90BF90AF909F908F90A7
:103FE0000895695CDFCFCF92DF92EF92FF920F933B
:103FF0001F93CF93DF932115310581F4DC01ED91FF
:10400000FC910190F081E02D642FDF91CF911F9101
:104010000F91FF90EF90DF90CF9019942A303105E7
:10402000F1F42AE077FF1BC06A017B01EC016DE22D
:1040300086DF8C0144275527BA014C195D096E09AA
:104040007F092AE0CE0185DF800F911FDF91CF919C
:104050001F910F91FF90EF90DF90CF900895DF9127
:10406000CF911F910F91FF90EF90DF90CF9071CF84
:104070009A01AB01770F660B770BB5CF0F931F93A8
:10408000CF93DF93EC01F4DF8C01CE015FDF800F73
:10409000911FDF91CF911F910F9108950F931F935F
:1040A000CF93DF93EC019FDF8C01CE014FDF800FB8
:1040B000911FDF91CF911F910F9108952115310527
:1040C00041F4DC01ED91FC910190F081E02D642F31
:1040D00019943FCF9A01462F50E070E060E0EECF98
:1040E0000F931F93CF93DF93EC01F4DF8C01CE018C
:1040F0002DDF800F911FDF91CF911F910F910895B8
:104100009A01AB0170E060E0D9CF0F931F93CF937A
:10411000DF93EC01F5DF8C01CE0118DF800F911FDA
:10412000DF91CF911F910F9108950F931F93CF931C
:10413000DF93EC01C3DF8C01CE0108DF800F911FFC
:10414000DF91CF911F910F9108952F923F924F923F
:104150005F926F927F928F929F92AF92BF92CF9217
:10416000DF92EF92FF921F93CF93DF93EC016A01EE
:104170007B01722EAB019601CB01B6016ED168EACC
:1041800072E0811125C046015701E894B7F82FEF7E
:104190003FEF4FE75FE7C501B4015FD181110CC06C
:1041A0002FEF3FEF4FE75FE7C501B4010E94E51530
:1041B0006CEA72E0181664F02FEF3FEF4FE75FE410
:1041C000C701B6010E946D171816ACF460EB72E0DF
:1041D000CE01DF91CF911F91FF90EF90DF90CF90B4
:1041E000BF90AF909F908F907F906F905F904F9017
:1041F0003F902F908ECE2FEF3FEF4FE75FECC70140
:10420000B6010E94E51587FDE1CF20E030E0A9016D
:10421000C701B6010E94E515312C212C87FF08C08B
:104220006DE2CE018CDE1C01F7FAF094F7F8F09401
:1042300010E060E070E080E09FE3711639F020E06C
:1042400030E040E251E498D01F5FF7CFA70196011C
:104250000E9481152B013C010E94EE154B015C016F
:104260002AE0BC01A401CE0174DE7C01E20CF31C47
:104270001123A1F1C501B4010E941A169B01AC01E2
:10428000C301B2010E9480154B015C016EE2CE01B8
:1042900056DEE80EF91E115008F120E030E040E251
:1042A00051E4C501B4010E9471172B013C010E9429
:1042B000EE154B014AE050E0CE0122DFE80EF91E78
:1042C000B40190E080E00E941A169B01AC01C3018A
:1042D000B2010E9480154B015C01DDCFC701DF9167
:1042E000CF911F91FF90EF90DF90CF90BF90AF9054
:1042F0009F908F907F906F905F904F903F902F9006
:10430000089523CF0F931F93CF93DF93EC011DDF0D
:104310008C01CE011BDE800F911FDF91CF911F9189
:104320000F910895A1E21A2EAA1BBB1BFD010DC01F
:10433000AA1FBB1FEE1FFF1FA217B307E407F50755
:1043400020F0A21BB30BE40BF50B661F771F881F31
:10435000991F1A9469F760957095809590959B01C7
:10436000AC01BD01CF010895EE0FFF1F881F8BBF69
:104370000790F691E02D199412D00C941C170E940E
:10438000151758F00E940E1740F029F45F3F29F0EE
:104390000C94DC1651110C9467170C940B170E94A7
:1043A0002D1768F39923B1F3552391F3951B550B02
:1043B000BB27AA2762177307840738F09F5F5F4FF8
:1043C000220F331F441FAA1FA9F335D00E2E3AF037
:1043D000E0E832D091505040E695001CCAF72BD04F
:1043E000FE2F29D0660F771F881FBB1F26173707A0
:1043F0004807AB07B0E809F0BB0B802DBF01FF27D2
:1044000093585F4F3AF09E3F510578F00C94DC16BC
:104410000C9467175F3FE4F3983ED4F38695779545
:104420006795B795F7959F5FC9F7880F911D96958A
:10443000879597F90895E1E0660F771F881FBB1FE6
:10444000621773078407BA0720F0621B730B840B93
:10445000BA0BEE1F88F7E09508950E94B816880BF6
:08446000990B0895F894FFCFB9
:10446800E8031D2629C37CF2B03CAE47613E00003C
:10447800B44300000000000000000000803F00007E
:10448800C0C00000C842000012430000C040000045
:10449800104100000000000000000AD7A33B000004
:1044A80000000AD7A33B0AD7A33B35FA0EBCFDB3DD
:1044B8000BB9000010C1ABAAE24101D417D417D43C
:1044C80017D417D417D417D417D4170001FFFF0631
:1044D80007FFFFFFFFFFFFFFFFFFFF0504030200C9
:1044E8000000008608B40823084F0826082D084055
:1044F80008D60300000000801C5C1F301C611C02F1
:104508001C1C1C0E1C0D0A006E616E00696E660094
:044518006F76660054
:00000001FF
