:10000000FAC000000C9413200C943E200C9469203C
:100010000C9494200C94BF200C94EA200C9415218D
:100020000C944021F4C5000095C60000CFC6000026
:1000300013C1000011C100000FC100000DC100007C
:100040000BC1000009C1000007C1000005C100008C
:1000500003C1000001C10000FFC000000C946B212F
:10006000FBC000000C94F0240C942625F5C0000081
:10007000F3C00000F1C00000EFC00000EDC00000C0
:10008000EBC00000E9C00000E7C00000E5C00000D0
:100090000C947C250C94B225DFC000000C947D0AE2
:1000A000DBC00000D9C00000D7C00000D5C00000F0
:1000B000D3C00000D1C00000CFC00000CDC0000000
:1000C000CBC00000C9C000000C949D1C0C940826F5
:1000D0000C943E26C1C000000C9494260C94CA26B1
:1000E000BBC0000000000A0B02090C0D0E0807033C
:1000F00004010000000000000000000000000000FB
:1001000000000000000000000000000000000000EF
:1001100012111000000000000000000000000000AC
:100120000000000000000000000001021020200874
:100130000810204010204080020102010804020142
:1001400001020408102040808040201008040201B1
:10015000800402018040201008040201080402010A
:100160000102040810204080010204081020408091
:1001700005050505070508080808020202020A0A23
:100180000808040404040101010101010101030341
:10019000030303030303040707070C0C0C0C0C0CEC
:1001A0000C0C0202020206060606060606060B0BE9
:1001B0000B0B0B0B0B0B00002200250028002B0063
:1001C0002E003100340002010000050108010B017E
:1001D00000002100240027002A002D0030003300F9
:1001E00001010000040107010A016E09A40D4F2559
:1001F000DB256726F32611241FBECFEFD1E2DEBF39
:10020000CDBF00E00CBF14E0A0E0B2E0E0EFF3E50A
:1002100000E00BBF02C007900D92AA36B107D9F7D4
:1002200029E0AAE6B4E001C01D92AD31B207E1F7C2
:1002300010E0CBEFD0E000E006C021970109802F4D
:10024000FE010E947829C53FD10780E00807A9F781
:100250000E940D1D0C94F629D3CE8823E1F0823044
:1002600061F0833089F08130B1F440E855E260E01C
:1002700070E081E090E00C947F1C40E855E260E083
:1002800070E082E090E0F7CF40E855E260E070E097
:1002900083E090E0F0CF08954F925F926F927F924B
:1002A0008F929F92AF92BF92CF92EF92FF920F9355
:1002B0001F93CF93DF93CDB7DEB72B013A01F02E1A
:1002C000B40130E02830310511F424E030E00AE0D8
:1002D00010E0CC2061F091E000E110E0C91639F0A7
:1002E000E2E008E010E0CE1611F002E010E081300C
:1002F00009F4E8C0B0F0823009F4C5C1833009F4D4
:10030000A3C2DF91CF911F910F91FF90EF90CF90FB
:10031000BF90AF909F908F907F906F905F904F9025
:100320000895F1101BC0269DA001279D500D369DFC
:10033000500D1124B2018AE995E0DF91CF911F9110
:100340000F91FF90EF90CF90BF90AF909F908F90C4
:100350007F906F905F904F900C9420278AE995E0F2
:100360000E945C27E11014C0640C751C64147504B1
:1003700041F2F20161912F01F1E0A8018AE995E0D3
:10038000FF1203C00E942E28F1CF0E943428EECF26
:1003900081E0E81215C091E0691A710808F4B1CF44
:1003A000F201619171912F01F1E0A8018AE995E0D4
:1003B000FF1203C00E944428EECF0E944928EBCFD1
:1003C00082E0E81217C091E0691A710808F499CF29
:1003D000F20141915191619171912F01F1E09801E8
:1003E0008AE995E0FF1203C00E942228ECCF0E9408
:1003F0005928E9CF83E0E81218C0640C751C641416
:10040000750409F47ECFF20161912F01062E000CD4
:10041000770BF1E0A8018AE995E0FF1203C00E9482
:10042000FC27EDCF0E940228EACF84E0E81215C035
:1004300091E0691A710808F464CFF2016191719139
:100440002F01F1E0A8018AE995E0FF1203C00E94A4
:10045000FC27EECF0E940228EBCF85E0E81217C000
:1004600091E0691A710808F44CCFF2014191519161
:10047000619171912F01F1E098018AE995E0FF12F5
:1004800003C00E94B727ECCF0E941228E9CF86E074
:10049000E81237CFB12C91E0691A710808F431CF16
:1004A000F20141915191619171912F01F1E095011A
:1004B0008AE995E0FF1203C00E944529ECCF0E9413
:1004C0004629E9CFF1100BC0269DA001279D500DB4
:1004D000369D500D1124B20187E396E02ECF87E3BD
:1004E00096E00E945C27E11015C0640C751C461450
:1004F000570409F406CFF20161912F01F1E0A80140
:1005000087E396E0FF1203C00E942E28F0CF0E94DE
:100510003428EDCF81E0E81215C091E0691A710826
:1005200008F4EFCEF201619171912F01F1E0A80181
:1005300087E396E0FF1203C00E944428EECF0E949A
:100540004928EBCF82E0E81217C091E0691A7108E0
:1005500008F4D7CEF20141915191619171912F012F
:10056000F1E0980187E396E0FF1203C00E94222881
:10057000ECCF0E945928E9CF83E0E81218C0640C40
:10058000751C6414750409F4BCCEF20161912F014D
:10059000062E000C770BF1E0A80187E396E0FF122E
:1005A00003C00E94FC27EDCF0E940228EACF84E01E
:1005B000E81215C091E0691A710808F4A2CEF201A0
:1005C000619171912F01F1E0A80187E396E0FF129C
:1005D00003C00E94FC27EECF0E940228EBCF85E0EB
:1005E000E81217C091E0691A710808F48ACEF20186
:1005F00041915191619171912F01F1E0980187E34F
:1006000096E0FF1203C00E94B727ECCF0E94122889
:10061000E9CF86E0E81275CEB12C91E0691A710835
:1006200008F46FCEF20141915191619171912F01C6
:10063000F1E0FF1214C0C11006C0950187E396E0F7
:100640000E944529EACFCB01BA010E94AD1DAB0142
:10065000BC01980187E396E00E94B727DECFC11066
:1006600006C0950187E396E00E944629D6CFCB01CC
:10067000BA010E94AD1DAB01BC01980187E396E071
:100680000E941228CACFF1100BC0269DA001279D01
:10069000500D369D500D1124B20184ED96E04DCEE3
:1006A00084ED96E00E945C27E11015C0640C751C77
:1006B0004614570409F425CEF20161912F01F1E0AF
:1006C000A80184ED96E0FF1203C00E942E28F0CF0F
:1006D0000E943428EDCF81E0E81215C091E0691A3C
:1006E000710808F40ECEF201619171912F01F1E0D1
:1006F000A80184ED96E0FF1203C00E944428EECFCB
:100700000E944928EBCF82E0E81217C091E0691AF5
:10071000710808F4F6CDF201419151916191719106
:100720002F01F1E0980184ED96E0FF1203C00E94D2
:100730002228ECCF0E945928E9CF83E0E81218C0A4
:10074000640C751C6414750409F4DBCDF20161912D
:100750002F01062E000C770BF1E0A80184ED96E046
:10076000FF1203C00E94FC27EDCF0E940228EACFAF
:1007700084E0E81215C091E0691A710808F4C1CD4F
:10078000F201619171912F01F1E0A80184ED96E0F1
:10079000FF1203C00E94FC27EECF0E940228EBCF7D
:1007A00085E0E81217C091E0691A710808F4A9CD34
:1007B000F20141915191619171912F01F1E0980104
:1007C00084ED96E0FF1203C00E94B727ECCF0E9491
:1007D0001228E9CF86E0E81294CDB12C91E0691A95
:1007E000710808F48ECDF20141915191619171919E
:1007F0002F01F1E0FF1214C0C11006C0950184ED75
:1008000096E00E944529EACFCB01BA010E94AD1DB6
:10081000AB01BC01980184ED96E00E94B727DECFC2
:10082000C11006C0950184ED96E00E944629D6CFFE
:10083000CB01BA010E94AD1DAB01BC01980184ED52
:1008400096E00E941228CACFF1100BC0269DA0018D
:10085000279D500D369D500D1124B20181E797E080
:100860006CCD81E797E00E945C27E11015C0640C15
:10087000751C6414750409F444CDF20161912F01D3
:10088000F1E0A80181E797E0FF1203C00E942E2843
:10089000F0CF0E943428EDCF81E0E81215C091E03E
:1008A000691A710808F42DCDF201619171912F013F
:1008B000F1E0A80181E797E0FF1203C00E944428FD
:1008C000EECF0E944928EBCF82E0E81217C091E0FA
:1008D000691A710808F415CDF201419151916191A5
:1008E00071912F01F1E0980181E797E0FF1203C0B9
:1008F0000E942228ECCF0E945928E9CF83E0E81219
:1009000018C0640C751C6414750409F4FACCF20167
:1009100061912F01062E000C770BF1E0A80181E711
:1009200097E0FF1203C00E94FC27EDCF0E9402282F
:10093000EACF84E0E81215C091E0691A710808F462
:10094000E0CCF201619171912F01F1E0A80181E702
:1009500097E0FF1203C00E94FC27EECF0E940228FE
:10096000EBCF85E0E81217C091E0691A710808F42E
:10097000C8CCF20141915191619171912F01F1E047
:10098000980181E797E0FF1203C00E94B727ECCFE0
:100990000E941228E9CF86E0E812B3CCB12C91E096
:1009A000691A710808F4ADCCF2014191519161913D
:1009B00071912F01F1E0FF1214C0C11006C0950122
:1009C00081E797E00E944529EACFCB01BA010E9456
:1009D000AD1DAB01BC01980181E797E00E94B727EC
:1009E000DECFC11006C0950181E797E00E9446293D
:1009F000D6CFCB01BA010E94AD1DAB01BC0198015D
:100A000081E797E00E941228CACF9CB1892F80729B
:100A100094FF16C0811116C080916E0490916F04EE
:100A2000A0917004B09171040196A11DB11D809335
:100A30006E0490936F04A0937004B09371040895B2
:100A40008111EACF80916E0490916F04A09170049F
:100A5000B09171040197A109B109E9CF99B1892F2A
:100A6000847093FF16C08823B1F080917C0490912C
:100A70007D04A0917E04B0917F040196A11DB11D5B
:100A800080937C0490937D04A0937E04B0937F04B4
:100A90000895882351F380917C0490917D04A09166
:100AA0007E04B0917F040197A109B109E9CF8CB10F
:100AB00090E09C01220F232F221F330B86FF16C0CC
:100AC00080918A0490918B04A0918C04B0918D0444
:100AD000232BB9F40196A11DB11D80938A04909334
:100AE0008B04A0938C04B0938D04089580918A04A4
:100AF00090918B04A0918C04B0918D04213031052C
:100B000049F30197A109B109E8CF9CB1892F807100
:100B100095FF16C08823B1F080916E0490916F0408
:100B2000A0917004B09171040196A11DB11D809334
:100B30006E0490936F04A0937004B09371040895B1
:100B4000882351F380916E0490916F04A0917004FA
:100B5000B09171040197A109B109E9CF99B1892F29
:100B6000887092FF16C0811116C080917C0490910C
:100B70007D04A0917E04B0917F040196A11DB11D5A
:100B800080937C0490937D04A0937E04B0937F04B3
:100B900008958111EACF80917C0490917D04A09109
:100BA0007E04B0917F040197A109B109E9CF8CB10E
:100BB00090E086FB222720F930E0880F892F881FDC
:100BC000990B0197B1F480918A0490918B04A091C4
:100BD0008C04B0918D04232BB1F00196A11DB11DA1
:100BE00080938A0490938B04A0938C04B0938D041B
:100BF000089580918A0490918B04A0918C04B09107
:100C00008D04232B51F30197A109B109E9CF1F925C
:100C10000F920FB60F9211242F933F934F935F9330
:100C20008F939F93AF93BF9383B121E030E0982FD0
:100C3000907285FD02C030E020E080744091AE04E7
:100C40005091AF044217530709F062C021E030E031
:100C5000811102C030E020E03093AD042093AC0459
:100C6000882309F1911121C08091A6049091A704D5
:100C7000A091A804B091A9040196A11DB11D809373
:100C8000A6049093A704A093A804B093A90480910C
:100C9000A6049091A704A091A804B091A90401967C
:100CA000A11DB11D20C09111DFCF8091A6049091AC
:100CB000A704A091A804B091A9040197A109B109C2
:100CC0008093A6049093A704A093A804B093A904CA
:100CD0008091A6049091A704A091A804B091A904C2
:100CE0000197A109B1098093A6049093A704A0934A
:100CF000A804B093A904BF91AF919F918F915F9188
:100D00004F913F912F910F900FBE0F901F9018950C
:100D10003093AF042093AE04992371F0882371F0CF
:100D20008091A6049091A704A091A804B091A90471
:100D30000196A11DB11DC4CF882391F38091A60413
:100D40009091A704A091A804B091A9040197A109CA
:100D5000B10995CF1F920F920FB60F9211248F9366
:100D60009F93AF93BF93809106018170909103018F
:100D700090FF1EC081111EC080919804909199042B
:100D8000A0919A04B0919B040196A11DB11D80937E
:100D9000980490939904A0939A04B0939B04BF91F4
:100DA000AF919F918F910F900FBE0F901F9018954C
:100DB0008111E2CF8091980490919904A0919A04B6
:100DC000B0919B040197A109B109E1CF1F920F9245
:100DD0000FB60F9211248F939F93AF93BF9380917F
:100DE000030181709091060190FF1EC08823F1F0ED
:100DF0008091980490919904A0919A04B0919B04D9
:100E00000196A11DB11D8093980490939904A0931D
:100E10009A04B0939B04BF91AF919F918F910F90D3
:100E20000FBE0F901F901895882311F3809198049E
:100E300090919904A0919A04B0919B040197A10903
:100E4000B109E1CF0F931F93CF93DF938C018EE015
:100E5000809FE001819FD00D1124C659DB4F79831B
:100E600068835B834A838881998160E00E945D2367
:100E70008A819B8160E00E945D238881998161E085
:100E80000E9499238A819B8161E00E94992302300C
:100E9000110509F487C064F40115110501F1013051
:100EA000110509F450C0DF91CF911F910F91089562
:100EB0000330110509F4A5C004301105A1F7809194
:100EC000680081608093680080916B0080628093ED
:100ED0006B0080916B00806480936B00E4CF809105
:100EE0006A0490916B0402978431910530F58F5D0F
:100EF0009B4FFC018081082E000C990B41E050E0D3
:100F000065E075E00E94991F80916C0490916D04DA
:100F1000029784319105A0F48F5D9B4FFC01808185
:100F2000082E000C990B41E050E065E875E0DF9178
:100F3000CF911F910F910C94991F8FEF9FEFDECFF0
:100F40008FEF9FEFF0CF8091780490917904029712
:100F50008431910508F58F5D9B4FFC018081082E3F
:100F6000000C990B41E050E06EEA75E00E94991F79
:100F700080917A0490917B0402978431910578F4F2
:100F80008F5D9B4FFC018081082E000C990B41E086
:100F900050E06EE275E0CBCF8FEF9FEFE3CF8FEFA6
:100FA0009FEFF5CF8091860490918704029784315A
:100FB000910508F58F5D9B4FFC018081082E000C88
:100FC000990B41E050E067E575E00E94991F809120
:100FD00088049091890402978431910578F48F5D9B
:100FE0009B4FFC018081082E000C990B41E050E0E2
:100FF00067ED75E09CCF8FEF9FEFE3CF8FEF9FEF13
:10100000F5CF8091680084608093680080916800CB
:1010100082608093680080916D00816080936D0094
:1010200080916C00826080936C003DCF2EE0269F03
:10103000F001279FF00D1124E659FB4F6481758163
:1010400086819781089590E080E008958091E4047E
:101050009091E504891B990B08959091E504809186
:10106000E4042FEF3FEF981748F4E92FF0E0EA513E
:10107000FB4F208130E09F5F9093E504C901089504
:10108000E091E5048091E404E81730F4F0E0EA51DF
:10109000FB4F808190E008958FEF9FEF08950895B2
:1010A000CF93DF93EC01E091BC04F091BD04309745
:1010B000F1F09091E5048091E4049817C0F090E07D
:1010C000292F30E02617370754F4DE01A20FB31F93
:1010D0004C912A513B4FD9014C939F5FF1CF109215
:1010E000E5046093E404CB01DF91CF911994DF9183
:1010F000CF910895E091BE04F091BF04309729F09C
:101100001092C2041092C10419940895CF93DF93F2
:101110001F92CDB7DEB769832091C0042223F9F076
:101120002091C104203258F021E030E0FC013383EB
:10113000228390E080E00F90DF91CF91089580911D
:10114000C204E82FF0E0ED53FB4F998190838F5F4D
:101150008093C2048093C10481E090E0ECCF61E011
:10116000CE01019689D1F8CFCF92DF92EF92FF9214
:101170000F931F93CF93DF937C01CB018A012091C2
:10118000C004222389F0EB016B01C40ED51ECC15DF
:10119000DD0561F06991D701ED91FC910190F0813D
:1011A000E02DC7011995F3CF642F66D1C801DF91F7
:1011B000CF911F910F91FF90EF90DF90CF90089506
:1011C0001092E5041092E4041092C2041092C1043B
:1011D00096D08AE798E07CD180E598E074C181E000
:1011E0008093C0046093E3041092C2041092C1047F
:1011F00008950F93062F21E04091C10463EC74E041
:101200008091E304E2D01092C2041092C1041092C3
:10121000C0040F9108954F925F926F927F92AF92A8
:10122000BF92CF92EF92FF920F931F93CF93DF93D2
:101230005C01F62ED42F28013901EE2009F1CFDF11
:10124000CE2DC43008F0C3E0C150B8F028E0C29FF2
:10125000C0011124A301920104C05695479537950A
:1012600027958A95D2F7B901D501ED91FC910190AE
:10127000F081E02DC5011995E7CF60E0C501B9DF28
:101280004D2FD13208F040E22C2D66EE74E08F2D08
:1012900054D01092E5048093E404DF91CF911F9124
:1012A0000F91FF90EF90CF90BF90AF907F906F9095
:1012B0005F904F900895CF92EF920F931F93C22E9D
:1012C000E12C00E010E09801A6DF1F910F91EF9054
:1012D000CF90089521E0EFCF61E08BCFE0EBF4E019
:1012E0001382128288EE93E0A0E0B0E084839583BD
:1012F000A683B78389E394E0918380830895109255
:10130000730581E0809371051092700561E084E1BE
:101310000E94992361E085E10E949923E9EBF0E0C6
:1013200080818E7F808380818D7F808388E480931D
:10133000B80085E48093BC000895413208F043C0B2
:10134000909173059111FCCF91E0909373052093D8
:1013500071052FEF2093060510924B05240F209363
:101360004A059093720590917205880F892B80939E
:10137000720580917005813009F510927005809199
:1013800072058093BB008091BC0083FDF8CF85EC93
:101390008093BC00809173058130E1F380914B050F
:1013A000841710F440914B05ACE4B5E0962FFB0197
:1013B0008E2F891B841720F0842F089585EEE8CFA7
:1013C0008D918193F5CF40E0F7CF0F93413208F034
:1013D0004BC0909173059111FCCF92E090937305EF
:1013E000009371059FEF9093060510924B05409373
:1013F0004A05362FACE4B5E0FB019E2F931B9417F2
:1014000070F11092720590917205880F892B80936C
:10141000720580917005813029F5109270058091D8
:1014200072058093BB008091BC0083FDF8CF85ECF2
:101430008093BC00222321F0809173058230D1F388
:10144000809106058F3F91F080910605803281F0F2
:1014500080910605803371F084E00F910895919199
:101460009D93CBCF85EEE4CF81E0F7CF80E0F5CF41
:1014700082E0F3CF83E0F1CF20912805260F3327B8
:10148000331F21323105ECF420917305FC0190E00B
:1014900080E0243069F082E00895A0912805219130
:1014A000AC01465D5A4FA40FB52FB11D2C93019688
:1014B000861798F380912805680F6093280580E0CF
:1014C000089581E0089590936D0580936C050895CB
:1014D00090936F0580936E05089585ED8093BC0011
:1014E0008091BC0084FDFCCF10927305089585ECBB
:1014F0008093BC001092730508951F920F920FB64F
:101500000F9211240BB60F922F933F934F935F933B
:101510006F937F938F939F93AF93BF93EF93FF93BB
:101520008091B900887F803609F44CC008F03FC034
:10153000883209F4A8C028F5803109F49CC0C8F4A9
:10154000882309F4F8C0883009F495C0FF91EF9121
:10155000BF91AF919F918F917F916F915F914F91CB
:101560003F912F910F900BBE0F900FBE0F901F90C9
:101570001895883109F487C0803241F780930605B9
:1015800014C0803409F49CC040F48033B9F388332C
:10159000E9F680930605ABDFD9CF803509F484C026
:1015A000883509F495C0883489F697DFCFCF88391C
:1015B00009F48CC038F5883729F050F4883611F0DA
:1015C000803721F683E0809373051092070557C09A
:1015D000883809F47BC0803919F0803809F0B6CF1B
:1015E00080910705803208F071C0E091070581E025
:1015F0008E0F809307058091BB00F0E0E85FFA4F03
:1016000080833DC0803B39F0E0F4803A09F479C032
:10161000883A09F09BCF84E08093730510922905E6
:1016200010922805E0916E05F0916F051995809153
:10163000280581110FC081E08093280510922A05AA
:1016400009C0803C09F475C0883C09F472C0883B2D
:1016500009F07CCFE091290581E08E0F8093290568
:10166000F0E0E65DFA4F80818093BB009091290500
:101670008091280529C0809172058093BB0085EC7C
:101680008093BC0063CF90914B0580914A059817D9
:1016900058F5E0914B0581E08E0F80934B05F0E00B
:1016A000E45BFA4F8081E9CFE0914B0581E08E0F3A
:1016B00080934B058091BB00F0E0E45BFA4F8083A0
:1016C00090914B0580914A059817C8F285E8D8CFCC
:1016D000E0914B0581E08E0F80934B058091BB001C
:1016E000F0E0E45BFA4F80838091710581115DCF5A
:1016F00081E08093700584EA8093BC0010927305AA
:1017000025CFF5DE80910705803230F4E0910705A2
:10171000F0E0E85FFA4F10826091070570E0E09119
:101720006C05F0916D0588E095E01995109207051C
:101730000DCF85ECE1CF1092060537CFFF920F93C6
:101740001F93CF93DF93C62F042FF22E132F682FF2
:1017500080EB94E044DD6C2F80EB94E0D7DCCF2D60
:10176000D12F0C0F1D2F111DC017D10729F0699122
:1017700080EB94E0CBDCF8CF80EB94E0ADDD91E042
:10178000811190E0892FDF91CF911F910F91FF90F0
:101790000895CF93DF931F92CDB7DEB749839E01A3
:1017A0002F5F3F4F41E0CADF0F90DF91CF91089547
:1017B0002F923F924F925F926F927F928F929F9261
:1017C000AF92BF92CF92DF92EF92FF920F931F934F
:1017D000CF93DF9300D0CDB7DEB7E82E69834B837C
:1017E00069010E94B5214B015C01F12C1A822B8109
:1017F000222E312C2801712C612C8B81F81608F0D7
:1018000044C06E2D80EB94E0EADC698180EB94E0CB
:101810007DDC80EB94E060DD6E2D80EB94E0DFDC1E
:10182000A1014F1951094132510514F040E250E035
:101830006E2D80EB94E04EDD80EB94E007DC892B8D
:10184000D9F00115110569F480EB94E006DCF6018E
:101850009A81E90FF11D97FDFA9580839F5F9A8326
:10186000EBCF0E94B521681979098A099B09641593
:1018700075058605970540F380EB94E02DDD8B819F
:10188000813208F080E2F80EB8CF01151105C1F0E1
:101890000E94B521681979098A099B0930E020E086
:1018A000601771078207930758F02A81822F220F51
:1018B000990B2B812817190619F014F08FEF8A83E2
:1018C0008A810F900F900F90DF91CF911F910F9110
:1018D000FF90EF90DF90CF90BF90AF909F908F9050
:1018E0007F906F905F904F903F902F9008950F934F
:1018F0001F9389019A0141E05BDF1F910F910895C9
:10190000EF92FF920F931F93CF93DF931F92CDB768
:10191000DEB7182F062FE42EF22E20910002309110
:101920000102AE014F5F5F4FE2DF81E090E001C056
:10193000880FEA94EAF74981FF2069F0482B498330
:10194000602F812F26DF0F90DF91CF911F910F9194
:10195000FF90EF90089580954823F1CFDF92EF92AA
:10196000FF920F931F93CF93DF931F92CDB7DEB7F4
:10197000F82EE62E142FD22E209100023091010273
:10198000AE014F5F5F4FB3DF882351F1812F8D1977
:10199000990BAC014F5F5F4F81E090E002C0880F70
:1019A000991FDA94E2F70197042E01C0880F0A9478
:1019B000EAF701C0000F4A95EAF7482F4095998150
:1019C00049238023482B49836E2D8F2DE2DE0F9013
:1019D000DF91CF911F910F91FF90EF90DF900895CD
:1019E00080E0F5CF28E6FC01208308950F93062FB1
:1019F00023E042E06AE1FC018081B0DF0F910895AD
:101A00000F93062F22E044E06BE1FC018081A6DF0A
:101A10000F9108950F93062F22E044E06CE1FC0142
:101A200080819CDF0F9108950F931F93CF93DF93D5
:101A3000EC0100910002109101029C012F5F3F4FC9
:101A400042E063E48881B4DE89819A8198278927FE
:101A50009827DF91CF911F910F9108950F931F93B6
:101A6000CF93DF93EC0100910002109101029C01E1
:101A70002F5F3F4F42E065E488819ADE89819A8139
:101A8000982789279827DF91CF911F910F9108956B
:101A90000F931F93CF93DF93EC01009100021091FD
:101AA00001029C012F5F3F4F42E067E4888180DEA6
:101AB00089819A81982789279827DF91CF911F9153
:101AC0000F910895262F46E06BE6FC01808118CF28
:101AD0000F93062F23E042E06BE6FC0180813EDF9E
:101AE0000F910895CF93DF93EC0161E0F1DF60E0A7
:101AF000CE0186DF60E0CE018DDF60E0CE01DF91B8
:101B0000CF91E0CFCF93C82F80EB94E059DB6C2FBF
:101B100084E795E06BDF84E795E0CF91E3CFCF9347
:101B2000DF93EC0184E795E07FDF9983888384E786
:101B300095E094DF9B838A8384E795E0A9DF9D830A
:101B40008C83DF91CF91089584E795E04BCF6111AD
:101B500002C00C945D236130E1F362E0FACF6623AA
:101B600019F061E00C94992360E0FCCF0895CF92C6
:101B7000DF92EF92FF92CF93882351F16A017B01AC
:101B8000CFEFC80F20E030E0A901CB01B6010E94E1
:101B9000A91D87FF11C0C701B60190580E94B21D50
:101BA0009B01AC016C2F70E090E080E0CF91FF9042
:101BB000EF90DF90CF90B2C0C701B6010E94AD1D7B
:101BC0008C2FCF91FF90EF90DF90CF900C94232239
:101BD000CF91FF90EF90DF90CF9008950F931F93D8
:101BE0008B019C0183E036952795179507958A957B
:101BF000D1F70D571A4F462F477021E030E0F90119
:101C000002C0EE0FFF1F4A95E2F7AF01F8012081F5
:101C10002423CB010196211102C090E080E01F91A6
:101C20000F9108950F931F938B019C0183E03695CC
:101C30002795179507958A95D1F7677081E090E011
:101C400001C0880F6A95EAF7F801ED57FA4F208135
:101C5000452B31F48095822380831F910F91089545
:101C6000822BFACF2F923F924F925F926F927F9288
:101C70008F929F92AF92BF92CF92DF92EF92FF929C
:101C80000F931F93CF93DF93D62EC72E782E692EF6
:101C900049015A01280161E08D2D0E945D23CD2D5F
:101CA000DC2D8E010F5F1F4FA8016D2D7C2D872D20
:101CB000962DB8DF20E030E0A901C201B7010E94F3
:101CC000311F181664F4C201B7010E94B21D2B0126
:101CD000C501B4010E94B21DA201CE0123D0C801EA
:101CE000DF91CF911F910F91FF90EF90DF90CF90F8
:101CF000BF90AF909F908F907F906F905F904F902C
:101D00003F902F900895882341F08150682F70E014
:101D100090E080E050E040E085CF0895862FB90143
:101D20000C9423229C01FC01EC51FF4FE491E15003
:101D3000E231E0F4F0E08827EF55F14F8F4F0C943B
:101D40007829B30EBA0EBD0ED40EE90EB60EFE0EF5
:101D50000A0F0E0F250F3A0F4F0F660F7B0FB60EAF
:101D6000900FA70FBC0F84B5806884BD60E0822F00
:101D70000C94992384B58062F8CF809180008C7F89
:101D800082608093800080918100807E8061682BDA
:101D9000609381005093870040938600809180007B
:101DA000806880938000E2CF809180008C7F826089
:101DB0008093800080918100807E8061682B609399
:101DC000810050938700409386008091800080625C
:101DD000E8CF809180008C7F82608093800080912A
:101DE0008100807E8061682B609381005093870022
:101DF00040938600809180008860D3CF8091B000AE
:101E000080688093B0008091B100887F682B6093D8
:101E1000B100ACCF8091B0008062F3CF8091900090
:101E20008C7F82608093900080919100807E8061A1
:101E3000682B609391005093970040939600809197
:101E4000900080688093900091CF809190008C7F6B
:101E500082608093900080919100807E8061682BE9
:101E6000609391005093970040939600809190006A
:101E70008062E8CF809190008C7F82608093900098
:101E800080919100807E8061682B609391005093D7
:101E9000970040939600809190008860D3CF809106
:101EA000A0008C7F82608093A0008091A100807E42
:101EB0008061682B6093A1005093A7004093A60017
:101EC0008091A00080688093A00050CF8091A000F6
:101ED0008C7F82608093A0008091A100807E8061D1
:101EE000682B6093A1005093A7004093A6008091B7
:101EF000A0008062E8CF8091A0008C7F82608093F8
:101F0000A0008091A100807E8061682B6093A10079
:101F10005093A7004093A6008091A0008860D3CF83
:101F2000809120018C7F826080932001809121012B
:101F3000807E8061682B609321015093270140933C
:101F40002601809120018068809320010FCF80912D
:101F500020018C7F82608093200180912101807E0E
:101F60008061682B609321015093270140932601E3
:101F7000809120018062E8CF809120018C7F826077
:101F80008093200180912101807E8061682B609385
:101F90002101509327014093260180912001886000
:101FA000D3CF2F923F924F925F926F927F928F92F8
:101FB0009F92AF92BF92CF92DF92EF92FF920F93D8
:101FC0001F93CF93DF93CDB7DEB7E2970FB6F894A8
:101FD000DEBF0FBECDBF61E070E080E090E026D8AC
:101FE0006093FF08709300098093010990930209A0
:101FF0000E94E01D209152033091530340915403FD
:10200000509155030E94351F20913A0330913B03B4
:1020100040913C0350913D030E94351F6B017C01B0
:10202000C092DF08D092E008E092E108F092E20866
:102030002091560330915703409158035091590312
:102040000E94351F6D8F7E8F8F8F98A36093EB0852
:102050007093EC088093ED089093EE08209172083D
:1020600030917308409174085091750829833A8320
:102070004B835C832091620330916303409164033E
:102080005091650369817A818B819C810E94351F03
:1020900069A37AA38BA39CA36093E7087093E808D5
:1020A0008093E9089093EA0820917A0830917B08A0
:1020B00040917C0850917D0860916A0370916B0398
:1020C00080916C0390916D030E94351F20E030E0F9
:1020D000A9010E94451D20E030E0A9010E94451D94
:1020E00020E030E0A9010E94451D69877A878B872F
:1020F0009C8720917E0830917F0840918008509104
:102100008108609186037091870380918803909184
:1021100089030E94351F20E030E0A9010E94451D7F
:1021200020E030E0A9010E94451D20E030E0A90137
:102130000E94451D6D837E838F8398876093E3089B
:102140007093E4088093E5089093E6082091820854
:102150003091830840918408509185086091A203D2
:102160007091A3038091A4039091A5030E94351F51
:1021700020E030E0A9010E94451D20E030E0A901E7
:102180000E94451D698B7D8B898F9D8720918608D4
:102190003091870840918808509189086091BE036A
:1021A0007091BF038091C0039091C1030E94351FBD
:1021B00029853A854B855C852093EF083093F0089C
:1021C0004093F1085093F20809891D89298D3D85B6
:1021D0000093F3081093F4082093F5083093F60861
:1021E00020E030E0A9010E94451D1B012C01209236
:1021F000F7083092F8084092F9085092FA082091B6
:102200008A0830918B0840918C0850918D0860911C
:10221000CA037091CB038091CC039091CD030E94AF
:10222000351F20E030E0A9010E94451D6DA37EA36B
:102230008FA398A72091EA023091EB024091EC0223
:102240005091ED02C701B6010E94351F4B015C01A0
:1022500020E030E0A9016DA17EA18FA198A50E9488
:10226000451D9B01AC01C501B4010E94451D6DA334
:102270007EA38FA398A720918E0830918F0840915C
:102280009008509191086091E2037091E30380916E
:10229000E4039091E5030E94351F20E030E0A9019E
:1022A0000E94451D20E030E0A9010E94451D4B0120
:1022B0005C012091EE023091EF024091F0025091CA
:1022C000F102C701B6010E94351F9B01AC01C50197
:1022D000B4010E94451D69A77AA78BA79CA72091EE
:1022E000920830919308409194085091950860911C
:1022F000FA037091FB038091FC039091FD030E940F
:10230000351F20E030E0A9010E94451D4B015C0112
:102310002091F2023091F3024091F4025091F502C3
:10232000C701B6010E94351F9B01AC01C501B40174
:102330000E94451D6DA77EA78FA798AB26EF622E42
:1023400022E0722E06E918E07AAA69AA34E0630E48
:10235000711CA9A9BAA990962D913D914D915C91BE
:10236000939769A57AA58BA59CA50E94351F4B0163
:102370005C01E9A9FAA920893189428953896DA1B3
:102380007EA18FA198A50E94351F9B01AC01C501BC
:10239000B4010E94451D4B015C01A9A9BAA9D096C0
:1023A0002D913D914D915C91D3976DA57EA58FA503
:1023B00098A90E94351F9B01AC01C501B4010E9480
:1023C000451D4B015C01E9A9FAA9208131814281B7
:1023D0005381C701B6010E94351F9B01AC01C501A5
:1023E000B4010E94451DD8016D937D938D939D93FB
:1023F0008D01E6EAF8E0EA17FB0709F0A5CF809126
:102400000F04813009F01AC7C092FB08D092FC0873
:10241000E092FD08F092FE0820916E0830916F085E
:1024200040917008509171086D8D7E8D8F8D98A1AF
:102430000E94441D6D837E838F8398872091760848
:1024400030917708409178085091790869A17AA174
:102450008BA19CA10E94441D1B012C01C980DA8024
:10246000EB80FC802091FB083091FC084091FD0836
:102470005091FE0860917202709173028091740213
:10248000909175020E94351F4B015C0120917602EC
:102490003091770240917802509179026D817E816E
:1024A0008F8198850E94351F9B01AC01C501B40145
:1024B0000E94451D4B015C0120917A0230917B0204
:1024C00040917C0250917D02B601C7010E94351FE8
:1024D0009B01AC01C501B4010E94451D6B017C014B
:1024E00020917E0230917F024091800250918102C2
:1024F000C201B1010E94351F9B01AC01C701B601A9
:102500000E94451D6B017C0169817A818B819C81D0
:102510009F7720E030E040E45FE30E94A91D87FF41
:10252000CFC660E070E080E89FE3A70196010E94BB
:10253000351F6983372E282E9D8320E030E040E24E
:1025400051E40E94451D2DEC3CEC4CE455E40E9406
:10255000351F0E941B1E6093FB087093FC0880933C
:10256000FD089093FE080E94581C882309F4ACC60D
:102570001092FB081092FC081092FD081092FE08C1
:10258000C090FB08D090FC08E090FD08F090FE0899
:1025900020E030E0A901C701B6010E94A91D87FF14
:1025A000B4C6C701B60190580E94B21D71956195DD
:1025B00071097093B7086093B80820E030E040E2FA
:1025C00051E46091DF087091E0088091E1089091FA
:1025D000E2080E94451D2DEC3CEC4CE455E40E94C1
:1025E000351F0E941B1E6093FB087093FC088093AC
:1025F000FD089093FE080E94581C882309F489C6A0
:102600001092FB081092FC081092FD081092FE0830
:10261000C090FB08D090FC08E090FD08F090FE0808
:1026200020E030E0A901C701B6010E94A91D87FF83
:1026300091C6C701B60190580E94B21D719561956F
:1026400071097093B9086093BA0820E030E040E265
:1026500051E46091720870917308809174089091B0
:1026600075080E94451D2DEC3CEC4CE455E40E949D
:10267000351F0E941B1E6093FB087093FC0880931B
:10268000FD089093FE080E94581C882309F466C632
:102690001092FB081092FC081092FD081092FE08A0
:1026A000C090FB08D090FC08E090FD08F090FE0878
:1026B00020E030E0A901C701B6010E94A91D87FFF3
:1026C0006EC6C701B60190580E94B21D7195619502
:1026D00071097093BB086093BC0820E030E040E2D1
:1026E00051E469857A858B859C850E94451D2DEC7A
:1026F0003CEC4CE455E40E94351F0E941B1E609385
:10270000FB087093FC088093FD089093FE080E94DC
:10271000581C882309F447C61092FB081092FC0845
:102720001092FD081092FE08C090FB08D090FC08A3
:10273000E090FD08F090FE0820E030E0A901C7011C
:10274000B6010E94A91D87FF4FC6C701B601905868
:102750000E94B21D7195619571097093BD086093D7
:10276000BE0820E030E040E251E469897D89898D2E
:102770009D850E94451D2DEC3CEC4CE455E40E94E7
:10278000351F0E941B1E6093FB087093FC0880930A
:10279000FD089093FE080E94581C882309F428C65F
:1027A0001092FB081092FC081092FD081092FE088F
:1027B000C090FB08D090FC08E090FD08F090FE0867
:1027C00020E030E0A901C701B6010E94A91D87FFE2
:1027D00030C6C701B60190580E94B21D719561952F
:1027E00071097093BF086093C00820E030E040E2B8
:1027F00051E46091960870919708809198089091A3
:1028000099080E94451D2DEC3CEC4CE455E40E94D7
:10281000351F0E941B1E6093FB087093FC08809379
:10282000FD089093FE080E94581C882309F405C6F1
:102830001092FB081092FC081092FD081092FE08FE
:10284000C090FB08D090FC08E090FD08F090FE08D6
:1028500020E030E0A901C701B6010E94A91D87FF51
:102860000DC6C701B60190580E94B21D71956195C1
:1028700071097093C1086093C20820E030E040E223
:1028800051E460919E0870919F088091A0089091FA
:10289000A1080E94451D2DEC3CEC4CE455E40E943F
:1028A000351F0E941B1E6093FB087093FC088093E9
:1028B000FD089093FE08FCD7882309F4E3C5109225
:1028C000FB081092FC081092FD081092FE08C090C0
:1028D000FB08D090FC08E090FD08F090FE0820E096
:1028E00030E0A901C701B6010E94A91D87FFEBC511
:1028F000C701B60190580E94B21DAA27BB27A61B8C
:10290000B70BBA87A987C0904A03D0904B03E090D9
:102910004C03F0904D03A70196016091340870912B
:10292000350880913608909137080E94A91D8823A8
:1029300041F0C0923408D0923508E0923608F09207
:102940003708809110048093B608BA85B093C30805
:10295000E985E093C4086091480870914908809126
:102960004A0890914B080E94B21DC62E6091400803
:102970007091410880914208909143080E94B21DD5
:10298000E62E609144087091450880914608909128
:1029900047080E94B21D062F60913C0870913D08C7
:1029A00080913E0890913F080E94B21D6987609116
:1029B00038087091390880913A0890913B080E943C
:1029C000B21D862F912C812C92E0A92E29854FE0F3
:1029D00050E066EB78E00E944C0120917208309143
:1029E000730840917408509175082D873E874F8772
:1029F000588BC090DF08D090E008E090E108F0909C
:102A0000E20842EA52E05A8B498B85EC98E09A87BB
:102A1000898702E012E069887A88D3011496BA8B1C
:102A2000A98BF301248535854685578569A57AA547
:102A30008BA59CA50E94351F4B015C01D3012D91F4
:102A40003D914D915C916DA17EA18FA198A50E94B1
:102A5000351F9B01AC01C501B4010E94451D4B010E
:102A60005C01E989FA8924893589468957896DA5E8
:102A70007EA58FA598A90E94351F9B01AC01C501B9
:102A8000B4010E94451D4B015C01A989BA89D89601
:102A90002D913D914D915C91DB976D857E858F8564
:102AA00098890E94351F2B013C01E989FA8924A5E8
:102AB00035A546A557A5C701B6010E94351F9B0144
:102AC000AC01C301B201E1D72B013C01A989BA894C
:102AD00090962D913D914D915C9193976981732DC5
:102AE000822D9D810E94351F9B01AC01C301B20163
:102AF000CCD79B01AC01C501B401C7D7E985FA85E4
:102B00006193719381939193FA87E9872EEA32E07A
:102B100049895A892417350709F07DCF8091F70834
:102B20009091F808A091F908B091FA0889879A87DE
:102B3000AB87BC872091F3083091F4084091F508E9
:102B40005091F608298B3A8B4B8B5C8B8091E30874
:102B50009091E408A091E508B091E6088D8B9E8BDA
:102B6000AF8BB88F2091EF083091F0084091F108B9
:102B70005091F208298F3A8F4B8F5C8F20915E0223
:102B800030915F024091600250916102BC01CD0121
:102B90000E94351F4B015C01209156023091570273
:102BA0004091580250915902698D7A8D8B8D9C8D80
:102BB0000E94351F9B01AC01C501B40166D74B01D2
:102BC0005C01209166023091670240916802509149
:102BD000690269897A898B899C890E94351F9B01CA
:102BE000AC01C501B40151D74B015C0120916E02CB
:102BF00030916F02409170025091710269857A851F
:102C00008B859C850E94351F9B01AC01C501B401D9
:102C10003CD74B015C01209152023091530240910C
:102C2000540250915502698D7A8D8B8D9C8D0E9436
:102C3000351F2B013C0120915A0230915B024091DB
:102C40005C0250915D026D897E898F89988D0E940A
:102C5000351F9B01AC01C301B20117D72B013C0109
:102C600020916202309163024091640250916502AA
:102C700069897A898B899C890E94351F9B01AC01E7
:102C8000C301B20102D72B013C0120916A023091AD
:102C90006B0240916C0250916D0269857A858B853B
:102CA0009C850E94351F9B01AC01C301B201EDD68A
:102CB0009B01AC01C701B601E7D66D8F7E8F8F8F68
:102CC00098A36093D1087093D2088093D30890930F
:102CD000D408A50194016D857E858F859889D4D609
:102CE0004B015C018092D5089092D608A092D7083B
:102CF000B092D80846EA58E05AA349A382E892E085
:102D00009E878D871EA30DA30C5F1F4FADA1BEA193
:102D100050962D913D914D915C9153976D897E898F
:102D20008F89988D0E94351F6B017C01EDA1FEA15A
:102D30002081318142815381698D7A8D8B8D9C8D6B
:102D40000E94351F9B01AC01C701B6019ED66B01E5
:102D50007C01ADA1BEA190962D913D914D915C91CC
:102D6000939769897A898B899C890E94351F9B0179
:102D7000AC01C701B60189D66B017C01EDA1FEA1B2
:102D800020A931A942A953A969857A858B859C859B
:102D90000E94351F9B01AC01C701B60176D66B01BD
:102DA0007C012D853E853EA32DA3A9014C5F5F4F7D
:102DB0005E874D87D90150962D913D914D915C9143
:102DC0005397C501B4010E94351F2B013C01EDA1B1
:102DD000FEA120813181428153816D8D7E8D8F8D49
:102DE00098A10E94351F9B01AC01C301B2014DD6D1
:102DF0002B013C01D801DC962D913D914D915C91C8
:102E0000DF976981732D822D9D810E94351F9B0163
:102E1000AC01C301B20139D6A701960136D6E9A1AA
:102E2000FAA16193719381939193FAA3E9A3F2E0DC
:102E300002311F0709F066CFC092FB08D092FC0850
:102E4000E092FD08F092FE0889ED98E00E948F0D57
:102E50006091D9087091DA08072E000C880B990B45
:102E6000AFD64B015C0121E029872981332D422D0A
:102E70005D8160914E0370914F038091500390915A
:102E80005103EFD718160CF01986698588E00E9467
:102E9000AF0DF090460300914703309148033D8702
:102EA0004091490349872981332D422D5D816F2D42
:102EB000702F8D8599854DD687FD1AC0F090060438
:102EC00000910704509108045D8780910904898767
:102ED0002981332D422D5D816F2D702F8D85998530
:102EE000C0D718162CF0F980032D2D869D81998767
:102EF0006091560870915708809158089091590830
:102F00000E94EE0D909355088093540820910A0476
:102F100030910B0440910C0450910D046F2D702FD3
:102F20008D859985A2D787D66093FB087093FC089E
:102F30008093FD089093FE08BBD4882309F4C9C28E
:102F40001092FB081092FC081092FD081092FE08E7
:102F5000C090FB08D090FC08E090FD08F090FE08BF
:102F600020E030E0A901C701B601F3D587FFD2C246
:102F7000C701B6019058F6D5619570E090E080E009
:102F80001FD6AB01BC0180915408909155080E9456
:102F9000B70D8091EB089091EC08A091ED08B091ED
:102FA000EE0880936E0890936F08A0937008B0931A
:102FB00071082091360330913703409138035091C6
:102FC0003903C501B40160D5209102043091030496
:102FD000409104045091050448D720915A03309140
:102FE0005B0340915C0350915D033FD720917208D1
:102FF00030917308409174085091750846D56093DC
:103000007208709373088093740890937508809188
:10301000E7089091E808A091E908B091EA08809348
:10302000760890937708A0937808B0937908209158
:103030007A0830917B0840917C0850917D0860911E
:1030400066037091670380916803909169030DD7BF
:103050002091A6083091A7084091A8085091A9088E
:1030600014D560937A0870937B0880937C089093C2
:103070007D0820917E0830917F0840918008509112
:103080008108609182037091830380918403909101
:103090008503EBD62091AA083091AB084091AC088B
:1030A0005091AD08F2D460937E0870937F088093AE
:1030B0008008909381082091820830918308409184
:1030C00084085091850860919E0370919F038091C0
:1030D000A0039091A103C9D62091AE083091AF080A
:1030E0004091B0085091B108D0D460938208709399
:1030F00083088093840890938508209186083091F6
:10310000870840918808509189086091BA037091AE
:10311000BB038091BC039091BD03A7D62091B20858
:103120003091B3084091B4085091B508AED4609383
:103130008608709387088093880890938908209167
:103140008A0830918B0840918C0850918D086091CD
:10315000C6037091C7038091C8039091C90385D6B7
:103160002091C5083091C6084091C7085091C80801
:103170008CD460938A0870938B0880938C0890930A
:103180008D0820918E0830918F08409190085091C1
:1031900091086091DE037091DF038091E0039091CC
:1031A000E10363D62091C9083091CA084091CB0849
:1031B0005091CC086AD460938E0870938F088093E6
:1031C0009008909391082091920830919308409133
:1031D0009408509195086091F6037091F7038091DF
:1031E000F8039091F90341D62091CD083091CE0893
:1031F0004091CF085091D00848D4609392087093C2
:1032000093088093940890939508E2960FB6F894EB
:10321000DEBF0FBECDBFDF91CF911F910F91FF9009
:10322000EF90DF90CF90BF90AF909F908F907F9066
:103230006F905F904F903F902F90089580910E0473
:10324000813089F429853A854B855C852093FB087C
:103250003093FC084093FD085093FE08C988DD8830
:10326000E98CFD84FFC88091960890919708A09101
:103270009808B09199088093FB089093FC08A0935C
:10328000FD08B093FE0880919A0890919B08A09148
:103290009C08B0919D088D839E83AF83B887C090B2
:1032A0009E08D0909F08E090A008F090A108209080
:1032B000A2083090A3084090A4085090A508D2C856
:1032C00060E070E0CB0131C96091FB087091FC08AF
:1032D0008091FD089091FE08C2D2811149C9609188
:1032E000FB087091FC088091FD089091FE0820E099
:1032F00030E040E857E4B9D46093FB087093FC08D1
:103300008093FD089093FE083BC9C701B6012AD4FB
:1033100050C96091FB087091FC088091FD08909164
:10332000FE089DD281116CC96091FB087091FC0868
:103330008091FD089091FE0820E030E040E857E4DD
:1033400094D46093FB087093FC088093FD089093DD
:10335000FE085EC9C701B60105D473C96091FB08B8
:103360007091FC088091FD089091FE0878D281113F
:103370008FC96091FB087091FC088091FD089091C5
:10338000FE0820E030E040E857E46FD46093FB088B
:103390007093FC088093FD089093FE0881C9C701D3
:1033A000B601E0D396C96091FB087091FC0880914A
:1033B000FD089091FE0853D28111AEC96091FB08BF
:1033C0007091FC088091FD089091FE0820E030E0AB
:1033D00040E857E44AD46093FB087093FC0880935C
:1033E000FD089093FE08A0C9C701B601BBD3B5C9BB
:1033F0006091FB087091FC088091FD089091FE0897
:103400002ED28111CDC96091FB087091FC0880918A
:10341000FD089091FE0820E030E040E857E425D414
:103420006093FB087093FC088093FD089093FE085E
:10343000BFC9C701B60196D3D4C96091FB0870918A
:10344000FC088091FD089091FE0809D28111F0C915
:103450006091FB087091FC088091FD089091FE0836
:1034600020E030E040E857E400D46093FB0870931C
:10347000FC088093FD089093FE08E2C9C701B601DD
:1034800071D3F7C96091FB087091FC088091FD0829
:103490009091FE08E4D1811112CA6091FB087091ED
:1034A000FC088091FD089091FE0820E030E040E8A3
:1034B00057E4DBD36093FB087093FC088093FD080E
:1034C0009093FE0804CAC701B6014CD37A87698776
:1034D0001ACA6091FB087091FC088091FD089091D8
:1034E000FE08BDD181112CCD6091FB087091FC08C4
:1034F0008091FD089091FE0820E030E040E853E420
:10350000B4D36093FB087093FC088093FD089093FC
:10351000FE081ECDC701B60125D32FCD4F925F9275
:103520006F927F92AF92BF92DF92EF92FF920F93D2
:103530001F93CF93DF9384E090E05AD110928D05D2
:1035400010928C05CEE0D8E088E8FE0111928A95B1
:10355000E9F7412C512C3201439440925B08509280
:103560005C0860925D0870925E0842E150E063E1A1
:1035700070E081E090E00E942207DD24D394D09295
:103580005F08188280914A0390914B03A0914C03ED
:10359000B0914D038EA39FA3A8A7B9A749825A82D1
:1035A0006B827C821AA61BA61CA61DA680E090E05A
:1035B000A0E8BFE38EA79FA7A8ABB9AB1AAA1BAA26
:1035C0001CAA1DAA1EAA1FAA18AE19AE1AAE1BAEBF
:1035D0001CAE1DAE80E00E942D01DD8210926008BD
:1035E0004092610850926208609263087092640889
:1035F00090E080E00E94820DD092650810926608EB
:1036000040926708509268086092690870926A0850
:1036100061E088E00E94A70DD0926B0810924E08DE
:1036200096E5A92E98E0B92E86E090E0A0E0B0E003
:10363000F50180839183A283B383C3E5D8E0188228
:1036400040924F0850925008609251087092520870
:10365000E12CF12C8701A801970166E070E080E081
:1036600090E00E94320E04E518E0F8019183808317
:10367000F50160817181828193810E94EE0DF801D4
:10368000918380830E94B60DD88280913E039091F1
:103690003F03A0914003B091410380936E08909343
:1036A0006F08A0937008B093710880915E039091A9
:1036B0005F03A0916003B0916103809372089093BF
:1036C0007308A0937408B093750880914203909199
:1036D0004303A0914403B0914503809376089093EF
:1036E0007708A0937808B0937908DF91CF911F9164
:1036F0000F91FF90EF90DF90BF90AF907F906F9011
:103700005F904F90089580915A08811103C081E025
:1037100080935A0880910E08811103C081E0809344
:103720000E0880916008811103C081E080936008D9
:1037300080916608811103C081E0809366088091C2
:103740004E08811136C081E080934E0880914F0869
:1037500090915008A0915108B09152080197A1058D
:10376000B10539F580915308882319F16091560805
:103770007091570880915808909159080E94EE0D59
:10378000909355088093540840E050E0BA010E949D
:10379000B70D609156087091570880915808909124
:1037A00059080E94EE0D90935508809354080C948C
:1037B000830E089560E070E080E89FE7089560E080
:1037C00070E080E89FE7089560E070E080E89FEF98
:1037D000089560E070E080E89FEF089560E070E099
:1037E00080EC9FEF089560E070E080EC9FEF08951B
:1037F000F5DF60930F09709310098093110990937E
:103800001209F1DF6093030970930409809305099D
:1038100090930609CFDF60930B0970930C09809396
:103820000D0990930E09CBDF609307097093080987
:103830008093090990930A09C7DF60931309709375
:1038400014098093150990931609C3DF6093170933
:10385000709318098093190990931A090895CF92CB
:10386000DF92EF92FF92CF936B017C01AC019B0141
:1038700060910709709108098091090990910A09DE
:1038800068D1C1E0882369F0A7019601609117090A
:10389000709118098091190990911A095AD18111D2
:1038A000C0E08C2FCF91FF90EF90DF90CF900895E4
:1038B0000F931F938B019C010027112720783F77DE
:1038C0000115110520483F4749F4AB01BC016F7752
:1038D000772781E0452B462B472B09F480E01F9189
:1038E0000F91089540E052EC61E070E090E080E0DC
:1038F00006D061E08DE0E1D660E08DE01AC781304E
:10390000910579F01CF4892B39F0089582309105E6
:1039100061F0039771F0089526E08AE995E00C9430
:10392000902426E087E396E0FACF26E084ED96E047
:10393000F6CF26E081E797E0F2CF1F920F920FB605
:103940000F9211240BB60F922F933F934F935F93D7
:103950006F937F938F939F93AF93BF93EF93FF9357
:103960008EE19BEF909325018093240180918F0538
:1039700090919005019719F461E08DE0DAD634D08A
:10398000FF91EF91BF91AF919F918F917F916F9137
:103990005F914F913F912F910F900BBE0F900FBEF3
:1039A0000F901F9018958EE19BEF909325018093C7
:1039B0002401A3E7B0E08C918E7F8C93E0E2F1E0EC
:1039C00080818C7F8083E1E2F1E08081877E80834B
:1039D00080818360808380818B7F80838C918160F4
:1039E0008C93089581E0089580918E0591E0980F61
:1039F00090938E05882349F021E030E030939005C4
:103A000020938F0580938E05089578940E94D10F9E
:103A1000F89480918E058150F5CFCF93DF9310926B
:103A20001C0910921B09ADD45DDFC0914704D091F1
:103A300048041982188272DDF894B5DF81E028818C
:103A40003981232B09F080E080931B0978947894C6
:103A500080911B09811107C056DEF89490E080E048
:103A6000DF91CF91089581E028813981232B09F4DA
:103A700080E080931C0990911C0981E0911180E005
:103A800080931B09AFDFE4CF5058BB27AA270ED085
:103A900097C188D130F08DD120F031F49F3F11F4DF
:103AA0001EF47DC10EF4E095E7FB4AC1E92F99D1E0
:103AB00080F3BA17620773078407950718F071F44B
:103AC0009EF5C8C10EF4E0950B2EBA2FA02D0B0168
:103AD000B90190010C01CA01A0011124FF27591B53
:103AE00099F0593F50F4503E68F11A16F040A22F59
:103AF000232F342F4427585FF3CF469537952795CA
:103B0000A795F0405395C9F77EF41F16BA0B620BC8
:103B1000730B840BBAF09150A1F0FF0FBB1F661F0F
:103B2000771F881FC2F70EC0BA0F621F731F841F52
:103B300048F4879577956795B795F7959E3F08F078
:103B4000B3CF9395880F08F09927EE0F9795879537
:103B50000895D2D008F481E0089504D06894B1119A
:103B60007AC1089546D188F09F5790F0B92F9927D0
:103B7000B751A0F0D1F0660F771F881F991F1AF078
:103B8000BA95C9F712C0B13081F064D1B1E008959F
:103B900061C1672F782F8827B85F39F0B93FCCF320
:103BA000869577956795B395D9F73EF4909580956E
:103BB000709561957F4F8F4F9F4F0895E89409C08E
:103BC00097FB3EF490958095709561957F4F8F4F50
:103BD0009F4F9923A9F0F92F96E9BB279395F69566
:103BE000879577956795B795F111F8CFFAF4BB0FE4
:103BF00011F460FF1BC06F5F7F4F8F4F9F4F16C048
:103C0000882311F096E911C0772321F09EE8872FD1
:103C1000762F05C0662371F096E8862F70E060E08D
:103C20002AF09A95660F771F881FDAF7880F969506
:103C3000879597F90895F7D080F09F3740F4911158
:103C40000EF009C160E070E080E89FEB089526F473
:103C50001B16611D711D811D79C093C0A3D018F082
:103C600011F0A7D038F49BC0F6C0E92FBAD0B0F35A
:103C70005523C9F3E7FB6217730784079507A8F17B
:103C800099F3E92FFF2788232AF03197660F771FD2
:103C9000881FDAF7952F5527442332F09150504072
:103CA000220F331F441FD2F7BB27E91BF50B621B02
:103CB000730B840BB109C1F222F4620F731F841FCE
:103CC000B11D31972AF0660F771F881FBB1FEFCFFA
:103CD000915050405AF041F0882332F0660F771F20
:103CE000881F91505040C1F793954BC086957795AA
:103CF00067959F5FD9F7F8CF990F0008550FAA0B6A
:103D0000E0E8FEEF16161706E807F907C0F01216EE
:103D10001306E407F50798F0621B730B840B950BF1
:103D200039F40A2661F0232B242B252B21F4089546
:103D30000A2609F4A140A6958FEF811D811D0895E3
:103D400097F99F6780E870E060E00895882371F438
:103D5000772321F09850872B762F07C0662311F424
:103D600099270DC09051862B70E060E02AF09A955B
:103D7000660F771F881FDAF7880F9695879597F952
:103D800008959F3F31F0915020F48795779567957E
:103D9000B795880F911D9695879597F908959FEF90
:103DA00080EC089500240A941616170618060906D2
:103DB000089500240A9412161306140605060895A1
:103DC000092E0394000C11F4882352F0BB0F40F429
:103DD000BF2B11F460FF04C06F5F7F4F8F4F9F4F69
:103DE000089557FD9058440F551F59F05F3F71F0EB
:103DF0004795880F97FB991F61F09F3F79F0879552
:103E00000895121613061406551FF2CF4695F1DFDA
:103E100008C0161617061806991FF1CF869571056A
:103E2000610508940895E5DFA0F0BEE7B91788F4AE
:103E3000BB279F3860F41616B11D672F782F88278F
:103E4000985FF7CF869577956795B11D93959639CD
:103E5000C8F30895E894BB2766277727CB0197F925
:103E600008954ADF08F48FEF08950BD0A9CF9ADFA9
:103E700028F09FDF18F0952309F062CF90CF11242E
:103E8000EACFAFDFA0F3959FD1F3950F50E0551F18
:103E9000629FF001729FBB27F00DB11D639FAA279F
:103EA000F00DB11DAA1F649F6627B00DA11D661FEE
:103EB000829F2227B00DA11D621F739FB00DA11D0F
:103EC000621F839FA00D611D221F749F3327A00DC9
:103ED000611D231F849F600D211D822F762F6A2F65
:103EE00011249F5750408AF0E1F088234AF0EE0FEA
:103EF000FF1FBB1F661F771F881F91505040A9F7F7
:103F00009E3F510570F01CCFA6CF5F3FECF3983E6B
:103F1000DCF3869577956795B795F795E7959F5F5D
:103F2000C1F7FE2B880F911D9695879597F90895F7
:103F30000895883008F076C0E82FF0E0EE0FFF1FFC
:103F4000EF5EFB4F718360838150873008F03DC086
:103F5000E82FF0E08827E055F04E8F4F0C94782939
:103F6000ED1FB71FBF1FCB1FD81FF91F0620809161
:103F700069008C7F482B40936900E89A08958091EE
:103F80006900837F440F551F440F551F482B4093F2
:103F90006900E99A0895809169008F7C74E0440F6C
:103FA000551F7A95E1F7482B40936900EA9A0895E6
:103FB000809169008F7366E0440F551F6A95E1F7A1
:103FC000482B40936900EB9A089580916A008C7F9A
:103FD000482B40936A00EC9A089580916A00837F91
:103FE000440F551F440F551F482B40936A00ED9A0C
:103FF000089580916A008F7C24E0440F551F2A9514
:10400000E1F7482B40936A00EE9A089580916A0088
:104010008F7396E0440F551F9A95E1F7482B409314
:104020006A00EF9A08951F920F920FB60F92112413
:104030000BB60F922F933F934F935F936F937F93A2
:104040008F939F93AF93BF93EF93FF93E0911504EA
:10405000F09116041995FF91EF91BF91AF919F9147
:104060008F917F916F915F914F913F912F910F9021
:104070000BBE0F900FBE0F901F9018951F920F92BE
:104080000FB60F9211240BB60F922F933F934F93BD
:104090005F936F937F938F939F93AF93BF93EF93B0
:1040A000FF93E0911704F09118041995FF91EF9197
:1040B000BF91AF919F918F917F916F915F914F9140
:1040C0003F912F910F900BBE0F900FBE0F901F903E
:1040D00018951F920F920FB60F9211240BB60F92E4
:1040E0002F933F934F935F936F937F938F939F9300
:1040F000AF93BF93EF93FF93E0911904F0911A04EB
:104100001995FF91EF91BF91AF919F918F917F9101
:104110006F915F914F913F912F910F900BBE0F9038
:104120000FBE0F901F9018951F920F920FB60F920F
:1041300011240BB60F922F933F934F935F936F937E
:104140007F938F939F93AF93BF93EF93FF93E091F0
:104150001B04F0911C041995FF91EF91BF91AF9151
:104160009F918F917F916F915F914F913F912F918F
:104170000F900BBE0F900FBE0F901F9018951F92BF
:104180000F920FB60F9211240BB60F922F933F93FD
:104190004F935F936F937F938F939F93AF93BF934F
:1041A000EF93FF93E0911104F09112041995FF91A0
:1041B000EF91BF91AF919F918F917F916F915F919F
:1041C0004F913F912F910F900BBE0F900FBE0F900C
:1041D0001F9018951F920F920FB60F9211240BB6D5
:1041E0000F922F933F934F935F936F937F938F9390
:1041F0009F93AF93BF93EF93FF93E0911304F091DC
:1042000014041995FF91EF91BF91AF919F918F91F8
:104210007F916F915F914F913F912F910F900BBEC6
:104220000F900FBE0F901F9018951F920F920FB610
:104230000F9211240BB60F922F933F934F935F93DE
:104240006F937F938F939F93AF93BF93EF93FF935E
:10425000E0911D04F0911E041995FF91EF91BF911B
:10426000AF919F918F917F916F915F914F913F910E
:104270002F910F900BBE0F900FBE0F901F901895AF
:104280001F920F920FB60F9211240BB60F922F931D
:104290003F934F935F936F937F938F939F93AF93CE
:1042A000BF93EF93FF93E0911F04F09120041995C1
:1042B000FF91EF91BF91AF919F918F917F916F91FE
:1042C0005F914F913F912F910F900BBE0F900FBEBA
:1042D0000F901F9018951F920F920FB60F921124F6
:1042E0002F933F938F939F93AF93BF9380919205AA
:1042F00090919305A0919405B09195053091910509
:1043000023E0230F2D3758F50196A11DB11D2093F1
:1043100091058093920590939305A0939405B09393
:1043200095058091960590919705A0919805B0917B
:1043300099050196A11DB11D80939605909397054F
:10434000A0939805B0939905BF91AF919F918F91DC
:104350003F912F910F900FBE0F901F90189526E858
:10436000230F0296A11DB11DD2CF2FB7F8946091F3
:1043700092057091930580919405909195052FBFBA
:104380000895789484B5826084BD84B5816084BDCD
:1043900085B5826085BD85B5816085BDEEE6F0E0BE
:1043A000808181608083E1E8F0E01082808182601A
:1043B0008083808181608083E0E8F0E0808181609B
:1043C0008083E1EBF0E0808184608083E0EBF0E0CB
:1043D000808181608083E1E9F0E080818260808378
:1043E000808181608083E0E9F0E08081816080836A
:1043F000E1EAF0E080818260808380818160808357
:10440000E0EAF0E0808181608083E1E2F1E0808198
:1044100082608083808181608083E0E2F1E080813E
:1044200081608083EAE7F0E080818460808380811E
:1044300082608083808181608083808180688083C6
:104440001092C10008951F93CF93DF93182FEB01B3
:1044500061E033D1209731F460E0812FDF91CF917B
:104460001F9167C1CF3FD10511F461E0F6CFE12F75
:10447000F0E0EC51FF4FE491E150E23108F0B2C0BE
:10448000F0E08827EA5BFD4D8F4F32C7582260224B
:1044900065226F227922F22283228B2293229D228F
:1044A000A722B122C022CA22F222D422DE22E8228E
:1044B00084B5806884BDC7BDDF91CF911F910895F9
:1044C00084B5806284BDC8BDF7CF809180008068CC
:1044D00080938000D0938900C0938800EDCF8091B5
:1044E0008000806280938000D0938B00C0938A000C
:1044F000E3CF80918000886080938000D0938D000E
:10450000C0938C00D9CF8091B00080688093B000B8
:10451000C093B300D1CF8091B00080628093B0008F
:10452000C093B400C9CF80919000806880939000C0
:10453000D0939900C0939800BFCF80919000806283
:1045400080939000D0939B00C0939A00B5CF809148
:104550009000886080939000D0939D00C0939C0051
:10456000ABCF8091A00080688093A0008091A000D4
:104570008F7B8093A000D093A900C093A8009CCF0C
:104580008091A00080628093A000D093AB00C09384
:10459000AA0092CF8091A00088608093A000D09361
:1045A000AD00C093AC0088CF8091200180688093DB
:1045B0002001D0932901C09328017ECF8091200152
:1045C000806280932001D0932B01C0932A0174CF85
:1045D00080912001886080932001D0932D01C093A9
:1045E0002C016ACFC038D1050CF03FCF35CF8150B8
:1045F000823108F059C0E82FF0E08827EE5FFC4DCB
:104600008F4F76C62223262314231A231E235423D6
:1046100029232F23332339233D23412347234B23AE
:1046200054234F2355235923809180008F77809303
:1046300080000895809180008F7DF9CF8091800067
:10464000877FF5CF84B58F7784BD089584B58F7D3E
:10465000FBCF8091B0008F778093B0000895809158
:10466000B0008F7DF9CF809190008F77809390007C
:104670000895809190008F7DF9CF80919000877F81
:10468000F5CF8091A0008F778093A000089580914E
:10469000A0008F7DF9CF8091A000877FF5CF80911A
:1046A00020018F77809320010895809120018F7DD4
:1046B000F9CF80912001877FF5CFCF93DF9390E0F2
:1046C000FC01E65DFE4F249180599E4FFC018491D0
:1046D0008823C9F090E0880F991FFC01E053FE4F3A
:1046E000A591B491FC01EA54FE4FC591D49161119A
:1046F0000DC09FB7F8948C91209582238C9388816C
:10470000282328839FBFDF91CF910895623051F411
:104710009FB7F8943C91822F809583238C93E881F6
:104720002E2BEFCF8FB7F894EC912E2B2C938FBFBD
:10473000EACF1F93CF93DF93282F30E0F901EC519C
:10474000FF4F8491F901E65DFE4FD491F901E059E4
:10475000FE4FC491CC23A1F0162F811148DFEC2F1E
:10476000F0E0EE0FFF1FEA54FE4FA591B4918FB712
:10477000F894EC91111108C0D095DE23DC938FBF23
:10478000DF91CF911F910895DE2BF8CFFC01918D21
:10479000228D892F90E0805C9F4F821B91098F733F
:1047A00099270895FC01918D828D981731F0828DA3
:1047B000E80FF11D858D90E008958FEF9FEF08952C
:1047C000FC01918D828D981761F0A28DAE0FBF2FE5
:1047D000B11D5D968C91928D9F5F9F73928F90E03B
:1047E00008958FEF9FEF0895FC01538D448D252F81
:1047F00030E0842F90E0821B930B541710F0CF967B
:10480000089501970895FC01A48DA80FB92FB11D3B
:10481000A35ABF4F2C91848D90E001968F739927F6
:10482000848FA689B7892C93A089B1898C918370D4
:1048300080648C93938D848D981306C00288F389CD
:10484000E02D80818F7D80830895CF93DF93EC01ED
:10485000888D8823B1F0AA89BB89E889F9898C9170
:1048600085FD03C0808186FD0CC00FB607FCF7CF25
:104870008C9185FFF2CF808185FFEDCFCE01C3DF24
:10488000EACFDF91CF910895EF92FF920F931F939C
:10489000CF93DF93EC0181E0888F9B8D8C8D9813F3
:1048A0001AC0E889F989808185FF15C09FB7F894FF
:1048B000EE89FF896083E889F9898081837080644B
:1048C00080839FBF81E090E0DF91CF911F910F9196
:1048D000FF90EF900895F62E0B8D10E00F5F1F4FA5
:1048E0000F731127E02E8C8D8E110BC00FB607FCB5
:1048F000FACFE889F989808185FFF5CFCE0183DF82
:10490000F2CFEB8DEC0FFD2FF11DE35AFF4FF0823C
:104910009FB7F8940B8FEA89FB8980818062D0CFA2
:10492000CF92DF92EF92FF921F93CF93DF93EC0130
:104930006A017B01122FE889F98982E08083C11422
:1049400081EED806E104F10499F060E079E08DE3AE
:1049500090E0A7019601AAD42150310941095109DB
:104960005695479537952795211580E1380790F0A2
:10497000E889F989108260E874E88EE190E0A70187
:10498000960194D421503109410951095695479512
:1049900037952795EC85FD853083EE85FF8520834F
:1049A000188EEC89FD891083EA89FB8980818061FA
:1049B0008083EA89FB89808188608083EA89FB891A
:1049C000808180688083EA89FB8980818F7D8083F4
:1049D000DF91CF911F91FF90EF90DF90CF900895DE
:1049E0001F920F920FB60F9211240BB60F922F93B6
:1049F0008F939F93EF93FF93E091AA05F091AB05FE
:104A00008081E091B005F091B10582FD1DC09081DB
:104A10008091B3058F5F8F732091B405821741F0A9
:104A2000E091B305F0E0E656FA4F958F8093B30519
:104A3000FF91EF919F918F912F910F900BBE0F904F
:104A40000FBE0F901F9018958081F2CF1F920F928A
:104A50000FB60F9211240BB60F922F933F934F93E3
:104A60005F936F937F938F939F93AF93BF93EF93D6
:104A7000FF938AE995E0C7DEFF91EF91BF91AF9177
:104A80009F918F917F916F915F914F913F912F9166
:104A90000F900BBE0F900FBE0F901F901895EAE974
:104AA000F5E01382128288EE93E0A0E0B0E0848308
:104AB0009583A683B7838DE494E09183808385EC0E
:104AC00090E09587848784EC90E09787868780ECD8
:104AD00090E0918B808B81EC90E0938B828B82ECC9
:104AE00090E0958B848B86EC90E0978B868B118E73
:104AF000128E138E148E08951F920F920FB60F927E
:104B000011240BB60F922F938F939F93EF93FF93E4
:104B1000E0914706F09148068081E0914D06F091C2
:104B20004E0682FD1DC09081809150068F5F8F736D
:104B300020915106821741F0E0915006F0E0E95CC7
:104B4000F94F958F80935006FF91EF919F918F9130
:104B50002F910F900BBE0F900FBE0F901F901895C6
:104B60008081F2CF1F920F920FB60F9211240BB6D5
:104B70000F922F933F934F935F936F937F938F93F6
:104B80009F93AF93BF93EF93FF9387E396E03BDE52
:104B9000FF91EF91BF91AF919F918F917F916F9115
:104BA0005F914F913F912F910F900BBE0F900FBED1
:104BB0000F901F901895E7E3F6E01382128288EEBB
:104BC00093E0A0E0B0E084839583A683B7838DE46F
:104BD00094E0918380838DEC90E0958784878CECC2
:104BE00090E09787868788EC90E0918B808B89ECAA
:104BF00090E0938B828B8AEC90E0958B848B8EEC8B
:104C000090E0978B868B118E128E138E148E0895E2
:104C10001F920F920FB60F9211240BB60F922F9383
:104C20008F939F93EF93FF93E091E406F091E50655
:104C30008081E091EA06F091EB0682FD1DC0908133
:104C40008091ED068F5F8F732091EE06821741F001
:104C5000E091ED06F0E0EC52F94F958F8093ED0670
:104C6000FF91EF919F918F912F910F900BBE0F901D
:104C70000FBE0F901F9018958081F2CF1F920F9258
:104C80000FB60F9211240BB60F922F933F934F93B1
:104C90005F936F937F938F939F93AF93BF93EF93A4
:104CA000FF9384ED96E0AFDDFF91EF91BF91AF915F
:104CB0009F918F917F916F915F914F913F912F9134
:104CC0000F900BBE0F900FBE0F901F901895E4ED44
:104CD000F6E01382128288EE93E0A0E0B0E08483D5
:104CE0009583A683B7838DE494E09183808385EDDB
:104CF00090E09587848784ED90E09787868780EDA4
:104D000090E0918B808B81ED90E0938B828B82ED94
:104D100090E0958B848B86ED90E0978B868B118E3F
:104D2000128E138E148E08951F920F920FB60F924B
:104D300011240BB60F922F938F939F93EF93FF93B2
:104D4000E0918107F09182078081E0918707F091DF
:104D5000880782FD1DC0908180918A078F5F8F73C5
:104D600020918B07821741F0E0918A07F0E0EF581D
:104D7000F84F958F80938A07FF91EF919F918F91C4
:104D80002F910F900BBE0F900FBE0F901F90189594
:104D90008081F2CF1F920F920FB60F9211240BB6A3
:104DA0000F922F933F934F935F936F937F938F93C4
:104DB0009F93AF93BF93EF93FF9381E797E023DD3A
:104DC000FF91EF91BF91AF919F918F917F916F91E3
:104DD0005F914F913F912F910F900BBE0F900FBE9F
:104DE0000F901F901895E1E7F7E01382128288EE8A
:104DF00093E0A0E0B0E084839583A683B7838DE43D
:104E000094E09183808385E391E09587848784E3B0
:104E100091E09787868780E391E0918B808B81E397
:104E200091E0938B828B82E391E0958B848B86E378
:104E300091E0978B868B118E128E138E148E0895AF
:104E4000AF92BF92CF92DF92EF92FF920F931F9398
:104E5000CF93DF936C017B018B01040F151FEB01D6
:104E60005E01AE18BF08C017D10759F06991D6018D
:104E7000ED91FC910190F081E02DC6011995892BEF
:104E800079F7C501DF91CF911F910F91FF90EF90BE
:104E9000DF90CF90BF90AF900895FB01019000206C
:104EA000E9F73197AF01461B570BDC01ED91FC91FF
:104EB0000280F381E02D19946115710509F0EDCFA1
:104EC00090E080E00895DC01ED91FC910190F0818B
:104ED000E02D19946BE574E0E0CF8F929F92AF9232
:104EE000BF92EF92FF920F931F93CF93DF93CDB7B3
:104EF000DEB7A1970FB6F894DEBF0FBECDBF7C0121
:104F0000FA01CB0119A2223008F42AE08E010F5DCC
:104F10001F4F822E912CB12CA12CBF01A501940111
:104F2000C5D1F901CA016A3004F5605DD8016E93FC
:104F30008D01232B242B252B81F790E080E0109707
:104F400019F0BD01C701A9DFA1960FB6F894DEBF25
:104F50000FBECDBFDF91CF911F910F91FF90EF90CA
:104F6000BF90AF909F908F900895695CDFCFCF92F4
:104F7000DF92EF92FF920F931F93CF93DF93211550
:104F8000310581F4DC01ED91FC910190F081E02D7F
:104F9000642FDF91CF911F910F91FF90EF90DF90E1
:104FA000CF9019942A303105F1F42AE077FF1BC025
:104FB0006A017B01EC016DE286DF8C0144275527F5
:104FC000BA014C195D096E097F092AE0CE0185DF1F
:104FD000800F911FDF91CF911F910F91FF90EF9064
:104FE000DF90CF900895DF91CF911F910F91FF90A7
:104FF000EF90DF90CF9071CF9A01AB01770F660BE6
:10500000770BB5CF0F931F93CF93DF93EC01F4DFB2
:105010008C01CE015FDF800F911FDF91CF911F9137
:105020000F9108950F931F93CF93DF93EC019FDFB0
:105030008C01CE014FDF800F911FDF91CF911F9127
:105040000F9108952115310541F4DC01ED91FC919A
:105050000190F081E02D642F19943FCF9A01462FE3
:1050600050E070E060E0EECF0F931F93CF93DF939B
:10507000EC01F4DF8C01CE012DDF800F911FDF9159
:10508000CF911F910F9108959A01AB0170E060E0FC
:10509000D9CF0F931F93CF93DF93EC01F5DF8C01F2
:1050A000CE0118DF800F911FDF91CF911F910F91DB
:1050B00008950F931F93CF93DF93EC01C3DF8C010F
:1050C000CE0108DF800F911FDF91CF911F910F91CB
:1050D00008952F923F924F925F926F927F928F929C
:1050E0009F92AF92BF92CF92DF92EF92FF921F9367
:1050F000CF93DF93EC016A017B01722EAB01960125
:10510000CB01B6016ED16EE574E0811125C0460178
:105110005701E894B7F82FEF3FEF4FE75FE7C5017E
:10512000B4015FD181110CC02FEF3FEF4FE75FE774
:10513000C501B4010E94A91D62E674E0181664F06E
:105140002FEF3FEF4FE75FE4C701B6010E94311F29
:105150001816ACF466E674E0CE01DF91CF911F9192
:10516000FF90EF90DF90CF90BF90AF909F908F9087
:105170007F906F905F904F903F902F908ECE2FEF4B
:105180003FEF4FE75FECC701B6010E94A91D87FD05
:10519000E1CF20E030E0A901C701B6010E94A91DBE
:1051A000312C212C87FF08C06DE2CE018CDE1C0162
:1051B000F7FAF094F7F8F09410E060E070E080E027
:1051C0009FE3711639F020E030E040E251E498D0DE
:1051D0001F5FF7CFA70196010E94451D2B013C01DF
:1051E0000E94B21D4B015C012AE0BC01A401CE016A
:1051F00074DE7C01E20CF31C1123A1F1C501B401A2
:105200000E94DE1D9B01AC01C301B2010E94441D3E
:105210004B015C016EE2CE0156DEE80EF91E115024
:1052200008F120E030E040E251E4C501B4010E9401
:10523000351F2B013C010E94B21D4B014AE050E09A
:10524000CE0122DFE80EF91EB40190E080E00E945A
:10525000DE1D9B01AC01C301B2010E94441D4B0144
:105260005C01DDCFC701DF91CF911F91FF90EF90DF
:10527000DF90CF90BF90AF909F908F907F906F9076
:105280005F904F903F902F90089523CF0F931F93DF
:10529000CF93DF93EC011DDF8C01CE011BDE800F6D
:1052A000911FDF91CF911F910F910895A1E21A2EC6
:1052B000AA1BBB1BFD010DC0AA1FBB1FEE1FFF1FBA
:1052C000A217B307E407F50720F0A21BB30BE40B0A
:1052D000F50B661F771F881F991F1A9469F7609551
:1052E0007095809590959B01AC01BD01CF0108950B
:1052F000EE0FFF1F881F8BBF0790F691E02D1994CA
:1053000012D00C94E01E0E94D91E58F00E94D21EAA
:1053100040F029F45F3F29F00C94A01E51110C9429
:105320002B1F0C94CF1E0E94F11E68F39923B1F33A
:10533000552391F3951B550BBB27AA2762177307BB
:10534000840738F09F5F5F4F220F331F441FAA1F4F
:10535000A9F335D00E2E3AF0E0E832D0915050400B
:10536000E695001CCAF72BD0FE2F29D0660F771FB9
:10537000881FBB1F261737074807AB07B0E809F09F
:10538000BB0B802DBF01FF2793585F4F3AF09E3F24
:10539000510578F00C94A01E0C942B1F5F3FE4F392
:1053A000983ED4F3869577956795B795F7959F5F67
:1053B000C9F7880F911D9695879597F90895E1E0B3
:1053C000660F771F881FBB1F621773078407BA0712
:1053D00020F0621B730B840BBA0BEE1F88F7E0956D
:1053E00008950E947C1E880B990B0895F894FFCFB6
:1053F000E8030000803F0000000000000000000003
:105400000000162C0E3BD7512D3E8BEF4A3CAAAE26
:105410006840596115B863731CBC9513803F92BAFC
:105420005F3EE80579385E9F8E3CDF599B3B909B41
:105430006C3F60620C3984F0203DAE9219BA7A1547
:1054400030BE0000803F00000000000000000000AF
:105450000000000000000000803F0000000000008D
:105460000000ADA21AC2E15556C2BE299AC2FE4141
:1054700046C15F03A63D0362E8BFAB7B95BC322308
:10548000FE40F2238CBC89F7F640C137403EAE2186
:1054900004C281FF753FFC49C9BD4C2F7A3E19A259
:1054A000B4BD8C04623DFC7A0F40964A023BC5179E
:1054B0006A3CAFD7623F2D9BDEBB5C1A043DFD14F6
:1054C00084BE227739C2675752C2AF9E20C4183EAD
:1054D000293D7791B93D8F9741BB22773942675774
:1054E0005242AF9E20440000803F000000000000B8
:1054F000000000000080000000000000000000002C
:10550000803F00000080000000000000803F00009D
:10551000000000000000000000800000008000008B
:1055200000000000803F96281FC37CF2B03C0000C2
:10553000000000000000000010410000000000001A
:10554000000035FA0EBC000048430AD7A33B000018
:10555000000000004843000000800000803F000081
:10556000000000000000000000000000000000003B
:105570000000000000800000803F000000000000EC
:10558000000000000000000000000000000000001B
:1055900000800000803F00000000000000000000CC
:1055A000000000000000000000000000008000007B
:1055B000803F00000000000000800000803F0000ED
:1055C00000000000000000000000000000000000DB
:1055D00000800000803F000000000000000000008C
:1055E000000000000000000000800000803F00007C
:1055F000000058A00B39000010C1ABAAE241010124
:1056000001981F981F981F981F981F981F981F9800
:105610001F0001FFFF0607FFFFFFFFFFFFFFFFFF68
:10562000FF05040302000000008608B40823084FA9
:105630000826082D0840088C05000000004424209E
:1056400027F4232524C623E023D2230D0A006E610C
:0A5650006E00696E66006F7666005A
:00000001FF
