:10000000FAC000000C94C0220C94EB220C9416232E
:100010000C9441230C946C230C9497230C94C223CE
:100020000C94ED23F4C5000095C60000CFC6000077
:1000300013C1000011C100000FC100000DC100007C
:100040000BC1000009C1000007C1000005C100008C
:1000500003C1000001C10000FFC000000C9418247F
:10006000FBC000000C949D270C94D327F5C0000022
:10007000F3C00000F1C00000EFC00000EDC00000C0
:10008000EBC00000E9C00000E7C00000E5C00000D0
:100090000C9429280C945F28DFC000000C947D0A82
:1000A000DBC00000D9C00000D7C00000D5C00000F0
:1000B000D3C00000D1C00000CFC00000CDC0000000
:1000C000CBC00000C9C000000C94E21E0C94B528FF
:1000D0000C94EB28C1C000000C9441290C947729A2
:1000E000BBC0000000000A0B02090C0D0E0807033C
:1000F00004010000000000000000000000000000FB
:1001000000000000000000000000000000000000EF
:1001100012111000000000000000000000000000AC
:100120000000000000000000000001021020200874
:100130000810204010204080020102010804020142
:1001400001020408102040808040201008040201B1
:10015000800402018040201008040201080402010A
:100160000102040810204080010204081020408091
:1001700005050505070508080808020202020A0A23
:100180000808040404040101010101010101030341
:10019000030303030303040707070C0C0C0C0C0CEC
:1001A0000C0C0202020206060606060606060B0BE9
:1001B0000B0B0B0B0B0B00002200250028002B0063
:1001C0002E003100340002010000050108010B017E
:1001D00000002100240027002A002D0030003300F9
:1001E00001010000040107010A016E09A40DFC27AA
:1001F00088281429A02911241FBECFEFD1E2DEBF29
:10020000CDBF00E00CBF17E0A0E0B2E0EAE6F8E501
:1002100000E00BBF02C007900D92A437B107D9F7D9
:100220002CE0A4E7B7E001C01D92A03DB207E1F7C2
:1002300010E0CBEFD0E000E006C021970109802F4D
:10024000FE010E94262CC53FD10780E00807A9F7D0
:100250000E94521F0C94332CD3CE8823E1F08230BD
:1002600061F0833089F08130B1F440E855E260E01C
:1002700070E081E090E00C94C41E40E855E260E03C
:1002800070E082E090E0F7CF40E855E260E070E097
:1002900083E090E0F0CF08954F925F926F927F924B
:1002A0008F929F92AF92BF92CF92EF92FF920F9355
:1002B0001F93CF93DF93CDB7DEB72B013A01F02E1A
:1002C000B40130E02830310511F424E030E00AE0D8
:1002D00010E0CC2061F091E000E110E0C91639F0A7
:1002E000E2E008E010E0CE1611F002E010E081300C
:1002F00009F4E8C0B0F0823009F4C5C1833009F4D4
:10030000A3C2DF91CF911F910F91FF90EF90CF90FB
:10031000BF90AF909F908F907F906F905F904F9025
:100320000895F1101BC0269DA001279D500D369DFC
:10033000500D1124B20189E399E0DF91CF911F9113
:100340000F91FF90EF90CF90BF90AF909F908F90C4
:100350007F906F905F904F900C94CD2989E399E046
:100360000E94092AE11014C0640C751C6414750401
:1003700041F2F20161912F01F1E0A80189E399E0D6
:10038000FF1203C00E94DB2AF1CF0E94E12AEECFC8
:1003900081E0E81215C091E0691A710808F4B1CF44
:1003A000F201619171912F01F1E0A80189E399E0D7
:1003B000FF1203C00E94F12AEECF0E94F62AEBCF73
:1003C00082E0E81217C091E0691A710808F499CF29
:1003D000F20141915191619171912F01F1E09801E8
:1003E00089E399E0FF1203C00E94CF2AECCF0E945C
:1003F000062BE9CF83E0E81218C0640C751C641466
:10040000750409F47ECFF20161912F01062E000CD4
:10041000770BF1E0A80189E399E0FF1203C00E9485
:10042000A92AEDCF0E94AF2AEACF84E0E81215C0D6
:1004300091E0691A710808F464CFF2016191719139
:100440002F01F1E0A80189E399E0FF1203C00E94A7
:10045000A92AEECF0E94AF2AEBCF85E0E81217C0A1
:1004600091E0691A710808F44CCFF2014191519161
:10047000619171912F01F1E0980189E399E0FF12F8
:1004800003C00E94642AECCF0E94BF2AE9CF86E015
:10049000E81237CFB12C91E0691A710808F431CF16
:1004A000F20141915191619171912F01F1E095011A
:1004B00089E399E0FF1203C00E94F32BECCF0E9466
:1004C000F42BE9CFF1100BC0269DA001279D500D04
:1004D000369D500D1124B20186ED99E02ECF86EDA8
:1004E00099E00E94092AE11015C0640C751C46149D
:1004F000570409F406CFF20161912F01F1E0A80140
:1005000086ED99E0FF1203C00E94DB2AF0CF0E9423
:10051000E12AEDCF81E0E81215C091E0691A710877
:1005200008F4EFCEF201619171912F01F1E0A80181
:1005300086ED99E0FF1203C00E94F12AEECF0E94DF
:10054000F62AEBCF82E0E81217C091E0691A710831
:1005500008F4D7CEF20141915191619171912F012F
:10056000F1E0980186ED99E0FF1203C00E94CF2AC6
:10057000ECCF0E94062BE9CF83E0E81218C0640C90
:10058000751C6414750409F4BCCEF20161912F014D
:10059000062E000C770BF1E0A80186ED99E0FF1222
:1005A00003C00E94A92AEDCF0E94AF2AEACF84E0BF
:1005B000E81215C091E0691A710808F4A2CEF201A0
:1005C000619171912F01F1E0A80186ED99E0FF1290
:1005D00003C00E94A92AEECF0E94AF2AEBCF85E08C
:1005E000E81217C091E0691A710808F48ACEF20186
:1005F00041915191619171912F01F1E0980186ED46
:1006000099E0FF1203C00E94642AECCF0E94BF2A27
:10061000E9CF86E0E81275CEB12C91E0691A710835
:1006200008F46FCEF20141915191619171912F01C6
:10063000F1E0FF1214C0C11006C0950186ED99E0EB
:100640000E94F32BEACFCB01BA010E945A20AB01E2
:10065000BC01980186ED99E00E94642ADECFC110AA
:1006600006C0950186ED99E00E94F42BD6CFCB0110
:10067000BA010E945A20AB01BC01980186ED99E0B5
:100680000E94BF2ACACFF1100BC0269DA001279D52
:10069000500D369D500D1124B20183E79AE04DCEE6
:1006A00083E79AE00E94092AE11015C0640C751CCA
:1006B0004614570409F425CEF20161912F01F1E0AF
:1006C000A80183E79AE0FF1203C00E94DB2AF0CF63
:1006D0000E94E12AEDCF81E0E81215C091E0691A8D
:1006E000710808F40ECEF201619171912F01F1E0D1
:1006F000A80183E79AE0FF1203C00E94F12AEECF1F
:100700000E94F62AEBCF82E0E81217C091E0691A46
:10071000710808F4F6CDF201419151916191719106
:100720002F01F1E0980183E79AE0FF1203C00E94D5
:10073000CF2AECCF0E94062BE9CF83E0E81218C045
:10074000640C751C6414750409F4DBCDF20161912D
:100750002F01062E000C770BF1E0A80183E79AE049
:10076000FF1203C00E94A92AEDCF0E94AF2AEACF50
:1007700084E0E81215C091E0691A710808F4C1CD4F
:10078000F201619171912F01F1E0A80183E79AE0F4
:10079000FF1203C00E94A92AEECF0E94AF2AEBCF1E
:1007A00085E0E81217C091E0691A710808F4A9CD34
:1007B000F20141915191619171912F01F1E0980104
:1007C00083E79AE0FF1203C00E94642AECCF0E94E4
:1007D000BF2AE9CF86E0E81294CDB12C91E0691AE6
:1007E000710808F48ECDF20141915191619171919E
:1007F0002F01F1E0FF1214C0C11006C0950183E77C
:100800009AE00E94F32BEACFCB01BA010E945A2052
:10081000AB01BC01980183E79AE00E94642ADECF15
:10082000C11006C0950183E79AE00E94F42BD6CF51
:10083000CB01BA010E945A20AB01BC01980183E7A9
:100840009AE00E94BF2ACACFF1100BC0269DA001DA
:10085000279D500D369D500D1124B20180E19BE083
:100860006CCD80E19BE00E94092AE11015C0640C68
:10087000751C6414750409F444CDF20161912F01D3
:10088000F1E0A80180E19BE0FF1203C00E94DB2A97
:10089000F0CF0E94E12AEDCF81E0E81215C091E08F
:1008A000691A710808F42DCDF201619171912F013F
:1008B000F1E0A80180E19BE0FF1203C00E94F12A51
:1008C000EECF0E94F62AEBCF82E0E81217C091E04B
:1008D000691A710808F415CDF201419151916191A5
:1008E00071912F01F1E0980180E19BE0FF1203C0BC
:1008F0000E94CF2AECCF0E94062BE9CF83E0E812BA
:1009000018C0640C751C6414750409F4FACCF20167
:1009100061912F01062E000C770BF1E0A80180E118
:100920009BE0FF1203C00E94A92AEDCF0E94AF2ACC
:10093000EACF84E0E81215C091E0691A710808F462
:10094000E0CCF201619171912F01F1E0A80180E109
:100950009BE0FF1203C00E94A92AEECF0E94AF2A9B
:10096000EBCF85E0E81217C091E0691A710808F42E
:10097000C8CCF20141915191619171912F01F1E047
:10098000980180E19BE0FF1203C00E94642AECCF33
:100990000E94BF2AE9CF86E0E812B3CCB12C91E0E7
:1009A000691A710808F4ADCCF2014191519161913D
:1009B00071912F01F1E0FF1214C0C11006C0950122
:1009C00080E19BE00E94F32BEACFCB01BA010E94A9
:1009D0005A20AB01BC01980180E19BE00E94642A8F
:1009E000DECFC11006C0950180E19BE00E94F42B90
:1009F000D6CFCB01BA010E945A20AB01BC019801AD
:100A000080E19BE00E94BF2ACACF9CB1892F8072EF
:100A100094FF16C0811116C08091780790917907D4
:100A2000A0917A07B0917B070196A11DB11D80931B
:100A3000780790937907A0937A07B0937B0708957E
:100A40008111EACF8091780790917907A0917A0778
:100A5000B0917B070197A109B109E9CF99B1892F1D
:100A6000847093FF16C08823B1F08091860790911F
:100A70008707A0918807B09189070196A11DB11D34
:100A80008093860790938707A0938807B093890780
:100A90000895882351F38091860790918707A0914C
:100AA0008807B09189070197A109B109E9CF8CB1F5
:100AB00090E09C01220F232F221F330B86FF16C0CC
:100AC0008091940790919507A0919607B091970710
:100AD000232BB9F40196A11DB11D80939407909327
:100AE0009507A0939607B093970708958091940770
:100AF00090919507A0919607B09197072130310505
:100B000049F30197A109B109E8CF9CB1892F807100
:100B100095FF16C08823B1F08091780790917907EE
:100B2000A0917A07B0917B070196A11DB11D80931A
:100B3000780790937907A0937A07B0937B0708957D
:100B4000882351F38091780790917907A0917A07D3
:100B5000B0917B070197A109B109E9CF99B1892F1C
:100B6000887092FF16C0811116C0809186079091FF
:100B70008707A0918807B09189070196A11DB11D33
:100B80008093860790938707A0938807B09389077F
:100B900008958111EACF8091860790918707A091EF
:100BA0008807B09189070197A109B109E9CF8CB1F4
:100BB00090E086FB222720F930E0880F892F881FDC
:100BC000990B0197B1F48091940790919507A091AA
:100BD0009607B0919707232BB1F00196A11DB11D87
:100BE0008093940790939507A0939607B0939707E7
:100BF00008958091940790919507A0919607B091E0
:100C00009707232B51F30197A109B109E9CF1F924F
:100C10000F920FB60F9211242F933F934F935F9330
:100C20008F939F93AF93BF9383B121E030E0982FD0
:100C3000907285FD02C030E020E080744091B807DA
:100C40005091B9074217530709F062C021E030E024
:100C5000811102C030E020E03093B7072093B6073F
:100C6000882309F1911121C08091B0079091B107BB
:100C7000A091B207B091B3070196A11DB11D809359
:100C8000B0079093B107A093B207B093B3078091D8
:100C9000B0079091B107A091B207B091B307019648
:100CA000A11DB11D20C09111DFCF8091B00790919F
:100CB000B107A091B207B091B3070197A109B1099B
:100CC0008093B0079093B107A093B207B093B30796
:100CD0008091B0079091B107A091B207B091B3078E
:100CE0000197A109B1098093B0079093B107A09330
:100CF000B207B093B307BF91AF919F918F915F916E
:100D00004F913F912F910F900FBE0F901F9018950C
:100D10003093B9072093B807992371F0882371F0B5
:100D20008091B0079091B107A091B207B091B3073D
:100D30000196A11DB11DC4CF882391F38091B00706
:100D40009091B107A091B207B091B3070197A109A3
:100D5000B10995CF1F920F920FB60F9211248F9366
:100D60009F93AF93BF93809106018170909103018F
:100D700090FF1EC081111EC08091A2079091A30711
:100D8000A091A407B091A5070196A11DB11D809364
:100D9000A2079093A307A093A407B093A507BF91C0
:100DA000AF919F918F910F900FBE0F901F9018954C
:100DB0008111E2CF8091A2079091A307A091A4078F
:100DC000B091A5070197A109B109E1CF1F920F9238
:100DD0000FB60F9211248F939F93AF93BF9380917F
:100DE000030181709091060190FF1EC08823F1F0ED
:100DF0008091A2079091A307A091A407B091A507A5
:100E00000196A11DB11D8093A2079093A307A09303
:100E1000A407B093A507BF91AF919F918F910F90B9
:100E20000FBE0F901F901895882311F38091A20791
:100E30009091A307A091A407B091A5070197A109DC
:100E4000B109E1CF0F931F93CF93DF938C018EE015
:100E5000809FE001819FD00D1124CC58D84F798319
:100E600068835B834A838881998160E00E940A26B7
:100E70008A819B8160E00E940A268881998161E0D5
:100E80000E9446268A819B8161E00E9446260230AC
:100E9000110509F487C064F40115110501F1013051
:100EA000110509F450C0DF91CF911F910F91089562
:100EB0000330110509F4A5C004301105A1F7809194
:100EC000680081608093680080916B0080628093ED
:100ED0006B0080916B00806480936B00E4CF809105
:100EE00074079091750702978431910530F5875EFC
:100EF000984FFC018081082E000C990B41E050E0D6
:100F000065E075E00E944622809176079091770710
:100F1000029784319105A0F4875E984FFC0180818F
:100F2000082E000C990B41E050E065E875E0DF9178
:100F3000CF911F910F910C9446228FEF9FEFDECF40
:100F40008FEF9FEFF0CF80918207909183070297F8
:100F50008431910508F5875E984FFC018081082E49
:100F6000000C990B41E050E06EEA75E00E944622C9
:100F7000809184079091850702978431910578F4D8
:100F8000875E984FFC018081082E000C990B41E090
:100F900050E06EE275E0CBCF8FEF9FEFE3CF8FEFA6
:100FA0009FEFF5CF80919007909191070297843140
:100FB000910508F5875E984FFC018081082E000C92
:100FC000990B41E050E067E575E00E944622809170
:100FD00092079091930702978431910578F4875E88
:100FE000984FFC018081082E000C990B41E050E0E5
:100FF00067ED75E09CCF8FEF9FEFE3CF8FEF9FEF13
:10100000F5CF8091680084608093680080916800CB
:1010100082608093680080916D00816080936D0094
:1010200080916C00826080936C003DCF2EE0269F03
:10103000F001279FF00D1124EC58F84F6481758161
:1010400086819781089590E080E008958091EE0771
:101050009091EF07891B990B08959091EF0780916C
:10106000EE072FEF3FEF981748F4E92FF0E0E0513B
:10107000F84F208130E09F5F9093EF07C9010895FA
:10108000E091EF078091EE07E81730F4F0E0E051CF
:10109000F84F808190E008958FEF9FEF08950895B5
:1010A000CF93DF93EC01E091C607F091C70730972B
:1010B000F1F09091EF078091EE079817C0F090E063
:1010C000292F30E02617370754F4DE01A20FB31F93
:1010D0004C912051384FD9014C939F5FF1CF109222
:1010E000EF076093EE07CB01DF91CF911994DF9169
:1010F000CF910895E091C807F091C907309729F082
:101100001092CC071092CB0719940895CF93DF93D8
:101110001F92CDB7DEB769832091CA072223F9F069
:101120002091CB07203258F021E030E0FC013383DE
:10113000228390E080E00F90DF91CF91089580911D
:10114000CC07E82FF0E0E353F84F998190838F5F4D
:101150008093CC078093CB0781E090E0ECCF61E0F7
:10116000CE01019689D1F8CFCF92DF92EF92FF9214
:101170000F931F93CF93DF937C01CB018A012091C2
:10118000CA07222389F0EB016B01C40ED51ECC15D2
:10119000DD0561F06991D701ED91FC910190F0813D
:1011A000E02DC7011995F3CF642F66D1C801DF91F7
:1011B000CF911F910F91FF90EF90DF90CF90089506
:1011C0001092EF071092EE071092CC071092CB0707
:1011D00096D08AE798E07CD180E598E074C181E000
:1011E0008093CA076093ED071092CC071092CB074B
:1011F00008950F93062F21E04091CB076DEC77E027
:101200008091ED07E2D01092CC071092CB0710929C
:10121000CA070F9108954F925F926F927F92AF929B
:10122000BF92CF92EF92FF920F931F93CF93DF93D2
:101230005C01F62ED42F28013901EE2009F1CFDF11
:10124000CE2DC43008F0C3E0C150B8F028E0C29FF2
:10125000C0011124A301920104C05695479537950A
:1012600027958A95D2F7B901D501ED91FC910190AE
:10127000F081E02DC5011995E7CF60E0C501B9DF28
:101280004D2FD13208F040E22C2D60EF77E08F2D0A
:1012900054D01092EF078093EE07DF91CF911F910A
:1012A0000F91FF90EF90CF90BF90AF907F906F9095
:1012B0005F904F900895CF92EF920F931F93C22E9D
:1012C000E12C00E010E09801A6DF1F910F91EF9054
:1012D000CF90089521E0EFCF61E08BCFEAEBF7E00C
:1012E0001382128288EE93E0A0E0B0E084839583BD
:1012F000A683B78381E397E091838083089510925A
:101300007D0881E080937B0810927A0861E084E197
:101310000E94462661E085E10E944626E9EBF0E066
:1013200080818E7F808380818D7F808388E480931D
:10133000B80085E48093BC000895413208F043C0B2
:1013400090917D089111FCCF91E090937D082093BE
:101350007B082FEF2093100810925508240F20933C
:10136000540890937C0890917C08880F892B809377
:101370007C0880917A08813009F510927A08809172
:101380007C088093BB008091BC0083FDF8CF85EC86
:101390008093BC0080917D088130E1F380915508F5
:1013A000841710F440915508A6E5B8E0962FFB018C
:1013B0008E2F891B841720F0842F089585EEE8CFA7
:1013C0008D918193F5CF40E0F7CF0F93413208F034
:1013D0004BC090917D089111FCCF92E090937D08D5
:1013E00000937B089FEF909310081092550840934C
:1013F0005408362FA6E5B8E0FB019E2F931B9417E7
:1014000070F110927C0890917C08880F892B809352
:101410007C0880917A08813029F510927A088091B1
:101420007C088093BB008091BC0083FDF8CF85ECE5
:101430008093BC00222321F080917D088230D1F37B
:10144000809110088F3F91F080911008803281F0D8
:1014500080911008803371F084E00F91089591918C
:101460009D93CBCF85EEE4CF81E0F7CF80E0F5CF41
:1014700082E0F3CF83E0F1CF20913208260F3327AB
:10148000331F21323105ECF420917D08FC0190E0FE
:1014900080E0243069F082E00895A0913208219123
:1014A000AC014C5C574FA40FB52FB11D2C93019686
:1014B000861798F380913208680F6093320880E0B5
:1014C000089581E0089590937708809376080895B1
:1014D0009093790880937808089585ED8093BC00F7
:1014E0008091BC0084FDFCCF10927D08089585ECAE
:1014F0008093BC0010927D0808951F920F920FB642
:101500000F9211240BB60F922F933F934F935F933B
:101510006F937F938F939F93AF93BF93EF93FF93BB
:101520008091B900887F803609F44CC008F03FC034
:10153000883209F4A8C028F5803109F49CC0C8F4A9
:10154000882309F4F8C0883009F495C0FF91EF9121
:10155000BF91AF919F918F917F916F915F914F91CB
:101560003F912F910F900BBE0F900FBE0F901F90C9
:101570001895883109F487C0803241F780931008AC
:1015800014C0803409F49CC040F48033B9F388332C
:10159000E9F680931008ABDFD9CF803509F484C019
:1015A000883509F495C0883489F697DFCFCF88391C
:1015B00009F48CC038F5883729F050F4883611F0DA
:1015C000803721F683E080937D081092110857C080
:1015D000883809F47BC0803919F0803809F0B6CF1B
:1015E00080911108803208F071C0E091110881E00B
:1015F0008E0F809311088091BB00F0E0EE5EF74FF4
:1016000080833DC0803B39F0E0F4803A09F479C032
:10161000883A09F09BCF84E080937D0810923308CC
:1016200010923208E0917808F0917908199580912C
:10163000320881110FC081E0809332081092340883
:1016400009C0803C09F475C0883C09F472C0883B2D
:1016500009F07CCFE091330881E08E0F809333084E
:10166000F0E0EC5CF74F80818093BB0090913308F1
:101670008091320829C080917C088093BB0085EC62
:101680008093BC0063CF90915508809154089817BF
:1016900058F5E091550881E08E0F80935508F0E0F1
:1016A000EA5AF74F8081E9CFE091550881E08E0F2B
:1016B000809355088091BB00F0E0EA5AF74F808391
:1016C00090915508809154089817C8F285E8D8CFB2
:1016D000E091550881E08E0F809355088091BB0002
:1016E000F0E0EA5AF74F808380917B0881115DCF4B
:1016F00081E080937A0884EA8093BC0010927D0890
:1017000025CFF5DE80911108803230F4E091110888
:10171000F0E0EE5EF74F10826091110870E0E0910A
:101720007608F091770882E198E0199510921108F7
:101730000DCF85ECE1CF1092100837CFFF920F93B9
:101740001F93CF93DF93C62F042FF22E132F682FF2
:101750008AEB97E044DD6C2F8AEB97E0D7DCCF2D46
:10176000D12F0C0F1D2F111DC017D10729F0699122
:101770008AEB97E0CBDCF8CF8AEB97E0ADDD91E028
:10178000811190E0892FDF91CF911F910F91FF90F0
:101790000895CF93DF931F92CDB7DEB749839E01A3
:1017A0002F5F3F4F41E0CADF0F90DF91CF91089547
:1017B0002F923F924F925F926F927F928F929F9261
:1017C000AF92BF92CF92DF92EF92FF920F931F934F
:1017D000CF93DF9300D0CDB7DEB7E82E69834B837C
:1017E00069010E9462244B015C01F12C1A822B8159
:1017F000222E312C2801712C612C8B81F81608F0D7
:1018000044C06E2D8AEB97E0EADC69818AEB97E0B1
:101810007DDC8AEB97E060DD6E2D8AEB97E0DFDC04
:10182000A1014F1951094132510514F040E250E035
:101830006E2D8AEB97E04EDD8AEB97E007DC892B73
:10184000D9F00115110569F48AEB97E006DCF60181
:101850009A81E90FF11D97FDFA9580839F5F9A8326
:10186000EBCF0E946224681979098A099B096415E3
:1018700075058605970540F38AEB97E02DDD8B8192
:10188000813208F080E2F80EB8CF01151105C1F0E1
:101890000E946224681979098A099B0930E020E0D6
:1018A000601771078207930758F02A81822F220F51
:1018B000990B2B812817190619F014F08FEF8A83E2
:1018C0008A810F900F900F90DF91CF911F910F9110
:1018D000FF90EF90DF90CF90BF90AF909F908F9050
:1018E0007F906F905F904F903F902F9008950F934F
:1018F0001F9389019A0141E05BDF1F910F910895C9
:10190000EF92FF920F931F93CF93DF931F92CDB768
:10191000DEB7182F062FE42EF22E20910002309110
:101920000102AE014F5F5F4FE2DF81E090E001C056
:10193000880FEA94EAF74981FF2069F0482B498330
:10194000602F812F26DF0F90DF91CF911F910F9194
:10195000FF90EF90089580954823F1CFDF92EF92AA
:10196000FF920F931F93CF93DF931F92CDB7DEB7F4
:10197000F82EE62E142FD22E209100023091010273
:10198000AE014F5F5F4FB3DF882351F1812F8D1977
:10199000990BAC014F5F5F4F81E090E002C0880F70
:1019A000991FDA94E2F70197042E01C0880F0A9478
:1019B000EAF701C0000F4A95EAF7482F4095998150
:1019C00049238023482B49836E2D8F2DE2DE0F9013
:1019D000DF91CF911F910F91FF90EF90DF900895CD
:1019E00080E0F5CF28E6FC01208308950F93062FB1
:1019F00023E042E06AE1FC018081B0DF0F910895AD
:101A00000F93062F22E044E06BE1FC018081A6DF0A
:101A10000F9108950F93062F22E044E06CE1FC0142
:101A200080819CDF0F9108950F931F93CF93DF93D5
:101A3000EC0100910002109101029C012F5F3F4FC9
:101A400042E063E48881B4DE89819A8198278927FE
:101A50009827DF91CF911F910F9108950F931F93B6
:101A6000CF93DF93EC0100910002109101029C01E1
:101A70002F5F3F4F42E065E488819ADE89819A8139
:101A8000982789279827DF91CF911F910F9108956B
:101A90000F931F93CF93DF93EC01009100021091FD
:101AA00001029C012F5F3F4F42E067E4888180DEA6
:101AB00089819A81982789279827DF91CF911F9153
:101AC0000F910895262F46E06BE6FC01808118CF28
:101AD0000F93062F23E042E06BE6FC0180813EDF9E
:101AE0000F910895CF93DF93EC0161E0F1DF60E0A7
:101AF000CE0186DF60E0CE018DDF60E0CE01DF91B8
:101B0000CF91E0CFCF93C82F8AEB97E059DB6C2FB2
:101B10008EE798E06BDF8EE798E0CF91E3CFCF932D
:101B2000DF93EC018EE798E07FDF998388838EE76F
:101B300098E094DF9B838A838EE798E0A9DF9D83FA
:101B40008C83DF91CF9108958EE798E04BCF6111A0
:101B500002C00C940A266130E1F362E0FACF6623FA
:101B600019F061E00C94462660E0FCCF0895CF9216
:101B7000DF92EF92FF92CF93882351F16A017B01AC
:101B8000CFEFC80F20E030E0A901CB01B6010E94E1
:101B9000EE1F87FF11C0C701B60190580E945F2059
:101BA0009B01AC016C2F70E090E080E0CF91FF9042
:101BB000EF90DF90CF90B2C0C701B6010E945A20CB
:101BC0008C2FCF91FF90EF90DF90CF900C94D0248A
:101BD000CF91FF90EF90DF90CF9008950F931F93D8
:101BE0008B019C0183E036952795179507958A957B
:101BF000D1F70357174F462F477021E030E0F90126
:101C000002C0EE0FFF1F4A95E2F7AF01F8012081F5
:101C10002423CB010196211102C090E080E01F91A6
:101C20000F9108950F931F938B019C0183E03695CC
:101C30002795179507958A95D1F7677081E090E011
:101C400001C0880F6A95EAF7F801E357F74F208142
:101C5000452B31F48095822380831F910F91089545
:101C6000822BFACF2F923F924F925F926F927F9288
:101C70008F929F92AF92BF92CF92DF92EF92FF929C
:101C80000F931F93CF93DF93D62EC72E782E692EF6
:101C900049015A01280161E08D2D0E940A26CD2DAF
:101CA000DC2D8E010F5F1F4FA8016D2D7C2D872D20
:101CB000962DB8DF20E030E0A901C201B7010E94F3
:101CC000DE21181664F4C201B7010E945F202B01C7
:101CD000C501B4010E945F20A201CE0123D0C8013A
:101CE000DF91CF911F910F91FF90EF90DF90CF90F8
:101CF000BF90AF909F908F907F906F905F904F902C
:101D00003F902F900895882341F08150682F70E014
:101D100090E080E050E040E085CF0895862FB90143
:101D20000C94D0249C01FC01EC51FF4FE491E15054
:101D3000E231E0F4F0E08827EF55F14F8F4F0C943B
:101D4000262CB30EBA0EBD0ED40EE90EB60EFE0E44
:101D50000A0F0E0F250F3A0F4F0F660F7B0FB60EAF
:101D6000900FA70FBC0F84B5806884BD60E0822F00
:101D70000C94462684B58062F8CF809180008C7FD9
:101D800082608093800080918100807E8061682BDA
:101D9000609381005093870040938600809180007B
:101DA000806880938000E2CF809180008C7F826089
:101DB0008093800080918100807E8061682B609399
:101DC000810050938700409386008091800080625C
:101DD000E8CF809180008C7F82608093800080912A
:101DE0008100807E8061682B609381005093870022
:101DF00040938600809180008860D3CF8091B000AE
:101E000080688093B0008091B100887F682B6093D8
:101E1000B100ACCF8091B0008062F3CF8091900090
:101E20008C7F82608093900080919100807E8061A1
:101E3000682B609391005093970040939600809197
:101E4000900080688093900091CF809190008C7F6B
:101E500082608093900080919100807E8061682BE9
:101E6000609391005093970040939600809190006A
:101E70008062E8CF809190008C7F82608093900098
:101E800080919100807E8061682B609391005093D7
:101E9000970040939600809190008860D3CF809106
:101EA000A0008C7F82608093A0008091A100807E42
:101EB0008061682B6093A1005093A7004093A60017
:101EC0008091A00080688093A00050CF8091A000F6
:101ED0008C7F82608093A0008091A100807E8061D1
:101EE000682B6093A1005093A7004093A6008091B7
:101EF000A0008062E8CF8091A0008C7F82608093F8
:101F0000A0008091A100807E8061682B6093A10079
:101F10005093A7004093A6008091A0008860D3CF83
:101F2000809120018C7F826080932001809121012B
:101F3000807E8061682B609321015093270140933C
:101F40002601809120018068809320010FCF80912D
:101F500020018C7F82608093200180912101807E0E
:101F60008061682B609321015093270140932601E3
:101F7000809120018062E8CF809120018C7F826077
:101F80008093200180912101807E8061682B609385
:101F90002101509327014093260180912001886000
:101FA000D3CF2F923F924F925F926F927F928F92F8
:101FB0009F92AF92BF92CF92DF92EF92FF920F93D8
:101FC0001F93CF93DF93CDB7DEB7AE970FB6F894DC
:101FD000DEBF0FBECDBF2090880C3090890C0091E1
:101FE000860C1091870CE0912309F09124098080E0
:101FF0009180A280B380A5019401D8016D917D915B
:102000008D919C910E94DE2187FD02C00C94B11835
:10201000A5019401F801E854FF4F6081718182812C
:1020200093810E94EE1F181614F00C94B518E091DD
:10203000B40CF091B50CFA83E9837F01EE0CFF1C20
:10204000EE0CFF1C6801CE0CDF1CA5019401D6012B
:102050006D917D918D919C910E94DE21B4E0EB0EFB
:10206000F11CE00EF11E181614F00C94A418F4E004
:10207000CF1AD108A5019401D60114966D917D91D6
:102080008D919C9117970E94DE21181614F40C94E0
:10209000981829813A813093B50C2093B40C220F03
:1020A000331F220F331F3E832D83F901E00FF11FF1
:1020B000C080D180E280F3802C5F3F4F3A83298338
:1020C000F901E00FF11F4080518062807380A3010D
:1020D0009201C701B6010E94EE1FAD81BE81A20D23
:1020E000B31DBA87A98781110C94E418A701960142
:1020F000C501B4010E94EE1F87FD02C00C94BB18FD
:10210000E985FA8580819181A281B3818093AD0BAD
:102110009093AE0BA093AF0BB093B00BE454FF4F72
:1021200080819181A281B3818093B10B9093B20B96
:10213000A093B30BB093B40B29853A8528583E4F32
:10214000F90180819181A281B3818093B50B909335
:10215000B60BA093B70BB093B80B2091B50B309191
:10216000B60B4091B70B5091B80B60912606709159
:10217000270680912806909129060E94E22160930B
:10218000020C7093030C8093040C9093050C61E097
:1021900070E080E090E00E9416086093220C70933B
:1021A000230C8093240C9093250C0E948D20209169
:1021B0004A0630914B0640914C0650914D060E94C4
:1021C000E22120912E0630912F0640913006509149
:1021D00031060E94E2212B013C014092060C5092F4
:1021E000070C6092080C7092090C20914E063091F9
:1021F0004F0640915006509151060E94E22169A37A
:102200007AA38BA39CA38091900C9091910CA091A8
:10221000920CB091930C89879A87AB87BC872091E9
:102220005A0630915B0640915C0650915D06BC01F8
:10223000CD010E94E2216DA37EA38FA398A72091D8
:10224000980C3091990C40919A0C50919B0C609194
:1022500062067091630680916406909165060E9403
:10226000E22120E030E0A9010E948A1F20E030E056
:10227000A9010E948A1F20E030E0A9010E948A1F64
:102280006D877E878F87988B60930A0C70930B0CF9
:1022900080930C0C90930D0C20919C0C30919D0C14
:1022A00040919E0C50919F0C60917E0670917F062C
:1022B00080918006909181060E94E22120E030E02A
:1022C000A9010E948A1F20E030E0A9010E948A1F14
:1022D00020E030E0A9010E948A1F698F7A8F8B8FDE
:1022E0009C8F2091A00C3091A10C4091A20C509198
:1022F000A30C60919A0670919B0680919C06909128
:102300009D060E94E22120E030E0A9010E948A1F80
:1023100020E030E0A9010E948A1F69837A838B83C1
:102320009C832091A40C3091A50C4091A60C509157
:10233000A70C6091B6067091B7068091B80690918F
:10234000B9060E94E22120E030E0A9010E948A1F24
:102350006D8F7E8F8F8F98A32091A80C3091A90C40
:102360004091AA0C5091AB0C6091C2067091C306CB
:102370008091C4069091C5060E94E22120E030E0E1
:10238000A9010E948A1F20E030E0A9010E948A1F53
:102390006D837E838F8398872091AC0C3091AD0C38
:1023A0004091AE0C5091AF0C6091DA067091DB0653
:1023B0008091DC069091DD060E94E22120E030E071
:1023C000A9010E948A1F20E030E0A9010E948A1F13
:1023D0004B015C012091B00C3091B10C4091B20CDA
:1023E0005091B30C6091F2067091F3068091F4065F
:1023F0009091F5060E94E2216B017C012091DA05A3
:102400003091DB054091DC055091DD05C301B2013F
:102410000E94E2212D813E814F8158850E948A1FB2
:10242000698B7A8B8B8B9C8B60931E0C70931F0C2B
:102430008093200C9093210C2091DE053091DF05D4
:102440004091E0055091E105C301B2010E94E221F3
:10245000A50194010E948A1F6D8B7E8B8F8B988FB4
:102460002091E2053091E3054091E4055091E505A6
:10247000C301B2010E94E2214B015C0120E030E087
:10248000A901C701B6010E948A1F9B01AC01C501C9
:10249000B4010E948A1F69A77AA78BA79CA736EE72
:1024A000A32E35E0B32E09EC1BE0A2EFB4E0BE830F
:1024B000AD8346EF842E45E0942EBEA6ADA6B4E0D3
:1024C000AB0EB11CEDA5FEA520A131A142A153A1E7
:1024D0006D897E898F89988D0E94E2216B017C0134
:1024E000ADA5BEA550962D913D914D915C91539710
:1024F00069897A898B899C890E94E2219B01AC01C0
:10250000C701B6010E948A1F6B017C01EDA5FEA5E3
:1025100020A931A942A953A969A57AA58BA59CA593
:102520000E94E2219B01AC01C701B6010E948A1FF3
:102530006B017C01ADA5BEA52D913D914D915C91A6
:10254000C301B2010E94E2219B01AC01C701B601A7
:102550000E948A1FF80161937193819391938F0177
:102560008A149B0409F0A9CF80910707813009F0F4
:102570008EC640920E0C50920F0C6092100C70920E
:10258000110C20918C0C30918D0C40918E0C50913F
:102590008F0C69A17AA18BA19CA10E94891F6093D5
:1025A000120C7093130C8093140C9093150C898566
:1025B0009A85AB85BC858093160C9093170CA093DD
:1025C000180CB093190C2091940C3091950C4091FB
:1025D000960C5091970C6DA17EA18FA198A50E9499
:1025E000891F60931A0C70931B0C80931C0C9093A2
:1025F0001D0CC090020CD090030CE090040CF090E5
:10260000050C20910E0C30910F0C4091100C509144
:10261000110CC701B6010E948A1F209162053091FA
:10262000630540916405509165050E94E2214B01CC
:102630005C012091120C3091130C4091140C5091BC
:10264000150CC701B6010E948A1F209166053091C2
:10265000670540916805509169050E94E2219B0140
:10266000AC01C501B4010E948A1F4B015C0120919D
:10267000160C3091170C4091180C5091190CC70191
:10268000B6010E948A1F20916A0530916B05409126
:102690006C0550916D050E94E2219B01AC01C501C2
:1026A000B4010E948A1F4B015C0120911A0C3091E9
:1026B0001B0C40911C0C50911D0CC701B6010E94CF
:1026C0008A1F20916E0530916F05409170055091E1
:1026D00071050E94E2219B01AC01C501B4010E9479
:1026E0008A1F6B017C012091B50B3091B60B409194
:1026F000B70B5091B80B60914606709147068091D8
:102700004806909149060E94E2219B01AC01C70155
:10271000B6010E948A1F6B017C0169857A858B85D1
:102720009C859F7720E030E040E45FE30E94EE1F4D
:1027300020E030E040E85FE387FD03C020E030E0C8
:10274000A901C701B6010E94E2216093020C7093B7
:10275000030C8093040C9093050C20E030E040E2E1
:1027600051E40E948A1F2DEC3CEC4CE455E40E949D
:10277000E2210E94C82060930E0C70930F0C80938E
:10278000100C9093110C0E949D1E882309F4EDC536
:1027900010920E0C10920F0C1092100C1092110C43
:1027A000C0900E0CD0900F0CE090100CF090110C1B
:1027B00020E030E0A901C701B6010E94EE1F87FFAB
:1027C000F5C5C701B60190580E945F2071956195CB
:1027D00071097093DA0B6093DB0B20E030E040E28C
:1027E00051E46091060C7091070C8091080C909157
:1027F000090C0E948A1F2DEC3CEC4CE455E40E942D
:10280000E2210E94C82060930E0C70930F0C8093FD
:10281000100C9093110C0E949D1E882309F4CAC5C8
:1028200010920E0C10920F0C1092100C1092110CB2
:10283000C0900E0CD0900F0CE090100CF090110C8A
:1028400020E030E0A901C701B6010E94EE1F87FF1A
:10285000D2C5C701B60190580E945F20719561955D
:1028600071097093DC0B6093DD0B20E030E040E2F7
:1028700051E46091900C7091910C8091920C909128
:10288000930C0E948A1F2DEC3CEC4CE455E40E9412
:10289000E2210E94C82060930E0C70930F0C80936D
:1028A000100C9093110C0E949D1E882309F4A7C55B
:1028B00010920E0C10920F0C1092100C1092110C22
:1028C000C0900E0CD0900F0CE090100CF090110CFA
:1028D00020E030E0A901C701B6010E94EE1F87FF8A
:1028E000AFC5C701B60190580E945F2071956195F0
:1028F00071097093DE0B6093DF0B20E030E040E263
:1029000051E460910A0C70910B0C80910C0C909129
:102910000D0C0E948A1F2DEC3CEC4CE455E40E9407
:10292000E2210E94C82060930E0C70930F0C8093DC
:10293000100C9093110C0E949D1E882309F484C5ED
:1029400010920E0C10920F0C1092100C1092110C91
:10295000C0900E0CD0900F0CE090100CF090110C69
:1029600020E030E0A901C701B6010E94EE1F87FFF9
:102970008CC5C701B60190580E945F207195619582
:1029800071097093E00B6093E10B20E030E040E2CE
:1029900051E469817A818B819C810E948A1F2DEC90
:1029A0003CEC4CE455E40E94E2210E94C820609374
:1029B0000E0C70930F0C8093100C9093110C0E94CE
:1029C0009D1E882309F465C510920E0C10920F0C01
:1029D0001092100C1092110CC0900E0CD0900F0C95
:1029E000E090100CF090110C20E030E0A901C7013C
:1029F000B6010E94EE1F87FF6DC5C701B601905852
:102A00000E945F2000271127061B170B20E030E0F3
:102A100040E251E46091C90B7091CA0B8091CB0BDD
:102A20009091CC0B0E948A1F2DEC3CEC4CE455E4B9
:102A30000E94E2210E94C82060930E0C70930F0C3C
:102A40008093100C9093110C0E949D1E882309F412
:102A500046C510920E0C10920F0C1092100C109292
:102A6000110CC0900E0CD0900F0CE090100CF09058
:102A7000110C20E030E0A901C701B6010E94EE1F51
:102A800087FF4EC5C701B60190580E945F2071951F
:102A9000619571097093E40B6093E50B20E030E0E1
:102AA00040E251E46091D10B7091D20B8091D30B35
:102AB0009091D40B0E948A1F2DEC3CEC4CE455E421
:102AC0000E94E2210E94C82060930E0C70930F0CAC
:102AD0008093100C9093110C0E949D1E882309F482
:102AE00023C510920E0C10920F0C1092100C109225
:102AF000110CC0900E0CD0900F0CE090100CF090C8
:102B0000110C20E030E0A901C701B6010E94EE1FC0
:102B100087FF2BC5C701B60190580E945F20AA27E6
:102B2000BB27A61BB70BBA87A987C0903E06D090DB
:102B30003F06E0904006F0904106A70196016091A3
:102B40004C0C70914D0C80914E0C90914F0C0E944A
:102B5000EE1F882341F0C0924C0CD0924D0CE092B5
:102B60004E0CF0924F0C809108078093D90B109374
:102B7000E20B0093E30BBA85B093E60BE985E09393
:102B8000E70B6091600C7091610C8091620C9091E8
:102B9000630C0E945F20C62E6091580C7091590CF6
:102BA00080915A0C90915B0C0E945F20E62E609100
:102BB0005C0C70915D0C80915E0C90915F0C0E949A
:102BC0005F20062F6091540C7091550C8091560C2B
:102BD0009091570C0E945F2069876091500C709112
:102BE000510C8091520C9091530C0E945F20862FC3
:102BF000912C812C92E0A92E29854FE050E069EDBF
:102C00007BE00E944C0180911E0C90911F0CA091C2
:102C1000200CB091210C89879A87AB87BC87809163
:102C2000900C9091910CA091920CB091930C8D8787
:102C30009E87AF87B88B8090060C9090070CA09071
:102C4000080CB090090C8091020C9091030CA0919B
:102C5000040CB091050C898B9A8BAB8BBC8B02E971
:102C600015E028EE222E2BE0322E1EA70DA70C5FBA
:102C70001F4FADA5BEA51C962D913D914D915C9128
:102C80001F976D897E898F89988D0E94E2216B0143
:102C90007C01EDA5FEA520813181428153816985AA
:102CA0007A858B859C850E94E2219B01AC01C7013E
:102CB000B6010E948A1F6B017C01D80154962D91A8
:102CC0003D914D915C91579769A57AA58BA59CA5DF
:102CD0000E94E2219B01AC01C701B6010E948A1F3C
:102CE0006B017C01F80120AD31AD42AD53AD6D8576
:102CF0007E858F8598890E94E2212B013C01D801B5
:102D00009C962D913D914D915C919F97C501B40189
:102D10000E94E2219B01AC01C301B2010E948A1F03
:102D20002B013C01F80120A131A142A153A16989E5
:102D30007A898B899C890E94E2219B01AC01C301A5
:102D4000B2010E948A1F9B01AC01C701B6010E941B
:102D50008A1FD1016D937D938D939D931D01EEE9A3
:102D6000F5E0E017F10709F080CF80910A0C90910F
:102D70000B0CA0910C0CB0910D0C89879A87AB8736
:102D8000BC87209142053091430540914405509104
:102D90004505BC01CD010E94E2216B017C0120911F
:102DA0004A0530914B0540914C0550914D05698D78
:102DB0007A8D8B8D9C8D0E94E2219B01AC01C70115
:102DC000B6010E948A1F6B017C012091520530914F
:102DD0005305409154055091550569817A818B8145
:102DE0009C810E94E2219B01AC01C701B6010E94B7
:102DF0008A1F6B017C0120915A0530915B0540913F
:102E00005C0550915D056D8D7E8D8F8D98A10E9422
:102E1000E2219B01AC01C701B6010E948A1F2B0170
:102E20003C014092F40B5092F50B6092F60B7092BD
:102E3000F70B20914E0530914F0540915005509170
:102E40005105698D7A8D8B8D9C8D0E94E2216B01DD
:102E50007C012091460530914705409148055091ED
:102E6000490569857A858B859C850E94E2219B01B5
:102E7000AC01C701B6010E948A1F6B017C01209141
:102E80005605309157054091580550915905698173
:102E90007A818B819C810E94E2219B01AC01C70158
:102EA000B6010E948A1F6B017C0120915E05309162
:102EB0005F0540916005509161056D8D7E8D8F8D10
:102EC00098A10E94E2219B01AC01C701B6010E94BA
:102ED0008A1F6B017C01C092F80BD092F90BE09233
:102EE000FA0BF092FB0BA3019201C501B4010E9401
:102EF000891F6D8B7E8B8F8B988F6093060C7093E0
:102F0000070C8093080C9093090CA70196016D851E
:102F10007E858F859889FDD74B015C0180921E0CC0
:102F200090921F0CA092200CB092210C09EB1BE098
:102F300082E7282E85E0382EAD81BE81BE87AD8721
:102F4000FD013496FE83ED8350962D913D914D9178
:102F50005C915397698D7A8D8B8D9C8D0E94E221B7
:102F60006B017C01AD85BE852D913D914D915C91AC
:102F700069857A858B859C850E94E2219B01AC0145
:102F8000C701B601C7D76B017C01ED85FE8520A185
:102F900031A142A153A169817A818B819C810E94D8
:102FA000E2219B01AC01C701B601B4D76B017C01E2
:102FB000AD85BE85D0962D913D914D915C91D39775
:102FC0006D8D7E8D8F8D98A10E94E2219B01AC01B9
:102FD000C701B6019FD76B017C013E862D86B4E008
:102FE0002B0E311CED85FE8520893189428953895C
:102FF000C501B4010E94E2212B013C01AD85BE85D3
:103000002D913D914D915C916D897E898F89988D2F
:103010000E94E2219B01AC01C301B2017BD72B01CD
:103020003C01ED81FE8124AD35AD46AD57AD6989DA
:103030007A898B899C890E94E2219B01AC01C301A2
:10304000B20168D7A701960165D7D8016D937D932A
:103050008D939D938D01E2E0F5E02D813E81E21795
:10306000F30709F069CFC0920E0CD0920F0CE092DA
:10307000100CF092110C8CEF9BE00E948F0D609170
:10308000FC0B7091FD0B072E000C880B990B0E9416
:103090008D2020912A0630912B0640912C065091CC
:1030A0002D0637D72091FA063091FB064091FC0699
:1030B0005091FD060E94E2212B013C012091420625
:1030C0003091430640914406509145066091020CB0
:1030D0007091030C8091040C9091050C7FD7682FA0
:1030E000661F6627661F88E00E94AF0D8090020C65
:1030F0009090030CA090040CB090050CC0903A0680
:10310000D0903B06E0903C06F0903D06A70196016A
:10311000C501B4010E94DE2118160CF02CC2C09229
:10312000020CD092030CE092040CF092050C32C217
:10313000E981FA813197FA83E9830C943710E981A8
:10314000FA813196FA83E983D7016D917D918D9152
:103150009D917D01A501940141D7181684F70C9427
:1031600049101A8219820C944910EDE2F0E0FA83BA
:10317000E9830C94491029813A81220E331EF10112
:1031800080819181A281B3818093AD0B9093AE0B2E
:10319000A093AF0BB093B00B29853A8520543F4FD5
:1031A000F90180819181A281B3818093B10B9093C9
:1031B000B20BA093B30BB093B40BF8E82F1AFEEF49
:1031C0003F0AF1010C94A110A5019401C301B201C1
:1031D000A0D64B015C01A7019601C301B20199D6AB
:1031E0009B01AC01C501B401FDD64B015C01AC01F2
:1031F0009B0160E070E080E89FE38BD66D837E8367
:103200008F83988729813A81220E331E0DEA1BE0B5
:10321000A985BA85CD90DD90ED90FC90F1014080BC
:10322000518062807380A3019201C701B601D6D696
:103230008823B9F0A7019601C501B4010E94E221DB
:103240006B017C01A30192016D817E818F81988544
:103250000E94E2219B01AC01C701B6015BD66B0164
:103260007C01D801CD92DD92ED92FD928D01E98530
:10327000FA85E454FF4FFA87E987FCEB2F0E311CE7
:1032800029EB3BE02A173B0719F60C94AD1080910F
:103290000607813089F58D859E85AF85B889809335
:1032A0000E0C90930F0CA093100CB093110C898D01
:1032B0009A8DAB8DBC8D8093120C9093130CA093C0
:1032C000140CB093150C89819A81AB81BC818093D9
:1032D000160C9093170CA093180CB093190C8D8DAD
:1032E0009E8DAF8DB8A180931A0C90931B0CA09368
:1032F0001C0CB0931D0C7DC98091C90B9091CA0B19
:10330000A091CB0BB091CC0B80930E0C90930F0C33
:10331000A093100CB093110C8091CD0B9091CE0B1B
:10332000A091CF0BB091D00B8093120C9093130C03
:10333000A093140CB093150C8091D10B9091D20BEB
:10334000A091D30BB091D40B8093160C9093170CD3
:10335000A093180CB093190C8091D50B9091D60BBB
:10336000A091D70BB091D80BBECF60910E0C70918D
:103370000F0C8091100C9091110CB6D4811108CAD9
:1033800060910E0C70910F0C8091100C9091110CAB
:1033900020E030E040E857E415D760930E0C7093BE
:1033A0000F0C8093100C9093110CFAC9C701B60151
:1033B00086D60FCA60910E0C70910F0C8091100C84
:1033C0009091110C91D481112BCA60910E0C7091C7
:1033D0000F0C8091100C9091110C20E030E040E82F
:1033E00057E4F0D660930E0C70930F0C8093100C82
:1033F0009093110C1DCAC701B60161D632CA609103
:103400000E0C70910F0C8091100C9091110C6CD4DB
:1034100081114ECA60910E0C70910F0C8091100CAE
:103420009091110C20E030E040E857E4CBD6609357
:103430000E0C70930F0C8093100C9093110C40CADB
:10344000C701B6013CD655CA60910E0C70910F0CA5
:103450008091100C9091110C47D4811171CA609128
:103460000E0C70910F0C8091100C9091110C20E0BB
:1034700030E040E857E4A6D660930E0C70930F0C32
:103480008093100C9093110C63CAC701B60117D634
:1034900078CA60910E0C70910F0C8091100C909175
:1034A000110C22D4811190CA60910E0C70910F0CF6
:1034B0008091100C9091110C20E030E040E857E42E
:1034C00081D660930E0C70930F0C8093100C909328
:1034D000110C82CAC701B601F2D58B0197CA60915F
:1034E0000E0C70910F0C8091100C9091110CFCD36C
:1034F0008111AFCA60910E0C70910F0C8091100C6D
:103500009091110C20E030E040E857E45BD66093E6
:103510000E0C70930F0C8093100C9093110CA1CA99
:10352000C701B601CCD5B6CA60910E0C70910F0CD4
:103530008091100C9091110CD7D38111D2CA609157
:103540000E0C70910F0C8091100C9091110C20E0DA
:1035500030E040E857E436D660930E0C70930F0CC1
:103560008093100C9093110CC4CAC701B601A7D563
:103570007A876987DACAC090FE06D090FF06E0908D
:103580000007F0900107A7019601C501B40126D5F7
:1035900087FDC5CD60916E0C70916F0C8091700CA1
:1035A0009091710C0E94EE0D90936D0C80936C0CB9
:1035B0002091020C3091030C4091040C5091050CA9
:1035C00060910207709103078091040790910507AD
:1035D000F9D6DED56B017C01B0D381119FC1C70143
:1035E000B60182D381119AC120E030E040E853E473
:1035F000C701B601E7D56B017C0120E030E0A901ED
:10360000EDD487FF8EC1C701B601905858D561959A
:1036100070E090E080E081D5AB01BC0180916C0C42
:1036200090916D0C0E94B70D89A19AA1ABA1BCA18C
:1036300080938C0C90938D0CA0938E0CB0938F0C78
:1036400020915206309153064091540650915506F0
:10365000C301B201B7D62091900C3091910C4091EA
:10366000920C5091930C56D46093900C7093910CE3
:103670008093920C9093930C8DA19EA1AFA1B8A5BD
:103680008093940C9093950CA093960CB093970C08
:103690002091980C3091990C40919A0C50919B0C70
:1036A00060915E0670915F06809160069091610660
:1036B00089D62091B90B3091BA0B4091BB0B509138
:1036C000BC0B28D46093980C7093990C80939A0C3F
:1036D00090939B0C20919C0C30919D0C40919E0CE2
:1036E00050919F0C60917A0670917B0680917C06C8
:1036F00090917D0667D62091BD0B3091BE0B409115
:10370000BF0B5091C00B06D460939C0C70939D0C22
:1037100080939E0C90939F0C2091A00C3091A10C53
:103720004091A20C5091A30C60919606709197065F
:10373000809198069091990645D62091C10B3091C1
:10374000C20B4091C30B5091C40BE4D36093A00C07
:103750007093A10C8093A20C9093A30C2091A40CC5
:103760003091A50C4091A60C5091A70C6091B20627
:103770007091B3068091B4069091B50623D620913E
:10378000C50B3091C60B4091C70B5091C80BC2D3EB
:103790006093A40C7093A50C8093A60C9093A70C37
:1037A0002091A80C3091A90C4091AA0C5091AB0C1F
:1037B0006091BE067091BF068091C0069091C106CF
:1037C00001D62091E80B3091E90B4091EA0B509122
:1037D000EB0BA0D36093A80C7093A90C8093AA0C58
:1037E0009093AB0C2091AC0C3091AD0C4091AE0C91
:1037F0005091AF0C6091D6067091D7068091D80693
:103800009091D906DFD52091EC0B3091ED0B4091D2
:10381000EE0B5091EF0B7ED36093AC0C7093AD0C1C
:103820008093AE0C9093AF0C2091B00C3091B10C02
:103830004091B20C5091B30C6091EE067091EF067E
:103840008091F0069091F106BDD52091F00B30915A
:10385000F10B4091F20B5091F30B5CD36093B00CE1
:103860007093B10C8093B20C9093B30C60911509D6
:103870007091160980911709909118096F5F7F4F19
:103880008F4F9F4F60931509709316098093170906
:1038900090931809A0912309B0912409BA83A983B0
:1038A0003AD49B01AC016091190970911A09809179
:1038B0001B0990911C0986D5E981FA816083718387
:1038C0008283938380911D0990911E09A0911F0905
:1038D000B09120090196A11DB11D80931D099093FF
:1038E0001E09A0931F09B0932009AE960FB6F89455
:1038F000DEBF0FBECDBFDF91CF911F910F91FF9023
:10390000EF90DF90CF90BF90AF909F908F907F907F
:103910006F905F904F903F902F900895C12CD12CC5
:103920007601C701B601CBD373CE4F925F926F92EF
:103930007F92AF92BF92DF92EF92FF920F931F930D
:10394000CF93DF9384E090E098D1E6E9F8E087E94F
:10395000DF011D928A95E9F781E299E095838483DE
:10396000C3E2D9E0D7AFC6AF09E119E0138B028BF0
:10397000F093FF08E093FE08F383E28321E030E058
:10398000DC012D933C938FE397E09187808785E25C
:1039900099E09983888342E450E665E67CE3F80188
:1039A0004083518362837383EDEAFBE089E7DF01A3
:1039B0001D928A95E9F7C6E2DCE080E9FE011192EA
:1039C0008A95E9F786E394E09093870C8093860CC0
:1039D00082E092E09093890C8093880C412C512CCA
:1039E000320143944092730C5092740C6092750CA7
:1039F0007092760C42E150E063E170E081E090E08B
:103A00000E942207DD24D394D092770C18828091F3
:103A10003E0690913F06A0914006B09141068EA3CC
:103A20009FA3A8A7B9A749825A826B827C821AA653
:103A30001BA61CA61DA680E090E0A0E8BFE38EA711
:103A40009FA7A8ABB9AB1AAA1BAA1CAA1DAA1EAA9B
:103A50001FAA18AE19AE1AAE1BAE1CAE1DAE80E08A
:103A60000E942D01DD821092780C4092790C5092C8
:103A70007A0C60927B0C70927C0C90E080E00E944B
:103A8000820DD0927D0C10927E0C40927F0C509251
:103A9000800C6092810C7092820C61E088E00E9440
:103AA000A70DD092830C1092660C9EE6A92E9CE086
:103AB000B92E86E090E0A0E0B0E0F501808391832C
:103AC000A283B383CBE6DCE018824092670C50926D
:103AD000680C6092690C70926A0CE12CF12C8701E1
:103AE000A801970166E070E080E090E00E94320E4D
:103AF0000CE61CE0D8018D939C93F50160817181E7
:103B0000828193810E94EE0DD8018D939C930E9437
:103B1000B60DD8828091320690913306A09134067A
:103B2000B091350680938C0C90938D0CA0938E0CE5
:103B3000B0938F0C8091560690915706A09158062D
:103B4000B09159068093900C9093910CA093920C95
:103B5000B093930C8091360690913706A091380669
:103B6000B09139068093940C9093950CA093960C89
:103B7000B093970CDF91CF911F910F91FF90EF9031
:103B8000DF90BF90AF907F906F905F904F900895BF
:103B90008091720C811103C081E08093720C80913E
:103BA000260C811103C081E08093260C8091780C53
:103BB000811103C081E08093780C80917E0C81118B
:103BC00003C081E080937E0C8091660C811136C029
:103BD00081E08093660C8091670C9091680CA091B5
:103BE000690CB0916A0C0197A105B10539F5809176
:103BF0006B0C882319F160916E0C70916F0C8091A1
:103C0000700C9091710C0E94EE0D90936D0C80934E
:103C10006C0C40E050E0BA010E94B70D60916E0C50
:103C200070916F0C8091700C9091710C0E94EE0D50
:103C300090936D0C80936C0C0C94830E089560E04F
:103C400070E080E89FE7089560E070E080E89FE71B
:103C5000089560E070E080E89FEF089560E070E014
:103C600080E89FEF089560E070E080EC9FEF08959A
:103C700060E070E080EC9FEF0895F5DF6093C20C88
:103C80007093C30C8093C40C9093C50CF1DF6093C8
:103C9000B60C7093B70C8093B80C9093B90CCFDF2F
:103CA0006093BE0C7093BF0C8093C00C9093C10CBA
:103CB000CBDF6093BA0C7093BB0C8093BC0C9093D9
:103CC000BD0CC7DF6093C60C7093C70C8093C80C03
:103CD0009093C90CC3DF6093CA0C7093CB0C809394
:103CE000CC0C9093CD0C0895CF92DF92EF92FF927F
:103CF000CF936B017C01AC019B016091BA0C709178
:103D0000BB0C8091BC0C9091BD0C68D1C1E08823A4
:103D100069F0A70196016091CA0C7091CB0C80915B
:103D2000CC0C9091CD0C5AD18111C0E08C2FCF9149
:103D3000FF90EF90DF90CF9008950F931F938B012A
:103D40009C010027112720783F7701151105204895
:103D50003F4749F4AB01BC016F77772781E0452BE2
:103D6000462B472B09F480E01F910F91089540E006
:103D700052EC61E070E090E080E006D061E08DE020
:103D800049D760E08DE082C78130910579F01CF45D
:103D9000892B39F008958230910561F0039771F015
:103DA000089526E089E399E00C943D2726E086ED0E
:103DB00099E0FACF26E083E79AE0F6CF26E080E1AB
:103DC0009BE0F2CF1F920F920FB60F9211240BB609
:103DD0000F922F933F934F935F936F937F938F93A4
:103DE0009F93AF93BF93EF93FF9385E99CEF9093DD
:103DF00025018093240180912E0990912F0901972C
:103E000019F461E08DE042D734D0FF91EF91BF917A
:103E1000AF919F918F917F916F915F914F913F9162
:103E20002F910F900BBE0F900FBE0F901F90189503
:103E300085E99CEF9093250180932401A3E7B0E0EE
:103E40008C918E7F8C93E0E2F1E080818C7F808387
:103E5000E1E2F1E08081877E8083808184608083DD
:103E600080818C7F80838C9181608C93089581E028
:103E7000089580912D0991E0980F90932D09882342
:103E800049F021E030E030932F0920932E098093F0
:103E90002D09089578940E94D10FF89480912D09EE
:103EA0008150F5CFCF93DF931092CF0C1092CE0CB0
:103EB00015D55DDFC0915107D09152071982188244
:103EC00034DDF894B5DF81E028813981232B09F0B6
:103ED00080E08093CE0C789478948091CE0C811100
:103EE00007C056DEF89490E080E0DF91CF9108950E
:103EF00081E028813981232B09F480E08093CF0C65
:103F00009091CF0C81E0911180E08093CE0CAFDFD7
:103F1000E4CF5058BB27AA270ED0FFC1F0D130F014
:103F2000F5D120F031F49F3F11F41EF4E5C10EF4F9
:103F3000E095E7FBB2C1E92F01D280F3BA1762071F
:103F400073078407950718F071F49EF530C20EF4DC
:103F5000E0950B2EBA2FA02D0B01B90190010C0199
:103F6000CA01A0011124FF27591B99F0593F50F4B1
:103F7000503E68F11A16F040A22F232F342F442709
:103F8000585FF3CF469537952795A795F040539501
:103F9000C9F77EF41F16BA0B620B730B840BBAF0D1
:103FA0009150A1F0FF0FBB1F661F771F881FC2F73C
:103FB0000EC0BA0F621F731F841F48F48795779550
:103FC0006795B795F7959E3F08F0B3CF9395880F07
:103FD00008F09927EE0F9795879508953AD108F440
:103FE00081E008950CD099C191D140F088D130F092
:103FF00021F45F3F19F051C15111DAC17DC19ED149
:1040000098F39923C9F35523B1F3951B550BBB279F
:10401000AA2762177307840738F09F5F5F4F220F4C
:10402000331F441FAA1FA9F333D00E2E3AF0E0E845
:1040300030D091505040E695001CCAF729D0FE2F91
:1040400027D0660F771F881FBB1F26173707480723
:10405000AB07B0E809F0BB0B802DBF01FF279358D9
:104060005F4F2AF09E3F510568F017C1A1C15F3F25
:10407000ECF3983EDCF3869577956795B795F795C1
:104080009F5FC9F7880F911D9695879597F90895B9
:10409000E1E0660F771F881FBB1F62177307840755
:1040A000BA0720F0621B730B840BBA0BEE1F88F764
:1040B000E095089504D06894B1117AC1089546D16D
:1040C00088F09F5790F0B92F9927B751A0F0D1F001
:1040D000660F771F881F991F1AF0BA95C9F712C08B
:1040E000B13081F064D1B1E0089561C1672F782FBC
:1040F0008827B85F39F0B93FCCF3869577956795F7
:10410000B395D9F73EF490958095709561957F4F62
:104110008F4F9F4F0895E89409C097FB3EF4909508
:104120008095709561957F4F8F4F9F4F9923A9F090
:10413000F92F96E9BB279395F6958795779567951F
:10414000B795F111F8CFFAF4BB0F11F460FF1BC063
:104150006F5F7F4F8F4F9F4F16C0882311F096E9F6
:1041600011C0772321F09EE8872F762F05C06623A4
:1041700071F096E8862F70E060E02AF09A95660F5D
:10418000771F881FDAF7880F9695879597F9089516
:10419000F7D080F09F3740F491110EF009C160E034
:1041A00070E080E89FEB089526F41B16611D711DD9
:1041B000811D79C093C0A3D018F011F0A7D038F4B6
:1041C0009BC0F6C0E92FBAD0B0F35523C9F3E7FB83
:1041D0006217730784079507A8F199F3E92FFF2762
:1041E00088232AF03197660F771F881FDAF7952FFB
:1041F0005527442332F091505040220F331F441F63
:10420000D2F7BB27E91BF50B621B730B840BB109BB
:10421000C1F222F4620F731F841FB11D31972AF07F
:10422000660F771F881FBB1FEFCF915050405AF089
:1042300041F0882332F0660F771F881F915050405D
:10424000C1F793954BC08695779567959F5FD9F792
:10425000F8CF990F0008550FAA0BE0E8FEEF1616ED
:104260001706E807F907C0F012161306E407F5076A
:1042700098F0621B730B840B950B39F40A2661F0DE
:10428000232B242B252B21F408950A2609F4A14081
:10429000A6958FEF811D811D089597F99F6780E88E
:1042A00070E060E00895882371F4772321F098503E
:1042B000872B762F07C0662311F499270DC09051E4
:1042C000862B70E060E02AF09A95660F771F881FB2
:1042D000DAF7880F9695879597F908959F3F31F003
:1042E000915020F4879577956795B795880F911D24
:1042F0009695879597F908959FEF80EC089500248F
:104300000A941616170618060906089500240A943A
:1043100012161306140605060895092E0394000CC0
:1043200011F4882352F0BB0F40F4BF2B11F460FF4F
:1043300004C06F5F7F4F8F4F9F4F089557FD905878
:10434000440F551F59F05F3F71F04795880F97FB59
:10435000991F61F09F3F79F0879508951216130613
:104360001406551FF2CF4695F1DF08C01616170642
:104370001806991FF1CF8695710561050894089577
:10438000E5DFA0F0BEE7B91788F4BB279F3860F4DB
:104390001616B11D672F782F8827985FF7CF86955F
:1043A00077956795B11D93959639C8F30895E8946C
:1043B000BB2766277727CB0197F908954ADF08F4D2
:1043C0008FEF08950BD0A9CF9ADF28F09FDF18F068
:1043D000952309F062CF90CF1124EACFAFDFA0F38D
:1043E000959FD1F3950F50E0551F629FF001729F8A
:1043F000BB27F00DB11D639FAA27F00DB11DAA1FA9
:10440000649F6627B00DA11D661F829F2227B00DF5
:10441000A11D621F739FB00DA11D621F839FA00D80
:10442000611D221F749F3327A00D611D231F849FD0
:10443000600D211D822F762F6A2F11249F57504027
:104440008AF0E1F088234AF0EE0FFF1FBB1F661FC2
:10445000771F881F91505040A9F79E3F510570F07B
:104460001CCFA6CF5F3FECF3983EDCF386957795A3
:104470006795B795F795E7959F5FC1F7FE2B880F76
:10448000911D9695879597F908950895883008F0BD
:1044900076C0E82FF0E0EE0FFF1FE75FF84F718363
:1044A00060838150873008F03DC0E82FF0E0882716
:1044B000E35AFD4D8F4F0C94262C9A2264226C22D5
:1044C00078228522A622B322809169008C7F482B16
:1044D00040936900E89A089580916900837F440FB2
:1044E000551F440F551F482B40936900E99A0895C2
:1044F000809169008F7C74E0440F551F7A95E1F735
:10450000482B40936900EA9A0895809169008F735F
:1045100066E0440F551F6A95E1F7482B4093690008
:10452000EB9A089580916A008C7F482B40936A0033
:10453000EC9A089580916A00837F440F551F440FC1
:10454000551F482B40936A00ED9A089580916A00A8
:104550008F7C24E0440F551F2A95E1F7482B4093A8
:104560006A00EE9A089580916A008F7396E0440F76
:10457000551F9A95E1F7482B40936A00EF9A0895EA
:104580001F920F920FB60F9211240BB60F922F931A
:104590003F934F935F936F937F938F939F93AF93CB
:1045A000BF93EF93FF93E0910D07F0910E071995DC
:1045B000FF91EF91BF91AF919F918F917F916F91FB
:1045C0005F914F913F912F910F900BBE0F900FBEB7
:1045D0000F901F9018951F920F920FB60F921124F3
:1045E0000BB60F922F933F934F935F936F937F93ED
:1045F0008F939F93AF93BF93EF93FF93E0910F0738
:10460000F09110071995FF91EF91BF91AF919F9194
:104610008F917F916F915F914F913F912F910F906B
:104620000BBE0F900FBE0F901F9018951F920F9208
:104630000FB60F9211240BB60F922F933F934F9307
:104640005F936F937F938F939F93AF93BF93EF93FA
:10465000FF93E0911107F09112071995FF91EF91E7
:10466000BF91AF919F918F917F916F915F914F918A
:104670003F912F910F900BBE0F900FBE0F901F9088
:1046800018951F920F920FB60F9211240BB60F922E
:104690002F933F934F935F936F937F938F939F934A
:1046A000AF93BF93EF93FF93E0911307F09114073B
:1046B0001995FF91EF91BF91AF919F918F917F914C
:1046C0006F915F914F913F912F910F900BBE0F9083
:1046D0000FBE0F901F9018951F920F920FB60F925A
:1046E00011240BB60F922F933F934F935F936F93C9
:1046F0007F938F939F93AF93BF93EF93FF93E0913B
:104700000907F0910A071995FF91EF91BF91AF91B9
:104710009F918F917F916F915F914F913F912F91D9
:104720000F900BBE0F900FBE0F901F9018951F9209
:104730000F920FB60F9211240BB60F922F933F9347
:104740004F935F936F937F938F939F93AF93BF9399
:10475000EF93FF93E0910B07F0910C071995FF91F0
:10476000EF91BF91AF919F918F917F916F915F91E9
:104770004F913F912F910F900BBE0F900FBE0F9056
:104780001F9018951F920F920FB60F9211240BB61F
:104790000F922F933F934F935F936F937F938F93DA
:1047A0009F93AF93BF93EF93FF93E0911507F09121
:1047B00016071995FF91EF91BF91AF919F918F913E
:1047C0007F916F915F914F913F912F910F900BBE11
:1047D0000F900FBE0F901F9018951F920F920FB65B
:1047E0000F9211240BB60F922F933F934F935F9329
:1047F0006F937F938F939F93AF93BF93EF93FF93A9
:10480000E0911707F09118071995FF91EF91BF916B
:10481000AF919F918F917F916F915F914F913F9158
:104820002F910F900BBE0F900FBE0F901F901895F9
:104830001F920F920FB60F9211242F933F938F93D5
:104840009F93AF93BF938091310990913209A091CA
:104850003309B09134093091300923E0230F2D370B
:1048600058F50196A11DB11D20933009809331099F
:1048700090933209A0933309B0933409809135099C
:1048800090913609A0913709B09138090196A11D80
:10489000B11D8093350990933609A0933709B093E1
:1048A0003809BF91AF919F918F913F912F910F90B8
:1048B0000FBE0F901F90189526E8230F0296A11D9A
:1048C000B11DD2CF2FB7F8946091310970913209A0
:1048D00080913309909134092FBF0895789484B55D
:1048E000826084BD84B5816084BD85B5826085BDEC
:1048F00085B5816085BDEEE6F0E0808181608083D2
:10490000E1E8F0E0108280818260808380818160B4
:104910008083E0E8F0E0808181608083E1EBF0E07B
:10492000808184608083E0EBF0E08081816080831F
:10493000E1E9F0E080818260808380818160808312
:10494000E0E9F0E0808181608083E1EAF0E080814D
:1049500082608083808181608083E0EAF0E08081F2
:1049600081608083E1E2F1E08081826080838081E8
:1049700081608083E0E2F1E0808181608083EAE70A
:10498000F0E0808184608083808182608083808188
:10499000816080838081806880831092C100089547
:1049A0001F93CF93DF93182FEB0161E033D1209752
:1049B00031F460E0812FDF91CF911F9167C1CF3F2C
:1049C000D10511F461E0F6CFE12FF0E0EC51FF4F9B
:1049D000E491E150E23108F0B2C0F0E08827ED50F8
:1049E000FB4D8F4F33C705250D2512251C25262588
:1049F0009F253025382540254A2554255E256D25DF
:104A000077259F2581258B25952584B5806884BDD4
:104A1000C7BDDF91CF911F91089584B5806284BD99
:104A2000C8BDF7CF80918000806880938000D093CC
:104A30008900C0938800EDCF8091800080628093D0
:104A40008000D0938B00C0938A00E3CF80918000D8
:104A5000886080938000D0938D00C0938C00D9CF64
:104A60008091B00080688093B000C093B300D1CF34
:104A70008091B00080628093B000C093B400C9CF31
:104A800080919000806880939000D0939900C093AB
:104A90009800BFCF80919000806280939000D09367
:104AA0009B00C0939A00B5CF80919000886080935E
:104AB0009000D0939D00C0939C00ABCF8091A0004C
:104AC00080688093A0008091A0008F7B8093A000DD
:104AD000D093A900C093A8009CCF8091A0008062D1
:104AE0008093A000D093AB00C093AA0092CF809196
:104AF000A00088608093A000D093AD00C093AC006C
:104B000088CF80912001806880932001D093290173
:104B1000C09328017ECF8091200180628093200184
:104B2000D0932B01C0932A0174CF8091200188601B
:104B300080932001D0932D01C0932C016ACFC038FF
:104B4000D1050CF03FCF35CF8150823108F059C0EC
:104B5000E82FF0E08827E155FA4D8F4F77C6CF2533
:104B6000D325C125C725CB250126D625DC25E02563
:104B7000E625EA25EE25F425F8250126FC25022662
:104B80000626809180008F77809380000895809121
:104B900080008F7DF9CF80918000877FF5CF84B52D
:104BA0008F7784BD089584B58F7DFBCF8091B00051
:104BB0008F778093B00008958091B0008F7DF9CFFA
:104BC000809190008F77809390000895809190005D
:104BD0008F7DF9CF80919000877FF5CF8091A000E5
:104BE0008F778093A00008958091A0008F7DF9CFEA
:104BF0008091A000877FF5CF809120018F778093EF
:104C000020010895809120018F7DF9CF80912001AE
:104C1000877FF5CFCF93DF9390E0FC01E65DFE4FF9
:104C2000249180599E4FFC0184918823C9F090E023
:104C3000880F991FFC01E053FE4FA591B491FC0130
:104C4000EA54FE4FC591D49161110DC09FB7F894FD
:104C50008C91209582238C938881282328839FBF61
:104C6000DF91CF910895623051F49FB7F8943C9151
:104C7000822F809583238C93E8812E2BEFCF8FB7E3
:104C8000F894EC912E2B2C938FBFEACF1F93CF93E8
:104C9000DF93282F30E0F901EC51FF4F8491F901A7
:104CA000E65DFE4FD491F901E059FE4FC491CC234B
:104CB000A1F0162F811148DFEC2FF0E0EE0FFF1F5F
:104CC000EA54FE4FA591B4918FB7F894EC9111116D
:104CD00008C0D095DE23DC938FBFDF91CF911F9169
:104CE0000895DE2BF8CFFC01918D228D892F90E065
:104CF000805C9F4F821B91098F7399270895FC0157
:104D0000918D828D981731F0828DE80FF11D858D80
:104D100090E008958FEF9FEF0895FC01918D828DB3
:104D2000981761F0A28DAE0FBF2FB11D5D968C91CB
:104D3000928D9F5F9F73928F90E008958FEF9FEF0A
:104D40000895FC01538D448D252F30E0842F90E091
:104D5000821B930B541710F0CF9608950197089576
:104D6000FC01A48DA80FB92FB11DA35ABF4F2C91E0
:104D7000848D90E001968F739927848FA689B789D7
:104D80002C93A089B1898C91837080648C93938DCE
:104D9000848D981306C00288F389E02D80818F7D71
:104DA00080830895CF93DF93EC01888D8823B1F041
:104DB000AA89BB89E889F9898C9185FD03C0808126
:104DC00086FD0CC00FB607FCF7CF8C9185FFF2CFA4
:104DD000808185FFEDCFCE01C3DFEACFDF91CF9198
:104DE0000895EF92FF920F931F93CF93DF93EC01FF
:104DF00081E0888F9B8D8C8D98131AC0E889F98982
:104E0000808185FF15C09FB7F894EE89FF89608384
:104E1000E889F98980818370806480839FBF81E005
:104E200090E0DF91CF911F910F91FF90EF90089547
:104E3000F62E0B8D10E00F5F1F4F0F731127E02E22
:104E40008C8D8E110BC00FB607FCFACFE889F9895B
:104E5000808185FFF5CFCE0183DFF2CFEB8DEC0FA4
:104E6000FD2FF11DE35AFF4FF0829FB7F8940B8F8F
:104E7000EA89FB8980818062D0CFCF92DF92EF9266
:104E8000FF921F93CF93DF93EC016A017B01122FF6
:104E9000E889F98982E08083C11481EED806E104B3
:104EA000F10499F060E079E08DE390E0A7019601CC
:104EB000ABD4215031094109510956954795379591
:104EC0002795211580E1380790F0E889F98910824B
:104ED00060E874E88EE190E0A701960195D4215036
:104EE0003109410951095695479537952795EC8524
:104EF000FD853083EE85FF852083188EEC89FD8942
:104F00001083EA89FB89808180618083EA89FB893B
:104F1000808188608083EA89FB89808180688083C2
:104F2000EA89FB8980818F7D8083DF91CF911F91FA
:104F3000FF90EF90DF90CF9008951F920F920FB6E1
:104F40000F9211240BB60F922F938F939F93EF9391
:104F5000FF93E0914909F0914A098081E0914F095E
:104F6000F091500982FD1DC09081809152098F5FA0
:104F70008F7320915309821741F0E0915209F0E0BC
:104F8000E75CF64F958F80935209FF91EF919F91C7
:104F90008F912F910F900BBE0F900FBE0F901F900F
:104FA00018958081F2CF1F920F920FB60F921124A5
:104FB0000BB60F922F933F934F935F936F937F9313
:104FC0008F939F93AF93BF93EF93FF9389E399E000
:104FD000C7DEFF91EF91BF91AF919F918F917F912C
:104FE0006F915F914F913F912F910F900BBE0F905A
:104FF0000FBE0F901F901895E9E3F9E0138212821B
:1050000088EE93E0A0E0B0E084839583A683B78325
:1050100087E597E09183808385EC90E0958784878E
:1050200084EC90E09787868780EC90E0918B808B72
:1050300081EC90E0938B828B82EC90E0958B848B5B
:1050400086EC90E0978B868B118E128E138E148EC9
:1050500008951F920F920FB60F9211240BB60F9264
:105060002F938F939F93EF93FF93E091E609F09135
:10507000E7098081E091EC09F091ED0982FD1DC006
:1050800090818091EF098F5F8F732091F0098217D3
:1050900041F0E091EF09F0E0EA52F64F958F8093EE
:1050A000EF09FF91EF919F918F912F910F900BBE80
:1050B0000F900FBE0F901F9018958081F2CF1F9216
:1050C0000F920FB60F9211240BB60F922F933F93AE
:1050D0004F935F936F937F938F939F93AF93BF9300
:1050E000EF93FF9386ED99E03BDEFF91EF91BF9147
:1050F000AF919F918F917F916F915F914F913F9170
:105100002F910F900BBE0F900FBE0F901F90189510
:10511000E6EDF9E01382128288EE93E0A0E0B0E0C1
:1051200084839583A683B78387E597E09183808303
:105130008DEC90E0958784878CEC90E0978786874C
:1051400088EC90E0918B808B89EC90E0938B828B44
:105150008AEC90E0958B848B8EEC90E0978B868B1D
:10516000118E128E138E148E08951F920F920FB609
:105170000F9211240BB60F922F938F939F93EF935F
:10518000FF93E091830AF091840A8081E091890A7B
:10519000F0918A0A82FD1DC0908180918C0A8F5FF8
:1051A0008F7320918D0A821741F0E0918C0AF0E014
:1051B000ED58F54F958F80938C0AFF91EF919F9159
:1051C0008F912F910F900BBE0F900FBE0F901F90DD
:1051D00018958081F2CF1F920F920FB60F92112473
:1051E0000BB60F922F933F934F935F936F937F93E1
:1051F0008F939F93AF93BF93EF93FF9383E79AE0CF
:10520000AFDDFF91EF91BF91AF919F918F917F9112
:105210006F915F914F913F912F910F900BBE0F9027
:105220000FBE0F901F901895E3E7FAE013821282E9
:1052300088EE93E0A0E0B0E084839583A683B783F3
:1052400087E597E09183808385ED90E0958784875B
:1052500084ED90E09787868780ED90E0918B808B3E
:1052600081ED90E0938B828B82ED90E0958B848B27
:1052700086ED90E0978B868B118E128E138E148E96
:1052800008951F920F920FB60F9211240BB60F9232
:105290002F938F939F93EF93FF93E091200BF091C7
:1052A000210B8081E091260BF091270B82FD1DC020
:1052B00090818091290B8F5F8F7320912A0B821729
:1052C00041F0E091290BF0E0E05FF44F958F80937F
:1052D000290BFF91EF919F918F912F910F900BBE12
:1052E0000F900FBE0F901F9018958081F2CF1F92E4
:1052F0000F920FB60F9211240BB60F922F933F937C
:105300004F935F936F937F938F939F93AF93BF93CD
:10531000EF93FF9380E19BE023DDFF91EF91BF913D
:10532000AF919F918F917F916F915F914F913F913D
:105330002F910F900BBE0F900FBE0F901F901895DE
:10534000E0E1FBE01382128288EE93E0A0E0B0E09F
:1053500084839583A683B78387E597E091838083D1
:1053600085E391E09587848784E391E0978786873A
:1053700080E391E0918B808B81E391E0938B828B32
:1053800082E391E0958B848B86E391E0978B868B0B
:10539000118E128E138E148E0895AF92BF92CF92FB
:1053A000DF92EF92FF920F931F93CF93DF936C01E5
:1053B0007B018B01040F151FEB015E01AE18BF08C6
:1053C000C017D10759F06991D601ED91FC91019078
:1053D000F081E02DC6011995892B79F7C501DF9180
:1053E000CF911F910F91FF90EF90DF90CF90BF90E2
:1053F000AF900895FB0101900020E9F73197AF01CC
:10540000461B570BDC01ED91FC910280F381E02DEE
:1054100019946115710509F0EDCF90E080E00895D1
:10542000DC01ED91FC910190F081E02D199465E68D
:1054300077E0E0CF8F929F92AF92BF92EF92FF9270
:105440000F931F93CF93DF93CDB7DEB7A1970FB61E
:10545000F894DEBF0FBECDBF7C01FA01CB0119A2CB
:10546000223008F42AE08E010F5D1F4F822E912C0E
:10547000B12CA12CBF01A5019401C6D1F901CA012B
:105480006A3004F5605DD8016E938D01232B242BC7
:10549000252B81F790E080E0109719F0BD01C7013E
:1054A000A9DFA1960FB6F894DEBF0FBECDBFDF9186
:1054B000CF911F910F91FF90EF90BF90AF909F9071
:1054C0008F900895695CDFCFCF92DF92EF92FF92C9
:1054D0000F931F93CF93DF932115310581F4DC01E6
:1054E000ED91FC910190F081E02D642FDF91CF913F
:1054F0001F910F91FF90EF90DF90CF9019942A3079
:105500003105F1F42AE077FF1BC06A017B01EC0151
:105510006DE286DF8C0144275527BA014C195D09DD
:105520006E097F092AE0CE0185DF800F911FDF9190
:10553000CF911F910F91FF90EF90DF90CF90089542
:10554000DF91CF911F910F91FF90EF90DF90CF905F
:1055500071CF9A01AB01770F660B770BB5CF0F9325
:105560001F93CF93DF93EC01F4DF8C01CE015FDF5B
:10557000800F911FDF91CF911F910F9108950F938D
:105580001F93CF93DF93EC019FDF8C01CE014FDFA0
:10559000800F911FDF91CF911F910F9108952115D9
:1055A000310541F4DC01ED91FC910190F081E02D99
:1055B000642F19943FCF9A01462F50E070E060E0CD
:1055C000EECF0F931F93CF93DF93EC01F4DF8C01A9
:1055D000CE012DDF800F911FDF91CF911F910F9191
:1055E00008959A01AB0170E060E0D9CF0F931F934B
:1055F000CF93DF93EC01F5DF8C01CE0118DF800F34
:10560000911FDF91CF911F910F9108950F931F93D9
:10561000CF93DF93EC01C3DF8C01CE0108DF800F55
:10562000911FDF91CF911F910F9108952F923F927B
:105630004F925F926F927F928F929F92AF92BF92A2
:10564000CF92DF92EF92FF921F93CF93DF93EC0103
:105650006A017B01722EAB019601CB01B601FED02F
:1056600068E677E0811125C046015701E894B7F854
:105670002FEF3FEF4FE75FE7C501B401EFD0811196
:105680000CC02FEF3FEF4FE75FE7C501B4010E9469
:10569000EE1F6CE677E0181664F02FEF3FEF4FE750
:1056A0005FE4C701B6010E94DE211816ACF460E782
:1056B00077E0CE01DF91CF911F91FF90EF90DF90C7
:1056C000CF90BF90AF909F908F907F906F905F90A2
:1056D0004F903F902F908ECE2FEF3FEF4FE75FEC34
:1056E000C701B6010E94EE1F87FDE1CF20E030E048
:1056F000A901C701B6010E94EE1F312C212C87FFA2
:1057000008C06DE2CE018CDE1C01F7FAF094F7F8C8
:10571000F09410E060E070E080E09FE3711641F0EB
:1057200020E030E040E251E40E94F21F1F5FF6CF1C
:10573000A70196010E948A1F2B013C010E945F2055
:105740004B015C012AE0BC01A401CE0173DE7C01A7
:10575000E20CF31C1123A1F1C501B4010E948B20BE
:105760009B01AC01C301B2010E94891F4B015C0186
:105770006EE2CE0155DEE80EF91E115008F120E070
:1057800030E040E251E4C501B4010E94E2212B0166
:105790003C010E945F204B014AE050E0CE0121DF36
:1057A000E80EF91EB40190E080E00E948B209B017E
:1057B000AC01C301B2010E94891F4B015C01DDCF26
:1057C000C701DF91CF911F91FF90EF90DF90CF90B5
:1057D000BF90AF909F908F907F906F905F904F9011
:1057E0003F902F90089522CF0F931F93CF93DF9375
:1057F000EC011CDF8C01CE011ADE800F911FDF91BE
:10580000CF911F910F910895A1E21A2EAA1BBB1BE5
:10581000FD010DC0AA1FBB1FEE1FFF1FA217B3077C
:10582000E407F50720F0A21BB30BE40BF50B661F92
:10583000771F881F991F1A9469F760957095809556
:1058400090959B01AC01BD01CF010895EE0FFF1FA4
:10585000881F8BBF0790F691E02D19940E94292193
:0A586000880B990B0895F894FFCF10
:10586A00E803000000000000000000000000000043
:10587A00008000000080A69B443EA69B443E8FC247
:10588A00753E8FC2753E3108AC3E3108AC3EEC51D4
:10589A00B83EEC51B83E8FC2F53E8FC2F53E9A999A
:1058AA00193F9A99193F77BE1F3F77BE1F3FEC51A8
:1058BA00383FEC51383F3D0A573F3D0A573F8FC2A8
:1058CA00753F8FC2753F8FC2753F8FC2753F8FC2BA
:1058DA00753F8FC2753F8FC2753F8FC2753F8FC2AA
:1058EA00753F8FC2753F8FC2753F8FC2753F8FC29A
:1058FA00753F8FC2753F8FC2753F8FC2753F8FC28A
:10590A00753F8FC2753F8FC2753F8FC2753F8FC279
:10591A00753F8FC2753F8FC2753F8FC2753F0000BA
:10592A00000000000000000000000000000000006D
:10593A0000003333333F3333333FCDCC4C3FCDCCF0
:10594A004C3F0000803F0000803F0000803F000085
:10595A00803F0000803F0000803F0000803F000041
:10596A00803F0000803F0000803F6EDB363F6EDBE9
:10597A00363F6EDBB63E6EDBB63E0000000000002E
:10598A00000000000000000000000000000000000D
:10599A0000000000000000000000000000000000FD
:1059AA0000000000000000000000000000000000ED
:1059BA0000000000000000000000000000000000DD
:1059CA0000000000000000000000000000000000CD
:1059DA00000000000000000000000000000032315A
:1059EA008D2432318D24F304B5BEF304B5BEFD0017
:1059FA00F1BEFD00F1BE000000BF000000BFF603CB
:105A0A00C4BEF603C4BEF304B5BEF304B5BE0000BB
:105A1A00000000000000F304B53EF304B53EF603AF
:105A2A00C43EF603C43E0000003F0000003FF304FA
:105A3A00B53EF304B53E32318D2432318D24F30460
:105A4A00B5BEF304B5BE000000BF000000BFF304FA
:105A5A00B5BEF304B5BE0000000000000000F30468
:105A6A00B53EF304B53E0000003F0000003FF304DA
:105A7A00B53EF304B53E32318D24F304B5BEF304CA
:105A8A00B5BE000000BF000000BFF304B5BEF304BA
:105A9A00B5BE00000000000000000000A0400000A9
:105AAA00A0400000204100002041000060410000A9
:105ABA006041000070410000704100008841000010
:105ACA00884100008C4100008C410000A041000088
