:100000007AC10000A9C10000A7C10000A5C100007D
:10001000A3C10000A1C100009FC100009DC100005C
:100020009BC1000099C1000097C1000095C100006C
:1000300093C1000091C100008FC100008DC100007C
:100040008BC1000089C1000087C1000085C100008C
:1000500083C1000081C100007FC100000C94A7246F
:100060007BC100000C94B3270C94E92775C10000F4
:1000700073C1000071C100006FC100006DC10000BC
:100080006BC1000069C1000067C1000065C10000CC
:100090000C943F280C9475285FC10000B8C3000081
:1000A0005BC1000059C1000057C1000055C10000EC
:1000B00053C1000051C100004FC100004DC10000FC
:1000C0004BC1000049C100000C9461160C94CB2870
:1000D0000C94012941C100000C9457290C948D29DE
:1000E0003BC10000001D3A2774694E53E8F5D2CF9A
:1000F0009C81A6BBCDD0F7EAB9A4839E25381F0208
:10010000514C6B76879ABDA0F3EEC9D46F725548F7
:100110001B06213C4A57706D3E230419A2BF9885E7
:10012000D6CBECF1130E2934677A5D40FBE6C1DCD7
:100130008F92B5A8DEC3E4F9AAB7908D362B0C11C7
:10014000425F78659489AEB3E0FDDAC77C61465BB7
:100150000815322F5944637E2D30170AB1AC8B96A7
:10016000C5D8FFE2263B1C01524F6875CED3F4E997
:10017000BAA7809DEBF6D1CC9F82A5B8031E392487
:10018000776A4D50A1BC9B86D5C8EFF24954736E77
:100190003D20071A6C71564B1805223F8499BEA367
:1001A000F0EDCAD735280F12415C7B66DDC0E7FA57
:1001B000A9B4938EF8E5C2DF8C91B6AB100D2A3747
:1001C00064795E43B2AF8895C6DBFCE15A47607D37
:1001D0002E3314097F6245580B16312C978AADB027
:1001E000E3FED9C400000A0B02090C0D0E08070338
:1001F00004010000000000000000000000000000FA
:1002000000000000000000000000000000000000EE
:1002100012111000000000000000000000000000AB
:100220000000000000000000000001021020200873
:100230000810204010204080020102010804020141
:1002400001020408102040808040201008040201B0
:100250008004020180402010080402010804020109
:100260000102040810204080010204081020408090
:1002700005050505070508080808020202020A0A22
:100280000808040404040101010101010101030340
:10029000030303030303040707070C0C0C0C0C0CEB
:1002A0000C0C0202020206060606060606060B0BE8
:1002B0000B0B0B0B0B0B00002200250028002B0062
:1002C0002E003100340002010000050108010B017D
:1002D00000002100240027002A002D0030003300F8
:1002E00001010000040107010A01F8022E0712288B
:1002F0009E282A29B62911241FBECFEFD1E2DEBFE6
:10030000CDBF00E00CBF13E0A0E0B2E0E8E7F7E506
:1003100000E00BBF02C007900D92AE39B107D9F7CC
:1003200028E0AEE9B3E001C01D92AE38B207E1F7B4
:1003300011E0CBE7D1E000E006C021970109802F52
:10034000FE010E94462AC537D10780E00807A9F7B9
:100350000E948E220C94BA2B53CE90E080E0089538
:100360008091D2039091D303891B990B08959091AA
:10037000D3038091D2032FEF3FEF981748F4E92F72
:10038000F0E0EC52FC4F208130E09F5F9093D3036C
:10039000C9010895E091D3038091D203E81730F4A6
:1003A000F0E0EC52FC4F808190E008958FEF9FEFDA
:1003B00008950895CF93DF93EC01E091AA03F091A3
:1003C000AB033097F1F09091D3038091D20398174B
:1003D000C0F090E0292F30E02617370754F4DE01F3
:1003E000A20FB31F4C912C523C4FD9014C939F5FED
:1003F000F1CF1092D3036093D203CB01DF91CF9161
:100400001994DF91CF910895E091AC03F091AD0381
:10041000309729F01092B0031092AF031994089509
:10042000CF93DF931F92CDB7DEB769832091AE03E0
:100430002223F9F02091AF03203258F021E030E080
:10044000FC013383228390E080E00F90DF91CF9115
:1004500008958091B003E82FF0E0EF54FC4F9981AC
:1004600090838F5F8093B0038093AF0381E090E02F
:10047000ECCF61E0CE01019689D1F8CFCF92DF9227
:10048000EF92FF920F931F93CF93DF937C01CB01E9
:100490008A012091AE03222389F0EB016B01C40E87
:1004A000D51ECC15DD0561F06991D701ED91FC9168
:1004B0000190F081E02DC7011995F3CF642F66D12B
:1004C000C801DF91CF911F910F91FF90EF90DF90C6
:1004D000CF9008951092D3031092D2031092B003DC
:1004E0001092AF0396D084E092E07CD18AED91E047
:1004F00074C181E08093AE036093D1031092B00386
:100500001092AF0308950F93062F21E04091AF039F
:1005100061EB73E08091D103E2D01092B0031092AE
:10052000AF031092AE030F9108954F925F926F92B6
:100530007F92AF92BF92CF92EF92FF920F931F9351
:10054000CF93DF935C01F62ED42F28013901EE20E2
:1005500009F1CFDFCE2DC43008F0C3E0C150B8F0B0
:1005600028E0C29FC0011124A301920104C0569546
:100570004795379527958A95D2F7B901D501ED9121
:10058000FC910190F081E02DC5011995E7CF60E065
:10059000C501B9DF4D2FD13208F040E22C2D64EDBA
:1005A00073E08F2D54D01092D3038093D203DF9148
:1005B000CF911F910F91FF90EF90CF90BF90AF9090
:1005C0007F906F905F904F900895CF92EF920F932E
:1005D0001F93C22EE12C00E010E09801A6DF1F91CE
:1005E0000F91EF90CF90089521E0EFCF61E08BCF96
:1005F000EEE9F3E01382128288EE93E0A0E0B0E02F
:1006000084839583A683B78380E892E09183808377
:1006100008951092610481E080935F0410925E045B
:1006200061E084E10E945C2661E085E10E945C2635
:10063000E9EBF0E080818E7F808380818D7F8083F5
:1006400088E48093B80085E48093BC00089541322B
:1006500008F043C0909161049111FCCF91E0909318
:10066000610420935F042FEF2093F4031092390468
:10067000240F209338049093600490916004880FB5
:10068000892B8093600480915E04813009F510927B
:100690005E04809160048093BB008091BC0083FD68
:1006A000F8CF85EC8093BC00809161048130E1F348
:1006B00080913904841710F440913904AAE3B4E01E
:1006C000962FFB018E2F891B841720F0842F08950D
:1006D00085EEE8CF8D918193F5CF40E0F7CF0F9372
:1006E000413208F04BC0909161049111FCCF92E02F
:1006F0009093610400935F049FEF9093F403109232
:10070000390440933804362FAAE3B4E0FB019E2F4E
:10071000931B941770F11092600490916004880FFD
:10072000892B8093600480915E04813029F51092BA
:100730005E04809160048093BB008091BC0083FDC7
:10074000F8CF85EC8093BC00222321F080916104D6
:100750008230D1F38091F4038F3F91F08091F403C4
:10076000803281F08091F403803371F084E00F9146
:10077000089591919D93CBCF85EEE4CF81E0F7CFA3
:1007800080E0F5CF82E0F3CF83E0F1CF2091160433
:10079000260F3327331F21323105ECF420916104F9
:1007A000FC0190E080E0243069F082E00895A0919F
:1007B00016042191AC01485E5B4FA40FB52FB11D0B
:1007C0002C930196861798F380911604680F609316
:1007D000160480E0089581E0089590935B0480936F
:1007E0005A04089590935D0480935C04089585ED08
:1007F0008093BC008091BC0084FDFCCF109261040A
:10080000089585EC8093BC001092610408951F92B6
:100810000F920FB60F9211240BB60F922F933F93A6
:100820004F935F936F937F938F939F93AF93BF93F8
:10083000EF93FF938091B900887F803609F44CC014
:1008400008F03FC0883209F4A8C028F5803109F4C7
:100850009CC0C8F4882309F4F8C0883009F495C016
:10086000FF91EF91BF91AF919F918F917F916F9188
:100870005F914F913F912F910F900BBE0F900FBE44
:100880000F901F901895883109F487C0803241F786
:100890008093F40314C0803409F49CC040F4803386
:1008A000B9F38833E9F68093F403ABDFD9CF803511
:1008B00009F484C0883509F495C0883489F697DF37
:1008C000CFCF883909F48CC038F5883729F050F437
:1008D000883611F0803721F683E08093610410920E
:1008E000F50357C0883809F47BC0803919F0803887
:1008F00009F0B6CF8091F503803208F071C0E09125
:10090000F50381E08E0F8093F5038091BB00F0E04A
:10091000EA50FC4F80833DC0803B39F0E0F4803AE0
:1009200009F479C0883A09F09BCF84E08093610490
:100930001092170410921604E0915C04F0915D048B
:1009400019958091160481110FC081E080931604DF
:100950001092180409C0803C09F475C0883C09F461
:1009600072C0883B09F07CCFE091170481E08E0FC4
:1009700080931704F0E0E85EFB4F80818093BB001A
:10098000909117048091160429C08091600480938F
:10099000BB0085EC8093BC0063CF909139048091BB
:1009A0003804981758F5E091390481E08E0F809350
:1009B0003904F0E0E65CFB4F8081E9CFE091390437
:1009C00081E08E0F809339048091BB00F0E0E65CFB
:1009D000FB4F808390913904809138049817C8F2B6
:1009E00085E8D8CFE091390481E08E0F80933904F7
:1009F0008091BB00F0E0E65CFB4F808380915F0458
:100A000081115DCF81E080935E0484EA8093BC0015
:100A10001092610425CFF5DE8091F503803230F429
:100A2000E091F503F0E0EA50FC4F10826091F5038D
:100A300070E0E0915A04F0915B0486EF93E0199521
:100A40001092F5030DCF85ECE1CF1092F40337CF70
:100A5000FF920F931F93CF93DF93C62F042FF22E95
:100A6000132F682F8EE993E044DD6C2F8EE993E01D
:100A7000D7DCCF2DD12F0C0F1D2F111DC017D10783
:100A800029F069918EE993E0CBDCF8CF8EE993E011
:100A9000ADDD91E0811190E0892FDF91CF911F9121
:100AA0000F91FF900895CF93DF931F92CDB7DEB7DC
:100AB00049839E012F5F3F4F41E0CADF0F90DF91D6
:100AC000CF9108952F923F924F925F926F927F92B3
:100AD0008F929F92AF92BF92CF92DF92EF92FF924E
:100AE0000F931F93CF93DF9300D0CDB7DEB7E82EDF
:100AF00069834B8369010E94F1244B015C01F12C55
:100B00001A822B81222E312C2801712C612C8B8191
:100B1000F81608F044C06E2D8EE993E0EADC698196
:100B20008EE993E07DDC8EE993E060DD6E2D8EE949
:100B300093E0DFDCA1014F1951094132510514F056
:100B400040E250E06E2D8EE993E04EDD8EE993E0B9
:100B500007DC892BD9F00115110569F48EE993E0C2
:100B600006DCF6019A81E90FF11D97FDFA95808365
:100B70009F5F9A83EBCF0E94F124681979098A0953
:100B80009B09641575058605970540F38EE993E08A
:100B90002DDD8B81813208F080E2F80EB8CF01158F
:100BA0001105C1F00E94F124681979098A099B098D
:100BB00030E020E0601771078207930758F02A8120
:100BC000822F220F990B2B812817190619F014F088
:100BD0008FEF8A838A810F900F900F90DF91CF91D2
:100BE0001F910F91FF90EF90DF90CF90BF90AF904B
:100BF0009F908F907F906F905F904F903F902F903D
:100C000008950F931F9389019A0141E05BDF1F91C3
:100C10000F910895EF92FF920F931F93CF93DF935D
:100C20001F92CDB7DEB7182F062FE42EF22E20919B
:100C3000060230910702AE014F5F5F4FE2DF81E0B5
:100C400090E001C0880FEA94EAF74981FF2069F03B
:100C5000482B4983602F812F26DF0F90DF91CF91A2
:100C60001F910F91FF90EF90089580954823F1CF49
:100C7000DF92EF92FF920F931F93CF93DF931F9218
:100C8000CDB7DEB7F82EE62E142FD22E2091060215
:100C900030910702AE014F5F5F4FB3DF882351F100
:100CA000812F8D19990BAC014F5F5F4F81E090E070
:100CB00002C0880F991FDA94E2F70197042E01C051
:100CC000880F0A94EAF701C0000F4A95EAF7482F07
:100CD0004095998149238023482B49836E2D8F2D80
:100CE000E2DE0F90DF91CF911F910F91FF90EF9077
:100CF000DF90089580E0F5CF28E6FC012083089579
:100D00000F93062F23E042E06AE1FC018081B0DF0F
:100D10000F9108950F93062F22E044E06BE1FC0150
:100D20008081A6DF0F9108950F93062F22E044E003
:100D30006CE1FC0180819CDF0F9108950F931F935C
:100D4000CF93DF93EC0100910602109107029C0102
:100D50002F5F3F4F42E063E48881B4DE89819A814E
:100D6000982789279827DF91CF911F910F91089598
:100D70000F931F93CF93DF93EC0100910602109124
:100D800007029C012F5F3F4F42E065E488819ADEB5
:100D900089819A81982789279827DF91CF911F9180
:100DA0000F9108950F931F93CF93DF93EC01009160
:100DB0000602109107029C012F5F3F4F42E067E45B
:100DC000888180DE89819A81982789279827DF91F9
:100DD000CF911F910F910895262F46E06BE6FC01FD
:100DE000808118CF0F93062F23E042E06BE6FC01D1
:100DF00080813EDF0F910895CF93DF93EC0161E096
:100E0000F1DF60E0CE0186DF60E0CE018DDF60E0E3
:100E1000CE01DF91CF91E0CFCF93C82F8EE993E041
:100E200059DB6C2F82E694E06BDF82E694E0CF9191
:100E3000E3CFCF93DF93EC0182E694E07FDF9983E9
:100E4000888382E694E094DF9B838A8382E694E041
:100E5000A9DF9D838C83DF91CF91089582E694E092
:100E60004BCF8F929F92AF92BF92CF92DF92EF9231
:100E7000FF920F931F93CF93DF9300D000D0CDB795
:100E8000DEB78091830881508230A8F583E080939B
:100E90008308CE010196CDDF69817A81072E000C8F
:100EA000880B990B0E9490236093840870938508A7
:100EB0008093860890938708E0913D05F0913E0568
:100EC0002091740230917502409176025091770220
:100ED00060817181828193810E94402418168CF474
:100EE00080918308882349F0833009F4C0C0082E1C
:100EF000000C990B04C080E0CACF82E090E08093A0
:100F0000830882E090E00E94E315E0913D05F091B6
:100F10003E05408151816281738190E080E00E94B2
:100F2000DF15609132057091330580913405909101
:100F300035050E948E232AE037ED43E25CE30E94F0
:100F40004424AB01BC0181E090E00E94DF15809059
:100F5000360590903705A0903805B090390520E00F
:100F600030E040E85FEBC501B4010E948A230091A4
:100F70003D0510913E05882319F1F801C080D1800C
:100F8000E280F380A7019601C501B4010E942523E8
:100F90004B015C0120E030E040E054E3C701B601C2
:100FA0000E9444249B01AC01C501B4010E9440246D
:100FB000181634F08EE892E090939804809397048A
:100FC00080913C05882331F08EE892E0909398045C
:100FD0008093970460912A0570912B0580912C05D0
:100FE00090912D056F5F7F4F8F4F9F4F60932A0524
:100FF00070932B0580932C0590932D050E948E23D2
:101000009B01AC0160912E0570912F0580913005F8
:10101000909131050E944424F8016083718382839A
:1010200093838091320590913305A0913405B0915E
:1010300035050196A11DB11D8093320590933305AE
:10104000A0933405B093350526960FB6F894DEBF0D
:101050000FBECDBFDF91CF911F910F91FF90EF9009
:10106000DF90CF90BF90AF909F908F90089581E0D8
:1010700090E045CF0F931F93CF93DF93E7E9F4E020
:1010800080EBDF011D928A95E9F78AE395E097836B
:101090008683CDE3D5E0D093D804C093D7040EE285
:1010A00015E0158B048BF0930205E0930105F583A1
:1010B000E48321E030E0DC012D933C9382EA92E06E
:1010C000938782872FE335E03983288340E050E01F
:1010D00060E87FEB40933605509337056093380501
:1010E000709339054AE057ED63E27CE3D8014D93F4
:1010F0005D936D937C931397C8E1D5E086E393ED00
:10110000A4EFB8EB88839983AA83BB838BEB90EB26
:10111000A2EFB4EE80931C0590931D05A0931E05CD
:10112000B0931F0587E695E8AFE8BBED80932005F7
:1011300090932105A0932205B09323058DEC9BE0AD
:10114000AEE3B5E28093240590932505A093260590
:10115000B0932705ABE8B4E0B383A283E5E8F4E0FD
:101160001196FC93EE9384EB92E0918380839383BA
:10117000828383E898E09583848388E295E01596DE
:101180009C938E9314971396DC93CE931297179695
:101190003C932E931697E4E8F8E024E0DF011D92DB
:1011A0002A95E9F7CBE7D8E029E0FE0111922A95CC
:1011B000E9F7EBE7F4E02AE0DF011D922A95E9F771
:1011C000E1E7F4E0DC01ED93FC938FE090E09183A4
:1011D000808386E592E09383828388E392E095831F
:1011E000848384E192E09783868388E092E091870C
:1011F000808781E090E0A0E0B0E089839A83AB83B0
:10120000BC8390E080E008DE81E08D83DF91CF91A8
:101210001F910F91089580917B08811103C081E097
:1012200080937B080895EF92FF920F931F93CF93C3
:10123000DF93EA01F901DC011496ED90FC9015971B
:1012400012964D915C9113974E0D5F1D2881398147
:1012500018960D911C9119970217130730F00D91F4
:101260001C911197012B09F441C08A01021B130B39
:10127000DC0118968D919C918E199F09800F911F0A
:1012800086179707DCF1C901860F971F841795070A
:1012900078F47183608333832283158214821782EA
:1012A000168288819981680F791F7983688316C0B7
:1012B0001183008333832283601B710B75836483E6
:1012C00090E080E01616170614F49E2D8F2D96835D
:1012D0008783D701A60FB71FB983A88380E0DF916A
:1012E000CF911F910F91FF90EF90089518968D91D7
:1012F0009C91821B930B861797075CF681E0EFCFDA
:10130000CF92DF92EF92FF92CF93DF936B0184E451
:10131000869FE001879FD00D1124C95BDA4F8AA90F
:101320009BA9009721F00E94182B1BAA1AAA84E4FB
:101330008C9DF0018D9DF00D1124E95BFA4F86A97B
:1013400097A9009711F00E94182B84E48C9DF0015E
:101350008D9DF00D1124E95BFA4F138A128A168ACB
:10136000178A108E118E128E138E148E158E168E75
:10137000178E10A211A281E090E093A382A315A280
:1013800014A216A217A210A611A613A612A615A69D
:1013900014A616A617A610AA11AA13AA12AA15AA6D
:1013A00014AA17AA16AA11AE10AE12AE13AE14AE3E
:1013B00015AEDF01DE961D921D921D921C921397B1
:1013C000EE5BFF4F11821082DF91CF91FF90EF9083
:1013D000DF90CF900895CF93DF93FB01DC016D91F7
:1013E0007C91DB011696CD91DC918081918123E087
:1013F000880F991F2A95E1F7AA81BB81A80FB91F11
:101400008D919C91119724853585220F331FEB0117
:101410006A817B81EB01C20FD31F0990D881C02D57
:1014200014962D913C9161E070E0232B11F062E065
:1014300070E0C69F9001C79F300DD69F300D1124DC
:10144000A085B1852A9FB0012B9F700D3A9F700D2A
:101450001124A481B5812A9FF0012B9FF00D3A9FA2
:10146000F00D11248E0F9F1FFA01918380837383E7
:101470006283DF91CF9108952F923F924F925F92B6
:101480006F927F928F929F92AF92BF92CF92DF9294
:10149000EF92FF920F931F93CF93DF9300D000D072
:1014A000CDB7DEB7DC011496ED91FC910190F0818F
:1014B000E02D808591859A838983A281B381BC8345
:1014C000AB83FB0181909190A190B190C12CD12C64
:1014D0007601C814D904EA04FB04CCF026960FB6B2
:1014E000F894DEBF0FBECDBFDF91CF911F910F915A
:1014F000FF90EF90DF90CF90BF90AF909F908F9034
:101500007F906F905F904F903F902F900895448010
:101510005580668077804085518562857385CF01CF
:1015200040969E838D83A081B1819D0183E0220F2F
:10153000331F8A95E1F7A981BA8112968D919C910A
:10154000D901A80FB91F2D903C9011970484F585FF
:10155000E02DEE0FFF1F8B819C81E80FF91F01909A
:10156000F081E02D14968D919C91892B41F581E0BD
:1015700090E0E89F9001E99F300DF89F300D112415
:10158000249F8001259F100D349F100D1124249D50
:10159000C001259D900D349D900D1124A8016D81F1
:1015A0007E81820D931D0E94A12BED81FE81E00FB3
:1015B000F11F9FEFC91AD90AE90AF90A8ACF82E016
:1015C00090E0D7CFCF93DF93DB01A858BD4F2C918C
:1015D000222369F024E4269FF001279FF00D1124B7
:1015E000E95BFA4FEF0119922A95E9F71C9224E47E
:1015F000269FF001279FF00D1124E95BFA4F14821A
:101600001582168217821186108613861286118A19
:10161000108A17861686DF91CF9172CE2F923F9255
:101620004F925F926F927F928F929F92AF92BF92F2
:10163000CF92DF92EF92FF920F931F93CF93DF939E
:1016400000D000D01F921F92CDB7DEB724E4269FB2
:10165000F001279FF00D1124E95BFA4F04811581F9
:1016600026813781012B022B032B09F4B7C02A01F5
:101670006B017C0110E000E0812C912C54013F01B2
:101680009F01285F3F4F3C832B83CF0104969E83AD
:101690008D83AB81BC818D919C91ED81FE814081D8
:1016A00051816281738184169506A606B706E4F11E
:1016B0000E94182BD3011A968D919C91892B09F0C9
:1016C0007EC084E48C9DD0018D9DB00D1124A95B5A
:1016D000BA4FBC83AB8350968D919C910E94182B7E
:1016E000EB81FC81868597850E94182BC701B60186
:1016F00007DEC701B60128960FB6F894DEBF0FBE0D
:10170000CDBFDF91CF911F910F91FF90EF90DF90B0
:10171000CF90BF90AF909F908F907F906F905F9091
:101720004F903F902F904ECFFC01E00FF11F928120
:101730009983A381AA839F83A887312C212C241409
:10174000350464F089819A810E94182BEFEF8E1A7C
:101750009E0AAE0ABE0A0C5F1F4F9BCFAF81B885B1
:10176000ED91FD91B887AF83309759F084819581D1
:101770000E94182BEF81F8853297808191810E9419
:10178000182BBFEF2B1A3B0ADACF800F911FFC01F9
:10179000848195810E94182B2B813C812F5F3F4FC4
:1017A0003C832B83025F1F4FF501808191812B8148
:1017B0003C81241535054CF30E94182B82CF10E094
:1017C00000E01C821B8224E42C9DC0012D9D900D05
:1017D0001124DC01AF5ABA4F5D01E6CF28960FB64F
:1017E000F894DEBF0FBECDBFDF91CF911F910F9157
:1017F000FF90EF90DF90CF90BF90AF909F908F9031
:101800007F906F905F904F903F902F90089524E4C9
:10181000269FF001279FF00D1124E95BFA4F828982
:1018200093890497029758F485E090E0938B828B1C
:101830008FEF9FEFDC01828F938FA48FB58F089578
:101840002F923F924F925F926F927F928F929F92D0
:10185000AF92BF92CF92DF92EF92FF920F931F93BE
:10186000CF93DF93CDB7DEB7AA970FB6F894DEBF5C
:101870000FBECDBF9AA389A37E8B6D8B1A01098BF6
:101880001A8B2B8B3C8B84E429893A89829F6001D7
:10189000839FD00C11248601095B1A4F89899A898C
:1018A000AB89BC89F80180839183A283B383AB01A8
:1018B000BC01CD01B3DED601A55BBA4F84E0F101D6
:1018C00001900D928A95E1F7F4E02F0E311C64E04F
:1018D00070E0D80114968D919C910E94622AF801C3
:1018E00091878087892B09F0F5C04D895E896989C8
:1018F0007A898B899C8992DE81E0AA960FB6F8944A
:10190000DEBF0FBECDBFDF91CF911F910F91FF9032
:10191000EF90DF90CF90BF90AF909F908F907F908F
:101920006F905F904F903F902F900895A9A5BAA512
:101930008D919C91E98DFA8DE80FF91FF88FEF8B4F
:10194000D1018D919C91880F991FA9A1BAA1ED9108
:10195000FC91E80FF91F80819181EF89F88D9183C7
:101960008083D10114962D913D914D915C911797F3
:101970002BA33CA34DA35EA362E070E08D899E89FA
:101980000E94622AEF89F88D93838283892B09F460
:10199000ACCFF8E02F0E311C412C512C32012BA181
:1019A0003CA14DA15EA142165306640675069CF04B
:1019B0002B8D3C8D4D8D5E8D2F5F3F4F4F4F5F4F79
:1019C0002B8F3C8F4D8F5E8F498D5A8D4C5F5F4FB3
:1019D0005A8F498F90C0610124E0C20ED11CD10101
:1019E000ED90FC90EE0CFF1CEF89F88D82819381C5
:1019F000E80EF91E68E070E081E090E00E94622A43
:101A00008C01D7018D939C93892B09F46ECF84E0D0
:101A1000F601D80101900D928A95E1F7B8E02B0EFE
:101A2000311CF80180819181A281B38118161906B9
:101A30001A061B06DCF464E070E00E94622AD801FA
:101A400015969C938E931497892B09F44ECFD12C25
:101A5000C12C812C912C5401F80180819181A281AB
:101A6000B38188169906AA06BB0634F0FFEF4F1A19
:101A70005F0A6F0A7F0A93CFF801E480F580EC0CCF
:101A8000FD1C80E1F101DE01119601900D928A9515
:101A9000E1F7F0E12F0E311CA701BE016F5F7F4F10
:101AA000A9A1BAA114968D919C9195DCF80186812B
:101AB0009781D70112962D913C91820F931F9783A6
:101AC0008683BFEF8B1A9B0AAB0ABB0AE4E0CE0EFB
:101AD000D11CC2CF1A8E198E1B8E1C8E1D8E1E8E8F
:101AE00018A30F8FA8014C5F5F4F58A74FA3C801E1
:101AF00008969AA789A7EFA1F8A580819181A28174
:101B0000B3812B8D3C8D4D8D5E8D281739074A078B
:101B10005B070CF40BCF6EE070E08D899E890E940C
:101B2000622AAF8DB8A11B969C938E931A97B12C05
:101B3000A12CD12CC12CF12CE12C24E4E989FA89C7
:101B40002E9FC0012F9F900D11249C012F5A3A4FB8
:101B5000388F2F8B88248394912C4D895E89C416ED
:101B6000D50654F184E4A989BA898A9F80018B9FA4
:101B7000100D1124095B1A4FF80115861486C70150
:101B800033E0880F991F3A95E1F70E947C2AD8012B
:101B900051969C938E935097892B09F4A6CEC7013A
:101BA000880F991F0E947C2AF80197878687892BC6
:101BB00009F49BCE80E0A1CED1014D905D906D9057
:101BC0007D901D0177FC91CEEF89F88D0081118108
:101BD0000A0D1B1DD80111969C928E92411451043E
:101BE0006104710429F1C2010E947C2AF8019583E5
:101BF0008483892B09F479CEF8015382428284814F
:101C0000958197838683918780871386128681E0EA
:101C100090E045284628472811F490E080E0E80E3F
:101C2000F91EFFEFCF1ADF0A2EE0A20EB11C95CFEE
:101C300015961C921E921497DFCF2F923F924F92CF
:101C40005F926F927F928F929F92AF92BF92CF924C
:101C5000DF92EF92FF920F931F93CF93DF93CDB755
:101C6000DEB76A970FB6F894DEBF0FBECDBF9E8B6E
:101C70008D8B49015A0184E4829F7001839FF00C8F
:101C800011249701295B3A4F6901FB018081918101
:101C9000F901958B848BD701A35ABA4FFB01349677
:101CA00084E001900D928A95E1F7D701AF59BA4FC0
:101CB000FB01389684E001900D928A95E1F7D701F7
:101CC000AB59BA4FFB013C9684E001900D928A9586
:101CD000E1F7D701AB58BA4FFB01709684E0019051
:101CE0000D928A95E1F78B010C5E1F4FF90186A5D5
:101CF00097A5A0A9B1A918161906DCF5880F991F98
:101D0000880F991F0E947C2AF60193AB82AB892B26
:101D100009F4D3C0312C212C412C512C32019601D5
:101D2000225D3F4F388F2F8BC601C2969A8F898FC5
:101D3000F496FC8BEB8BB301A2012FEF421A520AEF
:101D4000620A720AEF89F88D80819181A281B38144
:101D5000481759076A077B070CF47BC0F60184A972
:101D600095A90E947C2AF60197AB86AB892B09F4D2
:101D7000A4C0F80180819181A281B38124E4289DCF
:101D8000F001299DF00D1124E95BFA4FAC01BD0172
:101D90004D7F21E030E0452B462B472B11F030E002
:101DA00020E033A322A324E4289DF001299DF00D17
:101DB0001124E95BFA4F0197A109B10921E030E054
:101DC0000297A105B10510F030E020E035A324A36F
:101DD000D701A359BA4FF801349684E001900D92CF
:101DE0008A95E1F784E4889DF001899DF00D112426
:101DF000E95BFA4F868D978DA0A1B1A1B7FF58C0BE
:101E0000B095A095909581959F4FAF4FBF4F82AFF2
:101E100093AFA4AFB5AF168E178E10A211A280E0BB
:101E20006A960FB6F894DEBF0FBECDBFDF91CF919B
:101E30001F910F91FF90EF90DF90CF90BF90AF90E8
:101E40009F908F907F906F905F904F903F902F90DA
:101E50000895E98DFA8D808191819C01220D331DB9
:101E60003A8B298B80E1F801DE01119601900D92E9
:101E70008A95E1F7005F1F4F49895A89BE016F5F5C
:101E80007F4FED89FE8984819581A5DAEB89FC89F4
:101E900080819181E989FA8922813381820F931FA0
:101EA000EB89FC8991838083F4E02F0E311C43CFB2
:101EB00012AE13AE14AE15AEB2CFC501B40120DA26
:101EC00081E0AECFCF92DF92EF92FF92CF93DF937C
:101ED0001092CF0524E4269FF001279FF00D1124D6
:101EE000E95BFA4F15A614A630E020E0D12CC12CF6
:101EF000DF011A96C1E0D0E0C416D506F4F024E460
:101F0000269FF001279FF00D1124E95BFA4F13A6DD
:101F100012A611AE10AEDF01DE961D921D921D922B
:101F20001C92139782E090E0938B828BDF91CF918C
:101F3000FF90EF90DF90CF900895ED91FC91119775
:101F4000E20FF31FE280F3801E141F0454F4E480B8
:101F5000F580F782E682F186E08613861286D183C9
:101F6000C083EFEFCE1ADE0A225F3F4FC5CF24E4D5
:101F7000269FF001279FF00D1124E95BFA4F138A89
:101F8000128A4CCB24E4269FF001279FF00D1124E8
:101F9000E95BFA4F8289938981309105C8F08530D9
:101FA000910518F0059769F008958FEF9FEFDC0118
:101FB000828F938FA48FB58F85E090E0938B828B77
:101FC00008958FEF9FEFDC01828F938FA48FB58FE1
:101FD000089524E4249FD001259FB00D1124A95B0E
:101FE000BA4F2EE0AC01249FC001259F900D112413
:101FF0001A96ED91FC91E80FF91F81E08093CF05CF
:102000008285938591878087408551852681378198
:1020100081E090E04217530711F090E080E0918357
:10202000808308952F923F924F925F926F927F929A
:102030008F929F92AF92BF92CF92DF92EF92FF92D8
:102040000F931F93CF93DF93CDB7DEB7C055D10960
:102050000FB6F894DEBF0FBECDBF9EAF8DAF4BA7BE
:102060005CA76DA77EA76801790184E4809FF001D9
:10207000819FF00D1124E95BFA4F22853385239669
:102080003FAF2EAF239782899389029761F486A58B
:1020900097A5A0A9B1A9892B8A2B8B2BC9F584E020
:1020A00090E0938B828B84E48C9DF0018D9DF00DEC
:1020B0001124E95BFA4F828993898230910509F0F6
:1020C00037C282AD93ADA4ADB5AD22242394312C9B
:1020D000181619061A061B060CF42FC2C05BDF4F38
:1020E0000FB6F894DEBF0FBECDBFDF91CF911F9129
:1020F0000F91FF90EF90DF90CF90BF90AF909F90A7
:102100008F907F906F905F904F903F902F900895A9
:10211000848995894DAD5EAD8417950721F606A992
:1021200017A918AE1FAA1BAA1CAA1DAA1EAA1F0126
:10213000CF018E9627969FAF8EAF2797DF01D2965D
:102140002996BFAFAEAF2997F8962B96FFAFEEAFAB
:102150002B9791012A5D3F4F2D963FAF2EAF2D97C4
:10216000A1014E5D5F4F2F965FAF4EAF2F970A973D
:1021700061969FAF8EAF61972796EEADFFAD279723
:1021800080819181A281B3812BA93CA94DA95EA92F
:10219000281739074A075B0744F081E090E0D10136
:1021A000D9969C938E93D8977ECF2996AEADBFAD2E
:1021B0002997ED91FC912FA938ADE20FF31F4281D1
:1021C00053815AAF49AF50815FAF818121968FAF64
:1021D00021972B96AEADBFAD2B978D919C91892BFE
:1021E00021F12D96EEADFFAD2D9780809180A280DC
:1021F000B3801AAB09AB5FA72196FFAD2197F8AB6F
:1022000029AD3AAD369527953695279525963FAF5A
:102210002EAF25971CAE1BAE2596AEADBFAD259754
:10222000EBADFCADEA17FB070CF149AD5AAD6FAD54
:1022300021967FAD2197C8010E94A12B89AD9AAD4F
:102240008C7F080F191F2BA93CA94DA95EA92F5FF0
:102250003F4F4F4F5F4F2BAB3CAB4DAB5EAB4FA9EE
:1022600058AD4C5F5F4F58AF4FAB86CF2F96AEAD9A
:10227000BFAD2F978D919C91892B71F1EFA5F8A996
:102280004080518062807380A3019201C501B40136
:102290000E948A23181664F0A9A9BAA92D913D912C
:1022A0004D915C91C501B4010E9440241816BCF107
:1022B000A3019201C501B4010E948A2387FF0CC0CB
:1022C000E9A9FAA92081318142815381C501B40174
:1022D0000E948A23882319F16196AEADBFAD619744
:1022E0008D919C91892B09F445C0EFA5F8A94080F8
:1022F000518062807380A3019201C501B4010E94E4
:10230000402418161CF5A9A9BAA92D913D914D910B
:102310005C91C501B4010E948A2318165CF184E423
:102320008C9DF0018D9DF00D1124E95BFA4F868D97
:10233000978DA0A1B1A1892B8A2B8B2B69F183E00A
:1023400090E0938B828B81E090E02CC0A3019201FE
:10235000C501B4010E948A2381110CC0E9A9FAA920
:102360002081318142815381C501B4010E948A23B9
:1023700087FDD5CF2BAD3CAD2F5F3F4F3CAF2BAF93
:1023800049A95AA94C5F5F4F5AAB49AB8FA598A991
:10239000049698AB8FA740CF84E090E0938B828B1C
:1023A00086AD97AD93A782A77ECEEBADFCAD8081C5
:1023B0009181F401EE0FFF1FEE0FFF1FE80FF91FD1
:1023C000A081B1818C9181110AC0FFEF8F1A9F0A01
:1023D000AF0ABF0A8DA29EA2AFA2B8A68FC183305A
:1023E000A1F30280F381E02D2FA938ADE20FF31F96
:1023F000808191819AAB89AB892B39F34F5F5F4F15
:102400006F4F7F4F49875A876B877C879E01235E7A
:102410003F4FAE01475D5F4F64E070E0C8010E942E
:1024200013098111D0C18D819E81AF81B885049639
:10243000A11DB11D8D839E83AF83B8874D8D5E8DA9
:10244000BE016B5D7F4F8F8D98A10E94A12B8BA148
:102450009CA1009761F06D8D7E8DA5E2B0E0AC0F80
:10246000BD1F6A0F7B1F49A15AA10E94A12B1CAA64
:102470001BAA412C512C3201E9A9FAA98081918132
:10248000A281B381481659066A067B060CF09DCFDF
:10249000E9A9FAA9848195812BA93CA9280F391FA4
:1024A00038AB2FA7D90112966D917C919E01235EC6
:1024B0003F4FAE01475D5F4FC8010E941309811174
:1024C00082C1EFA5F8A982819381092E000CAA0B85
:1024D000BB0B4D815E816F817885840F951FA61F90
:1024E000B71F8D839E83AF83B887608171814D8DC7
:1024F0005E8D8F8D98A10E94A12B8BA19CA100972E
:1025000061F0AFA5B8A96D917C912D8D3E8D620FC4
:10251000731F49A15AA10E94A12BBFEF4B1A5B0A5E
:102520006B0A7B0AEBA9FCA93496FCABEBABA4CFFE
:10253000312C212C049709F0D1CD8EE0EDADFEAD0C
:102540008E9F80018F9F100D112423962EAD3FADDD
:102550002397020F131FD80112964D915C91139788
:102560004115510509F4BACD16968D919C919AA703
:1025700089A780E1FE013196DF011D928A95E9F776
:10258000C98ADA8AEB8AFC8A2114310409F458C01A
:1025900084E48C9DF0018D9DF00D1124E95BFA4FD0
:1025A000DF01DE968D909D90AD90BC9082AD93AD95
:1025B000A4ADB5AD88169906AA06BB0609F040C0C1
:1025C000F801848195810084F185E02D349624E022
:1025D000DE01559601900D922A95E1F72D893E89ED
:1025E000285F3F4F3E8B2D8BD80118966D917C91C3
:1025F0001997260F371F19963C932E931897189604
:102600002D913C911997480F591F241B350B37FD0D
:1026100006C0820F931F19969C938E93189784E49B
:102620008C9DF0018D9DF00D1124EB57FA4FB1E018
:102630008B1A9108A108B10880829182A282B3828C
:102640009E012B5E3F4FAE01475D5F4F64E170E03E
:10265000C8010E9413098111B6C08CE090E0A0E08F
:10266000B0E08D839E83AF83B8879E01235E3F4F8A
:10267000AE01475D5F4F64E070E0C8010E9413093E
:102680008111A1C080E190E0A0E0B0E08D839E8345
:10269000AF83B8874D8D5E8DBE01655D7F4F8F8D99
:1026A00098A10E94A12B8BA19CA1009761F06D8D38
:1026B0007E8DEBE2F0E0EC0FFD1F6E0F7F1F49A156
:1026C0005AA10E94A12B1DA21EA21FA218A62DADC9
:1026D0003EAD220F331F38AF2FAB24E42C9DC00139
:1026E0002D9D900D1124895B9A4FAC014C5F5F4F7B
:1026F0005AAF49AFDC011896BCAFABAF8DA09EA01E
:10270000AFA0B8A449855A856B857C85E9ADFAAD43
:1027100080819181A281B38188169906AA06BB06A1
:102720000CF443CE452B462B472B09F4D7CC8AE13A
:1027300090E0A0E0B0E089839A83AB83BC832DADA9
:102740003EADC901330FAA0BBB0B8D879E87AF87A8
:10275000B88B4D895E89BE016F5F7F4F8F89988DE1
:102760000E94A12B8B8D9C8D009761F06D897E89D5
:1027700041E050E04C0F5D1F640F751F498D5A8D6D
:102780000E94A12B89A59AA5D80117969C938E9398
:10279000169711961C921E92232809F49FCC84E46C
:1027A0008C9DF0018D9DF00D1124EB57FA4F808127
:1027B0009181A281B3810196A11DB11D8083918376
:1027C000A283B3838BCC232809F088CC84E48C9D2E
:1027D000F0018D9DF00D1124E95BFA4F81E090E04E
:1027E00095A784A785E090E0938B828B77CCCF92DE
:1027F000DF92EF92FF920F931F9324E4269FF00144
:10280000279FF00D1124E95BFA4F228933892115A6
:10281000310509F452C06B017C0121303105B1F45E
:1028200082A593A59C012F5F3F4F33A722A7092EB6
:10283000000CAA0BBB0B028D138D248D358D8017D8
:102840009107A207B307C9F5C7013CDB84E48C9D5F
:10285000F0018D9DF00D1124E95BFA4F8289938977
:10286000039759F582A593A59C012F5F3F4F33A78E
:1028700022A7092E000CAA0BBB0B468D578D60A119
:1028800071A184179507A607B707BCF086AD97AD71
:1028900093A782A784E090E0938B828B82AD93AD67
:1028A000A4ADB5AD181619061A061B0634F4EE5B76
:1028B000FF4F81E090E0918380831F910F91FF9003
:1028C000EF90DF90CF90089524E4269FF001279F9A
:1028D000F00D1124E95BFA4F828993890497B1F4D2
:1028E00082A593A5019693A782A7092E000CAA0B97
:1028F000BB0B46895789608D718D84179507A60794
:10290000B70721F485E090E0938B828B08952F9296
:102910003F924F925F926F927F928F929F92AF926F
:10292000BF92CF92DF92EF92FF920F931F93CF93BC
:10293000DF93CDB7DEB72E970FB6F894DEBF0FBE8C
:10294000CDBFDC0149835A836B837C83290184E4F6
:10295000849FF001859FF00D1124E95BFA4F2288D6
:102960003388C1010497029708F0D5C011961C92D4
:102970001E9213961C921E92129715861486912C05
:10298000812C90E080E08F019F01205F3F4F3887CE
:102990002F833F013CE0630E711CBF01625F7F4FDC
:1029A0007A8769873A96FC87EB87EF81F8852081E3
:1029B0003181F30140815181E985FA85A080B180A0
:1029C000841595050CF445C011965C934E931396AF
:1029D0003C932E9312971596BC92AE921497452B6A
:1029E000F9F4F5E02F163104D9F41092CF05F8016F
:1029F000828D938DA48DB58DAE014F5F5F4F64E0E6
:102A000070E08F3F9F4FAF4FBF4F09F079C080E21A
:102A100090E008D569817A818B819C81A201A7DA37
:102A20002E960FB6F894DEBF0FBECDBFDF91CF91CB
:102A30001F910F91FF90EF90DF90CF90BF90AF90DC
:102A40009F908F907F906F905F904F903F902F90CE
:102A50000895EB85FC8560817181FB01E80DF91D0E
:102A6000FE87ED8760817181672B89F5E084F184B1
:102A7000628173817E836D83668177816A01E3E081
:102A8000CC0CDD1CEA95E1F72C0D3D1D440F551FC4
:102A90004A0D5B1DFA0191838083F30140815181CE
:102AA0004F5F5F4F51834083F901F382E282ED85EE
:102AB000FE8573876287E616F70670F46E197F0944
:102AC000F901718360831582148217821682019640
:102AD000FEE08F0E911C69CFED85FE85C480D58008
:102AE0004D815E814C0D5D1D4E195F09F9015183C9
:102AF00040836C197D0975836483D782C682E7CFD2
:102B00008FE190E08FD4F80113A612A681E090E047
:102B1000938B828B85CF1586148611961C921E92FC
:102B200013961C921E9212977BCFEF92FF920F93F7
:102B30001F93CF93DF937C018B01EA014FD5811165
:102B40001BC080917A0290917B020497F9F4DF9187
:102B5000CF911F910F91FF90EF90089528ED38EBE2
:102B600045E050E060E070E0CB01EED7AE01B80187
:102B7000C701F8D7C801C1D78091D0059091D10580
:102B8000892BF9F68881882349F3DBCF83E090E035
:102B900090937B0280937A02DACFCF93DF932091D8
:102BA0007A0230917B022430310531F0EB01DAD723
:102BB000CE01DF91CF91A1C7DF91CF9108950C9401
:102BC000B0210C94A5210C949321A7C70C94372114
:102BD000089570E060E090E080E0DBC40895AF927B
:102BE000BF92CF92DF92EF92FF920F931F93CF93FA
:102BF000DF931F921F92CDB7DEB75C018B01690195
:102C00007A0190E080E0C114D104E104F10469F498
:102C10000F900F90DF91CF911F910F91FF90EF9048
:102C2000DF90CF90BF90AF9008959C2D8D2DC11453
:102C3000D10421E0E206F10410F09FEF8FEF9E0136
:102C40002F5F3F4F492F582FB801C5010E943922ED
:102C50008F3F9807E9F229813A81C21AD30AE10825
:102C6000F108020F131FCFCF40E052EC61E070E09B
:102C700090E080E008D061E08DE00E94202660E0D6
:102C80008DE00C945C268130910579F01CF4892B41
:102C900039F008958230910561F0039771F008953D
:102CA00026E087E096E00C94532726E084EA96E03D
:102CB000FACF26E081E497E0F6CF26E08EED97E0AC
:102CC000F2CF1F920F920FB60F9211240BB60F92F4
:102CD0002F933F934F935F936F937F938F939F9324
:102CE000AF93BF93EF93FF938FE89DEF90932501F0
:102CF000809324018091FC059091FD05019721F4BA
:102D000061E08DE00E945C260E947222FF91EF91AB
:102D1000BF91AF919F918F917F916F915F914F91F3
:102D20003F912F910F900BBE0F900FBE0F901F90F1
:102D300018958FE89DEF9093250180932401A3E7D8
:102D4000B0E08C918E7F8C93E0E2F1E080818C7F0B
:102D50008083E1E2F1E08081877E808380818460EE
:102D6000808380818C7F80838C9181608C93089597
:102D700081E008958F929F92AF92BF92CF92DF929F
:102D8000EF92FF920F931F93CF93DF935C017B0130
:102D90008A01C1E0D0E0CE15DF05CCF081E0F5017D
:102DA0008083B801C7010E94DA21F50192838183F3
:102DB00090E080E0DF91CF911F910F91FF90EF9015
:102DC000DF90CF90BF90AF909F908F9008956E014D
:102DD0008FEFC81AD80AFE01EE0FFF1FE00FF11F98
:102DE000808091808114910469F062E473E0C401F1
:102DF0000E94B12B892B41F4CC0FDD1FC00FD11FD6
:102E000019821882E601C7CF65E473E0C4010E940D
:102E1000B12B892BB9F7EC14FD04A1F36E01E2E0AC
:102E2000CE0ED11CCC0FDD1FC00FD11F198218820E
:102E30001B821A82E7CF82ED95E0089580E0089525
:102E40000F931F93CF93DF938B01BA01E90119828E
:102E500018829801012E000C440B550BFC01818156
:102E60009281BDDE019641F01983088380E0DF91F5
:102E7000CF911F910F91089581E0F9CF0F931F9388
:102E8000CF93DF931F921F92CDB7DEB7FB018A016C
:102E9000B9019E012F5F3F4FAF01FC0181819281FB
:102EA0000E94EE21019669F089819A81F80191834F
:102EB000808380E00F900F90DF91CF911F910F9151
:102EC000089581E0F7CFFC01808108950895089569
:102ED00081E0FB01808380E0089508951092FA0557
:102EE0000895FC01818192810C94D221CF93DF93CC
:102EF00000D000D000D01F92CDB7DEB7B0E0A0E088
:102F000089839A83AB83BC83CB01770FAA0BBB0B5E
:102F10008D839E83AF83B8879E01275F3F4FAE01AD
:102F20004F5F5F4F68E070E08091E9059091EA059E
:102F300087DF811110C081E029853A85283031056D
:102F400009F480E02A960FB6F894DEBF0FBECDBF1D
:102F5000DF91CF91089581E0F5CF0F931F93CF9329
:102F6000DF931F921F92CDB7DEB78B019E012F5FBB
:102F70003F4FAC018091E9059091EA0561DF811135
:102F80000EC081E029813A812017310709F480E0E1
:102F90000F900F90DF91CF911F910F91089581E0D5
:102FA000F7CFCF93DF93EC011092ED051092EC0573
:102FB0001092F9051092F805AC0160E070E0CB01C9
:102FC0000E94B70FAE0161E070E080E090E00E94E7
:102FD000B70F8091E9059091EA05DF91CF917DCF00
:102FE0004F925F926F927F928F929F92AF92BF9219
:102FF000CF92DF92EF92FF920F931F93CF93DF93C5
:103000001F921F92CDB7DEB78C017C0197FF03C0E2
:1030100087E0E80EF11C23E0F594E7942A95E1F7A8
:10302000C80168E070E00E94112A6C010E5F1F4F1A
:103030008091E7059091E80580179107D4F480917D
:10304000E5059091E605009731F00E94182B10924B
:10305000E8051092E705C8010E947C2A9093E605D6
:103060008093E505892B09F482C01093E80500934D
:10307000E70510E000E047C1412C512C3201B12C92
:10308000A12C950122513A4FAE014F5F5F4F61E095
:1030900070E08091E9059091EA05F0DE811149C068
:1030A000EFEF4E1A5E0A6E0A7E0AF0E94F16FFE550
:1030B0005F06F1E06F06710444F06091F8057091CD
:1030C000F9058DEE90E012DFD7CF89819A81A80EA5
:1030D000B91E8AE0A816B10409F043C049E050E0E7
:1030E00070E060E08EEE95E00E9464226091F80549
:1030F0007091F905882391F18091F60590E086178B
:10310000970781F4BC018EEE90E0F0DE8091F80527
:103110009091F905019699279093F9058093F80508
:103120000F5F1F4F0E151F050CF4A6CFCD2809F019
:103130007CC090E080E00F900F90DF91CF911F91C5
:103140000F91FF90EF90DF90CF90BF90AF909F9046
:103150008F907F906F905F904F9008958FEE90E0EA
:10316000B2CFEAE0AE16B1040CF48BCFDBCF10E0A7
:1031700000E0D8CF0A30110531F549E050E070E0A9
:1031800060E08EEE95E00E9464226091F8057091F7
:10319000F9058823A9F08091F60590E08617970736
:1031A00041F6BC018EEE90E0A1DE8091F805909191
:1031B000F905019699279093F9058093F805B9CF01
:1031C0008FEE90E02BC00A3011050CF0B2CF9801C1
:1031D00022513A4FAE014F5F5F4F61E070E0809146
:1031E000E9059091EA054ADE8111A3CF89819A8190
:1031F000080F191FFFEFCF1ADF0AEF0AFF0A80E955
:10320000C8168FE5D80681E0E806F1040CF4B2CFC9
:103210006091F8057091F9058DEE90E067DE10E0A1
:1032200000E0C12CD12C7601D2CFC12CD12C76015B
:1032300010E000E0CCCF412C512C3201B12CA12C5C
:10324000480193E0880C991C9A95E1F72091E505D7
:103250003091E605C501880D991D280F391FAE0173
:103260004F5F5F4F61E070E08091E9059091EA0562
:1032700005DE81115ECFEFEF4E1A5E0A6E0A7E0AFE
:103280006091F8057091F9058DEE90E0F0E94F1628
:10329000FFE55F06F1E06F0671040CF043C0898121
:1032A0009A81A80EB91E8AE0A816B10409F041C09F
:1032B00049E050E0B4018091E5059091E6050E9457
:1032C00064226091F8057091F905882349F1809195
:1032D000E5059091E605880E991EF401808590E041
:1032E0008617970781F4BC018EEE90E0FFDD809198
:1032F000F8059091F905019699279093F905809327
:10330000F8050F5F1F4F0E151F050CF494CFC11465
:10331000D10409F081C08091E5059091E6050BCFBD
:103320008FEE90E0E3DD412C512C3201B12CA12C29
:103330008DCFFAE0AF16B1040CF488CFE4CF8FEE56
:1033400090E0D4DDF12CE12C812C912C54019701DB
:1033500022513A4FAE014F5F5F4F61E070E08091C4
:10336000E9059091EA058ADD8111E3CE8FEF881A95
:10337000980AA80AB80A6091F8057091F9058DEECF
:1033800090E0E0E98E16EFE59E06E1E0AE06B104BE
:10339000C4F689819A81E80EF91EFAE0EF16F1046D
:1033A000A9F549E050E070E060E08EEE95E00E9403
:1033B00064226091F8057091F905882309F4BFCF64
:1033C0008091F60590E08617970709F0A4CFBC011D
:1033D0008EEE90E08BDD83E0000F111F8A95E1F700
:1033E0008091E5059091E605A6016EEE75E0800FEF
:1033F000911F0E94A12B8091F8059091F9050196EB
:1034000099279093F9058093F80585CF8AE0E8160F
:10341000F1040CF49CCF7FCF812C912C5401F12C22
:10342000E12C95CFCF92DF92EF92FF920F931F93F3
:10343000CF93DF931F92CDB7DEB76C017B018A017A
:10344000452B39F0AB0170E060E0C8010E946022BA
:103450008983B701C6014ADD81110DC0011511052F
:1034600051F0B701C80179DD811105C061E070E05C
:10347000CE01019672DD0F90DF91CF911F910F91D8
:10348000FF90EF90DF90CF900895CF92DF92EF9270
:10349000FF92CF93DF9300D000D01F921F92CDB741
:1034A000DEB76B01F12CE12CC982DA82EB82FC825F
:1034B0002D833E834F835887AE014F5F5F4F68E097
:1034C00070E0B0DF28960FB6F894DEBF0FBECDBF18
:1034D000DF91CF91FF90EF90DF90CF9008958F9282
:1034E0009F92AF92BF92CF92DF92EF92FF920F9393
:1034F0001F93CF93DF937C01EB01CA01690170DD5B
:103500000097B1F42FEF3FEFA90161E070E0C70130
:10351000BCDFC1E08C2FDF91CF911F910F91FF9005
:10352000EF90DF90CF90BF90AF909F908F900895D5
:10353000FC0181909190A190B190BF01FCE1EF1648
:10354000F10479F4A5019401CE010E941D0EC82F4B
:10355000A5019401882369F061E070E0C70195DF5F
:10356000D9CF95018401AB01B601CE010E94200C98
:10357000EECF70E060E0C701DF91CF911F910F9116
:10358000FF90EF90DF90CF90BF90AF909F908F9083
:103590007CCF0F931F93CF93DF93EC018B014BDC18
:1035A0009093EA058093E9050097A9F0A801BE0170
:1035B000E1DBEC01892B49F08091E9059091EA0566
:1035C00085DC1092EA051092E905CE01DF91CF91DA
:1035D0001F910F910895C1E5D3E0EECF8091E905E9
:1035E0009091EA0570CC2F923F924F925F926F922A
:1035F0007F928F929F92AF92BF92CF92DF92EF9283
:10360000FF920F931F93CF93DF93CDB7DEB76997E8
:103610000FB6F894DEBF0FBECDBF2091ED0522237B
:10362000F1F05B8B4A8B6E877F87888B998B9A0131
:10363000AB01BC01CE0101967C0169D910E048E0E4
:10364000242E312CE88EF98E89819A81181619065C
:103650000CF450C2112319F08A899B89A2DC699667
:103660000FB6F894DEBF0FBECDBFDF91CF911F9193
:103670000F91FF90EF90DF90CF90BF90AF909F9011
:103680008F907F906F905F904F903F902F90089514
:10369000EB81FC818C859D8533E0880F991F3A95DD
:1036A000E1F7E80FF91F808191819093E405809301
:1036B000E30524813581428153815093E205409393
:1036C000E105468157815093E0054093DF05820F65
:1036D000931F9C01990F440B550B2C8B3D8B4E8BEC
:1036E0005F8B812C912C54018C899D89AE89BF8977
:1036F00088169906AA06BB0638F18C859D85880F29
:10370000991FED81FE81E80FF91F4E855F8568895D
:103710007989808191810E94E90FAC85BD851196E0
:10372000BD87AC8789819A81EC85FD85E817F9070B
:103730000CF4AECF2A893B894E855F8568897989EB
:10374000888D998DE4D880CF1F826091E3057091B8
:10375000E405CB01072E000CAA0BBB0B84017501FD
:10376000640134E0C30ED11CE11CF11CC816D9065B
:10377000EA06FB0608F0B3C02091E1053091E205AE
:10378000A4014C5F5F4F240F351FF901C080D12C7D
:10379000F12CE12C24013501F5E04F0E511C611C88
:1037A000711C481659066A067B0608F0A3C02091D2
:1037B000E1053091E205F8013596E20FF31F208113
:1037C000D22A2401350126E0420E511C611C711CD5
:1037D000481659066A067B0608F097C02091E10555
:1037E0003091E205F8013696E20FF31F2081E22ABC
:1037F0002401350137E0430E511C611C711C481631
:1038000059066A067B0608F08BC02091E1053091CD
:10381000E205F8013796E20FF31F208126013701F8
:10382000722A7501640148E0C40ED11CE11CF11C30
:103830008C159D05AE05BF0508F41DC188169906B7
:10384000AA06BB0608F077C08091E1059091E205D9
:10385000800F911F68E070E080DBE091E305F0915C
:10386000E4059F010F2E000C440B550BD301C20140
:103870008C0D9D1DAE1DBF1D281739074A075B071C
:1038800008F478C0C216D306E406F50608F05DC059
:103890008091E1059091E2059801285F3F4F820FEA
:1038A000931FB2015ADB8091E3059091E405AC01CE
:1038B000092E000C660B770BC416D506E606F70634
:1038C00008F04DC0085F1F4F8091E1059091E2051F
:1038D000800F911FA20170E060E0F2D5A7C044E024
:1038E00050E0461B570B480D591D2091DF053091C4
:1038F000E00549CFE5E0F0E0E61BF70BE00FF11F34
:103900002091DF053091E00558CFE6E0F0E0E61BBE
:10391000F70BE00FF11F2091DF053091E00564CF38
:10392000E7E0F0E0E61BF70BE00FF11F2091DF0569
:103930003091E00570CF9801261B370B8091DF0591
:103940009091E005820F931F85CF91012E1B3F0BB5
:10395000200F311F8091DF059091E005A0CFD101AC
:10396000A81BB90BCD01080F191F8091DF0590919D
:10397000E005AECFBF0168507109601B710BC21624
:10398000D306E406F50608F062C08091E105909147
:10399000E2059801285F3F4F820F931FDEDA809186
:1039A000E3059091E405B101681B790B600F711F6D
:1039B000640D751D8091DF059091E005CEDA809150
:1039C000E3059091E405AC0148505109FA01E01B70
:1039D000F10BAC01092E000C660B770BC416D50653
:1039E000E606F70608F03DC08091E1059091E205FA
:1039F0009801285F3F4F820F931FAF0170E060E096
:103A00005FD58F832091E3053091E405F101E21B3E
:103A1000F30B9F01200F311F240D351D50E040E0B6
:103A2000682F8091DF059091E00536D58F8361E0A6
:103A300070E0CE01079691DA182F38E0430E511C42
:103A4000611C711C840C951CA61CB71C4DCE9101E9
:103A50002E1B3F0B200F311F8091DF059091E00559
:103A60009BCF9101281B390B200F311F8091DF055F
:103A70009091E005C0CF88169906AA06BB0668F5A6
:103A8000601B710B8091E1059091E205800F911F01
:103A900064DA8091E3059091E405B101681B790B2C
:103AA000600F711F640D751D8091DF059091E00519
:103AB00054DA8091E3059091E405AC01092E000CE5
:103AC000660B770BC416D506E606F70608F4FACEA1
:103AD0009101281B390BC90146CFC801861B970BE2
:103AE0002091DF053091E005B201685F7F4F820FC2
:103AF000931FDECF1D861C8615CECF93DF93EC017E
:103B0000AC0160E070E0CB016EDDAE0161E070E021
:103B100080E090E0DF91CF9166CDCF938091E90571
:103B20009091EA058BD9C82F81110BC060E070E03D
:103B3000CB010E94E20A61E070E080E090E00E9428
:103B4000E20A8C2FCF9108950F931F9389019A0158
:103B5000AB01BC018091E9059091EA05B8D91F91AC
:103B60000F9108954F925F926F927F928F929F92E2
:103B7000AF92BF92CF92DF92EF92FF920F931F937B
:103B8000CF93DF93CDB7DEB763970FB6F894DEBF60
:103B90000FBECDBF6C018B015A018091ED058823CA
:103BA00009F43DC08091ED05882309F442C080915D
:103BB000EC051A821982882309F4C0C0F0E94F2E5F
:103BC000FFE55F2E66246394712CF12CE12C9701A4
:103BD0002B523A4FAE014F5F5F4F61E070E0809132
:103BE000E9059091EA054AD9982E811169C0898129
:103BF0009A81E80EF91EE114F10409F461C081E034
:103C0000481A51086108710859F56091F8057091DA
:103C1000F9058DEE90E06AD91A82198251C06DEED5
:103C200075E08091E9059091EA0552D9882309F45D
:103C3000B9CF63960FB6F894DEBF0FBECDBFDF914C
:103C4000CF911F910F91FF90EF90DF90CF90BF9099
:103C5000AF909F908F907F906F905F904F9008955E
:103C6000AAE0EA16F10409F063C049E050E070E010
:103C700060E085ED95E028D46091F8057091F90534
:103C8000882309F452C08091DD0590E086179707DC
:103C900019F6BC018EEE90E029D988E0E5EDF5E05B
:103CA000DE01199601900D928A95E1F78091F80551
:103CB0009091F905019699279093F9058093F8055D
:103CC00081E029813A81121613060CF080E09110F0
:103CD000CAC2882309F4ADCF8091EC05811104C0DC
:103CE00019861A861B861C8689859A85AB85BC85B4
:103CF00080319105A105B10508F09BCFFC01882713
:103D0000EB57F14E8F4F0C94462A051FC4203321E8
:103D1000191E09203C20F51EFD1ED91E1821072161
:103D20001421191E191E191EC41E8FEE90E073CFA8
:103D3000BAE0EB16F1040CF44ACFC2CFF12CE12C1F
:103D4000E8E06E2E712C29E030E02C0F3D1F2E0D87
:103D50003F1DAE014F5F5F4FB3016E197F09809128
:103D6000E9059091EA058AD8982E29813A81811136
:103D700009C0E20EF31EE114F10421F0E8E0EE16B2
:103D8000F1040CF381E09FCFD6011696ED91FC91E2
:103D900080819181A281B38189839A83AB83BC8323
:103DA000AE014F5F5F4F64E070E085E190E03ADB89
:103DB00040CF8D859E8514D92FEF3FEFA90161E09B
:103DC00070E0009771F0FC01C080D180E280F38048
:103DD000A801C701B6010E94620FA701960170E019
:103DE00060E08DE190E051DB24CF4D855E85980148
:103DF000B6018BE190E073DB1CCF4D855E852FEF24
:103E00003FEFB6018CE190E0F6CFD6011496ED912C
:103E1000FC9100811181F80182809380A080B180A3
:103E200070E1472E512C612C712C49825A826B8291
:103E30007C8288E090E0A0E0B0E08D839E83AF8339
:103E4000B8879E012F5E3F4FAE014F5F5F4F68E026
:103E500070E08091E9059091EA050E94201788237F
:103E6000D9F010E000E0C80163960FB6F894DEBF09
:103E70000FBECDBFDF91CF911F910F91FF90EF90BB
:103E8000DF90CF90BF90AF909F908F907F906F907A
:103E90005F904F900C94182B89899A89089709F79D
:103EA000D801ED90FC90B8E0EB0EF11CEE0CFF1C7D
:103EB000EE0CFF1CC7010E947C2A8C01892B89F221
:103EC00049825A826B827C82C7010F2C000CAA0B9C
:103ED000BB0B8D839E83AF83B8879E012F5E3F4FC0
:103EE000AE014F5F5F4F68E070E08091E90590910F
:103EF000EA050E9420178111B6CF89899A8908970F
:103F000009F0B1CFD6011296ED91FC91408151811B
:103F100062817381D8014D935D936D937C93139768
:103F2000448155816681778114964D935D936D939D
:103F30007C931797408551856285738518964D93BC
:103F40005D936D937C931B9784859585A685B78536
:103F5000F80184879587A687B787108A118A128A05
:103F6000138A84E090E0A0E0B0E0848B958BA68B70
:103F7000B78B80917A0290917B02B0E0A0E0808FB5
:103F8000918FA28FB38FC5010B2C000CAA0BBB0B1A
:103F9000848F958FA68FB78FF401D801909690E00B
:103FA00080E08A159B055CF19E012F5E3F4FA801C2
:103FB000B7018091E9059091EA050E9420178111CF
:103FC00052CF89899A89E816F90609F04CCFA701E2
:103FD00070E060E0C80174D28B8B9E012F5E3F4F72
:103FE000AE014D5E5F4F61E070E08091E905909118
:103FF000EA050E94201781E08093EC0534CF4191BF
:10400000519170E060E04D935D936D937D930196C7
:10401000C8CF8D859E85AF85B8890097A105B1056C
:1040200021F481E08093EB0504CE0E94F017009705
:1040300081F481E090E0A0E0B0E089839A83AB83D3
:10404000BC83AE014F5F5F4F64E070E082E190E0BF
:10405000AECEBC01C6010E943C0A19821A821B82A4
:104060001C82AE014F5F5F4F64E070E082E190E040
:10407000D9D98823B1F2DDCDD6011496ED91FC910A
:104080000190F081E02DE084F1848FEF8983E114C9
:10409000F10409F472C0D7016D907C90C280D38086
:1040A00070E060E090E080E08615970594F083E191
:1040B00090E00E94761710E000E08111BACD06155D
:1040C00017055CF161E070E0CE0101960E94AD172A
:1040D000B0CD9C0143E0220F331F4A95E1F7F70171
:1040E000A281B381A20FB31F1296ED91FC91139799
:1040F000EE0FFF1FEC0DFD1D0190F081E02D1696D7
:104100004D915C91E49F9001E59F300DF49F300D3F
:104110001124620F731F0196C7CFD7011296ED913C
:10412000FC91C80123E0880F991F2A95E1F7E80F59
:10413000F91FA080B180A281B381AA0FBB1FAC0D73
:10414000BD1D2D913C9186819781289F4001299F1B
:10415000900C389F900C1124B401C5010E94AD173A
:10416000582E940150E040E06981C50195D18983C2
:1041700051105FCD0F5F1F4FA2CF70E060E083E171
:1041800090E00E94761755CD50E040E070E060E08E
:1041900081E190E047D981114CCD60E070E0CB0126
:1041A0000E94070C8091CF05882329F0A80160E0C8
:1041B00070E0CB0118DAA80160E070E0CB010E944A
:1041C0000E0B61E070E080E090E00E94070C8091AF
:1041D000CF05882331F0A80161E070E080E090E035
:1041E00002DAA80161E070E080E090E00E940E0B2E
:1041F0001092ED051092EC051092F9051092F80559
:104200008091E9059091EA050E946E1712CD81E038
:1042100090E09093D1058093D00550E040E070E0AD
:1042200060E086E190E0C3CD81E0F501808301CDBF
:104230008D859E850E94F0172FEF3FEFA90161E069
:1042400070E0009769F0DC01CD90DD90ED90FC907E
:10425000C701B6010E94C20FA701960170E060E09D
:104260008EE190E0C0CDC8010E94D117E2CCCF9280
:10427000DF92EF92FF92CF93DF93EC01C12CD12C10
:104280007601C701B6010E94070CAE01C701B60155
:10429000AAD9AE01C701B6010E940E0B8091E505B7
:1042A0009091E605009731F00E94182B1092E605D8
:1042B0001092E505CA94CD28CE28CF2879F58091B3
:1042C000EC05F12C882351F050E040E070E060E014
:1042D00084E190E0A7D8F82E1092EC058091ED05CE
:1042E000882341F01092ED0581E090E090937B02ED
:1042F00080937A028091E9059091EA050E947117F6
:104300008091E9059091EA050E9466178F2DDF9153
:10431000CF91FF90EF90DF90CF900895C12CD12CDA
:104320007601C394AECFCF93DF93EC01AC0160E094
:1043300070E0CB010E94F713AE0161E070E080E015
:1043400090E0DF91CF910C94F71360E070E0CB0127
:104350000E94641461E070E080E090E00C946414CA
:10436000CF92DF92EF92FF920F931F93CF93DF9341
:10437000EC016A017B0100E010E098010E9412103C
:1043800001E010E020E030E0B701A601CE010E947C
:104390001210DF91CF911F910F91FF90EF90DF905E
:1043A000CF90089568EE73E080E090E04BD390E00A
:1043B00080E0089526E040E050E16EE070E087E0A4
:1043C00096E071D587E096E0A4D4892B21F087E0B0
:1043D00096E0B9D4F7CF90E080E00895CF92DF92D5
:1043E000EF92FF920F931F93CF93DF936B017A01AC
:1043F000E9011982188287E096E08BD4892B71F14C
:104400008601CC24C39485E6D82E8091FA058111CB
:1044100011C087E096E097D485369105B1F7C09238
:10442000FA05F801D1928F018881998101969983CB
:104430008883EBCF888199818E159F0578F487E07A
:1044400096E081D48F3F9807A9F3F80181938F01FB
:1044500088819981019699838883ECCF90E080E0F0
:10446000DF91CF911F910F91FF90EF90DF90CF9050
:1044700008950F931F93CF93DF93EA01890187E09B
:1044800096E0A1D7F801D183C08390E080E0DF916E
:10449000CF911F910F910895DC01A40FB51F420F1A
:1044A000531F9D01281B390B2417350710F0862F49
:1044B0000895ED91E627F0E0EC51FF4F6491F1CFC4
:1044C0009A01AB016FEFE8CFCF93FC01E60FF71F26
:1044D000E40FF51FC081F4DF91E0C81390E0892F4D
:1044E000CF9108958091FB0591E0980F9093FB0583
:1044F000882349F021E030E03093FD052093FC054E
:104500008093FB05089578940E943107F894809178
:10451000FB0581508093FB050C94E115DF92EF922F
:10452000FF920F931F93CF93DF931F92CDB7DEB708
:104530001092890810928808BBD20E94341600910C
:10454000B5021091B602F8011182108270E060E0AD
:1045500090E080E00E94E9150E943A08F89478946F
:10456000C80181569F4F0E94E81582E090E00E94AA
:10457000E5151982AE014F5F5F4F62E070E0F80110
:10458000828193810E9495158981882329F081E099
:10459000F801EB55FF4F80830E94EE15F8940E94BE
:1045A0009916F80180819181892B29F481E0EB55DE
:1045B000FF4F9081911180E08093880878947894DF
:1045C0007801F5EAEF0EF11CDD24D3948091880880
:1045D000811112C00E940B0982E090E00E94E61552
:1045E000F89490E080E00F90DF91CF911F910F91B0
:1045F000FF90EF90DF9008951982AE014F5F5F4FFB
:1046000062E070E0F801828193810E94CD1589817A
:10461000882311F0F701D082F80180819181892BE4
:1046200091F481E0F7019081911101C080E08093C5
:1046300089089091890881E0911180E08093880831
:104640000E94B816C3CF81E0F2CF5058BB27AA27EB
:104650000ED0DCC0CDD030F0D2D020F031F49F3F6E
:1046600011F41EF4C2C00EF4E095E7FBB8C0E92FC8
:10467000DED080F3BA17620773078407950718F036
:1046800071F49EF5F6C00EF4E0950B2EBA2FA02D16
:104690000B01B90190010C01CA01A0011124FF27EF
:1046A000591B99F0593F50F4503E68F11A16F040EA
:1046B000A22F232F342F4427585FF3CF46953795E9
:1046C0002795A795F0405395C9F77EF41F16BA0BAE
:1046D000620B730B840BBAF09150A1F0FF0FBB1F5C
:1046E000661F771F881FC2F70EC0BA0F621F731FA5
:1046F000841F48F4879577956795B795F7959E3F02
:1047000008F0B3CF9395880F08F09927EE0F97958F
:104710008795089540D008F481E00895E89409C091
:1047200097FB3EF490958095709561957F4F8F4FE4
:104730009F4F9923A9F0F92F96E9BB279395F695FA
:10474000879577956795B795F111F8CFFAF4BB0F78
:1047500011F460FF1BC06F5F7F4F8F4F9F4F16C0DC
:10476000882311F096E911C0772321F09EE8872F66
:10477000762F05C0662371F096E8862F70E060E022
:104780002AF09A95660F771F881FDAF7880F96959B
:10479000879597F90895990F0008550FAA0BE0E83F
:1047A000FEEF16161706E807F907C0F012161306F3
:1047B000E407F50798F0621B730B840B950B39F433
:1047C0000A2661F0232B242B252B21F408950A2699
:1047D00009F4A140A6958FEF811D811D089597F9D9
:1047E0009F6780E870E060E008959FEF80EC089597
:1047F00000240A94161617061806090608950024C0
:104800000A9412161306140605060895092E039439
:10481000000C11F4882352F0BB0F40F4BF2B11F4AD
:1048200060FF04C06F5F7F4F8F4F9F4F089557FD0C
:104830009058440F551F59F05F3F71F04795880F0E
:1048400097FB991F61F09F3F79F0879508951216A5
:1048500013061406551FF2CF4695F1DF08C0161651
:1048600017061806991FF1CF869571056105089402
:104870000895E894BB2766277727CB0197F9089519
:104880008ADF08F48FEF08950BD0C0CFB1DF28F096
:10489000B6DF18F0952309F0A2CFA7CF1124EACFF5
:1048A000C6DFA0F3959FD1F3950F50E0551F629F8F
:1048B000F001729FBB27F00DB11D639FAA27F00D79
:1048C000B11DAA1F649F6627B00DA11D661F829FA0
:1048D0002227B00DA11D621F739FB00DA11D621F85
:1048E000839FA00D611D221F749F3327A00D611DA2
:1048F000231F849F600D211D822F762F6A2F112484
:104900009F5750408AF0E1F088234AF0EE0FFF1FD6
:10491000BB1F661F771F881F91505040A9F79E3F0D
:10492000510570F05CCFA6CF5F3FECF3983EDCF30F
:10493000869577956795B795F795E7959F5FC1F74A
:10494000FE2B880F911D9695879597F908951F92D4
:104950000F920FB60F9211242F933F938F939F9333
:10496000AF93BF938091FF0590910006A09101063F
:10497000B09102063091FE0523E0230F2D3758F544
:104980000196A11DB11D2093FE058093FF05909314
:104990000006A0930106B093020680910306909151
:1049A0000406A0910506B09106060196A11DB11D51
:1049B0008093030690930406A0930506B093060621
:1049C000BF91AF919F918F913F912F910F900FBE0B
:1049D0000F901F90189526E8230F0296A11DB11D78
:1049E000D2CF2FB7F8946091FF05709100068091A7
:1049F0000106909102062FBF08953FB7F894809169
:104A0000030690910406A0910506B091060626B50E
:104A1000A89B05C02F3F19F00196A11DB11D3FBFF6
:104A2000BA2FA92F982F8827BC01CD01620F711DC5
:104A3000811D911D42E0660F771F881F991F4A95BF
:104A4000D1F708958F929F92AF92BF92CF92DF924B
:104A5000EF92FF926B017C01D0DF4B015C01C1142E
:104A6000D104E104F104D9F0DBD4C7DF6819790976
:104A70008A099B09683E73408105910580F321E016
:104A8000C21AD108E108F10888EE880E83E0981E6A
:104A9000A11CB11CC114D104E104F10431F7FF9051
:104AA000EF90DF90CF90BF90AF909F908F90089540
:104AB000789484B5826084BD84B5816084BD85B5F9
:104AC000826085BD85B5816085BDEEE6F0E08081C0
:104AD00081608083E1E8F0E01082808182608083E1
:104AE000808181608083E0E8F0E080818160808364
:104AF000E1EBF0E0808184608083E0EBF0E0808196
:104B000081608083E1E9F0E0808182608083808140
:104B100081608083E0E9F0E0808181608083E1EA68
:104B2000F0E0808182608083808181608083E0EA20
:104B3000F0E0808181608083E1E2F1E08081826049
:104B40008083808181608083E0E2F1E08081816008
:104B50008083EAE7F0E080818460808380818260E6
:104B600080838081816080838081806880831092CF
:104B7000C10008958150823108F059C0E82FF0E05B
:104B80008827EB53FA4D8F4F81C4E525E925D725BA
:104B9000DD25E1251726EC25F225F625FC25002646
:104BA00004260A260E261726122618261C26809171
:104BB00080008F77809380000895809180008F7DA2
:104BC000F9CF80918000877FF5CF84B58F7784BD42
:104BD000089584B58F7DFBCF8091B0008F7780934F
:104BE000B00008958091B0008F7DF9CF8091900042
:104BF0008F77809390000895809190008F7DF9CFFA
:104C000080919000877FF5CF8091A0008F7780936F
:104C1000A00008958091A0008F7DF9CF8091A00021
:104C2000877FF5CF809120018F77809320010895B1
:104C3000809120018F7DF9CF80912001877FF5CF72
:104C4000CF93DF9390E0FC01E65DFD4F2491805906
:104C50009D4FFC0184918823C9F090E0880F991F33
:104C6000FC01E053FD4FA591B491FC01EA54FD4FC6
:104C7000C591D49161110DC09FB7F8948C91209586
:104C800082238C938881282328839FBFDF91CF9133
:104C90000895623051F49FB7F8943C91822F80952B
:104CA00083238C93E8812E2BEFCF8FB7F894EC9170
:104CB0002E2B2C938FBFEACF1F93CF93DF93282FF8
:104CC00030E0F901EC51FE4F8491F901E65DFD4FB2
:104CD000D491F901E059FD4FC491CC23A1F0162FD6
:104CE000811148DFEC2FF0E0EE0FFF1FEA54FD4F7B
:104CF000A591B4918FB7F894EC91111108C0D0959B
:104D0000DE23DC938FBFDF91CF911F910895DE2BBF
:104D1000F8CFFC01918D228D892F90E0805C9F4F10
:104D2000821B91098F7399270895FC01918D828DC3
:104D3000981731F0828DE80FF11D858D90E0089570
:104D40008FEF9FEF0895FC01918D828D981761F090
:104D5000A28DAE0FBF2FB11D5D968C91928D9F5F7E
:104D60009F73928F90E008958FEF9FEF0895FC015D
:104D7000538D448D252F30E0842F90E0821B930BC0
:104D8000541710F0CF96089501970895FC01A48D53
:104D9000A80FB92FB11DA35ABF4F2C91848D90E05D
:104DA00001968F739927848FA689B7892C93A08940
:104DB000B1898C91837080648C93938D848D9813CA
:104DC00006C00288F389E02D80818F7D808308955D
:104DD000CF93DF93EC01888D8823B1F0AA89BB893A
:104DE000E889F9898C9185FD03C0808186FD0CC01E
:104DF0000FB607FCF7CF8C9185FFF2CF808185FF3E
:104E0000EDCFCE01C3DFEACFDF91CF910895EF92CE
:104E1000FF920F931F93CF93DF93EC0181E0888F74
:104E20009B8D8C8D98131AC0E889F989808185FF44
:104E300015C09FB7F894EE89FF896083E889F989E6
:104E400080818370806480839FBF81E090E0DF91E8
:104E5000CF911F910F91FF90EF900895F62E0B8D3B
:104E600010E00F5F1F4F0F731127E02E8C8D8E11F6
:104E70000BC00FB607FCFACFE889F989808185FF5E
:104E8000F5CFCE0183DFF2CFEB8DEC0FFD2FF11DBF
:104E9000E35AFF4FF0829FB7F8940B8FEA89FB89A2
:104EA00080818062D0CFCF92DF92EF92FF921F93EA
:104EB000CF93DF93EC016A017B01122FE889F98916
:104EC00082E08083C11481EED806E104F10499F0F8
:104ED00060E079E08DE390E0A7019601B5D2215022
:104EE000310941095109569547953795279521155F
:104EF00080E1380790F0E889F989108260E874E869
:104F00008EE190E0A70196019FD22150310941091D
:104F100051095695479537952795EC85FD85308342
:104F2000EE85FF852083188EEC89FD891083EA8940
:104F3000FB89808180618083EA89FB898081886028
:104F40008083EA89FB89808180688083EA89FB8984
:104F500080818F7D8083DF91CF911F91FF90EF90B3
:104F6000DF90CF9008951F920F920FB60F921124E9
:104F70000BB60F922F938F939F93EF93FF93E09134
:104F80001706F09118068081E0911D06F0911E062B
:104F900082FD1DC09081809120068F5F8F732091CC
:104FA0002106821741F0E0912006F0E0E95FF94F19
:104FB000958F80932006FF91EF919F918F912F9174
:104FC0000F900BBE0F900FBE0F901F901895808111
:104FD000F2CF1F920F920FB60F9211240BB60F92C1
:104FE0002F933F934F935F936F937F938F939F93F1
:104FF000AF93BF93EF93FF9387E096E0C7DEFF91F7
:10500000EF91BF91AF919F918F917F916F915F9140
:105010004F913F912F910F900BBE0F900FBE0F90AD
:105020001F901895E7E0F6E01382128288EE93E075
:10503000A0E0B0E084839583A683B78380E993E002
:105040009183808385EC90E09587848784EC90E061
:105050009787868780EC90E0918B808B81EC90E045
:10506000938B828B82EC90E0958B848B86EC90E026
:10507000978B868B118E128E138E148E08951F922D
:105080000F920FB60F9211240BB60F922F938F939E
:105090009F93EF93FF93E091B406F091B506808162
:1050A000E091BA06F091BB0682FD1DC0908180910F
:1050B000BD068F5F8F732091BE06821741F0E0918D
:1050C000BD06F0E0EC55F94F958F8093BD06FF913A
:1050D000EF919F918F912F910F900BBE0F900FBE6C
:1050E0000F901F9018958081F2CF1F920F920FB6EC
:1050F0000F9211240BB60F922F933F934F935F9310
:105100006F937F938F939F93AF93BF93EF93FF938F
:1051100084EA96E03BDEFF91EF91BF91AF919F91C2
:105120008F917F916F915F914F913F912F910F9050
:105130000BBE0F900FBE0F901F901895E4EAF6E09B
:105140001382128288EE93E0A0E0B0E0848395831E
:10515000A683B78380E993E0918380838DEC90E010
:10516000958784878CEC90E09787868788EC90E021
:10517000918B808B89EC90E0938B828B8AEC90E012
:10518000958B848B8EEC90E0978B868B118E128E94
:10519000138E148E08951F920F920FB60F92112442
:1051A0000BB60F922F938F939F93EF93FF93E09102
:1051B0005107F09152078081E0915707F09158070D
:1051C00082FD1DC0908180915A078F5F8F7320915F
:1051D0005B07821741F0E0915A07F0E0EF5BF84F70
:1051E000958F80935A07FF91EF919F918F912F9107
:1051F0000F900BBE0F900FBE0F901F9018958081DF
:10520000F2CF1F920F920FB60F9211240BB60F928E
:105210002F933F934F935F936F937F938F939F93BE
:10522000AF93BF93EF93FF9381E497E0AFDDFF91DE
:10523000EF91BF91AF919F918F917F916F915F910E
:105240004F913F912F910F900BBE0F900FBE0F907B
:105250001F901895E1E4F7E01382128288EE93E044
:10526000A0E0B0E084839583A683B78380E993E0D0
:105270009183808385ED90E09587848784ED90E02D
:105280009787868780ED90E0918B808B81ED90E011
:10529000938B828B82ED90E0958B848B86ED90E0F2
:1052A000978B868B118E128E138E148E08951F92FB
:1052B0000F920FB60F9211240BB60F922F938F936C
:1052C0009F93EF93FF93E091EE07F091EF078081BA
:1052D000E091F407F091F50782FD1DC09081809167
:1052E000F7078F5F8F732091F807821741F0E091E5
:1052F000F707F0E0E252F84F958F8093F707FF91A0
:10530000EF919F918F912F910F900BBE0F900FBE39
:105310000F901F9018958081F2CF1F920F920FB6B9
:105320000F9211240BB60F922F933F934F935F93DD
:105330006F937F938F939F93AF93BF93EF93FF935D
:105340008EED97E023DDFF91EF91BF91AF919F919B
:105350008F917F916F915F914F913F912F910F901E
:105360000BBE0F900FBE0F901F901895EEEDF7E05B
:105370001382128288EE93E0A0E0B0E084839583EC
:10538000A683B78380E993E09183808385E391E0EE
:105390009587848784E391E09787868780E391E00F
:1053A000918B808B81E391E0938B828B82E391E000
:1053B000958B848B86E391E0978B868B118E128E72
:1053C000138E148E0895AF92BF92CF92DF92EF9218
:1053D000FF920F931F93CF93DF936C017B018B019F
:1053E000040F151FEB015E01AE18BF08C017D107EF
:1053F00059F06991D601ED91FC910190F081E02D79
:10540000C6011995892B79F7C501DF91CF911F91BD
:105410000F91FF90EF90DF90CF90BF90AF900895E5
:10542000089597FB072E16F4009406D077FD08D058
:1054300035D007FC05D03EF4909581959F4F089597
:10544000709561957F4F0895A1E21A2EAA1BBB1B90
:10545000FD010DC0AA1FBB1FEE1FFF1FA217B30740
:10546000E407F50720F0A21BB30BE40BF50B661F56
:10547000771F881F991F1A9469F76095709580951A
:1054800090959B01AC01BD01CF010895EE0FFF1F68
:10549000881F8BBF0790F691E02D1994AA1BBB1BA8
:1054A00051E107C0AA1FBB1FA617B70710F0A61B24
:1054B000B70B881F991F5A95A9F780959095BC0145
:1054C000CD0108950F931F93CF93DF93869F8001A3
:1054D000879F100D969F100D1124C8010DD0EC016F
:1054E000009721F0A80170E060E034D1CE01DF9197
:1054F000CF911F910F9108950F931F93CF93DF9337
:105500008230910510F482E090E0E0918C08F091F7
:105510008D0830E020E0B0E0A0E0309799F421154C
:10552000310509F44AC0281B390B24303105D8F560
:105530008A819B816115710589F1FB0193838283C7
:10554000FE0111C040815181028113814817590722
:10555000E0F04817590799F4109761F012960C93F0
:10556000129713961C933296CF01DF91CF911F9122
:105570000F91089500938C0810938D08F4CF211596
:10558000310551F04217530738F0A901DB019A01A8
:10559000BD01DF01F801C1CFEF01F9CF90938D0874
:1055A00080938C08CDCFFE01E20FF31F819391937E
:1055B0002250310939832883D7CF20918A0830912E
:1055C0008B08232B41F42091020230910302309387
:1055D0008B0820938A082091000230910102211546
:1055E000310541F42DB73EB74091040250910502B8
:1055F000241B350BE0918A08F0918B08E217F30722
:10560000A0F42E1B3F0B2817390778F0AC014E5F32
:105610005F4F2417350748F04E0F5F1F50938B08DC
:1056200040938A08819391939FCFF0E0E0E09CCF74
:10563000CF93DF930097E9F0FC0132971382128237
:10564000A0918C08B0918D08ED0130E020E010971A
:10565000A1F420813181820F931F20918A0830911B
:105660008B082817390709F061C0F0938B08E09385
:105670008A08DF91CF910895EA01CE17DF07E8F598
:105680004A815B819E0141155105B1F7E901FB8318
:10569000EA8349915991C40FD51FEC17FD0761F4B6
:1056A000808191810296840F951FE90199838883F7
:1056B000828193819B838A83F0E0E0E012968D9152
:1056C0009C9113970097B9F52D913C911197CD01BD
:1056D0000296820F931F20918A0830918B08281719
:1056E000390739F6309751F510928D0810928C08D1
:1056F000B0938B08A0938A08BCCFD383C283408128
:105700005181840F951FC817D90761F44E5F5F4F11
:1057100088819981480F591F518340838A819B81D9
:10572000938382832115310509F0B0CFF0938D0862
:10573000E0938C089ECFFD01DC01C0CF1382128262
:10574000D7CFFB01DC0102C001900D9241505040C7
:10575000D8F70895DC0101C06D9341505040E0F747
:105760000895FB01DC018D91019080190110D9F39E
:08577000990B0895F894FFCF96
:1057780000008E088000E80301000C02740200009B
:105788000000010004001802840800000000010065
:105798007B080E000000010081080B0000000100DA
:1057A8008308020000000100B702BE02C802C70257
:1057B800D002CF02D902D802E102EB02F602FC02C3
:1057C80006030F0323030400040001000100020084
:1057D80002000400040001000400020002000400AA
:1057E8000800060000004040010101000000000020
:1057F80010023E02AD01D901B001B701CA015369D7
:105808006D756C6174696F6E2066696E6973686521
:10581800640046697865645374657044697363729B
:10582800657465000197047265616C5F5400726568
:10583800616C33325F540075696E74385F5400755B
:10584800696E7431365F540075696E7433325F5413
:1058580000626F6F6C65616E5F540066636E5F63B4
:10586800616C6C5F5400696E745F5400706F696E90
:105878007465725F5400616374696F6E5F5400747D
:10588800696D65725F75696E7433325F70616972D4
:105898005F5400736F4D5055363035304779726F0D
:1058A8005F4C6162425F54756E65546865477972F2
:1058B8006F002D77002D69676E6F72652D617267B5
:1058C80000436F756C64206E6F7420637265617439
:1058D800652065787465726E616C206D6F646520F3
:1058E8007573657220646174612E20204F75742071
:1058F8006F66206D656D6F72792E0A0000000000DA
:0E5908000727E329B726E8268926A326952639
:00000001FF
