:100000007AC100000C9440340C946B340C949634F8
:100010000C94C1340C94EC340C9417350C94423588
:100020000C946D3574C6000015C700004FC7000062
:1000300093C1000091C100008FC100008DC100007C
:100040008BC1000089C1000087C1000085C100008C
:1000500083C1000081C100007FC100000C9498356D
:100060007BC100000C9478390C94AE3975C1000046
:1000700073C1000071C100006FC100006DC10000BC
:100080006BC1000069C1000067C1000065C10000CC
:100090000C94043A0C943A3A5FC100000C94FD0AA7
:1000A0005BC1000059C1000057C1000055C10000EC
:1000B00053C1000051C100004FC100004DC10000FC
:1000C0004BC1000049C100000C94A1240C94903A4B
:1000D0000C94C63A41C100000C941C3B0C94523B5A
:1000E0003BC10000001D3A2774694E53E8F5D2CF9A
:1000F0009C81A6BBCDD0F7EAB9A4839E25381F0208
:10010000514C6B76879ABDA0F3EEC9D46F725548F7
:100110001B06213C4A57706D3E230419A2BF9885E7
:10012000D6CBECF1130E2934677A5D40FBE6C1DCD7
:100130008F92B5A8DEC3E4F9AAB7908D362B0C11C7
:10014000425F78659489AEB3E0FDDAC77C61465BB7
:100150000815322F5944637E2D30170AB1AC8B96A7
:10016000C5D8FFE2263B1C01524F6875CED3F4E997
:10017000BAA7809DEBF6D1CC9F82A5B8031E392487
:10018000776A4D50A1BC9B86D5C8EFF24954736E77
:100190003D20071A6C71564B1805223F8499BEA367
:1001A000F0EDCAD735280F12415C7B66DDC0E7FA57
:1001B000A9B4938EF8E5C2DF8C91B6AB100D2A3747
:1001C00064795E43B2AF8895C6DBFCE15A47607D37
:1001D0002E3314097F6245580B16312C978AADB027
:1001E000E3FED9C400000A0B02090C0D0E08070338
:1001F00004010000000000000000000000000000FA
:1002000000000000000000000000000000000000EE
:1002100012111000000000000000000000000000AB
:100220000000000000000000000001021020200873
:100230000810204010204080020102010804020141
:1002400001020408102040808040201008040201B0
:100250008004020180402010080402010804020109
:100260000102040810204080010204081020408090
:1002700005050505070508080808020202020A0A22
:100280000808040404040101010101010101030340
:10029000030303030303040707070C0C0C0C0C0CEB
:1002A0000C0C0202020206060606060606060B0BE8
:1002B0000B0B0B0B0B0B00002200250028002B0062
:1002C0002E003100340002010000050108010B017D
:1002D00000002100240027002A002D0030003300F8
:1002E00001010000040107010A01EE09240ED739BB
:1002F000633AEF3A7B3B11241FBECFEFD1E2DEBF62
:10030000CDBF00E00CBF14E0A0E0B2E0E0E0F0E818
:1003100000E00BBF02C007900D92A23EB107D9F7D3
:100320002AE0A2EEB4E001C01D92A732B207E1F7C5
:1003300011E0CBE7D1E000E006C021970109802F52
:10034000FE010E94283EC537D10780E00807A9F7C3
:100350000E94D5300C94FE3F53CE8823E1F08230CA
:1003600061F0833089F08130B1F440E052EC61E01B
:1003700070E081E090E00C94832440E855E260E076
:1003800070E082E090E0F7CF40E855E260E070E096
:1003900083E090E0F0CF08954F925F926F927F924A
:1003A0008F929F92AF92BF92CF92EF92FF920F9354
:1003B0001F93CF93DF93CDB7DEB72B013A01F02E19
:1003C000B40130E02830310511F424E030E00AE0D7
:1003D00010E0CC2061F091E000E110E0C91639F0A6
:1003E000E2E008E010E0CE1611F002E010E081300B
:1003F00009F4E8C0B0F0823009F4C5C1833009F4D3
:10040000A3C2DF91CF911F910F91FF90EF90CF90FA
:10041000BF90AF909F908F907F906F905F904F9024
:100420000895F1101BC0269DA001279D500D369DFB
:10043000500D1124B20187E197E0DF91CF911F9118
:100440000F91FF90EF90CF90BF90AF909F908F90C3
:100450007F906F905F904F900C94A83B87E197E05E
:100460000E94E43BE11014C0640C751C6414750414
:1004700041F2F20161912F01F1E0A80187E197E0DB
:10048000FF1203C00E94B63CF1CF0E94BC3CEECFED
:1004900081E0E81215C091E0691A710808F4B1CF43
:1004A000F201619171912F01F1E0A80187E197E0DC
:1004B000FF1203C00E94CC3CEECF0E94D13CEBCF98
:1004C00082E0E81217C091E0691A710808F499CF28
:1004D000F20141915191619171912F01F1E09801E7
:1004E00087E197E0FF1203C00E94AA3CECCF0E9474
:1004F000E13CE9CF83E0E81218C0640C751C641479
:10050000750409F47ECFF20161912F01062E000CD3
:10051000770BF1E0A80187E197E0FF1203C00E948A
:10052000843CEDCF0E948A3CEACF84E0E81215C0FB
:1005300091E0691A710808F464CFF2016191719138
:100540002F01F1E0A80187E197E0FF1203C00E94AC
:10055000843CEECF0E948A3CEBCF85E0E81217C0C6
:1005600091E0691A710808F44CCFF2014191519160
:10057000619171912F01F1E0980187E197E0FF12FD
:1005800003C00E943F3CECCF0E949A3CE9CF86E03A
:10059000E81237CFB12C91E0691A710808F431CF15
:1005A000F20141915191619171912F01F1E0950119
:1005B00087E197E0FF1203C00E94CD3DECCF0E947F
:1005C000CE3DE9CFF1100BC0269DA001279D500D17
:1005D000369D500D1124B20184EB97E02ECF84EBB1
:1005E00097E00E94E43BE11015C0640C751C4614B2
:1005F000570409F406CFF20161912F01F1E0A8013F
:1006000084EB97E0FF1203C00E94B63CF0CF0E943B
:10061000BC3CEDCF81E0E81215C091E0691A710889
:1006200008F4EFCEF201619171912F01F1E0A80180
:1006300084EB97E0FF1203C00E94CC3CEECF0E94F7
:10064000D13CEBCF82E0E81217C091E0691A710843
:1006500008F4D7CEF20141915191619171912F012E
:10066000F1E0980184EB97E0FF1203C00E94AA3CDE
:10067000ECCF0E94E13CE9CF83E0E81218C0640CA3
:10068000751C6414750409F4BCCEF20161912F014C
:10069000062E000C770BF1E0A80184EB97E0FF1227
:1006A00003C00E94843CEDCF0E948A3CEACF84E0E4
:1006B000E81215C091E0691A710808F4A2CEF2019F
:1006C000619171912F01F1E0A80184EB97E0FF1295
:1006D00003C00E94843CEECF0E948A3CEBCF85E0B1
:1006E000E81217C091E0691A710808F48ACEF20185
:1006F00041915191619171912F01F1E0980184EB49
:1007000097E0FF1203C00E943F3CECCF0E949A3C4E
:10071000E9CF86E0E81275CEB12C91E0691A710834
:1007200008F46FCEF20141915191619171912F01C5
:10073000F1E0FF1214C0C11006C0950184EB97E0F0
:100740000E94CD3DEACFCB01BA010E94DA31AB0164
:10075000BC01980184EB97E00E943F3CDECFC110C2
:1007600006C0950184EB97E00E94CE3DD6CFCB0129
:10077000BA010E94DA31AB01BC01980184EB97E029
:100780000E949A3CCACFF1100BC0269DA001279D64
:10079000500D369D500D1124B20181E598E04DCEEB
:1007A00081E598E00E94E43BE11015C0640C751CE3
:1007B0004614570409F425CEF20161912F01F1E0AE
:1007C000A80181E598E0FF1203C00E94B63CF0CF7B
:1007D0000E94BC3CEDCF81E0E81215C091E0691A9F
:1007E000710808F40ECEF201619171912F01F1E0D0
:1007F000A80181E598E0FF1203C00E94CC3CEECF37
:100800000E94D13CEBCF82E0E81217C091E0691A58
:10081000710808F4F6CDF201419151916191719105
:100820002F01F1E0980181E598E0FF1203C00E94DA
:10083000AA3CECCF0E94E13CE9CF83E0E81218C06B
:10084000640C751C6414750409F4DBCDF20161912C
:100850002F01062E000C770BF1E0A80181E598E04E
:10086000FF1203C00E94843CEDCF0E948A3CEACF75
:1008700084E0E81215C091E0691A710808F4C1CD4E
:10088000F201619171912F01F1E0A80181E598E0F9
:10089000FF1203C00E94843CEECF0E948A3CEBCF43
:1008A00085E0E81217C091E0691A710808F4A9CD33
:1008B000F20141915191619171912F01F1E0980103
:1008C00081E598E0FF1203C00E943F3CECCF0E94FC
:1008D0009A3CE9CF86E0E81294CDB12C91E0691AF8
:1008E000710808F48ECDF20141915191619171919D
:1008F0002F01F1E0FF1214C0C11006C0950181E57F
:1009000098E00E94CD3DEACFCB01BA010E94DA31D6
:10091000AB01BC01980181E598E00E943F3CDECF2D
:10092000C11006C0950181E598E00E94CE3DD6CF6A
:10093000CB01BA010E94DA31AB01BC01980181E51B
:1009400098E00E949A3CCACFF1100BC0269DA001EE
:10095000279D500D369D500D1124B2018EEE98E06A
:100960006CCD8EEE98E00E94E43BE11015C0640C63
:10097000751C6414750409F444CDF20161912F01D2
:10098000F1E0A8018EEE98E0FF1203C00E94B63C91
:10099000F0CF0E94BC3CEDCF81E0E81215C091E0A1
:1009A000691A710808F42DCDF201619171912F013E
:1009B000F1E0A8018EEE98E0FF1203C00E94CC3C4B
:1009C000EECF0E94D13CEBCF82E0E81217C091E05D
:1009D000691A710808F415CDF201419151916191A4
:1009E00071912F01F1E098018EEE98E0FF1203C0A3
:1009F0000E94AA3CECCF0E94E13CE9CF83E0E812E0
:100A000018C0640C751C6414750409F4FACCF20166
:100A100061912F01062E000C770BF1E0A8018EEEFC
:100A200098E0FF1203C00E94843CEDCF0E948A3CF4
:100A3000EACF84E0E81215C091E0691A710808F461
:100A4000E0CCF201619171912F01F1E0A8018EEEED
:100A500098E0FF1203C00E94843CEECF0E948A3CC3
:100A6000EBCF85E0E81217C091E0691A710808F42D
:100A7000C8CCF20141915191619171912F01F1E046
:100A800098018EEE98E0FF1203C00E943F3CECCF2D
:100A90000E949A3CE9CF86E0E812B3CCB12C91E0F9
:100AA000691A710808F4ADCCF2014191519161913C
:100AB00071912F01F1E0FF1214C0C11006C0950121
:100AC0008EEE98E00E94CD3DEACFCB01BA010E94A4
:100AD000DA31AB01BC0198018EEE98E00E943F3CF8
:100AE000DECFC11006C095018EEE98E00E94CE3D8B
:100AF000D6CFCB01BA010E94DA31AB01BC0198011B
:100B00008EEE98E00E949A3CCACF9CB1892F8072E9
:100B100094FF16C0811116C08091E6049091E704FD
:100B2000A091E804B091E9040196A11DB11D809344
:100B3000E6049093E704A093E804B093E9040895D1
:100B40008111EACF8091E6049091E704A091E80436
:100B5000B091E9040197A109B109E9CF99B1892FB1
:100B6000847093FF16C08823B1F08091F4049091B3
:100B7000F504A091F604B091F7040196A11DB11DF2
:100B80008093F4049093F504A093F604B093F704D3
:100B90000895882351F38091F4049091F504A09175
:100BA000F604B091F7040197A109B109E9CF8CB11E
:100BB00090E09C01220F232F221F330B86FF16C0CB
:100BC0008091020590910305A0910405B09105055F
:100BD000232BB9F40196A11DB11D809302059093BA
:100BE0000305A0930405B0930505089580910205BF
:100BF00090910305A0910405B091050521303105C0
:100C000049F30197A109B109E8CF9CB1892F8071FF
:100C100095FF16C08823B1F08091E6049091E70417
:100C2000A091E804B091E9040196A11DB11D809343
:100C3000E6049093E704A093E804B093E9040895D0
:100C4000882351F38091E6049091E704A091E80491
:100C5000B091E9040197A109B109E9CF99B1892FB0
:100C6000887092FF16C0811116C08091F404909193
:100C7000F504A091F604B091F7040196A11DB11DF1
:100C80008093F4049093F504A093F604B093F704D2
:100C900008958111EACF8091F4049091F504A09118
:100CA000F604B091F7040197A109B109E9CF8CB11D
:100CB00090E086FB222720F930E0880F892F881FDB
:100CC000990B0197B1F48091020590910305A091D1
:100CD0000405B0910505232BB1F00196A11DB11DAE
:100CE0008093020590930305A0930405B093050536
:100CF00008958091020590910305A0910405B0919B
:100D00000505232B51F30197A109B109E9CF1F92E2
:100D10000F920FB60F9211242F933F934F935F932F
:100D20008F939F93AF93BF9383B121E030E0982FCF
:100D3000907285FD02C030E020E08074409126056D
:100D4000509127054217530709F062C021E030E0B7
:100D5000811102C030E020E0309325052093240566
:100D6000882309F1911121C080911E0590911F05E2
:100D7000A0912005B09121050196A11DB11D809380
:100D80001E0590931F05A0932005B0932105809127
:100D90001E0590911F05A0912005B0912105019697
:100DA000A11DB11D20C09111DFCF80911E05909132
:100DB0001F05A0912005B09121050197A109B10956
:100DC00080931E0590931F05A0932005B0932105E5
:100DD00080911E0590911F05A0912005B0912105DD
:100DE0000197A109B10980931E0590931F05A09357
:100DF0002005B0932105BF91AF919F918F915F9195
:100E00004F913F912F910F900FBE0F901F9018950B
:100E10003093270520932605992371F0882371F0DC
:100E200080911E0590911F05A0912005B09121058C
:100E30000196A11DB11DC4CF882391F380911E0599
:100E400090911F05A0912005B09121050197A1095E
:100E5000B10995CF1F920F920FB60F9211248F9365
:100E60009F93AF93BF93809106018170909103018E
:100E700090FF1EC081111EC0809110059091110538
:100E8000A0911205B09113050196A11DB11D80938B
:100E9000100590931105A0931205B0931305BF910F
:100EA000AF919F918F910F900FBE0F901F9018954B
:100EB0008111E2CF8091100590911105A09112054A
:100EC000B09113050197A109B109E1CF1F920F92CB
:100ED0000FB60F9211248F939F93AF93BF9380917E
:100EE000030181709091060190FF1EC08823F1F0EC
:100EF0008091100590911105A0911205B0911305F4
:100F00000196A11DB11D8093100590931105A0932A
:100F10001205B0931305BF91AF919F918F910F90E0
:100F20000FBE0F901F901895882311F38091100524
:100F300090911105A0911205B09113050197A10997
:100F4000B109E1CF0F931F93CF93DF938C018EE014
:100F5000809FE001819FD00D1124CE51DB4F79831A
:100F600068835B834A838881998160E00E94E537CA
:100F70008A819B8160E00E94E5378881998161E0E8
:100F80000E9421388A819B8161E00E9421380230D1
:100F9000110509F487C064F40115110501F1013050
:100FA000110509F450C0DF91CF911F910F91089561
:100FB0000330110509F4A5C004301105A1F7809193
:100FC000680081608093680080916B0080628093EC
:100FD0006B0080916B00806480936B00E4CF809104
:100FE000E2049091E30402978431910530F5835D2A
:100FF0009C4FFC018081082E000C990B41E050E0D1
:1010000065E875E00E94C6338091E4049091E504A0
:10101000029784319105A0F4835D9C4FFC0180818F
:10102000082E000C990B41E050E065E076E0DF917E
:10103000CF911F910F910C94C6338FEF9FEFDECFAE
:101040008FEF9FEFF0CF8091F0049091F104029721
:101050008431910508F5835D9C4FFC018081082E49
:10106000000C990B41E050E06EE276E00E94C6333E
:101070008091F2049091F30402978431910578F401
:10108000835D9C4FFC018081082E000C990B41E090
:1010900050E06EEA75E0CBCF8FEF9FEFE3CF8FEF9D
:1010A0009FEFF5CF8091FE049091FF040297843169
:1010B000910508F5835D9C4FFC018081082E000C92
:1010C000990B41E050E067ED75E00E94C6338091D6
:1010D00000059091010502978431910578F4835DB4
:1010E0009C4FFC018081082E000C990B41E050E0E0
:1010F00067E576E09CCF8FEF9FEFE3CF8FEF9FEF19
:10110000F5CF8091680084608093680080916800CA
:1011100082608093680080916D00816080936D0093
:1011200080916C00826080936C003DCF2EE0269F02
:10113000F001279FF00D1124EE51FB4F6481758162
:1011400086819781089590E080E0089580915C0504
:1011500090915D05891B990B089590915D05809193
:101160005C052FEF3FEF981748F4E92FF0E0E25AC3
:10117000FA4F208130E09F5F90935D05C90108958B
:10118000E0915D0580915C05E81730F4F0E0E25AEB
:10119000FA4F808190E008958FEF9FEF08950895B2
:1011A000CF93DF93EC01E0913405F0913505309752
:1011B000F1F090915D0580915C059817C0F090E08A
:1011C000292F30E02617370754F4DE01A20FB31F92
:1011D0004C91225A3A4FD9014C939F5FF1CF109214
:1011E0005D0560935C05CB01DF91CF911994DF9190
:1011F000CF910895E0913605F0913705309729F0A9
:1012000010923A051092390519940895CF93DF93FF
:101210001F92CDB7DEB76983209138052223F9F0FC
:1012200020913905203258F021E030E0FC01338371
:10123000228390E080E00F90DF91CF91089580911C
:101240003A05E82FF0E0E55CFA4F998190838F5FD3
:1012500080933A058093390581E090E0ECCF61E01E
:10126000CE01019689D1F8CFCF92DF92EF92FF9213
:101270000F931F93CF93DF937C01CB018A012091C1
:101280003805222389F0EB016B01C40ED51ECC1565
:10129000DD0561F06991D701ED91FC910190F0813C
:1012A000E02DC7011995F3CF642F66D1C801DF91F6
:1012B000CF911F910F91FF90EF90DF90CF90089505
:1012C00010925D0510925C0510923A051092390556
:1012D00096D08AEF98E07CD180ED98E074C181E0EF
:1012E0008093380560935B0510923A05109239059A
:1012F00008950F93062F21E0409139056BE375E0C7
:1013000080915B05E2D010923A0510923905109257
:1013100038050F9108954F925F926F927F92AF922E
:10132000BF92CF92EF92FF920F931F93CF93DF93D1
:101330005C01F62ED42F28013901EE2009F1CFDF10
:10134000CE2DC43008F0C3E0C150B8F028E0C29FF1
:10135000C0011124A301920104C056954795379509
:1013600027958A95D2F7B901D501ED91FC910190AD
:10137000F081E02DC5011995E7CF60E0C501B9DF27
:101380004D2FD13208F040E22C2D6EE575E08F2D07
:1013900054D010925D0580935C05DF91CF911F9131
:1013A0000F91FF90EF90CF90BF90AF907F906F9094
:1013B0005F904F900895CF92EF920F931F93C22E9C
:1013C000E12C00E010E09801A6DF1F910F91EF9053
:1013D000CF90089521E0EFCF61E08BCFE8E2F5E018
:1013E0001382128288EE93E0A0E0B0E084839583BC
:1013F000A683B78385E493E0918380830895109258
:10140000EB0581E08093E9051092E80561E084E155
:101410000E94213861E085E10E942138E9EBF0E08B
:1014200080818E7F808380818D7F808388E480931C
:10143000B80085E48093BC000895413208F043C0B1
:101440009091EB059111FCCF91E09093EB052093E7
:10145000E9052FEF20937E051092C305240F2093FA
:10146000C2059093EA059091EA05880F892B809335
:10147000EA058091E805813009F51092E805809130
:10148000EA058093BB008091BC0083FDF8CF85EC1A
:101490008093BC008091EB058130E1F38091C3051E
:1014A000841710F44091C305A4ECB5E0962FFB011E
:1014B0008E2F891B841720F0842F089585EEE8CFA6
:1014C0008D918193F5CF40E0F7CF0F93413208F033
:1014D0004BC09091EB059111FCCF92E09093EB05FE
:1014E0000093E9059FEF90937E051092C30540930A
:1014F000C205362FA4ECB5E0FB019E2F931B941779
:1015000070F11092EA059091EA05880F892B80937B
:10151000EA058091E805813029F51092E80580916F
:10152000EA058093BB008091BC0083FDF8CF85EC79
:101530008093BC00222321F08091EB058230D1F30F
:1015400080917E058F3F91F080917E05803281F001
:1015500080917E05803371F084E00F910895919120
:101560009D93CBCF85EEE4CF81E0F7CF80E0F5CF40
:1015700082E0F3CF83E0F1CF2091A005260F33273F
:10158000331F21323105ECF42091EB05FC0190E092
:1015900080E0243069F082E00895A091A0052191B7
:1015A000AC014E555A4FA40FB52FB11D2C93019687
:1015B000861798F38091A005680F6093A00580E0DE
:1015C000089581E008959093E5058093E4050895DA
:1015D0009093E7058093E605089585ED8093BC0020
:1015E0008091BC0084FDFCCF1092EB05089585EC42
:1015F0008093BC001092EB0508951F920F920FB6D6
:101600000F9211240BB60F922F933F934F935F933A
:101610006F937F938F939F93AF93BF93EF93FF93BA
:101620008091B900887F803609F44CC008F03FC033
:10163000883209F4A8C028F5803109F49CC0C8F4A8
:10164000882309F4F8C0883009F495C0FF91EF9120
:10165000BF91AF919F918F917F916F915F914F91CA
:101660003F912F910F900BBE0F900FBE0F901F90C8
:101670001895883109F487C0803241F780937E0540
:1016800014C0803409F49CC040F48033B9F388332B
:10169000E9F680937E05ABDFD9CF803509F484C0AD
:1016A000883509F495C0883489F697DFCFCF88391B
:1016B00009F48CC038F5883729F050F4883611F0D9
:1016C000803721F683E08093EB0510927F0557C0A9
:1016D000883809F47BC0803919F0803809F0B6CF1A
:1016E00080917F05803208F071C0E0917F0581E034
:1016F0008E0F80937F058091BB00F0E0E058FA4F99
:1017000080833DC0803B39F0E0F4803A09F479C031
:10171000883A09F09BCF84E08093EB051092A105F5
:101720001092A005E091E605F091E70519958091EA
:10173000A00581110FC081E08093A0051092A20541
:1017400009C0803C09F475C0883C09F472C0883B2C
:1017500009F07CCFE091A10581E08E0F8093A10577
:10176000F0E0EE55FA4F80818093BB009091A10587
:101770008091A00529C08091EA058093BB0085EC8B
:101780008093BC0063CF9091C3058091C2059817E8
:1017900058F5E091C30581E08E0F8093C305F0E01A
:1017A000EC53FA4F8081E9CFE091C30581E08E0FC1
:1017B0008093C3058091BB00F0E0EC53FA4F808327
:1017C0009091C3058091C2059817C8F285E8D8CFDB
:1017D000E091C30581E08E0F8093C3058091BB002B
:1017E000F0E0EC53FA4F80838091E90581115DCFE1
:1017F00081E08093E80584EA8093BC001092EB05B9
:1018000025CFF5DE80917F05803230F4E0917F05B1
:10181000F0E0E058FA4F108260917F0570E0E091AF
:10182000E405F091E50580E895E0199510927F05B3
:101830000DCF85ECE1CF10927E0537CFFF920F934D
:101840001F93CF93DF93C62F042FF22E132F682FF1
:1018500088E295E044DD6C2F88E295E0D7DCCF2D5F
:10186000D12F0C0F1D2F111DC017D10729F0699121
:1018700088E295E0CBDCF8CF88E295E0ADDD91E041
:10188000811190E0892FDF91CF911F910F91FF90EF
:101890000895CF93DF931F92CDB7DEB749839E01A2
:1018A0002F5F3F4F41E0CADF0F90DF91CF91089546
:1018B0002F923F924F925F926F927F928F929F9260
:1018C000AF92BF92CF92DF92EF92FF920F931F934E
:1018D000CF93DF9300D0CDB7DEB7E82E69834B837B
:1018E00069010E94E2354B015C01F12C1A822B81C7
:1018F000222E312C2801712C612C8B81F81608F0D6
:1019000044C06E2D88E295E0EADC698188E295E0CA
:101910007DDC88E295E060DD6E2D88E295E0DFDC1D
:10192000A1014F1951094132510514F040E250E034
:101930006E2D88E295E04EDD88E295E007DC892B8C
:10194000D9F00115110569F488E295E006DCF6018D
:101950009A81E90FF11D97FDFA9580839F5F9A8325
:10196000EBCF0E94E235681979098A099B09641551
:1019700075058605970540F388E295E02DDD8B819E
:10198000813208F080E2F80EB8CF01151105C1F0E0
:101990000E94E235681979098A099B0930E020E044
:1019A000601771078207930758F02A81822F220F50
:1019B000990B2B812817190619F014F08FEF8A83E1
:1019C0008A810F900F900F90DF91CF911F910F910F
:1019D000FF90EF90DF90CF90BF90AF909F908F904F
:1019E0007F906F905F904F903F902F9008950F934E
:1019F0001F9389019A0141E05BDF1F910F910895C8
:101A0000EF92FF920F931F93CF93DF931F92CDB767
:101A1000DEB7182F062FE42EF22E20910602309109
:101A20000702AE014F5F5F4FE2DF81E090E001C04F
:101A3000880FEA94EAF74981FF2069F0482B49832F
:101A4000602F812F26DF0F90DF91CF911F910F9193
:101A5000FF90EF90089580954823F1CFDF92EF92A9
:101A6000FF920F931F93CF93DF931F92CDB7DEB7F3
:101A7000F82EE62E142FD22E209106023091070266
:101A8000AE014F5F5F4FB3DF882351F1812F8D1976
:101A9000990BAC014F5F5F4F81E090E002C0880F6F
:101AA000991FDA94E2F70197042E01C0880F0A9477
:101AB000EAF701C0000F4A95EAF7482F409599814F
:101AC00049238023482B49836E2D8F2DE2DE0F9012
:101AD000DF91CF911F910F91FF90EF90DF900895CC
:101AE00080E0F5CF28E6FC01208308950F93062FB0
:101AF00023E042E06AE1FC018081B0DF0F910895AC
:101B00000F93062F22E044E06BE1FC018081A6DF09
:101B10000F9108950F93062F22E044E06CE1FC0141
:101B200080819CDF0F9108950F931F93CF93DF93D4
:101B3000EC0100910602109107029C012F5F3F4FBC
:101B400042E063E48881B4DE89819A8198278927FD
:101B50009827DF91CF911F910F9108950F931F93B5
:101B6000CF93DF93EC0100910602109107029C01D4
:101B70002F5F3F4F42E065E488819ADE89819A8138
:101B8000982789279827DF91CF911F910F9108956A
:101B90000F931F93CF93DF93EC01009106021091F6
:101BA00007029C012F5F3F4F42E067E4888180DE9F
:101BB00089819A81982789279827DF91CF911F9152
:101BC0000F910895262F46E06BE6FC01808118CF27
:101BD0000F93062F23E042E06BE6FC0180813EDF9D
:101BE0000F910895CF93DF93EC0161E0F1DF60E0A6
:101BF000CE0186DF60E0CE018DDF60E0CE01DF91B7
:101C0000CF91E0CFCF93C82F88E295E059DB6C2FBE
:101C10008CEE95E06BDF8CEE95E0CF91E3CFCF9328
:101C2000DF93EC018CEE95E07FDF998388838CEE67
:101C300095E094DF9B838A838CEE95E0A9DF9D83FA
:101C40008C83DF91CF9108958CEE95E04BCF61119D
:101C500002C00C94E5376130E1F362E0FACF66230D
:101C600019F061E00C94213860E0FCCF0895CF9228
:101C7000DF92EF92FF92CF93882351F16A017B01AB
:101C8000CFEFC80F20E030E0A901CB01B6010E94E0
:101C9000D63187FF11C0C701B60190580E94DF31CD
:101CA0009B01AC016C2F70E090E080E0CF91FF9041
:101CB000EF90DF90CF90B2C0C701B6010E94DA3139
:101CC0008C2FCF91FF90EF90DF90CF900C94AB369C
:101CD000CF91FF90EF90DF90CF9008950F931F93D7
:101CE0008B019C0183E036952795179507958A957A
:101CF000D1F705501A4F462F477021E030E0F90127
:101D000002C0EE0FFF1F4A95E2F7AF01F8012081F4
:101D10002423CB010196211102C090E080E01F91A5
:101D20000F9108950F931F938B019C0183E03695CB
:101D30002795179507958A95D1F7677081E090E010
:101D400001C0880F6A95EAF7F801E550FA4F208143
:101D5000452B31F48095822380831F910F91089544
:101D6000822BFACF2F923F924F925F926F927F9287
:101D70008F929F92AF92BF92CF92DF92EF92FF929B
:101D80000F931F93CF93DF93D62EC72E782E692EF5
:101D900049015A01280161E08D2D0E94E537CD2DC2
:101DA000DC2D8E010F5F1F4FA8016D2D7C2D872D1F
:101DB000962DB8DF20E030E0A901C201B7010E94F2
:101DC0005E33181664F4C201B7010E94DF312B01A3
:101DD000C501B4010E94DF31A201CE0123D0C801A8
:101DE000DF91CF911F910F91FF90EF90DF90CF90F7
:101DF000BF90AF909F908F907F906F905F904F902B
:101E00003F902F900895882341F08150682F70E013
:101E100090E080E050E040E085CF0895862FB90142
:101E20000C94AB369C01FC01EC51FE4FE491E15067
:101E3000E231E0F4F0E08827EF5DF04F8F4F0C9433
:101E4000283E330F3A0F3D0F540F690F360F7E0FA8
:101E50008A0F8E0FA50FBA0FCF0FE60FFB0F360FAD
:101E6000101027103C1084B5806884BD60E0822F7C
:101E70000C94213884B58062F8CF809180008C7FEB
:101E800082608093800080918100807E8061682BD9
:101E9000609381005093870040938600809180007A
:101EA000806880938000E2CF809180008C7F826088
:101EB0008093800080918100807E8061682B609398
:101EC000810050938700409386008091800080625B
:101ED000E8CF809180008C7F826080938000809129
:101EE0008100807E8061682B609381005093870021
:101EF00040938600809180008860D3CF8091B000AD
:101F000080688093B0008091B100887F682B6093D7
:101F1000B100ACCF8091B0008062F3CF809190008F
:101F20008C7F82608093900080919100807E8061A0
:101F3000682B609391005093970040939600809196
:101F4000900080688093900091CF809190008C7F6A
:101F500082608093900080919100807E8061682BE8
:101F60006093910050939700409396008091900069
:101F70008062E8CF809190008C7F82608093900097
:101F800080919100807E8061682B609391005093D6
:101F9000970040939600809190008860D3CF809105
:101FA000A0008C7F82608093A0008091A100807E41
:101FB0008061682B6093A1005093A7004093A60016
:101FC0008091A00080688093A00050CF8091A000F5
:101FD0008C7F82608093A0008091A100807E8061D0
:101FE000682B6093A1005093A7004093A6008091B6
:101FF000A0008062E8CF8091A0008C7F82608093F7
:10200000A0008091A100807E8061682B6093A10078
:102010005093A7004093A6008091A0008860D3CF82
:10202000809120018C7F826080932001809121012A
:10203000807E8061682B609321015093270140933B
:102040002601809120018068809320010FCF80912C
:1020500020018C7F82608093200180912101807E0D
:102060008061682B609321015093270140932601E2
:10207000809120018062E8CF809120018C7F826076
:102080008093200180912101807E8061682B609384
:1020900021015093270140932601809120018860FF
:1020A000D3CFCF92DF92EF92FF926B017C019F77AB
:1020B00020E030E040E859E50E94D63187FF2BC090
:1020C00020E030E040E05FE3C701B6010E945E33EC
:1020D00087FD0EC020E030E040E05FE3C701B601BD
:1020E0000E945F31FF90EF90DF90CF900C944832C8
:1020F00020E030E040E05FEBC701B6010E945E33B4
:10210000181684F420E030E0A901C701B6010E944E
:1021100062336B017C01C701B601FF90EF90DF9045
:10212000CF90089520E030E040E05FE3C701B601C2
:102130000E945E31FF90EF90DF90CF900C94C331FE
:102140002F923F924F925F926F927F928F929F92C7
:10215000AF92BF92CF92DF92EF92FF920F931F93B5
:10216000CF93DF93CDB7DEB76C970FB6F894DEBF91
:102170000FBECDBF8090F1099090F209A090F309B5
:10218000B090F4098092FD099092FE09A092FF0997
:10219000B092000A2091C8023091C9024091CA024F
:1021A0005091CB02C501B4010E9462332091F9091C
:1021B0003091FA094091FB095091FC090E945E316F
:1021C0002091E0023091E1024091E2025091E3025D
:1021D0000E9462331B012C012091E4023091E50240
:1021E0004091E6025091E702C501B4010E946233BA
:1021F0002091F5093091F6094091F7095091F809BD
:102200000E945F31A20191010E945F313B018B8FDF
:102210009C8F2091E8022A8FD090E902F090EA0288
:102220001091EB029B01AC016A8D7D2D8F2D912FBA
:102230000E94D63187FD18C03091DC023A8FD090D1
:10224000DD02F090DE021091DF0293014B8D5C8D78
:102250006A8D7D2D8F2D912F0E945E33181624F0EC
:102260006A8ED72CFB8C1C8DC501B4019F7720E0B2
:1022700030E040E45FE30E94D63120E030E0A90185
:1022800087FF04C020E030E040E85FE36A8D7D2DE9
:102290008F2D912F0E9462336093010A7093020A7E
:1022A0008093030A9093040ACE014096B8DC6889B3
:1022B0007989072E000C880B990B0E940D326093D0
:1022C000050A7093060A8093070A9093080A20E093
:1022D00030E040E251E46A8D7D2D8F2D912F0E94D8
:1022E0005F312DEC3CEC4CE455E40E9462330E94DB
:1022F00048324B015C01BDD58111E8C2C501B40172
:102300008DD58111E3C220E030E040E857E4C501FB
:10231000B4010E9462324B015C0120E030E0A9016F
:102320000E94D63187FFD5C2C501B40190580E94E2
:10233000DF317195619571097A836B8361E070E09B
:1023400080E090E00E9496080E940D3220910803E0
:102350003091090340910A0350910B030E946233AC
:102360002091C4023091C5024091C6025091C7022B
:102370000E94623320E030E040E251E40E945F318D
:102380002DEC3CEC4CE455E40E9462330E94483250
:102390004B015C016ED58111A1C2C501B4013ED5CE
:1023A00081119CC220E030E040E857E4C501B4014F
:1023B0000E9462324B015C0120E030E0A9010E94E2
:1023C000D63187FF8EC2C501B40190580E94DF311B
:1023D0007195619571097C836D8320E030E040E266
:1023E00051E46091FD097091FE098091FF0990917F
:1023F000000A0E945F312DEC3CEC4CE455E40E9455
:1024000062330E9448324B015C0133D581116EC2A8
:10241000C501B40103D5811169C220E030E040E874
:1024200057E4C501B4010E9462324B015C0120E017
:1024300030E0A9010E94D63187FF5BC2C501B4011B
:1024400090580E94DF3122273327261B370B3F8B02
:102450002E8B8090F0029090F102A090F202B0904A
:10246000F302A50194016091B1097091B2098091C4
:10247000B3099091B4090E94D631882341F080922B
:10248000B1099092B209A092B309B092B4098091B7
:10249000180389833F893E838E898F8380E88887EC
:1024A00019868A871B868C871D868E871F8660917A
:1024B000C5097091C6098091C7099091C8090E9409
:1024C000DF31C62E6091BD097091BE098091BF09B0
:1024D0009091C0090E94DF31E62E6091C109709190
:1024E000C2098091C3099091C4090E94DF31062F6F
:1024F0006091B9097091BA098091BB099091BC09AA
:102500000E94DF31B62E6091B5097091B6098091B5
:10251000B7099091B8090E94DF31862F912C812C48
:1025200092E0A92E2B2D4FE050E0BE016F5F7F4F50
:102530000E94CC012091F4023091F5024091F60204
:102540005091F7026091010A7091020A8091030A8A
:102550009091040A0E94D631682F661F6627661F75
:1025600088E07DDB6091D3097091D4098091D50911
:102570009091D609B3DB9093D2098093D109A090B2
:10258000010AC090020A2091030A2E8BB090040A1F
:10259000E090EC020091ED028090EE029090EF024C
:1025A0002E2D302FA4016A2D7C2D8E899B2D0E940B
:1025B0005E331816BCF0E090100300911103809078
:1025C0001203909013032E2D302FA4016A2D7C2D21
:1025D0008E899B2D0E94D63187FD04C0EA2C0C2DDC
:1025E0008E889B2C20911403309115034091160383
:1025F000509117036E2D702FC4010E9462330E9408
:1026000048324B015C0135D481117AC1C501B40156
:1026100005D4811175C120E030E040E853E4C501E4
:10262000B4010E9462324B015C0120E030E0A9015C
:102630000E94D63187FF67C1C501B40190580E943E
:10264000DF31619570E090E080E00E940D32AB01D7
:10265000BC018091D1099091D20909DB2091C0027F
:102660003091C1024091C2025091C3026091050AAB
:102670007091060A8091070A9091080A0E945E31C3
:1026800020910C0330910D0340910E0350910F03E4
:102690000E9462332091F8023091F9024091FA02CF
:1026A0005091FB020E9462332091F1093091F209AE
:1026B0004091F3095091F4090E945F316093F10950
:1026C0007093F2098093F3099093F4092091FD0926
:1026D0003091FE094091FF095091000A6091CC02AF
:1026E0007091CD028091CE029091CF020E94623310
:1026F0006E8B7F8B888F998F93014B8D5C8D6A8D4C
:102700007D2D8F2D912F0E945E312091D802309126
:10271000D9024091DA025091DB020E9462339B01A0
:10272000AC016E897F89888D998D0E945F312091DF
:1027300000033091010340910203509103030E9472
:1027400062332091F5093091F6094091F7095091D3
:10275000F8090E945F316093F5097093F609809340
:10276000F7099093F80920910403309105034091F3
:10277000060350910703C201B1010E946233209108
:10278000F9093091FA094091FB095091FC090E9426
:102790005F316093F9097093FA098093FB09909374
:1027A000FC0981E090E00E9423244091460650916C
:1027B0004706609148067091490690E080E00E94CB
:1027C0001F248090520690905306A0905406B0901B
:1027D000550620E030E040E85FEBC501B4010E94FF
:1027E000D631882331F1C0904606D0904706E0905C
:1027F0004806F0904906A7019601C501B4010E9460
:102800005E314B015C0120E030E040E054E3C70161
:10281000B6010E9462339B01AC01C501B4010E9464
:102820005E33181634F083E593E09093310680937D
:10283000300680915606882331F083E593E090932B
:1028400031068093300660914A0670914B06809164
:102850004C0690914D066F5F7F4F8F4F9F4F609357
:102860004A0670934B0680934C0690934D060E9447
:102870000B329B01AC0160914E0670914F06809126
:102880005006909151060E94623360934606709301
:10289000470680934806909349066C960FB6F894C5
:1028A000DEBF0FBECDBFDF91CF911F910F91FF9083
:1028B000EF90DF90CF90BF90AF909F908F907F90E0
:1028C0006F905F904F903F902F900895812C912CA6
:1028D0005401C501B4010E94DF312ECD812C912C11
:1028E0005401C501B4010E94DF3175CD812C912CBA
:1028F0005401C501B4010E94DF317F8B6E8BA9CDDD
:10290000812C912C5401C501B4010E94DF319ACE73
:10291000CF92DF92EF92FF920F931F93CF9384E0B9
:1029200090E045D2E0E3F6E087E2DF011D928A9570
:10293000E9F780E090E0A0E8BFEB80935206909327
:102940005306A0935406B09355068AE097EDA3EA88
:10295000BBE380934E0690934F06A0935006B0932E
:10296000510687E199E2A6E2B9EC80933406909390
:102970003506A0933606B093370688ED9AE4A6EEA6
:10298000BFE88093380690933906A0933A06B09337
:102990003B068EE998E4A3EBB3E380933C06909367
:1029A0003D06A0933E06B0933F0686EE90E2A7EE6A
:1029B000BFE88093400690934106A0934206B093EF
:1029C000430684E296E0909333068093320688E1D2
:1029D00096E0909325068093240687E693E09093F3
:1029E00019068093180690931B0680931A069093FD
:1029F0001D0680931C0690931F0680931E069093DD
:102A0000210680932006909323068093220684E477
:102A100096E0909329068093280684E396E09093AD
:102A200027068093260686E496E090932B068093F3
:102A30002A06EDEFF9E08CE0DF011D928A95E9F7B7
:102A4000EBE8F9E082E7DF011D928A95E9F7EEE015
:102A5000F6E08AE0DF011D928A95E9F784E096E0CE
:102A6000909345068093440684E190E09093050698
:102A70008093040688E992E0909307068093060607
:102A800080E792E090930906809308068CE292E03A
:102A900090930B0680930A0688E092E090930D06CF
:102AA00080930C06C12CD12C7601C394C092DE0910
:102AB000D092DF09E092E009F092E10990E080E035
:102AC000A1D8C1E0C093E2091092D709C092D809F9
:102AD000D092D909E092DA09F092DB0942E150E0A4
:102AE00063E170E081E090E00E94A207C093DC09FE
:102AF00010928B098091F0029091F102A091F20264
:102B0000B091F3028093B1099093B209A093B309F5
:102B1000B093B409C0928C09D0928D09E0928E09CD
:102B2000F0928F0980E090E0A0E8BFE38093B509C0
:102B30009093B609A093B709B093B8098093B909E7
:102B40009093BA09A093BB09B093BC091092BD0938
:102B50001092BE091092BF091092C0091092C109CB
:102B60001092C2091092C3091092C4091092C509AB
:102B70001092C6091092C7091092C809BC01CD0174
:102B800090DA6B017C0120E030E040E853E40E94E1
:102B9000D63187FF94C020E030E0A901C701B6011B
:102BA0000E945E3387FD8DC0C701B6010E94DF31F0
:102BB000862F0E94AD01C1E0C09390091092E309F5
:102BC000C12CD12C7601C394C092E409D092E509BE
:102BD000E092E609F092E70961E088E038D8C09316
:102BE000E8091092CB0986E090E0A0E0B0E0809385
:102BF000D3099093D409A093D509B093D609109224
:102C0000D009C092CC09D092CD09E092CE09F092C1
:102C1000CF09E12CF12C8701A801970166E070E053
:102C200080E090E09FD89093D2098093D109609181
:102C3000D3097091D4098091D5099091D6094ED8C5
:102C40009093D2098093D10911D8C093D009809173
:102C5000FC029091FD02A091FE02B091FF028093D0
:102C6000F1099093F209A093F309B093F4098091CC
:102C7000D4029091D502A091D602B091D702809350
:102C8000F5099093F609A093F709B093F80980919C
:102C9000D0029091D102A091D202B091D302809340
:102CA000F9099093FA09A093FB09B093FC09CF911D
:102CB0001F910F91FF90EF90DF90CF9008958FEFCD
:102CC00078CF80E076CF8091DD09811103C081E06B
:102CD0008093DD098091D709811103C081E0809341
:102CE000D70980918B09811103C081E080938B0902
:102CF0008091E309811103C081E08093E309809111
:102D0000CB09811135C081E08093CB098091CC093A
:102D10009091CD09A091CE09B091CF090197A1055D
:102D2000B10531F58091D009882311F16091D30963
:102D30007091D4098091D5099091D6090E946E0EA8
:102D40009093D2098093D10940E050E0BA010E94EB
:102D5000370E6091D3097091D4098091D509909173
:102D6000D6090E946E0E9093D2098093D1094BC868
:102D7000089560E070E080E89FE7089560E070E00B
:102D800080E89FE7089560E070E080E89FEF089595
:102D900060E070E080E89FEF089560E070E080EC14
:102DA0009FEF089560E070E080EC9FEF0895F5DFFD
:102DB0006093150A7093160A8093170A9093180A65
:102DC000F1DF6093090A70930A0A80930B0A9093CB
:102DD0000C0ACFDF6093110A7093120A8093130AD2
:102DE0009093140ACBDF60930D0A70930E0A8093C0
:102DF0000F0A9093100AC7DF6093190A70931A0A9A
:102E000080931B0A90931C0AC3DF60931D0A709382
:102E10001E0A80931F0A9093200A0895CF92DF9292
:102E2000EF92FF92CF936B017C01AC019B0160910B
:102E30000D0A70910E0A80910F0A9091100A0E945B
:102E4000D631C1E0882371F0A701960160911D0A77
:102E500070911E0A80911F0A9091200A0E94D6311B
:102E60008111C0E08C2FCF91FF90EF90DF90CF9039
:102E700008950F931F938B019C0100271127207841
:102E80003F770115110520483F4749F4AB01BC01CC
:102E90006F77772781E0452B462B472B09F480E09D
:102EA0001F910F910895EF92FF920F931F93CF936D
:102EB000DF93EA01F901DC011496ED90FC9015977F
:102EC00012964D915C9113974E0D5F1D28813981AB
:102ED00018960D911C9119970217130730F00D9158
:102EE0001C911197012B09F441C08A01021B130B9D
:102EF000DC0118968D919C918E199F09800F911F6E
:102F000086179707DCF1C901860F971F841795076D
:102F100078F471836083338322831582148217824D
:102F2000168288819981680F791F7983688316C01A
:102F30001183008333832283601B710B7583648349
:102F400090E080E01616170614F49E2D8F2D9683C0
:102F50008783D701A60FB71FB983A88380E0DF91CD
:102F6000CF911F910F91FF90EF90089518968D913A
:102F70009C91821B930B861797075CF681E0EFCF3D
:102F8000CF92DF92EF92FF92CF93DF936B0184E4B5
:102F9000869FE001879FD00D1124C95AD94F8AA975
:102FA0009BA9009721F00E945C3F1BAA1AAA84E407
:102FB0008C9DF0018D9DF00D1124E95AF94F86A9E1
:102FC00097A9009711F00E945C3F84E48C9DF0016A
:102FD0008D9DF00D1124E95AF94F138A128A168A31
:102FE000178A108E118E128E138E148E158E168ED9
:102FF000178E10A211A281E090E093A382A315A2E4
:1030000014A216A217A210A611A613A612A615A600
:1030100014A616A617A610AA11AA13AA12AA15AAD0
:1030200014AA17AA16AA11AE10AE12AE13AE14AEA1
:1030300015AEDF01DE961D921D921D921C92139714
:10304000EE5BFF4F11821082DF91CF91FF90EF90E6
:10305000DF90CF900895CF93DF93FB01DC016D915A
:103060007C91DB011696CD91DC918081918123E0EA
:10307000880F991F2A95E1F7AA81BB81A80FB91F74
:103080008D919C91119724853585220F331FEB017B
:103090006A817B81EB01C20FD31F0990D881C02DBB
:1030A00014962D913C9161E070E0232B11F062E0C9
:1030B00070E0C69F9001C79F300DD69F300D112440
:1030C000A085B1852A9FB0012B9F700D3A9F700D8E
:1030D0001124A481B5812A9FF0012B9FF00D3A9F06
:1030E000F00D11248E0F9F1FFA019183808373834B
:1030F0006283DF91CF9108952F923F924F925F921A
:103100006F927F928F929F92AF92BF92CF92DF92F7
:10311000EF92FF920F931F93CF93DF9300D000D0D5
:10312000CDB7DEB7DC011496ED91FC910190F081F2
:10313000E02D808591859A838983A281B381BC83A8
:10314000AB83FB0181909190A190B190C12CD12CC7
:103150007601C814D904EA04FB04CCF026960FB615
:10316000F894DEBF0FBECDBFDF91CF911F910F91BD
:10317000FF90EF90DF90CF90BF90AF909F908F9097
:103180007F906F905F904F903F902F900895448074
:103190005580668077804085518562857385CF0133
:1031A00040969E838D83A081B1819D0183E0220F93
:1031B000331F8A95E1F7A981BA8112968D919C916E
:1031C000D901A80FB91F2D903C9011970484F58563
:1031D000E02DEE0FFF1F8B819C81E80FF91F0190FE
:1031E000F081E02D14968D919C91892B41F581E021
:1031F00090E0E89F9001E99F300DF89F300D112479
:10320000249F8001259F100D349F100D1124249DB3
:10321000C001259D900D349D900D1124A8016D8154
:103220007E81820D931D0E94E53FED81FE81E00FBE
:10323000F11F9FEFC91AD90AE90AF90A8ACF82E079
:1032400090E0D7CFCF93DF93DB01A75EBC4F2C91EB
:10325000222369F024E4269FF001279FF00D11241A
:10326000E95AF94FEF0119922A95E9F71C9224E4E3
:10327000269FF001279FF00D1124E95AF94F14827F
:103280001582168217821186108613861286118A7D
:10329000108A17861686DF91CF9172CE2F923F92B9
:1032A0004F925F926F927F928F929F92AF92BF9256
:1032B000CF92DF92EF92FF920F931F93CF93DF9302
:1032C00000D000D01F921F92CDB7DEB724E4269F16
:1032D000F001279FF00D1124E95AF94F048115815F
:1032E00026813781012B022B032B09F4B7C02A0159
:1032F0006B017C0110E000E0812C912C54013F0116
:103300009F01285F3F4F3C832B83CF0104969E8310
:103310008D83AB81BC818D919C91ED81FE8140813B
:1033200051816281738184169506A606B706E4F181
:103330000E945C3FD3011A968D919C91892B09F0D4
:103340007EC084E48C9DD0018D9DB00D1124A95ABE
:10335000B94FBC83AB8350968D919C910E945C3F8A
:10336000EB81FC81868597850E945C3FC701B60191
:1033700007DEC701B60128960FB6F894DEBF0FBE70
:10338000CDBFDF91CF911F910F91FF90EF90DF9014
:10339000CF90BF90AF909F908F907F906F905F90F5
:1033A0004F903F902F904ECFFC01E00FF11F928184
:1033B0009983A381AA839F83A887312C212C24146D
:1033C000350464F089819A810E945C3FEFEF8E1A88
:1033D0009E0AAE0ABE0A0C5F1F4F9BCFAF81B88515
:1033E000ED91FD91B887AF83309759F08481958135
:1033F0000E945C3FEF81F8853297808191810E9425
:103400005C3FBFEF2B1A3B0ADACF800F911FFC0104
:10341000848195810E945C3F2B813C812F5F3F4FCF
:103420003C832B83025F1F4FF501808191812B81AB
:103430003C81241535054CF30E945C3F82CF10E09F
:1034400000E01C821B8224E42C9DC0012D9D900D68
:103450001124DC01AF59B94F5D01E6CF28960FB6B4
:10346000F894DEBF0FBECDBFDF91CF911F910F91BA
:10347000FF90EF90DF90CF90BF90AF909F908F9094
:103480007F906F905F904F903F902F90089524E42D
:10349000269FF001279FF00D1124E95AF94F8289E8
:1034A00093890497029758F485E090E0938B828B80
:1034B0008FEF9FEFDC01828F938FA48FB58F0895DC
:1034C0002F923F924F925F926F927F928F929F9234
:1034D000AF92BF92CF92DF92EF92FF920F931F9322
:1034E000CF93DF93CDB7DEB7AA970FB6F894DEBFC0
:1034F0000FBECDBF9AA389A37E8B6D8B1A01098B5A
:103500001A8B2B8B3C8B84E429893A89829F60013A
:10351000839FD00C11248601095A194F89899A89F1
:10352000AB89BC89F80180839183A283B383AB010B
:10353000BC01CD01B3DED601A55AB94F84E0F1013B
:1035400001900D928A95E1F7F4E02F0E311C64E0B2
:1035500070E0D80114968D919C910E94A63EF801CE
:1035600091878087892B09F0F5C04D895E8969892B
:103570007A898B899C8992DE81E0AA960FB6F894AD
:10358000DEBF0FBECDBFDF91CF911F910F91FF9096
:10359000EF90DF90CF90BF90AF909F908F907F90F3
:1035A0006F905F904F903F902F900895A9A5BAA576
:1035B0008D919C91E98DFA8DE80FF91FF88FEF8BB3
:1035C000D1018D919C91880F991FA9A1BAA1ED916C
:1035D000FC91E80FF91F80819181EF89F88D91832B
:1035E0008083D10114962D913D914D915C91179757
:1035F0002BA33CA34DA35EA362E070E08D899E895E
:103600000E94A63EEF89F88D93838283892B09F46B
:10361000ACCFF8E02F0E311C412C512C32012BA1E4
:103620003CA14DA15EA142165306640675069CF0AE
:103630002B8D3C8D4D8D5E8D2F5F3F4F4F4F5F4FDC
:103640002B8F3C8F4D8F5E8F498D5A8D4C5F5F4F16
:103650005A8F498F90C0610124E0C20ED11CD10164
:10366000ED90FC90EE0CFF1CEF89F88D8281938128
:10367000E80EF91E68E070E081E090E00E94A63E4E
:103680008C01D7018D939C93892B09F46ECF84E034
:10369000F601D80101900D928A95E1F7B8E02B0E62
:1036A000311CF80180819181A281B381181619061D
:1036B0001A061B06DCF464E070E00E94A63ED80106
:1036C00015969C938E931497892B09F44ECFD12C89
:1036D000C12C812C912C5401F80180819181A2810F
:1036E000B38188169906AA06BB0634F0FFEF4F1A7D
:1036F0005F0A6F0A7F0A93CFF801E480F580EC0C33
:10370000FD1C80E1F101DE01119601900D928A9578
:10371000E1F7F0E12F0E311CA701BE016F5F7F4F73
:10372000A9A1BAA114968D919C9195DCF80186818E
:103730009781D70112962D913C91820F931F978309
:103740008683BFEF8B1A9B0AAB0ABB0AE4E0CE0E5E
:10375000D11CC2CF1A8E198E1B8E1C8E1D8E1E8EF2
:1037600018A30F8FA8014C5F5F4F58A74FA3C80144
:1037700008969AA789A7EFA1F8A580819181A281D7
:10378000B3812B8D3C8D4D8D5E8D281739074A07EF
:103790005B070CF40BCF6EE070E08D899E890E9470
:1037A000A63EAF8DB8A11B969C938E931A97B12C11
:1037B000A12CD12CC12CF12CE12C24E4E989FA892B
:1037C0002E9FC0012F9F900D11249C012F59394F1E
:1037D000388F2F8B88248394912C4D895E89C41651
:1037E000D50654F184E4A989BA898A9F80018B9F08
:1037F000100D1124095A194FF80115861486C701B6
:1038000033E0880F991F3A95E1F70E94C03ED80136
:1038100051969C938E935097892B09F4A6CEC7019D
:10382000880F991F0E94C03EF80197878687892BD1
:1038300009F49BCE80E0A1CED1014D905D906D90BA
:103840007D901D0177FC91CEEF89F88D008111816B
:103850000A0D1B1DD80111969C928E9241145104A1
:103860006104710429F1C2010E94C03EF8019583F0
:103870008483892B09F479CEF801538242828481B2
:10388000958197838683918780871386128681E04E
:1038900090E045284628472811F490E080E0E80EA3
:1038A000F91EFFEFCF1ADF0A2EE0A20EB11C95CF52
:1038B00015961C921E921497DFCF2F923F924F9233
:1038C0005F926F927F928F929F92AF92BF92CF92B0
:1038D000DF92EF92FF920F931F93CF93DF93CDB7B9
:1038E000DEB76A970FB6F894DEBF0FBECDBF9E8BD2
:1038F0008D8B49015A0184E4829F7001839FF00CF3
:1039000011249701295A394F6901FB018081918166
:10391000F901958B848BD701A359B94FFB013496DC
:1039200084E001900D928A95E1F7D701AF58B94F25
:10393000FB01389684E001900D928A95E1F7D7015A
:10394000AB58B94FFB013C9684E001900D928A95EB
:10395000E1F7D701AB57B94FFB01709684E00190B6
:103960000D928A95E1F78B010C5E1F4FF90186A538
:1039700097A5A0A9B1A918161906DCF5880F991FFB
:10398000880F991F0E94C03EF60193AB82AB892B32
:1039900009F4D3C0312C212C412C512C3201960139
:1039A000225D3F4F388F2F8BC601C2969A8F898F29
:1039B000F496FC8BEB8BB301A2012FEF421A520A53
:1039C000620A720AEF89F88D80819181A281B381A8
:1039D000481759076A077B070CF47BC0F60184A9D6
:1039E00095A90E94C03EF60197AB86AB892B09F4DE
:1039F000A4C0F80180819181A281B38124E4289D33
:103A0000F001299DF00D1124E95AF94FAC01BD01D7
:103A10004D7F21E030E0452B462B472B11F030E065
:103A200020E033A322A324E4289DF001299DF00D7A
:103A30001124E95AF94F0197A109B10921E030E0B9
:103A40000297A105B10510F030E020E035A324A3D2
:103A5000D701A358B94FF801349684E001900D9234
:103A60008A95E1F784E4889DF001899DF00D112489
:103A7000E95AF94F868D978DA0A1B1A1B7FF58C023
:103A8000B095A095909581959F4FAF4FBF4F82AF56
:103A900093AFA4AFB5AF168E178E10A211A280E01F
:103AA0006A960FB6F894DEBF0FBECDBFDF91CF91FF
:103AB0001F910F91FF90EF90DF90CF90BF90AF904C
:103AC0009F908F907F906F905F904F903F902F903E
:103AD0000895E98DFA8D808191819C01220D331D1D
:103AE0003A8B298B80E1F801DE01119601900D924D
:103AF0008A95E1F7005F1F4F49895A89BE016F5FC0
:103B00007F4FED89FE8984819581A5DAEB89FC8957
:103B100080819181E989FA8922813381820F931F03
:103B2000EB89FC8991838083F4E02F0E311C43CF15
:103B300012AE13AE14AE15AEB2CFC501B40120DA89
:103B400081E0AECFCF92DF92EF92FF92CF93DF93DF
:103B50001092DF0624E4269FF001279FF00D112428
:103B6000E95AF94F15A614A630E020E0D12CC12C5B
:103B7000DF011A96C1E0D0E0C416D506F4F024E4C3
:103B8000269FF001279FF00D1124E95AF94F13A643
:103B900012A611AE10AEDF01DE961D921D921D928F
:103BA0001C92139782E090E0938B828BDF91CF91F0
:103BB000FF90EF90DF90CF900895ED91FC911197D9
:103BC000E20FF31FE280F3801E141F0454F4E4801C
:103BD000F580F782E682F186E08613861286D1832D
:103BE000C083EFEFCE1ADE0A225F3F4FC5CF24E439
:103BF000269FF001279FF00D1124E95AF94F138AEF
:103C0000128A4CCB24E4269FF001279FF00D11244B
:103C1000E95AF94F8289938981309105C8F085303E
:103C2000910518F0059769F008958FEF9FEFDC017B
:103C3000828F938FA48FB58F85E090E0938B828BDA
:103C400008958FEF9FEFDC01828F938FA48FB58F44
:103C5000089524E4249FD001259FB00D1124A95A72
:103C6000B94F2EE0AC01249FC001259F900D112477
:103C70001A96ED91FC91E80FF91F81E08093DF0621
:103C800082859385918780874085518526813781FC
:103C900081E090E04217530711F090E080E09183BB
:103CA000808308952F923F924F925F926F927F92FE
:103CB0008F929F92AF92BF92CF92DF92EF92FF923C
:103CC0000F931F93CF93DF93CDB7DEB7C055D109C4
:103CD0000FB6F894DEBF0FBECDBF9EAF8DAF4BA722
:103CE0005CA76DA77EA76801790184E4809FF0013D
:103CF000819FF00D1124E95AF94F228533852396CF
:103D00003FAF2EAF239782899389029761F486A5EE
:103D100097A5A0A9B1A9892B8A2B8B2BC9F584E083
:103D200090E0938B828B84E48C9DF0018D9DF00D4F
:103D30001124E95AF94F828993898230910509F05B
:103D400037C282AD93ADA4ADB5AD22242394312CFE
:103D5000181619061A061B060CF42FC2C05BDF4F9B
:103D60000FB6F894DEBF0FBECDBFDF91CF911F918C
:103D70000F91FF90EF90DF90CF90BF90AF909F900A
:103D80008F907F906F905F904F903F902F9008950D
:103D9000848995894DAD5EAD8417950721F606A9F6
:103DA00017A918AE1FAA1BAA1CAA1DAA1EAA1F018A
:103DB000CF018E9627969FAF8EAF2797DF01D296C1
:103DC0002996BFAFAEAF2997F8962B96FFAFEEAF0F
:103DD0002B9791012A5D3F4F2D963FAF2EAF2D9728
:103DE000A1014E5D5F4F2F965FAF4EAF2F970A97A1
:103DF00061969FAF8EAF61972796EEADFFAD279787
:103E000080819181A281B3812BA93CA94DA95EA992
:103E1000281739074A075B0744F081E090E0D10199
:103E2000D9969C938E93D8977ECF2996AEADBFAD91
:103E30002997ED91FC912FA938ADE20FF31F428134
:103E400053815AAF49AF50815FAF818121968FAFC7
:103E500021972B96AEADBFAD2B978D919C91892B61
:103E600021F12D96EEADFFAD2D9780809180A2803F
:103E7000B3801AAB09AB5FA72196FFAD2197F8ABD2
:103E800029AD3AAD369527953695279525963FAFBE
:103E90002EAF25971CAE1BAE2596AEADBFAD2597B8
:103EA000EBADFCADEA17FB070CF149AD5AAD6FADB8
:103EB00021967FAD2197C8010E94E53F89AD9AAD5B
:103EC0008C7F080F191F2BA93CA94DA95EA92F5F54
:103ED0003F4F4F4F5F4F2BAB3CAB4DAB5EAB4FA952
:103EE00058AD4C5F5F4F58AF4FAB86CF2F96AEADFE
:103EF000BFAD2F978D919C91892B71F1EFA5F8A9FA
:103F00004080518062807380A3019201C501B40199
:103F10000E94D631181664F0A9A9BAA92D913D9135
:103F20004D915C91C501B4010E945E331816BCF13D
:103F3000A3019201C501B4010E94D63187FF0CC0D4
:103F4000E9A9FAA92081318142815381C501B401D7
:103F50000E94D631882319F16196AEADBFAD61974D
:103F60008D919C91892B09F445C0EFA5F8A940805B
:103F7000518062807380A3019201C501B4010E9447
:103F80005E3318161CF5A9A9BAA92D913D914D9142
:103F90005C91C501B4010E94D63118165CF184E42D
:103FA0008C9DF0018D9DF00D1124E95AF94F868DFD
:103FB000978DA0A1B1A1892B8A2B8B2B69F183E06E
:103FC00090E0938B828B81E090E02CC0A301920162
:103FD000C501B4010E94D63181110CC0E9A9FAA92A
:103FE0002081318142815381C501B4010E94D631C3
:103FF00087FDD5CF2BAD3CAD2F5F3F4F3CAF2BAFF7
:1040000049A95AA94C5F5F4F5AAB49AB8FA598A9F4
:10401000049698AB8FA740CF84E090E0938B828B7F
:1040200086AD97AD93A782A77ECEEBADFCAD808128
:104030009181F401EE0FFF1FEE0FFF1FE80FF91F34
:10404000A081B1818C9181110AC0FFEF8F1A9F0A64
:10405000AF0ABF0A8DA29EA2AFA2B8A68FC18330BD
:10406000A1F30280F381E02D2FA938ADE20FF31FF9
:10407000808191819AAB89AB892B39F34F5F5F4F78
:104080006F4F7F4F49875A876B877C879E01235EDE
:104090003F4FAE01475D5F4F64E070E0C8010E9492
:1040A00053178111D0C18D819E81AF81B88504964F
:1040B000A11DB11D8D839E83AF83B8874D8D5E8D0D
:1040C000BE016B5D7F4F8F8D98A10E94E53F8BA154
:1040D0009CA1009761F06D8D7E8DA5E2B0E0AC0FE4
:1040E000BD1F6A0F7B1F49A15AA10E94E53F1CAA70
:1040F0001BAA412C512C3201E9A9FAA98081918196
:10410000A281B381481659066A067B060CF09DCF42
:10411000E9A9FAA9848195812BA93CA9280F391F07
:1041200038AB2FA7D90112966D917C919E01235E29
:104130003F4FAE01475D5F4FC8010E945317811189
:1041400082C1EFA5F8A982819381092E000CAA0BE8
:10415000BB0B4D815E816F817885840F951FA61FF3
:10416000B71F8D839E83AF83B887608171814D8D2A
:104170005E8D8F8D98A10E94E53F8BA19CA1009739
:1041800061F0AFA5B8A96D917C912D8D3E8D620F28
:10419000731F49A15AA10E94E53FBFEF4B1A5B0A6A
:1041A0006B0A7B0AEBA9FCA93496FCABEBABA4CF62
:1041B000312C212C049709F0D1CD8EE0EDADFEAD70
:1041C0008E9F80018F9F100D112423962EAD3FAD41
:1041D0002397020F131FD80112964D915C911397EC
:1041E0004115510509F4BACD16968D919C919AA767
:1041F00089A780E1FE013196DF011D928A95E9F7DA
:10420000C98ADA8AEB8AFC8A2114310409F458C07D
:1042100084E48C9DF0018D9DF00D1124E95AF94F35
:10422000DF01DE968D909D90AD90BC9082AD93ADF8
:10423000A4ADB5AD88169906AA06BB0609F040C024
:10424000F801848195810084F185E02D349624E085
:10425000DE01559601900D922A95E1F72D893E8950
:10426000285F3F4F3E8B2D8BD80118966D917C9126
:104270001997260F371F19963C932E931897189667
:104280002D913C911997480F591F241B350B37FD71
:1042900006C0820F931F19969C938E93189784E4FF
:1042A0008C9DF0018D9DF00D1124EB56F94FB1E07E
:1042B0008B1A9108A108B10880829182A282B382F0
:1042C0009E012B5E3F4FAE01475D5F4F64E170E0A2
:1042D000C8010E9453178111B6C08CE090E0A0E0A5
:1042E000B0E08D839E83AF83B8879E01235E3F4FEE
:1042F000AE01475D5F4F64E070E0C8010E94531754
:104300008111A1C080E190E0A0E0B0E08D839E83A8
:10431000AF83B8874D8D5E8DBE01655D7F4F8F8DFC
:1043200098A10E94E53F8BA19CA1009761F06D8D43
:104330007E8DEBE2F0E0EC0FFD1F6E0F7F1F49A1B9
:104340005AA10E94E53F1DA21EA21FA218A62DADD4
:104350003EAD220F331F38AF2FAB24E42C9DC0019C
:104360002D9D900D1124895A994FAC014C5F5F4FE0
:104370005AAF49AFDC011896BCAFABAF8DA09EA081
:10438000AFA0B8A449855A856B857C85E9ADFAADA7
:1043900080819181A281B38188169906AA06BB0605
:1043A0000CF443CE452B462B472B09F4D7CC8AE19E
:1043B00090E0A0E0B0E089839A83AB83BC832DAD0D
:1043C0003EADC901330FAA0BBB0B8D879E87AF870C
:1043D000B88B4D895E89BE016F5F7F4F8F89988D45
:1043E0000E94E53F8B8D9C8D009761F06D897E89E1
:1043F00041E050E04C0F5D1F640F751F498D5A8DD1
:104400000E94E53F89A59AA5D80117969C938E93A3
:10441000169711961C921E92232809F49FCC84E4CF
:104420008C9DF0018D9DF00D1124EB56F94F80818C
:104430009181A281B3810196A11DB11D80839183D9
:10444000A283B3838BCC232809F088CC84E48C9D91
:10445000F0018D9DF00D1124E95AF94F81E090E0B3
:1044600095A784A785E090E0938B828B77CCCF9241
:10447000DF92EF92FF920F931F9324E4269FF001A7
:10448000279FF00D1124E95AF94F2289338921150C
:10449000310509F452C06B017C0121303105B1F4C2
:1044A00082A593A59C012F5F3F4F33A722A7092E1A
:1044B000000CAA0BBB0B028D138D248D358D80173C
:1044C0009107A207B307C9F5C7013CDB84E48C9DC3
:1044D000F0018D9DF00D1124E95AF94F82899389DD
:1044E000039759F582A593A59C012F5F3F4F33A7F2
:1044F00022A7092E000CAA0BBB0B468D578D60A17D
:1045000071A184179507A607B707BCF086AD97ADD4
:1045100093A782A784E090E0938B828B82AD93ADCA
:10452000A4ADB5AD181619061A061B0634F4EE5BD9
:10453000FF4F81E090E0918380831F910F91FF9066
:10454000EF90DF90CF90089524E4269FF001279FFD
:10455000F00D1124E95AF94F828993890497B1F437
:1045600082A593A5019693A782A7092E000CAA0BFA
:10457000BB0B46895789608D718D84179507A607F7
:10458000B70721F485E090E0938B828B08952F92FA
:104590003F924F925F926F927F928F929F92AF92D3
:1045A000BF92CF92DF92EF92FF920F931F93CF9320
:1045B000DF93CDB7DEB72E970FB6F894DEBF0FBEF0
:1045C000CDBFDC0149835A836B837C83290184E45A
:1045D000849FF001859FF00D1124E95AF94F22883C
:1045E0003388C1010497029708F0D5C011961C9238
:1045F0001E9213961C921E92129715861486912C69
:10460000812C90E080E08F019F01205F3F4F388731
:104610002F833F013CE0630E711CBF01625F7F4F3F
:104620007A8769873A96FC87EB87EF81F885208146
:104630003181F30140815181E985FA85A080B18003
:10464000841595050CF445C011965C934E93139612
:104650003C932E9312971596BC92AE921497452BCD
:10466000F9F4F5E02F163104D9F41092DF06F801C1
:10467000828D938DA48DB58DAE014F5F5F4F64E049
:1046800070E08F3F9F4FAF4FBF4F09F079C080E27E
:1046900090E008D569817A818B819C81A201A7DA9B
:1046A0002E960FB6F894DEBF0FBECDBFDF91CF912F
:1046B0001F910F91FF90EF90DF90CF90BF90AF9040
:1046C0009F908F907F906F905F904F903F902F9032
:1046D0000895EB85FC8560817181FB01E80DF91D72
:1046E000FE87ED8760817181672B89F5E084F18415
:1046F000628173817E836D83668177816A01E3E0E5
:10470000CC0CDD1CEA95E1F72C0D3D1D440F551F27
:104710004A0D5B1DFA0191838083F3014081518131
:104720004F5F5F4F51834083F901F382E282ED8551
:10473000FE8573876287E616F70670F46E197F09A7
:10474000F9017183608315821482178216820196A3
:10475000FEE08F0E911C69CFED85FE85C480D5806B
:104760004D815E814C0D5D1D4E195F09F90151832C
:1047700040836C197D0975836483D782C682E7CF35
:104780008FE190E08FD4F80113A612A681E090E0AB
:10479000938B828B85CF1586148611961C921E9260
:1047A00013961C921E9212977BCFEF92FF920F935B
:1047B0001F93CF93DF937C018B01EA014FD58111C9
:1047C0001BC080911B0390911C030497F9F4DF91A7
:1047D000CF911F910F91FF90EF90089528ED38EB46
:1047E00045E050E060E070E0CB01EED7AE01B801EB
:1047F000C701F8D7C801C1D78091E0069091E106C2
:10480000892BF9F68881882349F3DBCF83E090E098
:1048100090931C0380931B03DACFCF93DF932091F7
:104820001B0330911C032430310531F0EB01DAD742
:10483000CE01DF91CF91A1C7DF91CF9108950C9464
:10484000F02F0C94E52F0C94D32FA7C70C94772F3F
:10485000089570E060E090E080E0DBC40895AF92DE
:10486000BF92CF92DF92EF92FF920F931F93CF935D
:10487000DF931F921F92CDB7DEB75C018B016901F8
:104880007A0190E080E0C114D104E104F10469F4FC
:104890000F900F90DF91CF911F910F91FF90EF90AC
:1048A000DF90CF90BF90AF9008959C2D8D2DC114B7
:1048B000D10421E0E206F10410F09FEF8FEF9E019A
:1048C0002F5F3F4F492F582FB801C5010E947F30FD
:1048D0008F3F9807E9F229813A81C21AD30AE10889
:1048E000F108020F131FCFCF40E052EC61E070E0FF
:1048F00090E080E008D061E08DE00E94E53760E064
:104900008DE00C9421388130910579F01CF4892BCD
:1049100039F008958230910561F0039771F00895A0
:1049200026E087E197E00C94183926E084EB97E0C5
:10493000FACF26E081E598E0F6CF26E08EEE98E00B
:10494000F2CF1F920F920FB60F9211240BB60F9257
:104950002F933F934F935F936F937F938F939F9387
:10496000AF93BF93EF93FF938EE19BEF909325015D
:104970008093240180910C0790910D07019721F4F9
:1049800061E08DE00E9421380E94B930FF91EF91E3
:10499000BF91AF919F918F917F916F915F914F9157
:1049A0003F912F910F900BBE0F900FBE0F901F9055
:1049B00018958EE19BEF9093250180932401A3E746
:1049C000B0E08C918E7F8C93E0E2F1E080818C7F6F
:1049D0008083E1E2F1E08081877E80838081836053
:1049E000808380818B7F80838C9181608C930895FC
:1049F00081E008958F929F92AF92BF92CF92DF9203
:104A0000EF92FF920F931F93CF93DF935C017B0193
:104A10008A01C1E0D0E0CE15DF05CCF081E0F501E0
:104A20008083B801C7010E941A30F5019283818307
:104A300090E080E0DF91CF911F910F91FF90EF9078
:104A4000DF90CF90BF90AF909F908F9008956E01B0
:104A50008FEFC81AD80AFE01EE0FFF1FE00FF11FFB
:104A6000808091808114910469F066E774E0C4014C
:104A70000E94F53F892B41F4CC0FDD1FC00FD11FE1
:104A800019821882E601C7CF69E774E0C4010E9469
:104A9000F53F892BB9F7EC14FD04A1F36E01E2E0B8
:104AA000CE0ED11CCC0FDD1FC00FD11F1982188272
:104AB0001B821A82E7CF82EE96E0089580E0089587
:104AC0000F931F93CF93DF938B01BA01E9011982F2
:104AD00018829801012E000C440B550BFC018181BA
:104AE0009281BDDE019641F01983088380E0DF9159
:104AF000CF911F910F91089581E0F9CF0F931F93EC
:104B0000CF93DF931F921F92CDB7DEB7FB018A01CF
:104B1000B9019E012F5F3F4FAF01FC01818192815E
:104B20000E943130019669F089819A81F801918360
:104B3000808380E00F900F90DF91CF911F910F91B4
:104B4000089581E0F7CFFC018081089508950895CC
:104B500081E0FB01808380E00895089510920A07A8
:104B60000895FC01818192810C941230CF93DF93E0
:104B700000D000D000D01F92CDB7DEB7B0E0A0E0EB
:104B800089839A83AB83BC83CB01770FAA0BBB0BC2
:104B90008D839E83AF83B8879E01275F3F4FAE0111
:104BA0004F5F5F4F68E070E08091F9069091FA06E0
:104BB00087DF811110C081E029853A8528303105D1
:104BC00009F480E02A960FB6F894DEBF0FBECDBF81
:104BD000DF91CF91089581E0F5CF0F931F93CF938D
:104BE000DF931F921F92CDB7DEB78B019E012F5F1F
:104BF0003F4FAC018091F9069091FA0661DF811177
:104C00000EC081E029813A812017310709F480E044
:104C10000F900F90DF91CF911F910F91089581E038
:104C2000F7CFCF93DF93EC011092FD061092FC06B4
:104C30001092090710920807AC0160E070E0CB0108
:104C40000E94F71DAE0161E070E080E090E00E94FC
:104C5000F71D8091F9069091FA06DF91CF917DCFF3
:104C60004F925F926F927F928F929F92AF92BF927C
:104C7000CF92DF92EF92FF920F931F93CF93DF9328
:104C80001F921F92CDB7DEB78C017C0197FF03C046
:104C900087E0E80EF11C23E0F594E7942A95E1F70C
:104CA000C80168E070E00E94F33D6C010E5F1F4F89
:104CB0008091F7069091F80680179107D4F48091BF
:104CC000F5069091F606009731F00E945C3F109235
:104CD000F8061092F706C8010E94C03E9093F606AF
:104CE0008093F506892B09F482C01093F80600938F
:104CF000F70610E000E047C1412C512C3201B12CE5
:104D0000A12C95012250394FAE014F5F5F4F61E0FA
:104D100070E08091F9069091FA06F0DE811149C0A9
:104D2000EFEF4E1A5E0A6E0A7E0AF0E94F16FFE5B3
:104D30005F06F1E06F06710444F06091080770911E
:104D400009078DEE90E012DFD7CF89819A81A80EF6
:104D5000B91E8AE0A816B10409F043C049E050E04A
:104D600070E060E08EEF96E00E94AB306091080743
:104D700070910907882391F18091060790E08617CA
:104D8000970781F4BC018EEE90E0F0DE8091080779
:104D90009091090701969927909309078093080736
:104DA0000F5F1F4F0E151F050CF4A6CFCD2809F07D
:104DB0007CC090E080E00F900F90DF91CF911F9129
:104DC0000F91FF90EF90DF90CF90BF90AF909F90AA
:104DD0008F907F906F905F904F9008958FEE90E04E
:104DE000B2CFEAE0AE16B1040CF48BCFDBCF10E00B
:104DF00000E0D8CF0A30110531F549E050E070E00D
:104E000060E08EEF96E00E94AB30609108077091F1
:104E100009078823A9F08091060790E08617970775
:104E200041F6BC018EEE90E0A1DE809108079091E2
:104E30000907019699279093090780930807B9CF2E
:104E40008FEE90E02BC00A3011050CF0B2CF980124
:104E50002250394FAE014F5F5F4F61E070E08091AB
:104E6000F9069091FA064ADE8111A3CF89819A81D1
:104E7000080F191FFFEFCF1ADF0AEF0AFF0A80E9B8
:104E8000C8168FE5D80681E0E806F1040CF4B2CF2D
:104E900060910807709109078DEE90E067DE10E0E1
:104EA00000E0C12CD12C7601D2CFC12CD12C7601BF
:104EB00010E000E0CCCF412C512C3201B12CA12CC0
:104EC000480193E0880C991C9A95E1F72091F5062A
:104ED0003091F606C501880D991D280F391FAE01C6
:104EE0004F5F5F4F61E070E08091F9069091FA06A4
:104EF00005DE81115ECFEFEF4E1A5E0A6E0A7E0A62
:104F000060910807709109078DEE90E0F0E94F1667
:104F1000FFE55F06F1E06F0671040CF043C0898184
:104F20009A81A80EB91E8AE0A816B10409F041C002
:104F300049E050E0B4018091F5069091F6060E9498
:104F4000AB306091080770910907882349F180917F
:104F5000F5069091F606880E991EF401808590E082
:104F60008617970781F4BC018EEE90E0FFDD8091FB
:104F70000807909109070196992790930907809354
:104F800008070F5F1F4F0E151F050CF494CFC114B7
:104F9000D10409F081C08091F5069091F6060BCFFF
:104FA0008FEE90E0E3DD412C512C3201B12CA12C8D
:104FB0008DCFFAE0AF16B1040CF488CFE4CF8FEEBA
:104FC00090E0D4DDF12CE12C812C912C540197013F
:104FD0002250394FAE014F5F5F4F61E070E080912A
:104FE000F9069091FA068ADD8111E3CE8FEF881AD7
:104FF000980AA80AB80A60910807709109078DEE0F
:1050000090E0E0E98E16EFE59E06E1E0AE06B10421
:10501000C4F689819A81E80EF91EFAE0EF16F104D0
:10502000A9F549E050E070E060E08EEF96E00E9464
:10503000AB306091080770910907882309F4BFCF4E
:105040008091060790E08617970709F0A4CFBC016E
:105050008EEE90E08BDD83E0000F111F8A95E1F763
:105060008091F5069091F606A6016EEF76E0800F2E
:10507000911F0E94E53F80910807909109070196D2
:105080009927909309078093080785CF8AE0E8164F
:10509000F1040CF49CCF7FCF812C912C5401F12C86
:1050A000E12C95CFCF92DF92EF92FF920F931F9357
:1050B000CF93DF931F92CDB7DEB76C017B018A01DE
:1050C000452B39F0AB0170E060E0C8010E94A730C9
:1050D0008983B701C6014ADD81110DC00115110593
:1050E00051F0B701C80179DD811105C061E070E0C0
:1050F000CE01019672DD0F90DF91CF911F910F913C
:10510000FF90EF90DF90CF900895CF92DF92EF92D3
:10511000FF92CF93DF9300D000D01F921F92CDB7A4
:10512000DEB76B01F12CE12CC982DA82EB82FC82C2
:105130002D833E834F835887AE014F5F5F4F68E0FA
:1051400070E0B0DF28960FB6F894DEBF0FBECDBF7B
:10515000DF91CF91FF90EF90DF90CF9008958F92E5
:105160009F92AF92BF92CF92DF92EF92FF920F93F6
:105170001F93CF93DF937C01EB01CA01690170DDBE
:105180000097B1F42FEF3FEFA90161E070E0C70194
:10519000BCDFC1E08C2FDF91CF911F910F91FF9069
:1051A000EF90DF90CF90BF90AF909F908F90089539
:1051B000FC0181909190A190B190BF01FCE1EF16AC
:1051C000F10479F4A5019401CE010E945D1CC82F61
:1051D000A5019401882369F061E070E0C70195DFC3
:1051E000D9CF95018401AB01B601CE010E94601AAE
:1051F000EECF70E060E0C701DF91CF911F910F917A
:10520000FF90EF90DF90CF90BF90AF909F908F90E6
:105210007CCF0F931F93CF93DF93EC018B014BDC7B
:105220009093FA068093F9060097A9F0A801BE01B1
:10523000E1DBEC01892B49F08091F9069091FA06A7
:1052400085DC1092FA061092F906CE01DF91CF911B
:105250001F910F910895C5E8D4E0EECF8091F90633
:105260009091FA0670CC2F923F924F925F926F927C
:105270007F928F929F92AF92BF92CF92DF92EF92E6
:10528000FF920F931F93CF93DF93CDB7DEB769974C
:105290000FB6F894DEBF0FBECDBF2091FD062223CE
:1052A000F1F05B8B4A8B6E877F87888B998B9A0195
:1052B000AB01BC01CE0101967C0169D910E048E048
:1052C000242E312CE88EF98E89819A8118161906C0
:1052D0000CF450C2112319F08A899B89A2DC6996CB
:1052E0000FB6F894DEBF0FBECDBFDF91CF911F91F7
:1052F0000F91FF90EF90DF90CF90BF90AF909F9075
:105300008F907F906F905F904F903F902F90089577
:10531000EB81FC818C859D8533E0880F991F3A9540
:10532000E1F7E80FF91F808191819093F406809353
:10533000F30624813581428153815093F2064093D4
:10534000F106468157815093F0064093EF06820F95
:10535000931F9C01990F440B550B2C8B3D8B4E8B4F
:105360005F8B812C912C54018C899D89AE89BF89DA
:1053700088169906AA06BB0638F18C859D85880F8C
:10538000991FED81FE81E80FF91F4E855F856889C1
:105390007989808191810E94291EAC85BD851196F5
:1053A000BD87AC8789819A81EC85FD85E817F9076F
:1053B0000CF4AECF2A893B894E855F85688979894F
:1053C000888D998DE4D880CF1F826091F30670910B
:1053D000F406CB01072E000CAA0BBB0B8401750150
:1053E000640134E0C30ED11CE11CF11CC816D906BF
:1053F000EA06FB0608F0B3C02091F1063091F206F0
:10540000A4014C5F5F4F240F351FF901C080D12CE0
:10541000F12CE12C24013501F5E04F0E511C611CEB
:10542000711C481659066A067B0608F0A3C0209135
:10543000F1063091F206F8013596E20FF31F208154
:10544000D22A2401350126E0420E511C611C711C38
:10545000481659066A067B0608F097C02091F106A7
:105460003091F206F8013696E20FF31F2081E22A0E
:105470002401350137E0430E511C611C711C481694
:1054800059066A067B0608F08BC02091F106309120
:10549000F206F8013796E20FF31F2081260137014B
:1054A000722A7501640148E0C40ED11CE11CF11C94
:1054B0008C159D05AE05BF0508F41DC1881699061B
:1054C000AA06BB0608F077C08091F1069091F2061B
:1054D000800F911F68E070E080DBE091F306F091AF
:1054E000F4069F010F2E000C440B550BD301C20193
:1054F0008C0D9D1DAE1DBF1D281739074A075B0780
:1055000008F478C0C216D306E406F50608F05DC0BC
:105510008091F1069091F2069801285F3F4F820F2B
:10552000931FB2015ADB8091F3069091F406AC010F
:10553000092E000C660B770BC416D506E606F70697
:1055400008F04DC0085F1F4F8091F1069091F20660
:10555000800F911FA20170E060E0F9D5A7C044E080
:1055600050E0461B570B480D591D2091EF06309116
:10557000F00649CFE5E0F0E0E61BF70BE00FF11F86
:105580002091EF063091F00658CFE6E0F0E0E61B00
:10559000F70BE00FF11F2091EF063091F00664CF7A
:1055A000E7E0F0E0E61BF70BE00FF11F2091EF06BC
:1055B0003091F00670CF9801261B370B8091EF06D3
:1055C0009091F006820F931F85CF91012E1B3F0B08
:1055D000200F311F8091EF069091F006A0CFD101EE
:1055E000A81BB90BCD01080F191F8091EF069091F0
:1055F000F006AECFBF0168507109601B710BC21677
:10560000D306E406F50608F062C08091F106909199
:10561000F2069801285F3F4F820F931FDEDA8091D8
:10562000F3069091F406B101681B790B600F711FAE
:10563000640D751D8091EF069091F006CEDA809191
:10564000F3069091F406AC0148505109FA01E01BB1
:10565000F10BAC01092E000C660B770BC416D506B6
:10566000E606F70608F03DC08091F1069091F2063B
:105670009801285F3F4F820F931FAF0170E060E0F9
:1056800066D58F832091F3063091F406F101E21B79
:10569000F30B9F01200F311F240D351D50E040E01A
:1056A000682F8091EF069091F0063DD58F8361E0E1
:1056B00070E0CE01079691DA182F38E0430E511CA6
:1056C000611C711C840C951CA61CB71C4DCE91014D
:1056D0002E1B3F0B200F311F8091EF069091F0069B
:1056E0009BCF9101281B390B200F311F8091EF06B2
:1056F0009091F006C0CF88169906AA06BB0668F5F9
:10570000601B710B8091F1069091F206800F911F42
:1057100064DA8091F3069091F406B101681B790B6D
:10572000600F711F640D751D8091EF069091F0065A
:1057300054DA8091F3069091F406AC01092E000C26
:10574000660B770BC416D506E606F70608F4FACE04
:105750009101281B390BC90146CFC801861B970B45
:105760002091EF063091F006B201685F7F4F820F03
:10577000931FDECF1D861C8615CECF93DF93EC01E1
:10578000AC0160E070E0CB016EDDAE0161E070E085
:1057900080E090E0DF91CF9166CDCF938091F906C4
:1057A0009091FA068BD9C82F81110BC060E070E090
:1057B000CB010E94221961E070E080E090E00E943D
:1057C00022198C2FCF9108950F931F9389019A016D
:1057D000AB01BC018091F9069091FA06B8D91F91EE
:1057E0000F9108954F925F926F927F928F929F9246
:1057F000AF92BF92CF92DF92EF92FF920F931F93DF
:10580000CF93DF93CDB7DEB763970FB6F894DEBFC3
:105810000FBECDBF6C018B015A018091FD0688231C
:1058200009F43DC08091FD06882309F442C08091AF
:10583000FC061A821982882309F4C0C0F0E94F2EB1
:10584000FFE55F2E66246394712CF12CE12C970107
:105850002B51394FAE014F5F5F4F61E070E0809197
:10586000F9069091FA064AD9982E811169C089816A
:105870009A81E80EF91EE114F10409F461C081E097
:10588000481A51086108710859F56091080770912C
:1058900009078DEE90E06AD91A82198251C06DEF26
:1058A00076E08091F9069091FA0652D9882309F49E
:1058B000B9CF63960FB6F894DEBF0FBECDBFDF91B0
:1058C000CF911F910F91FF90EF90DF90CF90BF90FD
:1058D000AF909F908F907F906F905F904F900895C2
:1058E000AAE0EA16F10409F063C049E050E070E074
:1058F00060E085EE96E02FD460910807709109076B
:10590000882309F452C08091ED0690E0861797072E
:1059100019F6BC018EEE90E029D988E0E5EEF6E0BC
:10592000DE01199601900D928A95E1F780910807A2
:10593000909109070196992790930907809308078A
:1059400081E029813A81121613060CF080E0911053
:10595000CAC2882309F4ADCF8091FC06811104C02E
:1059600019861A861B861C8689859A85AB85BC8517
:1059700080319105A105B10508F09BCFFC01882776
:10598000EB53F34D8F4F0C94283E452D042F732F6E
:10599000592C492E7C2E352D3D2D192D582F472F52
:1059A000542F592C592C592C042D8FEE90E073CF85
:1059B000BAE0EB16F1040CF44ACFC2CFF12CE12C83
:1059C000E8E06E2E712C29E030E02C0F3D1F2E0DEB
:1059D0003F1DAE014F5F5F4FB3016E197F0980918C
:1059E000F9069091FA068AD8982E29813A81811178
:1059F00009C0E20EF31EE114F10421F0E8E0EE1616
:105A0000F1040CF381E09FCFD6011696ED91FC9145
:105A100080819181A281B38189839A83AB83BC8386
:105A2000AE014F5F5F4F64E070E085E190E03ADBEC
:105A300040CF8D859E8514D92FEF3FEFA90161E0FE
:105A400070E0009771F0FC01C080D180E280F380AB
:105A5000A801C701B6010E94A21DA701960170E02E
:105A600060E08DE190E051DB24CF4D855E859801AB
:105A7000B6018BE190E073DB1CCF4D855E852FEF87
:105A80003FEFB6018CE190E0F6CFD6011496ED9190
:105A9000FC9100811181F80182809380A080B18007
:105AA00070E1472E512C612C712C49825A826B82F5
:105AB0007C8288E090E0A0E0B0E08D839E83AF839D
:105AC000B8879E012F5E3F4FAE014F5F5F4F68E08A
:105AD00070E08091F9069091FA060E946025882373
