:10000000A0C100000C94C1310C94EC310C94173257
:100010000C9442320C946D320C9498320C94C3328E
:100020000C94EE320C94E0080C9483090C94BF09F4
:10003000B9C10000B7C10000B5C10000B3C10000E4
:10004000B1C10000AFC10000ADC10000ABC10000F4
:10005000A9C10000A7C10000A5C100000C9419337C
:10006000A1C100000C94F9360C942F379BC10000FD
:1000700099C1000097C1000095C1000093C1000024
:1000800091C100008FC100008DC100008BC1000034
:100090000C9485370C94BB3785C10000DEC300008B
:1000A00081C100007FC100007DC100007BC1000054
:1000B00079C1000077C1000075C1000073C1000064
:1000C00071C100006FC100000C94E0200C94113845
:1000D0000C94473867C100000C949D380C94D338B9
:1000E00061C10000084AD73B3BCE016E84BCBFFD16
:1000F000C12F3D6C74319ABD56833DDA3D00C77FF8
:1001000011BED9E4BB4C3E916BAAAABE0000008090
:100110003F05A84CCDB2D44EB93836A9020C50B91F
:10012000918688083CA6AAAA2ABE000000803F004B
:10013000001D3A2774694E53E8F5D2CF9C81A6BBC7
:10014000CDD0F7EAB9A4839E25381F02514C6B76B7
:10015000879ABDA0F3EEC9D46F7255481B06213CA7
:100160004A57706D3E230419A2BF9885D6CBECF197
:10017000130E2934677A5D40FBE6C1DC8F92B5A887
:10018000DEC3E4F9AAB7908D362B0C11425F786577
:100190009489AEB3E0FDDAC77C61465B0815322F67
:1001A0005944637E2D30170AB1AC8B96C5D8FFE257
:1001B000263B1C01524F6875CED3F4E9BAA7809D47
:1001C000EBF6D1CC9F82A5B8031E3924776A4D5037
:1001D000A1BC9B86D5C8EFF24954736E3D20071A27
:1001E0006C71564B1805223F8499BEA3F0EDCAD717
:1001F00035280F12415C7B66DDC0E7FAA9B4938E07
:10020000F8E5C2DF8C91B6AB100D2A3764795E43F6
:10021000B2AF8895C6DBFCE15A47607D2E331409E6
:100220007F6245580B16312C978AADB0E3FED9C4D6
:1002300000000A0B02090C0D0E0807030401000060
:1002400000000000000000000000000000000000AE
:10025000000000000000000000000000121110006B
:10026000000000000000000000000000000000008E
:1002700000000000000001021020200808102040AB
:10028000102040800201020108040201010204085A
:1002900010204080804020100804020180040201E8
:1002A0008040201008040201080402010102040831
:1002B000102040800102040810204080050505053B
:1002C000070508080808020202020A0A08080404CE
:1002D00004040101010101010101030303030303FC
:1002E0000303040707070C0C0C0C0C0C0C0C02028B
:1002F000020206060606060606060B0B0B0B0B0B88
:100300000B0B00002200250028002B002E003100DE
:10031000340002010000050108010B01000021006A
:10032000240027002A002D003000330001010000C6
:10033000040107010A011E03CC075837E43770385F
:10034000FC3811241FBECFEFD1E2DEBFCDBF00E0ED
:100350000CBF14E0A0E0B2E0E4E0F6E700E00BBF81
:1003600002C007900D92AC3DB107D9F729E0ACED82
:10037000B4E001C01D92A53FB207E1F711E0C1EA68
:10038000D1E000E006C021970109802FFE010E9404
:100390008C39CB39D10780E00807A9F70E940A2DD4
:1003A0000C94003B2DCE90E080E0089580911005E4
:1003B00090911105891B990B0895909111058091D9
:1003C00010052FEF3FEF981748F4E92FF0E0EE5EAD
:1003D000FA4F208130E09F5F90931105C901089585
:1003E000E091110580911005E81730F4F0E0EE5E21
:1003F000FA4F808190E008958FEF9FEF0895089560
:10040000CF93DF93EC01E091E804F091E904309799
:10041000F1F090911105809110059817C0F090E0CF
:10042000292F30E02617370754F4DE01A20FB31F3F
:100430004C912E5E3A4FD9014C939F5FF1CF1092B1
:10044000110560931005CB01DF91CF911994DF91D5
:10045000CF910895E091EA04F091EB04309729F0F0
:100460001092EE041092ED0419940895CF93DF9347
:100470001F92CDB7DEB769832091EC042223F9F0F7
:100480002091ED04203258F021E030E0FC0133836C
:10049000228390E080E00F90DF91CF9108958091CA
:1004A000EE04E82FF0E0E151FB4F998190838F5FDC
:1004B0008093EE048093ED0481E090E0ECCF61E066
:1004C000CE01019689D1F8CFCF92DF92EF92FF92C1
:1004D0000F931F93CF93DF937C01CB018A0120916F
:1004E000EC04222389F0EB016B01C40ED51ECC1560
:1004F000DD0561F06991D701ED91FC910190F081EA
:10050000E02DC7011995F3CF642F66D1C801DF91A3
:10051000CF911F910F91FF90EF90DF90CF900895B2
:1005200010921105109210051092EE041092ED0435
:1005300096D08AE292E07CD180E092E074C181E0C2
:100540008093EC0460930F051092EE041092ED047A
:1005500008950F93062F21E04091ED046FEE74E0B3
:1005600080910F05E2D01092EE041092ED041092EB
:10057000EC040F9108954F925F926F927F92AF9229
:10058000BF92CF92EF92FF920F931F93CF93DF937F
:100590005C01F62ED42F28013901EE2009F1CFDFBE
:1005A000CE2DC43008F0C3E0C150B8F028E0C29F9F
:1005B000C0011124A301920104C0569547953795B7
:1005C00027958A95D2F7B901D501ED91FC9101905B
:1005D000F081E02DC5011995E7CF60E0C501B9DFD5
:1005E0004D2FD13208F040E22C2D62E175E08F2DC5
:1005F00054D01092110580931005DF91CF911F9177
:100600000F91FF90EF90CF90BF90AF907F906F9041
:100610005F904F900895CF92EF920F931F93C22E49
:10062000E12C00E010E09801A6DF1F910F91EF9000
:10063000CF90089521E0EFCF61E08BCFECEDF4E0B7
:100640001382128288EE93E0A0E0B0E08483958369
:10065000A683B7838AE393E0918380830895109201
:100660009F0581E080939D0510929C0561E084E1E7
:100670000E94A23561E085E10E94A235E9EBF0E03D
:1006800080818E7F808380818D7F808388E48093CA
:10069000B80085E48093BC000895413208F043C05F
:1006A00090919F059111FCCF91E090939F0520932D
:1006B0009D052FEF2093320510927705240F20938C
:1006C000760590939E0590919E05880F892B8093C7
:1006D0009E0580919C05813009F510929C058091C2
:1006E0009E058093BB008091BC0083FDF8CF85EC14
:1006F0008093BC0080919F058130E1F38091770564
:10070000841710F440917705A8E7B5E0962FFB0118
:100710008E2F891B841720F0842F089585EEE8CF53
:100720008D918193F5CF40E0F7CF0F93413208F0E0
:100730004BC090919F059111FCCF92E090939F0543
:1007400000939D059FEF909332051092770540939B
:100750007605362FA8E7B5E0FB019E2F931B941773
:1007600070F110929E0590919E05880F892B8093C1
:100770009E0580919C05813029F510929C05809101
:100780009E058093BB008091BC0083FDF8CF85EC73
:100790008093BC00222321F080919F058230D1F309
:1007A000809132058F3F91F080913205803281F047
:1007B00080913205803371F084E00F91089591911A
:1007C0009D93CBCF85EEE4CF81E0F7CF80E0F5CFEE
:1007D00082E0F3CF83E0F1CF20915405260F332739
:1007E000331F21323105ECF420919F05FC0190E08C
:1007F00080E0243069F082E00895A09154052191B1
:10080000AC014A5A5A4FA40FB52FB11D2C93019633
:10081000861798F380915405680F6093540580E023
:10082000089581E00895909399058093980508951F
:1008300090939B0580939A05089585ED8093BC0065
:100840008091BC0084FDFCCF10929F05089585EC3B
:100850008093BC0010929F0508951F920F920FB6CF
:100860000F9211240BB60F922F933F934F935F93E8
:100870006F937F938F939F93AF93BF93EF93FF9368
:100880008091B900887F803609F44CC008F03FC0E1
:10089000883209F4A8C028F5803109F49CC0C8F456
:1008A000882309F4F8C0883009F495C0FF91EF91CE
:1008B000BF91AF919F918F917F916F915F914F9178
:1008C0003F912F910F900BBE0F900FBE0F901F9076
:1008D0001895883109F487C0803241F7809332053A
:1008E00014C0803409F49CC040F48033B9F38833D9
:1008F000E9F680933205ABDFD9CF803509F484C0A7
:10090000883509F495C0883489F697DFCFCF8839C8
:1009100009F48CC038F5883729F050F4883611F086
:10092000803721F683E080939F051092330557C0EE
:10093000883809F47BC0803919F0803809F0B6CFC7
:1009400080913305803208F071C0E091330581E079
:100950008E0F809333058091BB00F0E0EC5CFA4F82
:1009600080833DC0803B39F0E0F4803A09F479C0DF
:10097000883A09F09BCF84E080939F05109255053B
:1009800010925405E0919A05F0919B05199580917C
:10099000540581110FC081E08093540510925605D3
:1009A00009C0803C09F475C0883C09F472C0883BDA
:1009B00009F07CCFE091550581E08E0F80935505BD
:1009C000F0E0EA5AFA4F80818093BB009091550580
:1009D0008091540529C080919E058093BB0085ECD1
:1009E0008093BC0063CF909177058091760598172E
:1009F00058F5E091770581E08E0F80937705F0E060
:100A0000E858FA4F8081E9CFE091770581E08E0FB9
:100A1000809377058091BB00F0E0E858FA4F80831F
:100A200090917705809176059817C8F285E8D8CF20
:100A3000E091770581E08E0F809377058091BB0070
:100A4000F0E0E858FA4F808380919D0581115DCFD9
:100A500081E080939C0584EA8093BC0010929F05FE
:100A600025CFF5DE80913305803230F4E0913305F7
:100A7000F0E0EC5CFA4F10826091330570E0E09199
:100A80009805F091990584E395E019951092330546
:100A90000DCF85ECE1CF1092320537CFFF920F9347
:100AA0001F93CF93DF93C62F042FF22E132F682F9F
:100AB0008CED94E044DD6C2F8CED94E0D7DCCF2DF1
:100AC000D12F0C0F1D2F111DC017D10729F06991CF
:100AD0008CED94E0CBDCF8CF8CED94E0ADDD91E0D3
:100AE000811190E0892FDF91CF911F910F91FF909D
:100AF0000895CF93DF931F92CDB7DEB749839E0150
:100B00002F5F3F4F41E0CADF0F90DF91CF910895F3
:100B10002F923F924F925F926F927F928F929F920D
:100B2000AF92BF92CF92DF92EF92FF920F931F93FB
:100B3000CF93DF9300D0CDB7DEB7E82E69834B8328
:100B400069010E9463334B015C01F12C1A822B81F5
:100B5000222E312C2801712C612C8B81F81608F083
:100B600044C06E2D8CED94E0EADC69818CED94E05C
:100B70007DDC8CED94E060DD6E2D8CED94E0DFDCAF
:100B8000A1014F1951094132510514F040E250E0E2
:100B90006E2D8CED94E04EDD8CED94E007DC892B1E
:100BA000D9F00115110569F48CED94E006DCF6012D
:100BB0009A81E90FF11D97FDFA9580839F5F9A83D3
:100BC000EBCF0E946333681979098A099B09641580
:100BD00075058605970540F38CED94E02DDD8B813E
:100BE000813208F080E2F80EB8CF01151105C1F08E
:100BF0000E946333681979098A099B0930E020E073
:100C0000601771078207930758F02A81822F220FFD
:100C1000990B2B812817190619F014F08FEF8A838E
:100C20008A810F900F900F90DF91CF911F910F91BC
:100C3000FF90EF90DF90CF90BF90AF909F908F90FC
:100C40007F906F905F904F903F902F9008950F93FB
:100C50001F9389019A0141E05BDF1F910F91089575
:100C6000EF92FF920F931F93CF93DF931F92CDB715
:100C7000DEB7182F062FE42EF22E209106023091B7
:100C80000702AE014F5F5F4FE2DF81E090E001C0FD
:100C9000880FEA94EAF74981FF2069F0482B4983DD
:100CA000602F812F26DF0F90DF91CF911F910F9141
:100CB000FF90EF90089580954823F1CFDF92EF9257
:100CC000FF920F931F93CF93DF931F92CDB7DEB7A1
:100CD000F82EE62E142FD22E209106023091070214
:100CE000AE014F5F5F4FB3DF882351F1812F8D1924
:100CF000990BAC014F5F5F4F81E090E002C0880F1D
:100D0000991FDA94E2F70197042E01C0880F0A9424
:100D1000EAF701C0000F4A95EAF7482F40959981FC
:100D200049238023482B49836E2D8F2DE2DE0F90BF
:100D3000DF91CF911F910F91FF90EF90DF90089579
:100D400080E0F5CF28E6FC01208308950F93062F5D
:100D500023E042E06AE1FC018081B0DF0F91089559
:100D60000F93062F22E044E06BE1FC018081A6DFB7
:100D70000F9108950F93062F22E044E06CE1FC01EF
:100D800080819CDF0F9108950F931F93CF93DF9382
:100D9000EC0100910602109107029C012F5F3F4F6A
:100DA00042E06BE38881B4DE89819A8198278927A4
:100DB0009827DF91CF911F910F9108950F931F9363
:100DC000CF93DF93EC0100910602109107029C0182
:100DD0002F5F3F4F42E06DE388819ADE89819A81DF
:100DE000982789279827DF91CF911F910F91089518
:100DF0000F931F93CF93DF93EC01009106021091A4
:100E000007029C012F5F3F4F42E06FE3888180DE45
:100E100089819A81982789279827DF91CF911F91FF
:100E20000F9108950F931F93CF93DF93EC010091DF
:100E30000602109107029C012F5F3F4F42E063E4DE
:100E4000888166DE89819A81982789279827DF9192
:100E5000CF911F910F9108950F931F93CF93DF931D
:100E6000EC0100910602109107029C012F5F3F4F99
:100E700042E065E488814CDE89819A819827892740
:100E80009827DF91CF911F910F9108950F931F9392
:100E9000CF93DF93EC0100910602109107029C01B1
:100EA0002F5F3F4F42E067E4888132DE89819A817B
:100EB000982789279827DF91CF911F910F91089547
:100EC000262F46E06BE6FC018081CACE0F93062FE9
:100ED00023E042E06BE6FC018081F0DE0F91089593
:100EE000CF93DF93EC0161E0F1DF60E0CE0138DF0A
:100EF00060E0CE013FDF60E0CE01DF91CF91E0CF37
:100F00008CED94E00DDB80EA95E0EADF20E045E03F
:100F10006AE688E6A5DE21E041E067E388E6A0DE38
:100F200020E046E06BE688E69BCECF93DF93EC01B2
:100F300080EA95E029DF9983888380EA95E03EDFA7
:100F40009B838A8380EA95E053DF9D838C83DF91C6
:100F5000CF910895CF93C82F8CED94E0E1DA6C2FF8
:100F600080EA95E0F3DE80EA95E0CF91B9CFCF93A8
:100F7000DF93EC0180EA95E055DF9983888380EA6E
:100F800095E06ADF9B838A8380EA95E07FDF9D831B
:100F90008C83DF91CF91089580EA95E0D3CE6111E3
:100FA00002C00C9466356130E1F362E0FACF66234B
:100FB00019F061E00C94A23560E0FCCF9CB1892F60
:100FC000807294FF16C0811116C08091B305909174
:100FD000B405A091B505B091B6050196A11DB11D4E
:100FE0008093B3059093B405A093B505B093B6056F
:100FF00008958111EACF8091B3059091B405A09135
:10100000B505B091B6050197A109B109E9CF99B12C
:10101000892F847093FF16C08823B1F08091C10599
:101020009091C205A091C305B091C4050196A11D80
:10103000B11D8093C1059093C205A093C305B093E1
:10104000C4050895882351F38091C1059091C2058C
:10105000A091C305B091C4050197A109B109E9CFD9
:101060008CB190E09C01220F232F221F330B86FFAF
:1010700016C08091CF059091D005A091D105B09177
:10108000D205232BB9F40196A11DB11D8093CF0584
:101090009093D005A093D105B093D2050895809187
:1010A000CF059091D005A091D105B091D205213006
:1010B000310549F30197A109B109E8CF9CB1892F06
:1010C000807195FF16C08823B1F08091B30590918F
:1010D000B405A091B505B091B6050196A11DB11D4D
:1010E0008093B3059093B405A093B505B093B6056E
:1010F0000895882351F38091B3059091B405A09190
:10110000B505B091B6050197A109B109E9CF99B12B
:10111000892F887092FF16C0811116C08091C10579
:101120009091C205A091C305B091C4050196A11D7F
:10113000B11D8093C1059093C205A093C305B093E0
:10114000C40508958111EACF8091C1059091C2052F
:10115000A091C305B091C4050197A109B109E9CFD8
:101160008CB190E086FB222720F930E0880F892F90
:10117000881F990B0197B1F48091CF059091D0050C
:10118000A091D105B091D205232BB1F00196A11DFC
:10119000B11D8093CF059093D005A093D105B09356
:1011A000D20508958091CF059091D005A091D105E9
:1011B000B091D205232B51F30197A109B109E9CFD1
:1011C0001F920F920FB60F9211242F933F934F93BC
:1011D0005F938F939F93AF93BF9383B121E030E0F0
:1011E000982F907285FD02C030E020E0807440911D
:1011F000F3055091F4054217530709F062C021E04E
:1012000030E0811102C030E020E03093F2052093FD
:10121000F105882309F1911121C08091EB0590918E
:10122000EC05A091ED05B091EE050196A11DB11D53
:101230008093EB059093EC05A093ED05B093EE053C
:101240008091EB059091EC05A091ED05B091EE0534
:101250000196A11DB11D20C09111DFCF8091EB053A
:101260009091EC05A091ED05B091EE050197A109D3
:10127000B1098093EB059093EC05A093ED05B09335
:10128000EE058091EB059091EC05A091ED05B091F4
:10129000EE050197A109B1098093EB059093EC0548
:1012A000A093ED05B093EE05BF91AF919F918F9103
:1012B0005F914F913F912F910F900FBE0F901F9014
:1012C00018953093F4052093F305992371F0882342
:1012D00071F08091EB059091EC05A091ED05B09136
:1012E000EE050196A11DB11DC4CF882391F3809115
:1012F000EB059091EC05A091ED05B091EE050197FD
:10130000A109B10995CF1F920F920FB60F92112428
:101310008F939F93AF93BF938091060181709091BB
:10132000030190FF1EC081111EC08091DD059091C8
:10133000DE05A091DF05B091E0050196A11DB11D6C
:101340008093DD059093DE05A093DF05B093E00563
:10135000BF91AF919F918F910F900FBE0F901F90F3
:1013600018958111E2CF8091DD059091DE05A09165
:10137000DF05B091E0050197A109B109E1CF1F9206
:101380000F920FB60F9211248F939F93AF93BF9339
:101390008091030181709091060190FF1EC0882307
:1013A000F1F08091DD059091DE05A091DF05B0910F
:1013B000E0050196A11DB11D8093DD059093DE052A
:1013C000A093DF05B093E005BF91AF919F918F91FE
:1013D0000F900FBE0F901F901895882311F38091E6
:1013E000DD059091DE05A091DF05B091E005019744
:1013F000A109B109E1CF0F931F93CF93DF938C0124
:101400008EE0809FE001819FD00D1124C155DA4FFD
:10141000798368835B834A838881998160E00E9435
:1014200066358A819B8160E00E946635888199815A
:1014300061E00E94A2358A819B8161E00E94A23511
:101440000230110509F487C064F40115110501F19A
:101450000130110509F450C0DF91CF911F910F9118
:1014600008950330110509F4A5C004301105A1F752
:101470008091680081608093680080916B00806239
:1014800080936B0080916B00806480936B00E4CF4D
:101490008091AF059091B00502978431910530F5A8
:1014A000885B9C4FFC018081082E000C990B41E069
:1014B00050E06EED77E00E9447318091B105909148
:1014C000B205029784319105A0F4885B9C4FFC0122
:1014D0008081082E000C990B41E050E06EE578E029
:1014E000DF91CF911F910F910C9447318FEF9FEFB8
:1014F000DECF8FEF9FEFF0CF8091BD059091BE05BD
:1015000002978431910508F5885B9C4FFC0180812E
:10151000082E000C990B41E050E067E878E00E944B
:1015200047318091BF059091C005029784319105A4
:1015300078F4885B9C4FFC018081082E000C990B8D
:1015400041E050E067E078E0CBCF8FEF9FEFE3CF53
:101550008FEF9FEFF5CF8091CB059091CC0502974F
:101560008431910508F5885B9C4FFC018081082E31
:10157000000C990B41E050E060E378E00E944731B5
:101580008091CD059091CE0502978431910578F434
:10159000885B9C4FFC018081082E000C990B41E078
:1015A00050E060EB78E09CCF8FEF9FEFE3CF8FEFC1
:1015B0009FEFF5CF809168008460809368008091F0
:1015C000680082608093680080916D0081608093E4
:1015D0006D0080916C00826080936C003DCF2EE0A6
:1015E000269FF001279FF00D1124E155FA4F6481E9
:1015F00075818681978108950895CF92DF92EF9249
:10160000FF92CF93882351F16A017B01CFEFC80F7E
:1016100020E030E0A901CB01B6010E946D2E87FFCA
:1016200011C0C701B60190580E94DF2E9B01AC018A
:101630006C2F70E090E080E0CF91FF90EF90DF9012
:10164000CF90B2C0C701B6010E94DA2E8C2FCF9185
:10165000FF90EF90DF90CF900C942C34CF91FF90BF
:10166000EF90DF90CF9008950F931F938B019C0113
:1016700083E036952795179507958A95D1F70B50F6
:101680001A4F462F477021E030E0F90102C0EE0FFB
:10169000FF1F4A95E2F7AF01F80120812423CB0117
:1016A0000196211102C090E080E01F910F910895F2
:1016B0000F931F938B019C0183E036952795179517
:1016C00007958A95D1F7677081E090E001C0880F97
:1016D0006A95EAF7F801EB50FA4F2081452B31F477
:1016E0008095822380831F910F910895822BFACFDA
:1016F0002F923F924F925F926F927F928F929F9222
:10170000AF92BF92CF92DF92EF92FF920F931F930F
:10171000CF93DF93D62EC72E782E692E49015A011A
:10172000280161E08D2D0E946635CD2DDC2D8E01C6
:101730000F5F1F4FA8016D2D7C2D872D962DB8DFD3
:1017400020E030E0A901C201B7010E94BC301816A8
:1017500064F4C201B7010E94DF2E2B01C501B40160
:101760000E94DF2EA201CE0123D0C801DF91CF91CC
:101770001F910F91FF90EF90DF90CF90BF90AF90AF
:101780009F908F907F906F905F904F903F902F90A1
:101790000895882341F08150682F70E090E080E048
:1017A00050E040E085CF0895862FB9010C942C3489
:1017B0009C01FC01E05DFD4FE491E150E231E0F479
:1017C000F0E08827E951F44F8F4F0C948C39F90BD6
:1017D000000C030C1A0C2F0CFC0B440C500C540C7A
:1017E0006B0C800C950CAC0CC10CFC0BD60CED0CEE
:1017F000020D84B5806884BD60E0822F0C94A23510
:1018000084B58062F8CF809180008C7F8260809365
:10181000800080918100807E8061682B60938100D0
:101820005093870040938600809180008068809369
:101830008000E2CF809180008C7F82608093800066
:1018400080918100807E8061682B6093810050933D
:10185000870040938600809180008062E8CF80916D
:1018600080008C7F82608093800080918100807EE8
:101870008061682B609381005093870040938600BD
:10188000809180008860D3CF8091B0008068809381
:10189000B0008091B100887F682B6093B100ACCF1D
:1018A0008091B0008062F3CF809190008C7F826045
:1018B0008093900080919100807E8061682B60937E
:1018C000910050939700409396008091900080681B
:1018D0008093900091CF809190008C7F8260809364
:1018E000900080919100807E8061682B60939100D0
:1018F0005093970040939600809190008062E8CFCB
:10190000809190008C7F8260809390008091910004
:10191000807E8061682B6093910050939700409384
:101920009600809190008860D3CF8091A0008C7F3A
:1019300082608093A0008091A100807E8061682BEE
:101940006093A1005093A7004093A6008091A0004F
:1019500080688093A00050CF8091A0008C7F82602F
:101960008093A0008091A100807E8061682B6093AD
:10197000A1005093A7004093A6008091A000806230
:10198000E8CF8091A0008C7F82608093A00080913E
:10199000A100807E8061682B6093A1005093A70016
:1019A0004093A6008091A0008860D3CF8091200151
:1019B0008C7F82608093200180912101807E8061F4
:1019C000682B609321015093270140932601809159
:1019D00020018068809320010FCF809120018C7FAF
:1019E00082608093200180912101807E8061682B3C
:1019F000609321015093270140932601809120019B
:101A00008062E8CF809120018C7F826080932001EA
:101A100080912101807E8061682B60932101509329
:101A2000270140932601809120018860D3CF8F92B7
:101A30009F92AF92BF92CF92DF92EF92FF92CF939D
:101A4000DF936B017C0149015A0173D6882399F019
:101A50006091E3097091E4098091E5099091E609AC
:101A6000DF91CF91FF90EF90DF90CF90BF90AF903C
:101A70009F908F900895C501B4015BD68111E8CF86
:101A8000C701B60111D68823D9F1C501B4010CD61E
:101A90008823B1F120E030E0A901C701B6010E941E
:101AA000BC30CFEFDFEF181614F4C1E0D0E020E037
:101AB00030E0A901C501B4010E94BC306FEF7FEF97
:101AC000181614F461E070E0072E000C880B990BD7
:101AD0000E940D2F6B017C01BE01DD0F880B990B5D
:101AE0000E940D2FA7019601DF91CF91FF90EF90FB
:101AF000DF90CF90BF90AF909F908F900C94072E67
:101B000020E030E0A901C501B4010E946D2E8111D1
:101B100016C020E030E0A901C701B6010E94BC3028
:101B2000181694F020E030E0A901C701B6010E9428
:101B30006D2E87FD0EC060E070E0CB0191CFA50156
:101B40009401C701B601D0CF6BED7FE089EC9FE334
:101B500087CF6BED7FE089EC9FEB82CFCF92DF9256
:101B6000EF92FF926B017C019F7720E030E040E82C
:101B700059E50E946D2E87FF2BC020E030E040E049
:101B80005FE3C701B6010E94BC3087FD0EC020E0B4
:101B900030E040E05FE3C701B6010E94942DFF9062
:101BA000EF90DF90CF900C94482F20E030E040E0A1
:101BB0005FEBC701B6010E94BC30181684F420E028
:101BC00030E0A901C701B6010E94C7306B017C015A
:101BD000C701B601FF90EF90DF90CF90089520E00D
:101BE00030E040E05FE3C701B6010E94932DFF9013
:101BF000EF90DF90CF900C945A2E4F925F926F929D
:101C00007F928F929F92AF92BF92CF92DF92EF928C
:101C1000FF920F931F93CF93DF93CDB7DEB72E972D
:101C20000FB6F894DEBF0FBECDBFCE0101967DD9B1
:101C30006D817E81072E000C880B990B0E940D2F61
:101C40002091CC023091CD024091CE025091CF0232
:101C50000E94C7306B017C016B817C81072E000CD8
:101C6000880B990B0E940D2F2091C8023091C90258
:101C70004091CA025091CB020E94C730A701960141
:101C8000D6DE2091D0023091D1024091D202509103
:101C9000D3020E94942D2091C4023091C50240913C
:101CA000C6025091C7020E94942D2091D402309117
:101CB000D5024091D6025091D7020E94C73060935E
:101CC000C7097093C8098093C9099093CA0961E054
:101CD00070E080E090E083DC6093D3097093D409D6
:101CE0008093D5099093D609C090C402D090C502C4
:101CF000E090C602F090C7022091AF093091B00980
:101D00004091B1095091B209C701B6010E94942DCA
:101D1000A70196010E94942D2091E0023091E102EA
:101D20004091E2025091E3020E94C7306093CB09D8
:101D30007093CC098093CD099093CE098091C3090B
:101D40009091C409A091C509B091C609892B8A2B2D
:101D50008B2B91F120914406309145064091460627
:101D6000509147066091EC027091ED028091EE0275
:101D70009091EF020E94C7306B017C010E942A31D2
:101D80006093B3097093B4098093B5099093B60931
:101D9000C701B6010E94712E6093B7097093B8090C
:101DA0008093B9099093BA091092C3091092C4099B
:101DB0001092C5091092C6098091B3099091B40997
:101DC000A091B509B091B6098F839887A987BA8782
:101DD0008091FC029091FD02A091FE02B091FF0261
:101DE0008B879C87AD87BE874090B7095090B80914
:101DF0006090B9097090BA09C090F802D090F902C9
:101E0000E090FA02F090FB029C01AD016F817885B1
:101E100089859A850E94C7304B015C01A701960114
:101E2000C301B2010E94C7309B01AC01C501B401DE
:101E30000E94942D2091F4023091F5024091F60217
:101E40005091F7020E94C7304B015C01A30192013F
:101E50006B857C858D859E850E94C7302B013C015A
:101E6000A70196016F81788589859A850E94C73080
:101E70009B01AC01C301B2010E94932D2091F0029D
:101E80003091F1024091F2025091F3020E94C7306A
:101E90009B01AC01C501B4010E94942D2091E40284
:101EA0003091E5024091E6025091E7020E94C7306E
:101EB0002091E8023091E9024091EA025091EB0250
:101EC0000E94942D6093CF097093D0098093D1091B
:101ED0009093D209CE0101964AD82091CF09309132
:101EE000D0094091D1095091D20960910C037091B1
:101EF0000D0380910E0390910F030E94C7300E9442
:101F0000482F6B017C0115D48111F6C1C701B601C0
:101F1000CBD38111F1C120E030E040E857E4C701A4
:101F2000B6010E94622F6B017C0120E030E0A90124
:101F30000E946D2E87FFE3C1C701B60190580E9431
:101F4000DF2EEE24FF24E61AF70A809120039091F9
:101F50002103E816F9060CF4D8C18090BC029090D9
:101F6000BD02A090BE02B090BF02C501B401F6DD73
:101F70002B013C0120E030E040E853E40E946D2E4C
:101F80006FEF87FF0EC020E030E0A901C301B2016E
:101F90000E94BC3060E087FD04C0C301B2010E9412
:101FA000DF2E86E004D860919109709192098091AA
:101FB00093099091940958DB6C0190939009809358
:101FC0008F09B701F7FE03C0719561957109072E5E
:101FD000000C880B990B0E940D2F2091100330915B
:101FE000110340911203509113030E94942D8B0111
:101FF0002C016090140370901503E0901603F0908C
:1020000017039B01AC01B301C7010E946D2E87FD30
:1020100012C06090180370901903E0901A03F090BA
:102020001B039801A201B301C7010E94BC3018161E
:1020300014F03801720120911C0330911D0340916E
:102040001E0350911F03C501B4010E94C7309301C4
:10205000A7010E94932D4B015C01E894B7F820E0A2
:1020600030E04FE753E4C501B4010E946D2E87FDB7
:1020700006C0812C912C8FE7A82E83E4B82EB501E1
:10208000A401C601BADA69817A81072E000C880B97
:10209000990B0E940D2F2091000330910103409174
:1020A0000203509103030E94C73020910403309132
:1020B000050340910603509107030E94C730209109
:1020C00008033091090340910A0350910B030E94C9
:1020D000942D2091D8023091D9024091DA0250918A
:1020E000DB020E94C7302091AF093091B0094091C6
:1020F000B1095091B2090E94942D6093AF09709379
:10210000B0098093B1099093B209C090B309D090FF
:10211000B409E090B509F090B6098090F40290906F
:10212000F502A090F602B090F7028091B709909165
:10213000B809A091B909B091BA098F839887A98786
:10214000BA874090F0025090F1026090F2027090D5
:10215000F302A7019601C501B4010E94C7306B8745
:102160007C878D879E87A30192016F817885898501
:102170009A850E94C7309B01AC016B857C858D855B
:102180009E850E94942D6093B3097093B409809347
:10219000B5099093B6092F81388549855A85C501BF
:1021A000B4010E94C7304B015C01A7019601C30135
:1021B000B2010E94C7309B01AC01C501B4010E946D
:1021C000932D6093B7097093B8098093B9099093E0
:1021D000BA0981E090E00E946A2040914406509143
:1021E0004506609146067091470690E080E00E94A7
:1021F00066208090500690905106A0905206B090B4
:10220000530620E030E040E85FEBC501B4010E94D6
:102210006D2E882331F1C0904406D0904506E090A1
:102220004606F0904706A7019601C501B4010E9439
:10223000932D4B015C0120E030E040E054E3C70106
:10224000B6010E94C7309B01AC01C501B4010E94D8
:10225000BC30181634F08CE593E090932F068093F1
:102260002E0680915406882331F08CE593E09093FC
:102270002F0680932E066091480670914906809142
:102280004A0690914B066F5F7F4F8F4F9F4F609331
:1022900048067093490680934A0690934B060E9425
:1022A0000B2F9B01AC0160914C0670914D06809103
:1022B0004E0690914F060E94C7306093440670937B
:1022C000450680934606909347062E960FB6F894DF
:1022D000DEBF0FBECDBFDF91CF911F910F91FF9059
:1022E000EF90DF90CF90BF90AF909F908F907F90B6
:1022F0006F905F904F900895C12CD12C7601C7014B
:10230000B6010E94DF2E7B0120CE8090C00290900B
:10231000C102A090C202B090C30227CE8F929F92BA
:10232000AF92BF92DF92EF92FF920F931F93CF93E2
:10233000DF9384E090E081D1EEE2F6E087E2DF0116
:102340001D928A95E9F780E090E0A0E8BFEB82A3B8
:1023500093A3A4A3B5A38AE097EDA3E2BCE3868F81
:10236000978FA0A3B1A386E99BE7A9EAB6EA848385
:102370009583A683B78387E192E0AEE7B8E08087D4
:102380009187A287B38780E697E6AEEFB8ED8487A2
:102390009587A687B78783E190E7A3E0B9E2808BB2
:1023A000918BA28BB38BC2E2D6E0D383C283A2E12E
:1023B000B6E0B983A88380E793E011969C938E934F
:1023C00013969C938E93129715969C938E931497C5
:1023D00017969C938E93169719969C938E931897A5
:1023E0001B969C938E931A971D969C938E931C9785
:1023F0001F969C938E931E9782E496E09D838C8318
:1024000082E396E09B838A8384E496E09F838E83B5
:10241000A7ECB9E080E1ED0119928A95E9F7C9E8E6
:10242000D9E08EE3DE011D928A95E9F728E036E0D7
:102430008AE0D9011D928A95E9F7AEEFB5E0B58B38
:10244000A48B83E190E011969C938E9386E992E0B1
:1024500013969C938E93129780E792E015969C9327
:102460008E9314978CE192E017969C938E93169717
:1024700088E092E019969C938E931897812C912C6A
:10248000540183948D869E86AF86B88A0E94800709
:10249000DD24D394D98A18A289A29AA2ABA2BCA2A5
:1024A00042E150E063E170E081E090E00E94FB09CE
:1024B000DDA21A8E8B8E9C8EAD8EBE8E90E080E05B
:1024C0000E94AA07DF8E1A8A8B8A9C8AAD8ABE8AEE
:1024D00061E086E00E94CF07DF8A188288E090E002
:1024E000A0E0B0E088879987AA87BB871D82898290
:1024F0009A82AB82BC82E12CF12C8701A801970162
:1025000068E070E080E090E0F3D89F838E83688578
:1025100079858A859B85A8D89F838E836DD8DD8237
:102520008091DC029091DD02A091DE02B091DF0289
:102530008EA39FA3A8A7B9A78AAE9BAEACAEBDAE33
:10254000DF91CF911F910F91FF90EF90DF90BF909F
:10255000AF909F908F90089580919509811103C04D
:1025600081E0809395098091A909811103C081E0E0
:102570008093A9098091A309811103C081E0809310
:10258000A30980919B09811103C081E080939B097D
:1025900080918909811132C081E0809389098091FD
:1025A0008A0990918B09A0918C09B0918D090197AE
:1025B000A105B10519F580918E098823F9F0609184
:1025C00091097091920980919309909194094CD846
:1025D0009093900980938F0940E050E0BA010DD8A4
:1025E0006091910970919209809193099091940959
:1025F0003BD89093900980938F09CBC8089560E0F1
:1026000070E080E89FE7089560E070E080E89FE771
:10261000089560E070E080E89FEF089560E070E06A
:1026200080E89FEF089560E070E080EC9FEF0895F0
:1026300060E070E080EC9FEF0895F5DF6093E309C0
:102640007093E4098093E5099093E609F1DF6093C4
:10265000D7097093D8098093D9099093DA09CFDF0D
:102660006093DF097093E0098093E1099093E20998
:10267000CBDF6093DB097093DC098093DD099093D5
:10268000DE09C7DF6093E7097093E8098093E909E1
:102690009093EA09C3DF6093EB097093EC09809390
:1026A000ED099093EE090895CF92DF92EF92FF9299
:1026B000CF936B017C01AC019B016091DF097091AC
:1026C000E0098091E1099091E2090E946D2EC1E03C
:1026D000882371F0A70196016091E7097091E809DC
:1026E0008091E9099091EA090E946D2E8111C0E064
:1026F0008C2FCF91FF90EF90DF90CF9008950F93A4
:102700001F938B019C010027112720783F7701152B
:10271000110520483F4749F4AB01BC016F7777278B
:1027200081E0452B462B472B09F480E01F910F9148
:102730000895E5CFEF92FF920F931F93CF93DF930E
:10274000EA01F901DC011496ED90FC9015971296C0
:102750004D915C9113974E0D5F1D2881398118961C
:102760000D911C9119970217130730F00D911C91D0
:102770001197012B09F441C08A01021B130BDC01E4
:1027800018968D919C918E199F09800F911F861725
:102790009707DCF1C901860F971F8417950778F416
:1027A0007183608333832283158214821782168299
:1027B00088819981680F791F7983688316C0118396
:1027C000008333832283601B710B7583648390E0E5
:1027D00080E01616170614F49E2D8F2D968387839E
:1027E000D701A60FB71FB983A88380E0DF91CF91EF
:1027F0001F910F91FF90EF90089518968D919C91E5
:10280000821B930B861797075CF681E0EFCFCF9280
:10281000DF92EF92FF92CF93DF936B0184E4869F68
:10282000E001879FD00D1124CB5AD94F8AA99BA9CB
:10283000009721F00E945E3A1BAA1AAA84E48C9D9C
:10284000F0018D9DF00D1124EB5AF94F86A997A93F
:10285000009711F00E945E3A84E48C9DF0018D9DFA
:10286000F00D1124EB5AF94F138A128A168A178A2F
:10287000108E118E128E138E148E158E168E178E4C
:1028800010A211A281E090E093A382A315A214A24A
:1028900016A217A210A611A613A612A615A614A674
:1028A00016A617A610AA11AA13AA12AA15AA14AA44
:1028B00017AA16AA11AE10AE12AE13AE14AE15AE14
:1028C000DF01DE961D921D921D921C921397EE5B06
:1028D000FF4F11821082DF91CF91FF90EF90DF9038
:1028E000CF900895CF93DF93FB01DC016D917C9134
:1028F000DB011696CD91DC918081918123E0880FD8
:10290000991F2A95E1F7AA81BB81A80FB91F8D9164
:102910009C91119724853585220F331FEB016A8125
:102920007B81EB01C20FD31F0990D881C02D149673
:102930002D913C9161E070E0232B11F062E070E09A
:10294000C69F9001C79F300DD69F300D1124A085E2
:10295000B1852A9FB0012B9F700D3A9F700D1124F5
:10296000A481B5812A9FF0012B9FF00D3A9FF00DB5
:1029700011248E0F9F1FFA019183808373836283DA
:10298000DF91CF9108952F923F924F925F926F9275
:102990007F928F929F92AF92BF92CF92DF92EF92EF
:1029A000FF920F931F93CF93DF9300D000D0CDB74A
:1029B000DEB7DC011496ED91FC910190F081E02DE1
:1029C000808591859A838983A281B381BC83AB83FF
:1029D000FB0181909190A190B190C12CD12C7601F6
:1029E000C814D904EA04FB04CCF026960FB6F89478
:1029F000DEBF0FBECDBFDF91CF911F910F91FF9032
:102A0000EF90DF90CF90BF90AF909F908F907F908E
:102A10006F905F904F903F902F9008954480558025
:102A2000668077804085518562857385CF014096A9
:102A30009E838D83A081B1819D0183E0220F331F8E
:102A40008A95E1F7A981BA8112968D919C91D9015D
:102A5000A80FB91F2D903C9011970484F585E02DA7
:102A6000EE0FFF1F8B819C81E80FF91F0190F08111
:102A7000E02D14968D919C91892B41F581E090E099
:102A8000E89F9001E99F300DF89F300D1124249F9D
:102A90008001259F100D349F100D1124249DC0012D
:102AA000259D900D349D900D1124A8016D817E818E
:102AB000820D931D0E94E73AED81FE81E00FF11F28
:102AC0009FEFC91AD90AE90AF90A8ACF82E090E091
:102AD000D7CFCF93DF93DB01AE5DBC4F2C91222388
:102AE00069F024E4269FF001279FF00D1124EB5A92
:102AF000F94FEF0119922A95E9F71C9224E4269FD9
:102B0000F001279FF00D1124EB5AF94F1482158222
:102B1000168217821186108613861286118A108AF1
:102B200017861686DF91CF9172CE2F923F924F92E9
:102B30005F926F927F928F929F92AF92BF92CF924D
:102B4000DF92EF92FF920F931F93CF93DF9300D00A
:102B500000D01F921F92CDB7DEB724E4269FF0016C
:102B6000279FF00D1124EB5AF94F0481158126811E
:102B70003781012B022B032B09F4B7C02A016B010B
:102B80007C0110E000E0812C912C54013F019F0159
:102B9000285F3F4F3C832B83CF0104969E838D8318
:102BA000AB81BC818D919C91ED81FE8140815181F1
:102BB0006281738184169506A606B706E4F10E9429
:102BC0005E3AD3011A968D919C91892B09F07EC0B3
:102BD00084E48C9DD0018D9DB00D1124AB5AB94F6A
:102BE000BC83AB8350968D919C910E945E3AEB81A1
:102BF000FC81868597850E945E3AC701B60107DE93
:102C0000C701B60128960FB6F894DEBF0FBECDBF40
:102C1000DF91CF911F910F91FF90EF90DF90CF90B8
:102C2000BF90AF909F908F907F906F905F904F90EC
:102C30003F902F904ECFFC01E00FF11F92819983BE
:102C4000A381AA839F83A887312C212C24143504C7
:102C500064F089819A810E945E3AEFEF8E1A9E0A93
:102C6000AE0ABE0A0C5F1F4F9BCFAF81B885ED91B6
:102C7000FD91B887AF83309759F0848195810E9488
:102C80005E3AEF81F8853297808191810E945E3AA9
:102C9000BFEF2B1A3B0ADACF800F911FFC01848112
:102CA00095810E945E3A2B813C812F5F3F4F3C8390
:102CB0002B83025F1F4FF501808191812B813C8125
:102CC000241535054CF30E945E3A82CF10E000E0F7
:102CD0001C821B8224E42C9DC0012D9D900D11248B
:102CE000DC01A15AB94F5D01E6CF28960FB6F894E2
:102CF000DEBF0FBECDBFDF91CF911F910F91FF902F
:102D0000EF90DF90CF90BF90AF909F908F907F908B
:102D10006F905F904F903F902F90089524E4269FEE
:102D2000F001279FF00D1124EB5AF94F8289938906
:102D30000497029758F485E090E0938B828B8FEF95
:102D40009FEFDC01828F938FA48FB58F08952F9210
:102D50003F924F925F926F927F928F929F92AF922B
:102D6000BF92CF92DF92EF92FF920F931F93CF9378
:102D7000DF93CDB7DEB7AA970FB6F894DEBF0FBECC
:102D8000CDBF9AA389A37E8B6D8B1A01098B1A8BF9
:102D90002B8B3C8B84E429893A89829F6001839F35
:102DA000D00C112486010B5A194F89899A89AB8955
:102DB000BC89F80180839183A283B383AB01BC01FA
:102DC000CD01B3DED601A75AB94F84E0F1010190DD
:102DD0000D928A95E1F7F4E02F0E311C64E070E06B
:102DE000D80114968D919C910E94A839F801918781
:102DF0008087892B09F0F5C04D895E8969897A89B8
:102E00008B899C8992DE81E0AA960FB6F894DEBF8A
:102E10000FBECDBFDF91CF911F910F91FF90EF902B
:102E2000DF90CF90BF90AF909F908F907F906F90EA
:102E30005F904F903F902F900895A9A5BAA58D91CE
:102E40009C91E98DFA8DE80FF91FF88FEF8BD10176
:102E50008D919C91880F991FA9A1BAA1ED91FC9128
:102E6000E80FF91F80819181EF89F88D918380832C
:102E7000D10114962D913D914D915C9117972BA303
:102E80003CA34DA35EA362E070E08D899E890E9401
:102E9000A839EF89F88D93838283892B09F4ACCF0D
:102EA000F8E02F0E311C412C512C32012BA13CA1FA
:102EB0004DA15EA142165306640675069CF02B8D4B
:102EC0003C8D4D8D5E8D2F5F3F4F4F4F5F4F2B8F52
:102ED0003C8F4D8F5E8F498D5A8D4C5F5F4F5A8F5F
:102EE000498F90C0610124E0C20ED11CD101ED9048
:102EF000FC90EE0CFF1CEF89F88D82819381E80E27
:102F0000F91E68E070E081E090E00E94A8398C0131
:102F1000D7018D939C93892B09F46ECF84E0F60141
:102F2000D80101900D928A95E1F7B8E02B0E311C83
:102F3000F80180819181A281B381181619061A06C1
:102F40001B06DCF464E070E00E94A839D8011596F5
:102F50009C938E931497892B09F44ECFD12CC12CBE
:102F6000812C912C5401F80180819181A281B3813F
:102F700088169906AA06BB0634F0FFEF4F1A5F0ABF
:102F80006F0A7F0A93CFF801E480F580EC0CFD1CFA
:102F900080E1F101DE01119601900D928A95E1F731
:102FA000F0E12F0E311CA701BE016F5F7F4FA9A179
:102FB000BAA114968D919C9195DCF8018681978138
:102FC000D70112962D913C91820F931F9783868390
:102FD000BFEF8B1A9B0AAB0ABB0AE4E0CE0ED11CF2
:102FE000C2CF1A8E198E1B8E1C8E1D8E1E8E18A39C
:102FF0000F8FA8014C5F5F4F58A74FA3C8010896D9
:103000009AA789A7EFA1F8A580819181A281B381B8
:103010002B8D3C8D4D8D5E8D281739074A075B0738
:103020000CF40BCF6EE070E08D899E890E94A83968
:10303000AF8DB8A11B969C938E931A97B12CA12C9F
:10304000D12CC12CF12CE12C24E4E989FA892E9FA2
:10305000C0012F9F900D11249C01215A394F388FA8
:103060002F8B88248394912C4D895E89C416D506B4
:1030700054F184E4A989BA898A9F80018B9F100D3D
:1030800011240B5A194FF80115861486C70133E035
:10309000880F991F3A95E1F70E94C239D8015196DD
:1030A0009C938E935097892B09F4A6CEC701880F65
:1030B000991F0E94C239F80197878687892B09F4E6
:1030C0009BCE80E0A1CED1014D905D906D907D9022
:1030D0001D0177FC91CEEF89F88D008111810A0DD9
:1030E0001B1DD80111969C928E92411451046104CB
:1030F000710429F1C2010E94C239F80195838483C9
:10310000892B09F479CEF80153824282848195811A
:1031100097838683918780871386128681E090E06B
:1031200045284628472811F490E080E0E80EF91E73
:10313000FFEFCF1ADF0A2EE0A20EB11C95CF159635
:103140001C921E921497DFCF2F923F924F925F9264
:103150006F927F928F929F92AF92BF92CF92DF92A7
:10316000EF92FF920F931F93CF93DF93CDB7DEB70C
:103170006A970FB6F894DEBF0FBECDBF9E8B8D8BC6
:1031800049015A0184E4829F7001839FF00C11244D
:1031900097012B5A394F6901FB0180819181F90117
:1031A000958B848BD701A559B94FFB01349684E0E8
:1031B00001900D928A95E1F7D701A159B94FFB0112
:1031C000389684E001900D928A95E1F7D701AD58C9
:1031D000B94FFB013C9684E001900D928A95E1F78E
:1031E000D701AD57B94FFB01709684E001900D9265
:1031F0008A95E1F78B010C5E1F4FF90186A597A513
:10320000A0A9B1A918161906DCF5880F991F880F17
:10321000991F0E94C239F60193AB82AB892B09F446
:10322000D3C0312C212C412C512C32019601225D2E
:103230003F4F388F2F8BC601C2969A8F898FF49695
:10324000FC8BEB8BB301A2012FEF421A520A620AE8
:10325000720AEF89F88D80819181A281B38148172C
:1032600059076A077B070CF47BC0F60184A995A96E
:103270000E94C239F60197AB86AB892B09F4A4C032
:10328000F80180819181A281B38124E4289DF0011D
:10329000299DF00D1124EB5AF94FAC01BD014D7F72
:1032A00021E030E0452B462B472B11F030E020E0A9
:1032B00033A322A324E4289DF001299DF00D1124BD
:1032C000EB5AF94F0197A109B10921E030E00297CB
:1032D000A105B10510F030E020E035A324A3D7010B
:1032E000A558B94FF801349684E001900D928A9563
:1032F000E1F784E4889DF001899DF00D1124EB5ADB
:10330000F94F868D978DA0A1B1A1B7FF58C0B09598
:10331000A095909581959F4FAF4FBF4F82AF93AFD0
:10332000A4AFB5AF168E178E10A211A280E06A96D8
:103330000FB6F894DEBF0FBECDBFDF91CF911F91C6
:103340000F91FF90EF90DF90CF90BF90AF909F9044
:103350008F907F906F905F904F903F902F90089547
:10336000E98DFA8D808191819C01220D331D3A8B6C
:10337000298B80E1F801DE01119601900D928A956A
:10338000E1F7005F1F4F49895A89BE016F5F7F4F88
:10339000ED89FE8984819581A5DAEB89FC8980819C
:1033A0009181E989FA8922813381820F931FEB8908
:1033B000FC8991838083F4E02F0E311C43CF12AE41
:1033C00013AE14AE15AEB2CFC501B40120DA81E060
:1033D000AECFCF92DF92EF92FF92CF93DF93109216
:1033E000DD0624E4269FF001279FF00D1124EB5AFF
:1033F000F94F15A614A630E020E0D12CC12CDF0136
:103400001A96C1E0D0E0C416D506F4F024E4269F55
:10341000F001279FF00D1124EB5AF94F13A612A6C5
:1034200011AE10AEDF01DE961D921D921D921C9210
:10343000139782E090E0938B828BDF91CF91FF9086
:10344000EF90DF90CF900895ED91FC911197E20FEE
:10345000F31FE280F3801E141F0454F4E480F5800F
:10346000F782E682F186E08613861286D183C083D6
:10347000EFEFCE1ADE0A225F3F4FC5CF24E4269F2E
:10348000F001279FF00D1124EB5AF94F138A128A8D
:103490004CCB24E4269FF001279FF00D1124EB5A1A
:1034A000F94F8289938981309105C8F08530910563
:1034B00018F0059769F008958FEF9FEFDC01828F78
:1034C000938FA48FB58F85E090E0938B828B0895C6
:1034D0008FEF9FEFDC01828F938FA48FB58F0895BC
:1034E00024E4249FD001259FB00D1124AB5AB94F7D
:1034F0002EE0AC01249FC001259F900D11241A9647
:10350000ED91FC91E80FF91F81E08093DD06828543
:10351000938591878087408551852681378181E019
:1035200090E04217530711F090E080E09183808390
:1035300008952F923F924F925F926F927F928F9257
:103540009F92AF92BF92CF92DF92EF92FF920F9332
:103550001F93CF93DF93CDB7DEB7C055D1090FB618
:10356000F894DEBF0FBECDBF9EAF8DAF4BA75CA75B
:103570006DA77EA76801790184E4809FF001819F97
:10358000F00D1124EB5AF94F2285338523963FAF76
:103590002EAF239782899389029761F486A597A518
:1035A000A0A9B1A9892B8A2B8B2BC9F584E090E0C7
:1035B000938B828B84E48C9DF0018D9DF00D112402
:1035C000EB5AF94F828993898230910509F037C20D
:1035D00082AD93ADA4ADB5AD22242394312C181641
:1035E00019061A061B060CF42FC2C05BDF4F0FB67C
:1035F000F894DEBF0FBECDBFDF91CF911F910F9129
:10360000FF90EF90DF90CF90BF90AF909F908F9002
:103610007F906F905F904F903F902F900895848996
:1036200095894DAD5EAD8417950721F606A917A9BA
:1036300018AE1FAA1BAA1CAA1DAA1EAA1F01CF01F1
:103640008E9627969FAF8EAF2797DF01D296299649
:10365000BFAFAEAF2997F8962B96FFAFEEAF2B9783
:1036600091012A5D3F4F2D963FAF2EAF2D97A101BF
:103670004E5D5F4F2F965FAF4EAF2F970A976196C3
:103680009FAF8EAF61972796EEADFFAD27978081F4
:103690009181A281B3812BA93CA94DA95EA92817CC
:1036A00039074A075B0744F081E090E0D101D996E1
:1036B0009C938E93D8977ECF2996AEADBFAD2997B8
:1036C000ED91FC912FA938ADE20FF31F4281538198
:1036D0005AAF49AF50815FAF818121968FAF21975B
:1036E0002B96AEADBFAD2B978D919C91892B21F17F
:1036F0002D96EEADFFAD2D9780809180A280B38096
:103700001AAB09AB5FA72196FFAD2197F8AB29ADA6
:103710003AAD369527953695279525963FAF2EAF2E
:1037200025971CAE1BAE2596AEADBFAD2597EBAD74
:10373000FCADEA17FB070CF149AD5AAD6FAD219610
:103740007FAD2197C8010E94E73A89AD9AAD8C7F81
:10375000080F191F2BA93CA94DA95EA92F5F3F4F48
:103760004F4F5F4F2BAB3CAB4DAB5EAB4FA958AD52
:103770004C5F5F4F58AF4FAB86CF2F96AEADBFAD0E
:103780002F978D919C91892B71F1EFA5F8A940801D
:10379000518062807380A3019201C501B4010E942F
:1037A0006D2E181664F0A9A9BAA92D913D914D91DD
:1037B0005C91C501B4010E94BC301816BCF1A30194
:1037C0009201C501B4010E946D2E87FF0CC0E9A9CA
:1037D000FAA92081318142815381C501B4010E943F
:1037E0006D2E882319F16196AEADBFAD61978D91B5
:1037F0009C91892B09F445C0EFA5F8A94080518020
:1038000062807380A3019201C501B4010E94BC30A3
:1038100018161CF5A9A9BAA92D913D914D915C915D
:10382000C501B4010E946D2E18165CF184E48C9DD4
:10383000F0018D9DF00D1124EB5AF94F868D978D77
:10384000A0A1B1A1892B8A2B8B2B69F183E090E099
:10385000938B828B81E090E02CC0A3019201C50183
:10386000B4010E946D2E81110CC0E9A9FAA9208132
:10387000318142815381C501B4010E946D2E87FDC3
:10388000D5CF2BAD3CAD2F5F3F4F3CAF2BAF49A900
:103890005AA94C5F5F4F5AAB49AB8FA598A90496C4
:1038A00098AB8FA740CF84E090E0938B828B86AD5E
:1038B00097AD93A782A77ECEEBADFCAD80819181C1
:1038C000F401EE0FFF1FEE0FFF1FE80FF91FA0819D
:1038D000B1818C9181110AC0FFEF8F1A9F0AAF0A44
:1038E000BF0A8DA29EA2AFA2B8A68FC18330A1F35A
:1038F0000280F381E02D2FA938ADE20FF31F808104
:1039000091819AAB89AB892B39F34F5F5F4F6F4F32
:103910007F4F49875A876B877C879E01235E3F4F85
:10392000AE01475D5F4F64E070E0C8010E949A13EA
:103930008111D0C18D819E81AF81B8850496A11D72
:10394000B11D8D839E83AF83B8874D8D5E8DBE0183
:103950006B5D7F4F8F8D98A10E94E73A8BA19CA150
:10396000009761F06D8D7E8DA5E2B0E0AC0FBD1FBC
:103970006A0F7B1F49A15AA10E94E73A1CAA1BAA01
:10398000412C512C3201E9A9FAA980819181A281AF
:10399000B381481659066A067B060CF09DCFE9A94B
:1039A000FAA9848195812BA93CA9280F391F38AB2E
:1039B0002FA7D90112966D917C919E01235E3F4FF6
:1039C000AE01475D5F4FC8010E949A13811182C109
:1039D000EFA5F8A982819381092E000CAA0BBB0BDD
:1039E0004D815E816F817885840F951FA61FB71F5B
:1039F0008D839E83AF83B887608171814D8D5E8D8D
:103A00008F8D98A10E94E73A8BA19CA1009761F04D
:103A1000AFA5B8A96D917C912D8D3E8D620F731F5E
:103A200049A15AA10E94E73ABFEF4B1A5B0A6B0A01
:103A30007B0AEBA9FCA93496FCABEBABA4CF312CF1
:103A4000212C049709F0D1CD8EE0EDADFEAD8E9F17
:103A500080018F9F100D112423962EAD3FAD23972B
:103A6000020F131FD80112964D915C9113974115C7
:103A7000510509F4BACD16968D919C919AA789A704
:103A800080E1FE013196DF011D928A95E9F7C98A2E
:103A9000DA8AEB8AFC8A2114310409F458C084E4E0
:103AA0008C9DF0018D9DF00D1124EB5AF94FDF0133
:103AB000DE968D909D90AD90BC9082AD93ADA4ADFF
:103AC000B5AD88169906AA06BB0609F040C0F801F4
:103AD000848195810084F185E02D349624E0DE0117
:103AE000559601900D922A95E1F72D893E89285F20
:103AF0003F4F3E8B2D8BD80118966D917C91199775
:103B0000260F371F19963C932E93189718962D91D0
:103B10003C911997480F591F241B350B37FD06C0E0
:103B2000820F931F19969C938E93189784E48C9D13
:103B3000F0018D9DF00D1124ED56F94FB1E08B1A77
:103B40009108A108B10880829182A282B3829E016D
:103B50002B5E3F4FAE01475D5F4F64E170E0C801EF
:103B60000E949A138111B6C08CE090E0A0E0B0E012
:103B70008D839E83AF83B8879E01235E3F4FAE0146
:103B8000475D5F4F64E070E0C8010E949A138111A5
:103B9000A1C080E190E0A0E0B0E08D839E83AF8380
:103BA000B8874D8D5E8DBE01655D7F4F8F8D98A16D
:103BB0000E94E73A8BA19CA1009761F06D8D7E8DEC
:103BC000EBE2F0E0EC0FFD1F6E0F7F1F49A15AA141
:103BD0000E94E73A1DA21EA21FA218A62DAD3EAD5F
:103BE000220F331F38AF2FAB24E42C9DC0012D9D35
:103BF000900D11248B5A994FAC014C5F5F4F5AAF17
:103C000049AFDC011896BCAFABAF8DA09EA0AFA0B2
:103C1000B8A449855A856B857C85E9ADFAAD80816C
:103C20009181A281B38188169906AA06BB060CF47D
:103C300043CE452B462B472B09F4D7CC8AE190E0A5
:103C4000A0E0B0E089839A83AB83BC832DAD3EAD09
:103C5000C901330FAA0BBB0B8D879E87AF87B88B2B
:103C60004D895E89BE016F5F7F4F8F89988D0E945D
:103C7000E73A8B8D9C8D009761F06D897E8941E0DC
:103C800050E04C0F5D1F640F751F498D5A8D0E94C7
:103C9000E73A89A59AA5D80117969C938E93169713
:103CA00011961C921E92232809F49FCC84E48C9DCB
:103CB000F0018D9DF00D1124ED56F94F8081918119
:103CC000A281B3810196A11DB11D80839183A2833E
:103CD000B3838BCC232809F088CC84E48C9DF0013D
:103CE0008D9DF00D1124EB5AF94F81E090E095A7DE
:103CF00084A785E090E0938B828B77CCCF92DF9284
:103D0000EF92FF920F931F9324E4269FF001279FC9
:103D1000F00D1124EB5AF94F228933892115310511
:103D200009F452C06B017C0121303105B1F482A548
:103D300093A59C012F5F3F4F33A722A7092E000CAC
:103D4000AA0BBB0B028D138D248D358D8017910727
:103D5000A207B307C9F5C7013CDB84E48C9DF001E1
:103D60008D9DF00D1124EB5AF94F828993890397A9
:103D700059F582A593A59C012F5F3F4F33A722A73A
:103D8000092E000CAA0BBB0B468D578D60A171A1AB
:103D900084179507A607B707BCF086AD97AD93A724
:103DA00082A784E090E0938B828B82AD93ADA4AD2B
:103DB000B5AD181619061A061B0634F4EE5BFF4F54
:103DC00081E090E0918380831F910F91FF90EF90AD
:103DD000DF90CF90089524E4269FF001279FF00DF7
:103DE0001124EB5AF94F828993890497B1F482A583
:103DF00093A5019693A782A7092E000CAA0BBB0BD3
:103E000046895789608D718D84179507A607B70776
:103E100021F485E090E0938B828B08952F923F925E
:103E20004F925F926F927F928F929F92AF92BF92CA
:103E3000CF92DF92EF92FF920F931F93CF93DF9376
:103E4000CDB7DEB72E970FB6F894DEBF0FBECDBF4D
:103E5000DC0149835A836B837C83290184E4849F3A
:103E6000F001859FF00D1124EB5AF94F2288338819
:103E7000C1010497029708F0D5C011961C921E92BA
:103E800013961C921E92129715861486912C812CE3
:103E900090E080E08F019F01205F3F4F38872F83A4
:103EA0003F013CE0630E711CBF01625F7F4F7A8768
:103EB00069873A96FC87EB87EF81F885208131810D
:103EC000F30140815181E985FA85A080B180841594
:103ED00095050CF445C011965C934E9313963C9354
:103EE0002E9312971596BC92AE921497452BF9F427
:103EF000F5E02F163104D9F41092DD06F801828D19
:103F0000938DA48DB58DAE014F5F5F4F64E070E07F
:103F10008F3F9F4FAF4FBF4F09F079C080E290E0D5
:103F2000F6D469817A818B819C81A201A7DA2E96D1
:103F30000FB6F894DEBF0FBECDBFDF91CF911F91BA
:103F40000F91FF90EF90DF90CF90BF90AF909F9038
:103F50008F907F906F905F904F903F902F9008953B
:103F6000EB85FC8560817181FB01E80DF91DFE8701
:103F7000ED8760817181672B89F5E084F18462812E
:103F800073817E836D83668177816A01E3E0CC0C67
:103F9000DD1CEA95E1F72C0D3D1D440F551F4A0D20
:103FA0005B1DFA0191838083F301408151814F5F52
:103FB0005F4F51834083F901F382E282ED85FE85F4
:103FC00073876287E616F70670F46E197F09F901A8
:103FD0007183608315821482178216820196FEE037
:103FE0008F0E911C69CFED85FE85C480D5804D81F3
:103FF0005E814C0D5D1D4E195F09F90151834083AF
:104000006C197D0975836483D782C682E7CF8FE1FF
:1040100090E07DD4F80113A612A681E090E0938B86
:10402000828B85CF1586148611961C921E9213964C
:104030001C921E9212977BCFEF92FF920F931F93C9
:10404000CF93DF937C018B01EA013DD581111BC029
:1040500080912403909125030497F9F4DF91CF9187
:104060001F910F91FF90EF90089528ED38EB45E0F8
:1040700050E060E070E0CB01DCD7AE01B801C701D1
:10408000E6D7C801AFD78091DE069091DF06892B75
:10409000F9F68881882349F3DBCF83E090E09093A1
:1040A000250380932403DACFCF93DF932091240359
:1040B000309125032430310531F0EB01C8D7CE0112
:1040C000DF91CF918FC7DF91CF9108950C94252C6C
:1040D0000C941A2C0C94082C95C70C94AC2B0895B6
:1040E00070E060E090E080E0C9C40895AF92BF92B4
:1040F000CF92DF92EF92FF920F931F93CF93DF93B4
:104100001F921F92CDB7DEB75C018B0169017A0166
:1041100090E080E0C114D104E104F10469F40F904F
:104120000F90DF91CF911F910F91FF90EF90DF9053
:10413000CF90BF90AF9008959C2D8D2DC114D104C8
:1041400021E0E206F10410F09FEF8FEF9E012F5F58
:104150003F4F492F582FB801C5010E94B42C8F3F03
:104160009807E9F229813A81C21AD30AE108F108D5
:10417000020F131FCFCF40E855E260E070E090E0FF
:1041800080E000C08130910579F01CF4892B39F072
:1041900008958230910561F0039771F0089526E04B
:1041A00085E197E00C94993626E082EB97E0FACF10
:1041B00026E08FE498E0F6CF26E08CEE98E0F2CF90
:1041C0001F920F920FB60F9211240BB60F922F93DE
:1041D0003F934F935F936F937F938F939F93AF938F
:1041E000BF93EF93FF938FE89DEF9093250180930A
:1041F00024010E94EE2CFF91EF91BF91AF919F910E
:104200008F917F916F915F914F913F912F910F907F
:104210000BBE0F900FBE0F901F9018958FE89DEF6B
:104220009093250180932401A3E7B0E08C918E7FC9
:104230008C93E0E2F1E080818C7F8083E1E2F1E029
:104240008081877E808380818460808380818C7F71
:1042500080838C9181608C93089581E008958F9282
:104260009F92AF92BF92CF92DF92EF92FF920F9305
:104270001F93CF93DF935C017B018A01C1E0D0E003
:10428000CE15DF05CCF081E0F5018083B801C701D0
:104290000E944F2CF5019283818390E080E0DF91B2
:1042A000CF911F910F91FF90EF90DF90CF90BF9033
:1042B000AF909F908F9008956E018FEFC81AD80A23
:1042C000FE01EE0FFF1FE00FF11F8080918081142F
:1042D000910469F06FE774E0C4010E94F73A892BFA
:1042E00041F4CC0FDD1FC00FD11F19821882E601E7
:1042F000C7CF62E874E0C4010E94F73A892BB9F78E
:10430000EC14FD04A1F36E01E2E0CE0ED11CCC0F43
:10431000DD1FC00FD11F198218821B821A82E7CFBE
:1043200080EE96E0089580E008950F931F93CF9359
:10433000DF938B01BA01E901198218829801012EDD
:10434000000C440B550BFC0181819281CFDE01965C
:1043500041F01983088380E0DF91CF911F910F9185
:10436000089581E0F9CF0F931F93CF93DF931F92AE
:104370001F92CDB7DEB7FB018A01B9019E012F5F05
:104380003F4FAF01FC01818192810E94662C019612
:1043900069F089819A81F8019183808380E00F9090
:1043A0000F90DF91CF911F910F91089581E0F7CF8A
:1043B000FC01808108950895089581E0FB018083C8
:1043C00080E008950895109208070895FC01818106
:1043D00092810C94472CCF93DF9300D000D000D073
:1043E0001F92CDB7DEB7B0E0A0E089839A83AB839C
:1043F000BC83CB01770FAA0BBB0B8D839E83AF834E
:10440000B8879E01275F3F4FAE014F5F5F4F68E067
:1044100070E08091F7069091F80687DF811110C057
:1044200081E029853A852830310509F480E02A9613
:104430000FB6F894DEBF0FBECDBFDF91CF910895C8
:1044400081E0F5CF0F931F93CF93DF931F921F92BD
:10445000CDB7DEB78B019E012F5F3F4FAC0180913E
:10446000F7069091F80661DF81110EC081E0298185
:104470003A812017310709F480E00F900F90DF9107
:10448000CF911F910F91089581E0F7CFCF93DF93E4
:10449000EC011092FB061092FA0610920707109298
:1044A0000607AC0160E070E0CB010E943E1AAE014D
:1044B00061E070E080E090E00E943E1A8091F70693
:1044C0009091F806DF91CF917DCF4F925F926F92DE
:1044D0007F928F929F92AF92BF92CF92DF92EF9294
:1044E000FF920F931F93CF93DF931F921F92CDB72D
:1044F000DEB78C017C0197FF03C087E0E80EF11C5A
:1045000023E0F594E7942A95E1F7C80168E070E0AC
:104510000E9457396C010E5F1F4F8091F5069091F4
:10452000F60680179107D4F48091F3069091F40673
:10453000009731F00E945E3A1092F6061092F5064E
:10454000C8010E94C2399093F4068093F306892B28
:1045500009F482C01093F6060093F50610E000E01F
:1045600047C1412C512C3201B12CA12C9501245072
:10457000394FAE014F5F5F4F61E070E08091F70609
:104580009091F806F0DE811149C0EFEF4E1A5E0AF5
:104590006E0A7E0AF0E94F16FFE55F06F1E06F064E
:1045A000710444F060910607709107078DEE90E06A
:1045B00012DFD7CF89819A81A80EB91E8AE0A8168A
:1045C000B10409F043C049E050E070E060E08CEFD6
:1045D00096E00E94E02C60910607709107078823FF
:1045E00091F18091040790E08617970781F4BC0150
:1045F0008EEE90E0F0DE809106079091070701961D
:10460000992790930707809306070F5F1F4F0E159A
:104610001F050CF4A6CFCD2809F07CC090E080E007
:104620000F900F90DF91CF911F910F91FF90EF901E
:10463000DF90CF90BF90AF909F908F907F906F90C2
:104640005F904F9008958FEE90E0B2CFEAE0AE1603
:10465000B1040CF48BCFDBCF10E000E0D8CF0A30F0
:10466000110531F549E050E070E060E08CEF96E034
:104670000E94E02C60910607709107078823A9F03B
:104680008091040790E08617970741F6BC018EEEF3
:1046900090E0A1DE80910607909107070196992787
:1046A0009093070780930607B9CF8FEE90E02BC059
:1046B0000A3011050CF0B2CF98012450394FAE01E9
:1046C0004F5F5F4F61E070E08091F7069091F806D0
:1046D0004ADE8111A3CF89819A81080F191FFFEF4C
:1046E000CF1ADF0AEF0AFF0A80E9C8168FE5D8065D
:1046F00081E0E806F1040CF4B2CF609106077091F6
:1047000007078DEE90E067DE10E000E0C12CD12CB1
:104710007601D2CFC12CD12C760110E000E0CCCFB5
:10472000412C512C3201B12CA12C480193E0880C72
:10473000991C9A95E1F72091F3063091F406C50192
:10474000880D991D280F391FAE014F5F5F4F61E043
:1047500070E08091F7069091F80605DE81115ECF3A
:10476000EFEF4E1A5E0A6E0A7E0A6091060770919C
:1047700007078DEE90E0F0E94F16FFE55F06F1E0E8
:104780006F0671040CF043C089819A81A80EB91E8E
:104790008AE0A816B10409F041C049E050E0B40134
:1047A0008091F3069091F4060E94E02C6091060738
:1047B00070910707882349F18091F3069091F406E0
:1047C000880E991EF401808590E08617970781F482
:1047D000BC018EEE90E0FFDD809106079091070707
:1047E0000196992790930707809306070F5F1F4F45
:1047F0000E151F050CF494CFC114D10409F081C02B
:104800008091F3069091F4060BCF8FEE90E0E3DDFC
:10481000412C512C3201B12CA12C8DCFFAE0AF16D6
:10482000B1040CF488CFE4CF8FEE90E0D4DDF12C0E
:10483000E12C812C912C540197012450394FAE0169
:104840004F5F5F4F61E070E08091F7069091F8064E
:104850008ADD8111E3CE8FEF881A980AA80AB80A78
:1048600060910607709107078DEE90E0E0E98E16E3
:10487000EFE59E06E1E0AE06B104C4F689819A81B7
:10488000E80EF91EFAE0EF16F104A9F549E050E050
:1048900070E060E08CEF96E00E94E02C60910607EB
:1048A00070910707882309F4BFCF8091040790E037
:1048B0008617970709F0A4CFBC018EEE90E08BDD40
:1048C00083E0000F111F8A95E1F78091F306909124
:1048D000F406A6016CEF76E0800F911F0E94E73A84
:1048E00080910607909107070196992790930707F3
:1048F0008093060785CF8AE0E816F1040CF49CCF7C
:104900007FCF812C912C5401F12CE12C95CFCF92AB
:10491000DF92EF92FF920F931F93CF93DF931F923B
:10492000CDB7DEB76C017B018A01452B39F0AB01B5
:1049300070E060E0C8010E94DC2C8983B701C601E9
:104940004ADD81110DC00115110551F0B701C801F3
:1049500079DD811105C061E070E0CE01019672DD64
:104960000F90DF91CF911F910F91FF90EF90DF900B
:10497000CF900895CF92DF92EF92FF92CF93DF9383
:1049800000D000D01F921F92CDB7DEB76B01F12C83
:10499000E12CC982DA82EB82FC822D833E834F8335
:1049A0005887AE014F5F5F4F68E070E0B0DF289638
:1049B0000FB6F894DEBF0FBECDBFDF91CF91FF9051
:1049C000EF90DF90CF9008958F929F92AF92BF9219
:1049D000CF92DF92EF92FF920F931F93CF93DF93CB
:1049E0007C01EB01CA01690170DD0097B1F42FEF82
:1049F0003FEFA90161E070E0C701BCDFC1E08C2F8F
:104A0000DF91CF911F910F91FF90EF90DF90CF90AA
:104A1000BF90AF909F908F900895FC0181909190EE
:104A2000A190B190BF01FCE1EF16F10479F4A5016A
:104A30009401CE010E94A418C82FA50194018823D7
:104A400069F061E070E0C70195DFD9CF950184017D
:104A5000AB01B601CE010E94A716EECF70E060E078
:104A6000C701DF91CF911F910F91FF90EF90DF90E1
:104A7000CF90BF90AF909F908F907CCF0F931F935C
:104A8000CF93DF93EC018B014BDC9093F80680937E
:104A9000F7060097A9F0A801BE01E1DBEC01892B24
:104AA00049F08091F7069091F80685DC1092F8069F
:104AB0001092F706CE01DF91CF911F910F910895CB
:104AC000CEE8D4E0EECF8091F7069091F80670CC56
:104AD0002F923F924F925F926F927F928F929F920E
:104AE000AF92BF92CF92DF92EF92FF920F931F93FC
:104AF000CF93DF93CDB7DEB769970FB6F894DEBFDB
:104B00000FBECDBF2091FB062223F1F05B8B4A8BB9
:104B10006E877F87888B998B9A01AB01BC01CE0190
:104B200001967C017BD910E048E0242E312CE88EE0
:104B3000F98E89819A81181619060CF450C2112336
:104B400019F08A899B89A2DC69960FB6F894DEBFBA
:104B50000FBECDBFDF91CF911F910F91FF90EF90CE
:104B6000DF90CF90BF90AF909F908F907F906F908D
:104B70005F904F903F902F900895EB81FC818C8542
:104B80009D8533E0880F991F3A95E1F7E80FF91FEB
:104B9000808191819093F2068093F1062481358182
:104BA000428153815093F0064093EF06468157812E
:104BB0005093EE064093ED06820F931F9C01990FD0
:104BC000440B550B2C8B3D8B4E8B5F8B812C912C8A
:104BD00054018C899D89AE89BF8988169906AA06D9
:104BE000BB0638F18C859D85880F991FED81FE816C
:104BF000E80FF91F4E855F856889798980819181E9
:104C00000E94701AAC85BD851196BD87AC878981DD
:104C10009A81EC85FD85E817F9070CF4AECF2A8957
:104C20003B894E855F8568897989888D998DF6D80D
:104C300080CF1F826091F1067091F206CB01072EA2
:104C4000000CAA0BBB0B84017501640134E0C30E98
:104C5000D11CE11CF11CC816D906EA06FB0608F0B7
:104C6000B3C02091EF063091F006A4014C5F5F4F76
:104C7000240F351FF901C080D12CF12CE12C240127
:104C80003501F5E04F0E511C611C711C4816590688
:104C90006A067B0608F0A3C02091EF063091F0066B
:104CA000F8013596E20FF31F2081D22A2401350145
:104CB00026E0420E511C611C711C481659066A06FA
:104CC0007B0608F097C02091EF063091F006F801BE
:104CD0003696E20FF31F2081E22A2401350137E0E6
:104CE000430E511C611C711C481659066A067B064E
:104CF00008F08BC02091EF063091F006F80137964E
:104D0000E20FF31F208126013701722A7501640129
:104D100048E0C40ED11CE11CF11C8C159D05AE05AC
:104D2000BF0508F41DC188169906AA06BB0608F03F
:104D300077C08091EF069091F006800F911F68E098
:104D400070E080DBE091F106F091F2069F010F2EFA
:104D5000000C440B550BD301C2018C0D9D1DAE1DE3
:104D6000BF1D281739074A075B0708F478C0C21629
:104D7000D306E406F50608F05DC08091EF06909139
:104D8000F0069801285F3F4F820F931FB2015ADB54
:104D90008091F1069091F206AC01092E000C660B91
:104DA000770BC416D506E606F70608F04DC0085F77
:104DB0001F4F8091EF069091F006800F911FA20186
:104DC00070E060E0F9D5A7C044E050E0461B570B07
:104DD000480D591D2091ED063091EE0649CFE5E0D2
:104DE000F0E0E61BF70BE00FF11F2091ED0630918C
:104DF000EE0658CFE6E0F0E0E61BF70BE00FF11F00
:104E00002091ED063091EE0664CFE7E0F0E0E61B7E
:104E1000F70BE00FF11F2091ED063091EE0670CFF9
:104E20009801261B370B8091ED069091EE06820FBC
:104E3000931F85CF91012E1B3F0B200F311F8091B7
:104E4000ED069091EE06A0CFD101A81BB90BCD01C4
:104E5000080F191F8091ED069091EE06AECFBF01AD
:104E600068507109601B710BC216D306E406F50683
:104E700008F062C08091EF069091F0069801285FDB
:104E80003F4F820F931FDEDA8091F1069091F20678
:104E9000B101681B790B600F711F640D751D809146
:104EA000ED069091EE06CEDA8091F1069091F20631
:104EB000AC0148505109FA01E01BF10BAC01092E7D
:104EC000000C660B770BC416D506E606F70608F04D
:104ED0003DC08091EF069091F0069801285F3F4F0A
:104EE000820F931FAF0170E060E066D58F83209141
:104EF000F1063091F206F101E21BF30B9F01200F46
:104F0000311F240D351D50E040E0682F8091ED06E3
:104F10009091EE063DD58F8361E070E0CE0107965B
:104F200091DA182F38E0430E511C611C711C840C5F
:104F3000951CA61CB71C4DCE91012E1B3F0B200FBC
:104F4000311F8091ED069091EE069BCF9101281BB9
:104F5000390B200F311F8091ED069091EE06C0CFE6
:104F600088169906AA06BB0668F5601B710B80912E
:104F7000EF069091F006800F911F64DA8091F106A0
:104F80009091F206B101681B790B600F711F640DDF
:104F9000751D8091ED069091EE0654DA8091F10630
:104FA0009091F206AC01092E000C660B770BC4162B
:104FB000D506E606F70608F4FACE9101281B390B50
:104FC000C90146CFC801861B970B2091ED06309191
:104FD000EE06B201685F7F4F820F931FDECF1D8602
:104FE0001C8615CECF93DF93EC01AC0160E070E03E
:104FF000CB016EDDAE0161E070E080E090E0DF911A
:10500000CF9166CDCF938091F7069091F8068BD91A
:10501000C82F81110BC060E070E0CB010E946915C0
:1050200061E070E080E090E00E9469158C2FCF91E4
:1050300008950F931F9389019A01AB01BC018091E0
:10504000F7069091F806B8D91F910F9108954F92E5
:105050005F926F927F928F929F92AF92BF92CF9208
:10506000DF92EF92FF920F931F93CF93DF93CDB711
:10507000DEB763970FB6F894DEBF0FBECDBF6C01ED
:105080008B015A018091FB06882309F43DC0809171
:10509000FB06882309F442C08091FA061A8219821D
:1050A000882309F4C0C0F0E94F2EFFE55F2E662487
:1050B0006394712CF12CE12C97012D51394FAE01E5
:1050C0004F5F5F4F61E070E08091F7069091F806C6
:1050D0004AD9982E811169C089819A81E80EF91EFA
:1050E000E114F10409F461C081E0481A5108610833
:1050F000710859F560910607709107078DEE90E0F1
:105100006AD91A82198251C06BEF76E08091F70656
:105110009091F80652D9882309F4B9CF63960FB657
:10512000F894DEBF0FBECDBFDF91CF911F910F91DD
:10513000FF90EF90DF90CF90BF90AF909F908F90B7
:105140007F906F905F904F900895AAE0EA16F10467
:1051500009F063C049E050E070E060E083EE96E063
:105160002FD46091060770910707882309F452C075
:105170008091EB0690E08617970719F6BC018EEE3A
:1051800090E029D988E0E3EEF6E0DE01199601907F
:105190000D928A95E1F78091060790910707019695
:1051A0009927909307078093060781E029813A8128
:1051B000121613060CF080E09110CAC2882309F47D
:1051C000ADCF8091FA06811104C019861A861B861C
:1051D0001C8689859A85AB85BC8580319105A105A2
:1051E000B10508F09BCFFC018827E650F74D8F4FA3
:1051F0000C948C397A29392BA82B8E287E2AB12A37
:105200006A2972294E298D2B7C2B892B8E288E287A
:105210008E2839298FEE90E073CFBAE0EB16F104B7
:105220000CF44ACFC2CFF12CE12CE8E06E2E712CA9
:1052300029E030E02C0F3D1F2E0D3F1DAE014F5FCA
:105240005F4FB3016E197F098091F7069091F806C0
:105250008AD8982E29813A81811109C0E20EF31E65
:10526000E114F10421F0E8E0EE16F1040CF381E022
:105270009FCFD6011696ED91FC9180819181A281FC
:10528000B38189839A83AB83BC83AE014F5F5F4F49
:1052900064E070E085E190E03ADB40CF8D859E854B
:1052A00014D92FEF3FEFA90161E070E0009771F092
:1052B000FC01C080D180E280F380A801C701B60163
:1052C0000E94E919A701960170E060E08DE190E08D
:1052D00051DB24CF4D855E859801B6018BE190E0CE
:1052E00073DB1CCF4D855E852FEF3FEFB6018CE160
:1052F00090E0F6CFD6011496ED91FC9100811181DA
:10530000F80182809380A080B18070E1472E512CFB
:10531000612C712C49825A826B827C8288E090E0F9
:10532000A0E0B0E08D839E83AF83B8879E012F5E9F
:105330003F4FAE014F5F5F4F68E070E08091F7062E
:105340009091F8060E9495218823D9F010E000E0A2
:10535000C80163960FB6F894DEBF0FBECDBFDF91D4
:10536000CF911F910F91FF90EF90DF90CF90BF9062
:10537000AF909F908F907F906F905F904F900C9424
:105380005E3A89899A89089709F7D801ED90FC90CF
:10539000B8E0EB0EF11CEE0CFF1CEE0CFF1CC7017D
:1053A0000E94C2398C01892B89F249825A826B8210
:1053B0007C82C7010F2C000CAA0BBB0B8D839E8334
:1053C000AF83B8879E012F5E3F4FAE014F5F5F4FA7
:1053D00068E070E08091F7069091F8060E949521B0
:1053E0008111B6CF89899A89089709F0B1CFD60182
:1053F0001296ED91FC914081518162817381D801B7
:105400004D935D936D937C93139744815581668191
:10541000778114964D935D936D937C931797408598
:1054200051856285738518964D935D936D937C933A
:105430001B9784859585A685B785F8018487958710
:10544000A687B787108A118A128A138A84E090E0AF
:10545000A0E0B0E0848B958BA68BB78B8091240362
:1054600090912503B0E0A0E0808F918FA28FB38F41
:10547000C5010B2C000CAA0BBB0B848F958FA68F3C
:10548000B78FF401D801909690E080E08A159B05D3
:105490005CF19E012F5E3F4FA801B7018091F70696
:1054A0009091F8060E949521811152CF89899A899D
:1054B000E816F90609F04CCFA70170E060E0C801DA
:1054C0007BD28B8B9E012F5E3F4FAE014D5E5F4FB7
:1054D00061E070E08091F7069091F8060E949521B6
:1054E00081E08093FA0634CF4191519170E060E001
:1054F0004D935D936D937D930196C8CF8D859E8569
:10550000AF85B8890097A105B10521F481E08093AA
:10551000F90604CE0E946522009781F481E090E0B4
:10552000A0E0B0E089839A83AB83BC83AE014F5F78
:105530005F4F64E070E082E190E0AECEBC01C60156
:105540000E94C31419821A821B821C82AE014F5F13
:105550005F4F64E070E082E190E0D9D98823B1F236
:10556000DDCDD6011496ED91FC910190F081E02DF6
:10557000E084F1848FEF8983E114F10409F472C0AF
:10558000D7016D907C90C280D38070E060E090E0A5
:1055900080E08615970594F083E190E00E94EB216E
:1055A00010E000E08111BACD061517055CF161E04D
:1055B00070E0CE0101960E942222B0CD9C0143E012
:1055C000220F331F4A95E1F7F701A281B381A20FA1
:1055D000B31F1296ED91FC911397EE0FFF1FEC0D88
:1055E000FD1D0190F081E02D16964D915C91E49F98
:1055F0009001E59F300DF49F300D1124620F731F51
:105600000196C7CFD7011296ED91FC91C80123E016
:10561000880F991F2A95E1F7E80FF91FA080B18044
:10562000A281B381AA0FBB1FAC0DBD1D2D913C9172
:1056300086819781289F4001299F900C389F900C6C
:105640001124B401C5010E942222582E940150E079
:1056500040E06981C5019CD1898351105FCD0F5F06
:105660001F4FA2CF70E060E083E190E00E94EB2149
:1056700055CD50E040E070E060E081E190E047D936
:1056800081114CCD60E070E0CB010E948E168091BC
:10569000DD06882329F0A80160E070E0CB0118DA6C
:1056A000A80160E070E0CB010E94951561E070E018
:1056B00080E090E00E948E168091DD06882331F014
:1056C000A80161E070E080E090E002DAA80161E00A
:1056D00070E080E090E00E9495151092FB06109219
:1056E000FA0610920707109206078091F70690912C
:1056F000F8060E94E32112CD81E090E09093DF064E
:105700008093DE0650E040E070E060E086E190E0EB
:10571000C3CD81E0F501808301CD8D859E850E94FA
:1057200065222FEF3FEFA90161E070E0009769F07B
:10573000DC01CD90DD90ED90FC90C701B6010E9498
:10574000491AA701960170E060E08EE190E0C0CDBB
:10575000C8010E944622E2CCCF92DF92EF92FF92E4
:10576000CF93DF93EC01C12CD12C7601C701B60198
:105770000E948E16AE01C701B601AAD9AE01C701BB
:10578000B6010E9495158091F3069091F40600975A
:1057900031F00E945E3A1092F4061092F306CA9419
:1057A000CD28CE28CF2879F58091FA06F12C8823D0
:1057B00051F050E040E070E060E084E190E0A7D874
:1057C000F82E1092FA068091FB06882341F0109281
:1057D000FB0681E090E09093250380932403809161
:1057E000F7069091F8060E94E6218091F7069091C5
:1057F000F8060E94DB218F2DDF91CF91FF90EF9073
:10580000DF90CF900895C12CD12C7601C394AECFF8
:10581000CF93DF93EC01AC0160E070E0CB010E941C
:105820007E1EAE0161E070E080E090E0DF91CF91FC
:105830000C947E1E60E070E0CB010E94EB1E61E0E4
:1058400070E080E090E00C94EB1ECF92DF92EF923C
:10585000FF920F931F93CF93DF93EC016A017B01BB
:1058600000E010E098010E94991A01E010E020E0A9
:1058700030E0B701A601CE010E94991ADF91CF91C5
:105880001F910F91FF90EF90DF90CF90089568EEF9
:1058900073E080E090E048D790E080E0089526E053
:1058A00040E050E16EE070E085E197E00E949936BB
:1058B00085E197E00E94CF35892B29F085E197E0BB
:1058C0000E94E935F5CF90E080E00895CF92DF9215
:1058D000EF92FF920F931F93CF93DF936B017A01A7
:1058E000E9011982188285E197E00E94CF35892B62
:1058F00081F18601CC24C39485E6D82E80910807D7
:10590000811112C085E197E00E94E9358536910545
:10591000A9F7C0920807F801D1928F018881998177
:10592000019699838883EACF888199818E159F0596
:1059300080F485E197E00E94E9358F3F9807A1F355
:10594000F80181938F0188819981019699838883D9
:10595000EBCF90E080E0DF91CF911F910F91FF900E
:10596000EF90DF90CF9008950F931F93CF93DF9325
:10597000EA01890185E197E00E942939F801D18384
:10598000C08390E080E0DF91CF911F910F91089547
:10599000DC01A40FB51F420F531F9D01281B390BBB
:1059A0002417350710F0862F0895ED91E627F0E0D3
:1059B000E05DFE4F6491F1CF9A01AB016FEFE8CF4C
:1059C000CF93FC01E60FF71FE40FF51FC081F4DF52
:1059D00091E0C81390E0892FCF9108958091090735
:1059E00091E0980F90930907882349F021E030E077
:1059F00030930B0720930A07809309070895789442
:105A00000E94FD0DF8948091090781508093090749
:105A10000C946820FF920F931F93CF93DF931F92F4
:105A2000CDB7DEB71092F0091092EF09B3D60E94FD
:105A3000BB200091710310917203F8011182108252
:105A400070E060E090E080E00E9470200E948E1183
:105A5000F8947894C80182960E946F2081E090E0CB
:105A60000E946C201982AE014F5F5F4F61E070E0D1
:105A7000F801828193810E941C208981882319F07A
:105A800081E0F80186A30E947520F8940E940E21FF
:105A9000F80180819181892B19F481E096A19111FF
:105AA00080E08093EF0978947894FF24F3948091B8
:105AB000EF09811110C00E94AC1281E090E00E94B9
:105AC0006D20F89490E080E00F90DF91CF911F91CE
:105AD0000F91FF9008951982AE014F5F5F4F61E013
