:10000000FAC000000C949D220C94C8220C94F32298
:100010000C941E230C9449230C9474230C949F235A
:100020000C94CA23F4C5000095C60000CFC600009A
:1000300013C1000011C100000FC100000DC100007C
:100040000BC1000009C1000007C1000005C100008C
:1000500003C1000001C10000FFC000000C94F523A3
:10006000FBC000000C947A270C94B027F5C0000068
:10007000F3C00000F1C00000EFC00000EDC00000C0
:10008000EBC00000E9C00000E7C00000E5C00000D0
:100090000C9406280C943C28DFC000000C947D0AC8
:1000A000DBC00000D9C00000D7C00000D5C00000F0
:1000B000D3C00000D1C00000CFC00000CDC0000000
:1000C000CBC00000C9C000000C94BF1E0C94922845
:1000D0000C94C828C1C000000C941E290C9454290B
:1000E000BBC0000000000A0B02090C0D0E0807033C
:1000F00004010000000000000000000000000000FB
:1001000000000000000000000000000000000000EF
:1001100012111000000000000000000000000000AC
:100120000000000000000000000001021020200874
:100130000810204010204080020102010804020142
:1001400001020408102040808040201008040201B1
:10015000800402018040201008040201080402010A
:100160000102040810204080010204081020408091
:1001700005050505070508080808020202020A0A23
:100180000808040404040101010101010101030341
:10019000030303030303040707070C0C0C0C0C0CEC
:1001A0000C0C0202020206060606060606060B0BE9
:1001B0000B0B0B0B0B0B00002200250028002B0063
:1001C0002E003100340002010000050108010B017E
:1001D00000002100240027002A002D0030003300F9
:1001E00001010000040107010A016E09A40DD927CD
:1001F0006528F1287D2911241FBECFEFD1E2DEBF93
:10020000CDBF00E00CBF17E0A0E0B2E0E4E2F8E50B
:1002100000E00BBF02C007900D92A034B107D9F7E0
:100220002CE0A0E4B7E001C01D92A83AB207E1F7C4
:1002300010E0CBEFD0E000E006C021970109802F4D
:10024000FE010E94032CC53FD10780E00807A9F7F3
:100250000E942F1F0C94102CD3CE8823E1F0823003
:1002600061F0833089F08130B1F440E855E260E01C
:1002700070E081E090E00C94A11E40E855E260E05F
:1002800070E082E090E0F7CF40E855E260E070E097
:1002900083E090E0F0CF08954F925F926F927F924B
:1002A0008F929F92AF92BF92CF92EF92FF920F9355
:1002B0001F93CF93DF93CDB7DEB72B013A01F02E1A
:1002C000B40130E02830310511F424E030E00AE0D8
:1002D00010E0CC2061F091E000E110E0C91639F0A7
:1002E000E2E008E010E0CE1611F002E010E081300C
:1002F00009F4E8C0B0F0823009F4C5C1833009F4D4
:10030000A3C2DF91CF911F910F91FF90EF90CF90FB
:10031000BF90AF909F908F907F906F905F904F9025
:100320000895F1101BC0269DA001279D500D369DFC
:10033000500D1124B20185E099E0DF91CF911F911A
:100340000F91FF90EF90CF90BF90AF909F908F90C4
:100350007F906F905F904F900C94AA2985E099E070
:100360000E94E629E11014C0640C751C6414750425
:1003700041F2F20161912F01F1E0A80185E099E0DD
:10038000FF1203C00E94B82AF1CF0E94BE2AEECF0E
:1003900081E0E81215C091E0691A710808F4B1CF44
:1003A000F201619171912F01F1E0A80185E099E0DE
:1003B000FF1203C00E94CE2AEECF0E94D32AEBCFB9
:1003C00082E0E81217C091E0691A710808F499CF29
:1003D000F20141915191619171912F01F1E09801E8
:1003E00085E099E0FF1203C00E94AC2AECCF0E9486
:1003F000E32AE9CF83E0E81218C0640C751C64148A
:10040000750409F47ECFF20161912F01062E000CD4
:10041000770BF1E0A80185E099E0FF1203C00E948C
:10042000862AEDCF0E948C2AEACF84E0E81215C01C
:1004300091E0691A710808F464CFF2016191719139
:100440002F01F1E0A80185E099E0FF1203C00E94AE
:10045000862AEECF0E948C2AEBCF85E0E81217C0E7
:1004600091E0691A710808F44CCFF2014191519161
:10047000619171912F01F1E0980185E099E0FF12FF
:1004800003C00E94412AECCF0E949C2AE9CF86E05B
:10049000E81237CFB12C91E0691A710808F431CF16
:1004A000F20141915191619171912F01F1E095011A
:1004B00085E099E0FF1203C00E94D02BECCF0E9490
:1004C000D12BE9CFF1100BC0269DA001279D500D27
:1004D000369D500D1124B20182EA99E02ECF82EAB6
:1004E00099E00E94E629E11015C0640C751C4614C1
:1004F000570409F406CFF20161912F01F1E0A80140
:1005000082EA99E0FF1203C00E94B82AF0CF0E944D
:10051000BE2AEDCF81E0E81215C091E0691A71089A
:1005200008F4EFCEF201619171912F01F1E0A80181
:1005300082EA99E0FF1203C00E94CE2AEECF0E9409
:10054000D32AEBCF82E0E81217C091E0691A710854
:1005500008F4D7CEF20141915191619171912F012F
:10056000F1E0980182EA99E0FF1203C00E94AC2AF0
:10057000ECCF0E94E32AE9CF83E0E81218C0640CB4
:10058000751C6414750409F4BCCEF20161912F014D
:10059000062E000C770BF1E0A80182EA99E0FF1229
:1005A00003C00E94862AEDCF0E948C2AEACF84E005
:1005B000E81215C091E0691A710808F4A2CEF201A0
:1005C000619171912F01F1E0A80182EA99E0FF1297
:1005D00003C00E94862AEECF0E948C2AEBCF85E0D2
:1005E000E81217C091E0691A710808F48ACEF20186
:1005F00041915191619171912F01F1E0980182EA4D
:1006000099E0FF1203C00E94412AECCF0E949C2A6D
:10061000E9CF86E0E81275CEB12C91E0691A710835
:1006200008F46FCEF20141915191619171912F01C6
:10063000F1E0FF1214C0C11006C0950182EA99E0F2
:100640000E94D02BEACFCB01BA010E943720AB0128
:10065000BC01980182EA99E00E94412ADECFC110D4
:1006600006C0950182EA99E00E94D12BD6CFCB013A
:10067000BA010E943720AB01BC01980182EA99E0DF
:100680000E949C2ACACFF1100BC0269DA001279D75
:10069000500D369D500D1124B2018FE39AE04DCEDE
:1006A0008FE39AE00E94E629E11015C0640C751CE6
:1006B0004614570409F425CEF20161912F01F1E0AF
:1006C000A8018FE39AE0FF1203C00E94B82AF0CF7E
:1006D0000E94BE2AEDCF81E0E81215C091E0691AB0
:1006E000710808F40ECEF201619171912F01F1E0D1
:1006F000A8018FE39AE0FF1203C00E94CE2AEECF3A
:100700000E94D32AEBCF82E0E81217C091E0691A69
:10071000710808F4F6CDF201419151916191719106
:100720002F01F1E098018FE39AE0FF1203C00E94CD
:10073000AC2AECCF0E94E32AE9CF83E0E81218C08C
:10074000640C751C6414750409F4DBCDF20161912D
:100750002F01062E000C770BF1E0A8018FE39AE041
:10076000FF1203C00E94862AEDCF0E948C2AEACF96
:1007700084E0E81215C091E0691A710808F4C1CD4F
:10078000F201619171912F01F1E0A8018FE39AE0EC
:10079000FF1203C00E94862AEECF0E948C2AEBCF64
:1007A00085E0E81217C091E0691A710808F4A9CD34
:1007B000F20141915191619171912F01F1E0980104
:1007C0008FE39AE0FF1203C00E94412AECCF0E94FF
:1007D0009C2AE9CF86E0E81294CDB12C91E0691A09
:1007E000710808F48ECDF20141915191619171919E
:1007F0002F01F1E0FF1214C0C11006C095018FE374
:100800009AE00E94D02BEACFCB01BA010E94372098
:10081000AB01BC0198018FE39AE00E94412ADECF30
:10082000C11006C095018FE39AE00E94D12BD6CF6C
:10083000CB01BA010E943720AB01BC0198018FE3C4
:100840009AE00E949C2ACACFF1100BC0269DA001FD
:10085000279D500D369D500D1124B2018CED9AE06C
:100860006CCD8CED9AE00E94E629E11015C0640C75
:10087000751C6414750409F444CDF20161912F01D3
:10088000F1E0A8018CED9AE0FF1203C00E94B82AA3
:10089000F0CF0E94BE2AEDCF81E0E81215C091E0B2
:1008A000691A710808F42DCDF201619171912F013F
:1008B000F1E0A8018CED9AE0FF1203C00E94CE2A5D
:1008C000EECF0E94D32AEBCF82E0E81217C091E06E
:1008D000691A710808F415CDF201419151916191A5
:1008E00071912F01F1E098018CED9AE0FF1203C0A5
:1008F0000E94AC2AECCF0E94E32AE9CF83E0E81201
:1009000018C0640C751C6414750409F4FACCF20167
:1009100061912F01062E000C770BF1E0A8018CED00
:100920009AE0FF1203C00E94862AEDCF0E948C2A13
:10093000EACF84E0E81215C091E0691A710808F462
:10094000E0CCF201619171912F01F1E0A8018CEDF1
:100950009AE0FF1203C00E94862AEECF0E948C2AE2
:10096000EBCF85E0E81217C091E0691A710808F42E
:10097000C8CCF20141915191619171912F01F1E047
:1009800098018CED9AE0FF1203C00E94412AECCF3F
:100990000E949C2AE9CF86E0E812B3CCB12C91E00A
:1009A000691A710808F4ADCCF2014191519161913D
:1009B00071912F01F1E0FF1214C0C11006C0950122
:1009C0008CED9AE00E94D02BEACFCB01BA010E94B5
:1009D0003720AB01BC0198018CED9AE00E94412ABE
:1009E000DECFC11006C095018CED9AE00E94D12B9C
:1009F000D6CFCB01BA010E943720AB01BC019801D0
:100A00008CED9AE00E949C2ACACF9CB1892F8072FB
:100A100094FF16C0811116C080914407909145073C
:100A2000A0914607B09147070196A11DB11D809383
:100A3000440790934507A0934607B093470708954E
:100A40008111EACF8091440790914507A091460714
:100A5000B09147070197A109B109E9CF99B1892F51
:100A6000847093FF16C08823B1F080915207909153
:100A70005307A0915407B09155070196A11DB11DD0
:100A80008093520790935307A0935407B093550750
:100A90000895882351F38091520790915307A091B4
:100AA0005407B09155070197A109B109E9CF8CB15D
:100AB00090E09C01220F232F221F330B86FF16C0CC
:100AC0008091600790916107A0916207B0916307E0
:100AD000232BB9F40196A11DB11D8093600790935B
:100AE0006107A0936207B093630708958091600740
:100AF00090916107A0916207B091630721303105A1
:100B000049F30197A109B109E8CF9CB1892F807100
:100B100095FF16C08823B1F0809144079091450756
:100B2000A0914607B09147070196A11DB11D809382
:100B3000440790934507A0934607B093470708954D
:100B4000882351F38091440790914507A09146076F
:100B5000B09147070197A109B109E9CF99B1892F50
:100B6000887092FF16C0811116C080915207909133
:100B70005307A0915407B09155070196A11DB11DCF
:100B80008093520790935307A0935407B09355074F
:100B900008958111EACF8091520790915307A09157
:100BA0005407B09155070197A109B109E9CF8CB15C
:100BB00090E086FB222720F930E0880F892F881FDC
:100BC000990B0197B1F48091600790916107A09112
:100BD0006207B0916307232BB1F00196A11DB11DEF
:100BE0008093600790936107A0936207B0936307B7
:100BF00008958091600790916107A0916207B0917C
:100C00006307232B51F30197A109B109E9CF1F9283
:100C10000F920FB60F9211242F933F934F935F9330
:100C20008F939F93AF93BF9383B121E030E0982FD0
:100C3000907285FD02C030E020E08074409184070E
:100C4000509185074217530709F062C021E030E058
:100C5000811102C030E020E03093830720938207A7
:100C6000882309F1911121C080917C0790917D0723
:100C7000A0917E07B0917F070196A11DB11D8093C1
:100C80007C0790937D07A0937E07B0937F078091A8
:100C90007C0790917D07A0917E07B0917F07019618
:100CA000A11DB11D20C09111DFCF80917C079091D3
:100CB0007D07A0917E07B0917F070197A109B10937
:100CC00080937C0790937D07A0937E07B0937F0766
:100CD00080917C0790917D07A0917E07B0917F075E
:100CE0000197A109B10980937C0790937D07A09398
:100CF0007E07B0937F07BF91AF919F918F915F91D6
:100D00004F913F912F910F900FBE0F901F9018950C
:100D10003093850720938407992371F0882371F01D
:100D200080917C0790917D07A0917E07B0917F070D
:100D30000196A11DB11DC4CF882391F380917C073A
:100D400090917D07A0917E07B0917F070197A1093F
:100D5000B10995CF1F920F920FB60F9211248F9366
:100D60009F93AF93BF93809106018170909103018F
:100D700090FF1EC081111EC080916E0790916F0779
:100D8000A0917007B09171070196A11DB11D8093CC
:100D90006E0790936F07A0937007B0937107BF9190
:100DA000AF919F918F910F900FBE0F901F9018954C
:100DB0008111E2CF80916E0790916F07A09170072B
:100DC000B09171070197A109B109E1CF1F920F926C
:100DD0000FB60F9211248F939F93AF93BF9380917F
:100DE000030181709091060190FF1EC08823F1F0ED
:100DF00080916E0790916F07A0917007B091710775
:100E00000196A11DB11D80936E0790936F07A0936B
:100E10007007B0937107BF91AF919F918F910F9021
:100E20000FBE0F901F901895882311F380916E07C5
:100E300090916F07A0917007B09171070197A10978
:100E4000B109E1CF0F931F93CF93DF938C018EE015
:100E5000809FE001819FD00D1124C05CD84F798321
:100E600068835B834A838881998160E00E94E725DB
:100E70008A819B8160E00E94E7258881998161E0F9
:100E80000E9423268A819B8161E00E9423260230F2
:100E9000110509F487C064F40115110501F1013051
:100EA000110509F450C0DF91CF911F910F91089562
:100EB0000330110509F4A5C004301105A1F7809194
:100EC000680081608093680080916B0080628093ED
:100ED0006B0080916B00806480936B00E4CF809105
:100EE00040079091410702978431910530F58B516D
:100EF000994FFC018081082E000C990B41E050E0D5
:100F000065E075E00E94232280914207909143079B
:100F1000029784319105A0F48B51994FFC01808197
:100F2000082E000C990B41E050E065E875E0DF9178
:100F3000CF911F910F910C9423228FEF9FEFDECF63
:100F40008FEF9FEFF0CF80914E0790914F07029760
:100F50008431910508F58B51994FFC018081082E51
:100F6000000C990B41E050E06EEA75E00E942322EC
:100F7000809150079091510702978431910578F440
:100F80008B51994FFC018081082E000C990B41E098
:100F900050E06EE275E0CBCF8FEF9FEFE3CF8FEFA6
:100FA0009FEFF5CF80915C0790915D0702978431A8
:100FB000910508F58B51994FFC018081082E000C9A
:100FC000990B41E050E067E575E00E942322809193
:100FD0005E0790915F0702978431910578F48B51F9
:100FE000994FFC018081082E000C990B41E050E0E4
:100FF00067ED75E09CCF8FEF9FEFE3CF8FEF9FEF13
:10100000F5CF8091680084608093680080916800CB
:1010100082608093680080916D00816080936D0094
:1010200080916C00826080936C003DCF2EE0269F03
:10103000F001279FF00D1124E05CF84F6481758169
:1010400086819781089590E080E008958091BA07A5
:101050009091BB07891B990B08959091BB078091D4
:10106000BA072FEF3FEF981748F4E92FF0E0E45468
:10107000F84F208130E09F5F9093BB07C90108952E
:10108000E091BB078091BA07E81730F4F0E0E45430
:10109000F84F808190E008958FEF9FEF08950895B5
:1010A000CF93DF93EC01E0919207F0919307309793
:1010B000F1F09091BB078091BA079817C0F090E0CB
:1010C000292F30E02617370754F4DE01A20FB31F93
:1010D0004C912454384FD9014C939F5FF1CF10921B
:1010E000BB076093BA07CB01DF91CF911994DF91D1
:1010F000CF910895E0919407F0919507309729F0EA
:10110000109298071092970719940895CF93DF9340
:101110001F92CDB7DEB76983209196072223F9F09D
:1011200020919707203258F021E030E0FC01338312
:10113000228390E080E00F90DF91CF91089580911D
:101140009807E82FF0E0E756F84F998190838F5F7A
:10115000809398078093970781E090E0ECCF61E05F
:10116000CE01019689D1F8CFCF92DF92EF92FF9214
:101170000F931F93CF93DF937C01CB018A012091C2
:101180009607222389F0EB016B01C40ED51ECC1506
:10119000DD0561F06991D701ED91FC910190F0813D
:1011A000E02DC7011995F3CF642F66D1C801DF91F7
:1011B000CF911F910F91FF90EF90DF90CF90089506
:1011C0001092BB071092BA071092980710929707D7
:1011D00096D08AE798E07CD180E598E074C181E000
:1011E000809396076093B90710929807109297071B
:1011F00008950F93062F21E04091970769E977E062
:101200008091B907E2D01092980710929707109238
:1012100096070F9108954F925F926F927F92AF92CF
:10122000BF92CF92EF92FF920F931F93CF93DF93D2
:101230005C01F62ED42F28013901EE2009F1CFDF11
:10124000CE2DC43008F0C3E0C150B8F028E0C29FF2
:10125000C0011124A301920104C05695479537950A
:1012600027958A95D2F7B901D501ED91FC910190AE
:10127000F081E02DC5011995E7CF60E0C501B9DF28
:101280004D2FD13208F040E22C2D6CEB77E08F2D02
:1012900054D01092BB078093BA07DF91CF911F9172
:1012A0000F91FF90EF90CF90BF90AF907F906F9095
:1012B0005F904F900895CF92EF920F931F93C22E9D
:1012C000E12C00E010E09801A6DF1F910F91EF9054
:1012D000CF90089521E0EFCF61E08BCFE6E8F7E013
:1012E0001382128288EE93E0A0E0B0E084839583BD
:1012F000A683B7838DEF96E0918380830895109243
:10130000490881E0809347081092460861E084E133
:101310000E94232661E085E10E942326E9EBF0E0AC
:1013200080818E7F808380818D7F808388E480931D
:10133000B80085E48093BC000895413208F043C0B2
:10134000909149089111FCCF91E090934908209326
:1013500047082FEF2093DC0710922108240F2093D9
:1013600020089093480890914808880F892B809313
:10137000480880914608813009F51092460880910E
:1013800048088093BB008091BC0083FDF8CF85ECBA
:101390008093BC00809149088130E1F3809121085D
:1013A000841710F440912108A2E2B8E0962FFB01C7
:1013B0008E2F891B841720F0842F089585EEE8CFA7
:1013C0008D918193F5CF40E0F7CF0F93413208F034
:1013D0004BC0909149089111FCCF92E0909349083D
:1013E000009347089FEF9093DC07109221084093E9
:1013F0002008362FA2E2B8E0FB019E2F931B941722
:1014000070F11092480890914808880F892B8093BA
:10141000480880914608813029F51092460880914D
:1014200048088093BB008091BC0083FDF8CF85EC19
:101430008093BC00222321F0809149088230D1F3AF
:101440008091DC078F3F91F08091DC07803281F042
:101450008091DC07803371F084E00F9108959191C1
:101460009D93CBCF85EEE4CF81E0F7CF80E0F5CF41
:1014700082E0F3CF83E0F1CF2091FE07260F3327E0
:10148000331F21323105ECF420914908FC0190E032
:1014900080E0243069F082E00895A091FE07219158
:1014A000AC014050584FA40FB52FB11D2C9301969D
:1014B000861798F38091FE07680F6093FE0780E01F
:1014C000089581E008959093430880934208089519
:1014D0009093450880934408089585ED8093BC005F
:1014E0008091BC0084FDFCCF10924908089585ECE2
:1014F0008093BC001092490808951F920F920FB676
:101500000F9211240BB60F922F933F934F935F933B
:101510006F937F938F939F93AF93BF93EF93FF93BB
:101520008091B900887F803609F44CC008F03FC034
:10153000883209F4A8C028F5803109F49CC0C8F4A9
:10154000882309F4F8C0883009F495C0FF91EF9121
:10155000BF91AF919F918F917F916F915F914F91CB
:101560003F912F910F900BBE0F900FBE0F901F90C9
:101570001895883109F487C0803241F78093DC07E1
:1015800014C0803409F49CC040F48033B9F388332C
:10159000E9F68093DC07ABDFD9CF803509F484C04E
:1015A000883509F495C0883489F697DFCFCF88391C
:1015B00009F48CC038F5883729F050F4883611F0DA
:1015C000803721F683E0809349081092DD0757C0E9
:1015D000883809F47BC0803919F0803809F0B6CF1B
:1015E0008091DD07803208F071C0E091DD0781E075
:1015F0008E0F8093DD078091BB00F0E0E252F84F40
:1016000080833DC0803B39F0E0F4803A09F479C032
:10161000883A09F09BCF84E0809349081092FF0735
:101620001092FE07E0914408F091450819958091C9
:10163000FE0781110FC081E08093FE071092000821
:1016400009C0803C09F475C0883C09F472C0883B2D
:1016500009F07CCFE091FF0781E08E0F8093FF07B8
:10166000F0E0E050F84F80818093BB009091FF073D
:101670008091FE0729C0809148088093BB0085ECCB
:101680008093BC0063CF9091210880912008981727
:1016900058F5E091210881E08E0F80932108F0E059
:1016A000EE5DF74F8081E9CFE091210881E08E0F58
:1016B000809321088091BB00F0E0EE5DF74F8083BE
:1016C00090912108809120089817C8F285E8D8CF1A
:1016D000E091210881E08E0F809321088091BB006A
:1016E000F0E0EE5DF74F80838091470881115DCF78
:1016F00081E08093460884EA8093BC0010924908F8
:1017000025CFF5DE8091DD07803230F4E091DD07F2
:10171000F0E0E252F84F10826091DD0770E0E09156
:101720004208F09143088EED97E019951092DD077D
:101730000DCF85ECE1CF1092DC0737CFFF920F93EE
:101740001F93CF93DF93C62F042FF22E132F682FF2
:1017500086E897E044DD6C2F86E897E0D7DCCF2D54
:10176000D12F0C0F1D2F111DC017D10729F0699122
:1017700086E897E0CBDCF8CF86E897E0ADDD91E036
:10178000811190E0892FDF91CF911F910F91FF90F0
:101790000895CF93DF931F92CDB7DEB749839E01A3
:1017A0002F5F3F4F41E0CADF0F90DF91CF91089547
:1017B0002F923F924F925F926F927F928F929F9261
:1017C000AF92BF92CF92DF92EF92FF920F931F934F
:1017D000CF93DF9300D0CDB7DEB7E82E69834B837C
:1017E00069010E943F244B015C01F12C1A822B817C
:1017F000222E312C2801712C612C8B81F81608F0D7
:1018000044C06E2D86E897E0EADC698186E897E0BF
:101810007DDC86E897E060DD6E2D86E897E0DFDC12
:10182000A1014F1951094132510514F040E250E035
:101830006E2D86E897E04EDD86E897E007DC892B81
:10184000D9F00115110569F486E897E006DCF60188
:101850009A81E90FF11D97FDFA9580839F5F9A8326
:10186000EBCF0E943F24681979098A099B09641506
:1018700075058605970540F386E897E02DDD8B8199
:10188000813208F080E2F80EB8CF01151105C1F0E1
:101890000E943F24681979098A099B0930E020E0F9
:1018A000601771078207930758F02A81822F220F51
:1018B000990B2B812817190619F014F08FEF8A83E2
:1018C0008A810F900F900F90DF91CF911F910F9110
:1018D000FF90EF90DF90CF90BF90AF909F908F9050
:1018E0007F906F905F904F903F902F9008950F934F
:1018F0001F9389019A0141E05BDF1F910F910895C9
:10190000EF92FF920F931F93CF93DF931F92CDB768
:10191000DEB7182F062FE42EF22E20910002309110
:101920000102AE014F5F5F4FE2DF81E090E001C056
:10193000880FEA94EAF74981FF2069F0482B498330
:10194000602F812F26DF0F90DF91CF911F910F9194
:10195000FF90EF90089580954823F1CFDF92EF92AA
:10196000FF920F931F93CF93DF931F92CDB7DEB7F4
:10197000F82EE62E142FD22E209100023091010273
:10198000AE014F5F5F4FB3DF882351F1812F8D1977
:10199000990BAC014F5F5F4F81E090E002C0880F70
:1019A000991FDA94E2F70197042E01C0880F0A9478
:1019B000EAF701C0000F4A95EAF7482F4095998150
:1019C00049238023482B49836E2D8F2DE2DE0F9013
:1019D000DF91CF911F910F91FF90EF90DF900895CD
:1019E00080E0F5CF28E6FC01208308950F93062FB1
:1019F00023E042E06AE1FC018081B0DF0F910895AD
:101A00000F93062F22E044E06BE1FC018081A6DF0A
:101A10000F9108950F93062F22E044E06CE1FC0142
:101A200080819CDF0F9108950F931F93CF93DF93D5
:101A3000EC0100910002109101029C012F5F3F4FC9
:101A400042E063E48881B4DE89819A8198278927FE
:101A50009827DF91CF911F910F9108950F931F93B6
:101A6000CF93DF93EC0100910002109101029C01E1
:101A70002F5F3F4F42E065E488819ADE89819A8139
:101A8000982789279827DF91CF911F910F9108956B
:101A90000F931F93CF93DF93EC01009100021091FD
:101AA00001029C012F5F3F4F42E067E4888180DEA6
:101AB00089819A81982789279827DF91CF911F9153
:101AC0000F910895262F46E06BE6FC01808118CF28
:101AD0000F93062F23E042E06BE6FC0180813EDF9E
:101AE0000F910895CF93DF93EC0161E0F1DF60E0A7
:101AF000CE0186DF60E0CE018DDF60E0CE01DF91B8
:101B0000CF91E0CFCF93C82F86E897E059DB6C2FB9
:101B10008AE498E06BDF8AE498E0CF91E3CFCF933B
:101B2000DF93EC018AE498E07FDF998388838AE47D
:101B300098E094DF9B838A838AE498E0A9DF9D8301
:101B40008C83DF91CF9108958AE498E04BCF6111A7
:101B500002C00C94E7256130E1F362E0FACF66231E
:101B600019F061E00C94232660E0FCCF0895CF9239
:101B7000DF92EF92FF92CF93882351F16A017B01AC
:101B8000CFEFC80F20E030E0A901CB01B6010E94E1
:101B9000CB1F87FF11C0C701B60190580E943C209F
:101BA0009B01AC016C2F70E090E080E0CF91FF9042
:101BB000EF90DF90CF90B2C0C701B6010E943720EE
:101BC0008C2FCF91FF90EF90DF90CF900C94AD24AD
:101BD000CF91FF90EF90DF90CF9008950F931F93D8
:101BE0008B019C0183E036952795179507958A957B
:101BF000D1F7075A174F462F477021E030E0F9011F
:101C000002C0EE0FFF1F4A95E2F7AF01F8012081F5
:101C10002423CB010196211102C090E080E01F91A6
:101C20000F9108950F931F938B019C0183E03695CC
:101C30002795179507958A95D1F7677081E090E011
:101C400001C0880F6A95EAF7F801E75AF74F20813B
:101C5000452B31F48095822380831F910F91089545
:101C6000822BFACF2F923F924F925F926F927F9288
:101C70008F929F92AF92BF92CF92DF92EF92FF929C
:101C80000F931F93CF93DF93D62EC72E782E692EF6
:101C900049015A01280161E08D2D0E94E725CD2DD3
:101CA000DC2D8E010F5F1F4FA8016D2D7C2D872D20
:101CB000962DB8DF20E030E0A901C201B7010E94F3
:101CC000BB21181664F4C201B7010E943C202B010D
:101CD000C501B4010E943C20A201CE0123D0C8015D
:101CE000DF91CF911F910F91FF90EF90DF90CF90F8
:101CF000BF90AF909F908F907F906F905F904F902C
:101D00003F902F900895882341F08150682F70E014
:101D100090E080E050E040E085CF0895862FB90143
:101D20000C94AD249C01FC01EC51FF4FE491E15077
:101D3000E231E0F4F0E08827EF55F14F8F4F0C943B
:101D4000032CB30EBA0EBD0ED40EE90EB60EFE0E67
:101D50000A0F0E0F250F3A0F4F0F660F7B0FB60EAF
:101D6000900FA70FBC0F84B5806884BD60E0822F00
:101D70000C94232684B58062F8CF809180008C7FFC
:101D800082608093800080918100807E8061682BDA
:101D9000609381005093870040938600809180007B
:101DA000806880938000E2CF809180008C7F826089
:101DB0008093800080918100807E8061682B609399
:101DC000810050938700409386008091800080625C
:101DD000E8CF809180008C7F82608093800080912A
:101DE0008100807E8061682B609381005093870022
:101DF00040938600809180008860D3CF8091B000AE
:101E000080688093B0008091B100887F682B6093D8
:101E1000B100ACCF8091B0008062F3CF8091900090
:101E20008C7F82608093900080919100807E8061A1
:101E3000682B609391005093970040939600809197
:101E4000900080688093900091CF809190008C7F6B
:101E500082608093900080919100807E8061682BE9
:101E6000609391005093970040939600809190006A
:101E70008062E8CF809190008C7F82608093900098
:101E800080919100807E8061682B609391005093D7
:101E9000970040939600809190008860D3CF809106
:101EA000A0008C7F82608093A0008091A100807E42
:101EB0008061682B6093A1005093A7004093A60017
:101EC0008091A00080688093A00050CF8091A000F6
:101ED0008C7F82608093A0008091A100807E8061D1
:101EE000682B6093A1005093A7004093A6008091B7
:101EF000A0008062E8CF8091A0008C7F82608093F8
:101F0000A0008091A100807E8061682B6093A10079
:101F10005093A7004093A6008091A0008860D3CF83
:101F2000809120018C7F826080932001809121012B
:101F3000807E8061682B609321015093270140933C
:101F40002601809120018068809320010FCF80912D
:101F500020018C7F82608093200180912101807E0E
:101F60008061682B609321015093270140932601E3
:101F7000809120018062E8CF809120018C7F826077
:101F80008093200180912101807E8061682B609385
:101F90002101509327014093260180912001886000
:101FA000D3CF2F923F924F925F926F927F928F92F8
:101FB0009F92AF92BF92CF92DF92EF92FF920F93D8
:101FC0001F93CF93DF93CDB7DEB7AE970FB6F894DC
:101FD000DEBF0FBECDBF2090600C3090610C009131
:101FE0005E0C10915F0CE091EF08F091F00880809A
:101FF0009180A280B380A5019401D8016D917D915B
:102000008D919C910E94BB2187FD02C00C94981871
:10201000A5019401F801E05AFF4F6081718182812E
:1020200093810E94CB1F181614F00C949C18E09119
:102030008C0CF0918D0CFA83E9837F01EE0CFF1C70
:10204000EE0CFF1C6801CE0CDF1CA5019401D6012B
:102050006D917D918D919C910E94BB21B4E0EB0E1E
:10206000F11CE00EF11E181614F00C948B18F4E01D
:10207000CF1AD108A5019401D60114966D917D91D6
:102080008D919C9117970E94BB21181614F40C9403
:102090007F1829813A8130938D0C20938C0C220F6C
:1020A000331F220F331F3E832D83F901E00FF11FF1
:1020B000C080D180E280F3802C5F3F4F3A83298338
:1020C000F901E00FF11F4080518062807380A3010D
:1020D0009201C701B6010E94CB1F81110C94BB185D
:1020E000A7019601C501B4010E94CB1F87FD02C064
:1020F0000C94A2188D819E81820D931D9A838983F1
:10210000E9E7FBE081E99BE0A981BA814D915D910E
:102110006D917C9113974193519361937193AC5955
:10212000BF4FBA83A9838E179F0771F72091890B40
:1021300030918A0B40918B0B50918C0B6091F20582
:102140007091F3058091F4059091F5050E94BF21EF
:102150006093DA0B7093DB0B8093DC0B9093DD0BB9
:1021600061E070E080E090E00E9416086093FA0B56
:102170007093FB0B8093FC0B9093FD0B0E946A20E5
:1021800020911606309117064091180650911906B5
:102190000E94BF212091FA053091FB054091FC057A
:1021A0005091FD050E94BF212B013C014092DE0BA6
:1021B0005092DF0B6092E00B7092E10B20911A06B7
:1021C00030911B0640911C0650911D060E94BF21B4
:1021D00069A37AA38BA39CA38091680C9091690C4E
:1021E000A0916A0CB0916B0C8D839E83AF83B887EE
:1021F0002091260630912706409128065091290605
:10220000BC01CD010E94BF216DA37EA38FA398A71F
:102210002091700C3091710C4091720C5091730CA4
:1022200060912E0670912F068091300690913106B4
:102230000E94BF2120E030E0A9010E94671F20E03A
:1022400030E0A9010E94671F20E030E0A9010E9450
:10225000671F6D877E878F87988B6093E20B7093E3
:10226000E30B8093E40B9093E50B2091740C309179
:10227000750C4091760C5091770C60914A067091E4
:102280004B0680914C0690914D060E94BF2120E0A4
:1022900030E0A9010E94671F20E030E0A9010E9400
:1022A000671F20E030E0A9010E94671F698F7A8FC5
:1022B0008B8F9C8F2091780C3091790C40917A0C07
:1022C00050917B0C6091660670916706809168065C
:1022D000909169060E94BF2120E030E0A9010E9490
:1022E000671F20E030E0A9010E94671F69877A8795
:1022F0008B879C8720917C0C30917D0C40917E0CCB
:1023000050917F0C609182067091830680918406C3
:10231000909185060E94BF2120E030E0A9010E9433
:10232000671F6D8F7E8F8F8F98A32091800C3091C7
:10233000810C4091820C5091830C60918E067091BB
:102340008F0680919006909191060E94BF2120E017
:1023500030E0A9010E94671F20E030E0A9010E943F
:10236000671F69837A838B839C832091840C3091CF
:10237000850C4091860C5091870C6091A606709157
:10238000A7068091A8069091A9060E94BF2120E08F
:1023900030E0A9010E94671F20E030E0A9010E94FF
:1023A000671F4B015C012091880C3091890C409192
:1023B0008A0C50918B0C6091BE067091BF06809183
:1023C000C0069091C1060E94BF216B017C01209143
:1023D000A6053091A7054091A8055091A905C30114
:1023E000B2010E94BF2129813A814B815C810E9408
:1023F000671F698B7A8B8B8B9C8B6093F60B70932A
:10240000F70B8093F80B9093F90B2091AA0530916C
:10241000AB054091AC055091AD05C301B2010E94DE
:10242000BF21A50194010E94671F6D8B7E8B8F8B4E
:10243000988F2091AE053091AF054091B005509135
:10244000B105C301B2010E94BF214B015C0120E034
:1024500030E0A901C701B6010E94671F9B01AC01D2
:10246000C501B4010E94671F69A77AA78BA79CA723
:1024700032EBA32E35E0B32E01EA1BE0AEEBB4E065
:10248000BA83A98342EC842E45E0942EBEA6ADA665
:10249000B4E0AB0EB11CEDA5FEA520A131A142A177
:1024A00053A16D897E898F89988D0E94BF216B0110
:1024B0007C01ADA5BEA550962D913D914D915C91AD
:1024C000539769897A898B899C890E94BF219B01D6
:1024D000AC01C701B6010E94671F6B017C01EDA52D
:1024E000FEA520A931A942A953A969A57AA58BA562
:1024F0009CA50E94BF219B01AC01C701B6010E94AF
:10250000671F6B017C01ADA5BEA52D913D914D913D
:102510005C91C301B2010E94BF219B01AC01C701C4
:10252000B6010E94671FF8016193719381939193A3
:102530008F018A149B0409F0A9CF8091D3068130C2
:1025400009F082C64092E60B5092E70B6092E80BCE
:102550007092E90B2091640C3091650C4091660CEF
:102560005091670C69A17AA18BA19CA10E94661F62
:102570006093EA0B7093EB0B8093EC0B9093ED0B55
:102580008D819E81AF81B8858093EE0B9093EF0B88
:10259000A093F00BB093F10B20916C0C30916D0C6B
:1025A00040916E0C50916F0C6DA17EA18FA198A5EA
:1025B0000E94661F6093F20B7093F30B8093F40BF1
:1025C0009093F50BC090DA0BD090DB0BE090DC0B16
:1025D000F090DD0B2091E60B3091E70B4091E80B7A
:1025E0005091E90BC701B6010E94671F20912E058B
:1025F00030912F0540913005509131050E94BF2147
:102600004B015C012091EA0B3091EB0B4091EC0BFC
:102610005091ED0BC701B6010E94671F2091320552
:102620003091330540913405509135050E94BF210A
:102630009B01AC01C501B4010E94671F4B015C0105
:102640002091EE0B3091EF0B4091F00B5091F10B7C
:10265000C701B6010E94671F2091360530913705EA
:1026600040913805509139050E94BF219B01AC0172
:10267000C501B4010E94671F4B015C012091F20B60
:102680003091F30B4091F40B5091F50BC701B6015B
:102690000E94671F20913A0530913B0540913C050F
:1026A00050913D050E94BF219B01AC01C501B401C1
:1026B0000E94671F6B017C012091890B30918A0B6E
:1026C00040918B0B50918C0B609112067091130608
:1026D00080911406909115060E94BF219B01AC01C8
:1026E000C701B6010E94671F6B017C016D817E816D
:1026F0008F8198859F7720E030E040E45FE30E947F
:10270000CB1F20E030E040E85FE387FD03C020E01E
:1027100030E0A901C701B6010E94BF216093DA0B26
:102720007093DB0B8093DC0B9093DD0B20E030E0AB
:1027300040E251E40E94671F2DEC3CEC4CE455E470
:102740000E94BF210E94A5206093E60B7093E70BC7
:102750008093E80B9093E90B0E947A1E882309F47A
:10276000E1C51092E60B1092E70B1092E80B109265
:10277000E90BC090E60BD090E70BE090E80BF090EF
:10278000E90B20E030E0A901C701B6010E94CB1F90
:1027900087FFE9C5C701B60190580E943C2071959A
:1027A000619571097093B20B6093B30B20E030E038
:1027B00040E251E46091DE0B7091DF0B8091E00B01
:1027C0009091E10B0E94671F2DEC3CEC4CE455E42A
:1027D0000E94BF210E94A5206093E60B7093E70B37
:1027E0008093E80B9093E90B0E947A1E882309F4EA
:1027F000BEC51092E60B1092E70B1092E80B1092F8
:10280000E90BC090E60BD090E70BE090E80BF0905E
:10281000E90B20E030E0A901C701B6010E94CB1FFF
:1028200087FFC6C5C701B60190580E943C2071952C
:10283000619571097093B40B6093B50B20E030E0A3
:1028400040E251E46091680C7091690C80916A0CCF
:1028500090916B0C0E94671F2DEC3CEC4CE455E40E
:102860000E94BF210E94A5206093E60B7093E70BA6
:102870008093E80B9093E90B0E947A1E882309F459
:102880009BC51092E60B1092E70B1092E80B10928A
:10289000E90BC090E60BD090E70BE090E80BF090CE
:1028A000E90B20E030E0A901C701B6010E94CB1F6F
:1028B00087FFA3C5C701B60190580E943C207195BF
:1028C000619571097093B60B6093B70B20E030E00F
:1028D00040E251E46091E20B7091E30B8091E40BD4
:1028E0009091E50B0E94671F2DEC3CEC4CE455E405
:1028F0000E94BF210E94A5206093E60B7093E70B16
:102900008093E80B9093E90B0E947A1E882309F4C8
:1029100078C51092E60B1092E70B1092E80B10921C
:10292000E90BC090E60BD090E70BE090E80BF0903D
:10293000E90B20E030E0A901C701B6010E94CB1FDE
:1029400087FF80C5C701B60190580E943C20719551
:10295000619571097093B80B6093B90B20E030E07A
:1029600040E251E469857A858B859C850E94671FCA
:102970002DEC3CEC4CE455E40E94BF210E94A520C4
:102980006093E60B7093E70B8093E80B9093E90B51
:102990000E947A1E882309F459C51092E60B109202
:1029A000E70B1092E80B1092E90BC090E60BD09069
:1029B000E70BE090E80BF090E90B20E030E0A90194
:1029C000C701B6010E94CB1F87FF61C5C701B601D1
:1029D00090580E943C2000271127061B170B20E06F
:1029E00030E040E251E46091A10B7091A20B809124
:1029F000A30B9091A40B0E94671F2DEC3CEC4CE4C0
:102A000055E40E94BF210E94A5206093E60B7093BD
:102A1000E70B8093E80B9093E90B0E947A1E8823C2
:102A200009F43AC51092E60B1092E70B1092E80BEE
:102A30001092E90BC090E60BD090E70BE090E80B0A
:102A4000F090E90B20E030E0A901C701B6010E9437
:102A5000CB1F87FF42C5C701B60190580E943C209A
:102A60007195619571097093BC0B6093BD0B20E06B
:102A700030E040E251E46091A90B7091AA0B809183
:102A8000AB0B9091AC0B0E94671F2DEC3CEC4CE41F
:102A900055E40E94BF210E94A5206093E60B70932D
:102AA000E70B8093E80B9093E90B0E947A1E882332
:102AB00009F417C51092E60B1092E70B1092E80B81
:102AC0001092E90BC090E60BD090E70BE090E80B7A
:102AD000F090E90B20E030E0A901C701B6010E94A7
:102AE000CB1F87FF1FC5C701B60190580E943C202D
:102AF000AA27BB27A61BB70BBE83AD83C0900A06CF
:102B0000D0900B06E0900C06F0900D06A701960100
:102B10006091240C7091250C8091260C9091270CCB
:102B20000E94CB1F882341F0C092240CD092250C28
:102B3000E092260CF092270C8091D4068093B10B82
:102B40001093BA0B0093BB0BBE81B093BE0BED810B
:102B5000E093BF0B6091380C7091390C80913A0C66
:102B600090913B0C0E943C20C62E6091300C7091DD
:102B7000310C8091320C9091330C0E943C20E62E57
:102B80006091340C7091350C8091360C9091370C1B
:102B90000E943C20062F60912C0C70912D0C80918E
:102BA0002E0C90912F0C0E943C206D836091280C7C
:102BB0007091290C80912A0C90912B0C0E943C2042
:102BC000862F912C812C92E0A92E2D814FE050E090
:102BD00061EB7BE00E944C018091F60B9091F70B2A
:102BE000A091F80BB091F90B8D839E83AF83B887CA
:102BF0008091680C9091690CA0916A0CB0916B0C5B
:102C00008D879E87AF87B88B8090DE0B9090DF0B0F
:102C1000A090E00BB090E10B8091DA0B9091DB0B70
:102C2000A091DC0BB091DD0B898B9A8BAB8BBC8BAD
:102C30000EE515E020EC222E2BE0322E1EA70DA76C
:102C40000C5F1F4FADA5BEA51C962D913D914D91DA
:102C50005C911F976D897E898F89988D0E94BF2115
:102C60006B017C01EDA5FEA520813181428153815C
:102C70006D817E818F8198850E94BF219B01AC016F
:102C8000C701B6010E94671F6B017C01D8015496F1
:102C90002D913D914D915C91579769A57AA58BA592
:102CA0009CA50E94BF219B01AC01C701B6010E94F7
:102CB000671F6B017C01F80120AD31AD42AD53AD12
:102CC0006D857E858F8598890E94BF212B013C01EF
:102CD000D8019C962D913D914D915C919F97C50196
:102CE000B4010E94BF219B01AC01C301B2010E944B
:102CF000671F2B013C01F80120A131A142A153A182
:102D000069897A898B899C890E94BF219B01AC01CA
:102D1000C301B2010E94671F9B01AC01C701B6014C
:102D20000E94671FD1016D937D938D939D931D012B
:102D3000EAE6F5E0E017F10709F080CF8091E20BB9
:102D40009091E30BA091E40BB091E50B8D839E83F2
:102D5000AF83B88720910E0530910F054091100583
:102D600050911105BC01CD010E94BF216B017C0176
:102D700020911605309117054091180550911905BD
:102D8000698D7A8D8B8D9C8D0E94BF219B01AC013A
:102D9000C701B6010E94671F6B017C0120911E05CF
:102DA00030911F05409120055091210569857A8554
:102DB0008B859C850E94BF219B01AC01C701B60198
:102DC0000E94671F6B017C01209126053091270529
:102DD00040912805509129056D8D7E8D8F8D98A18C
:102DE0000E94BF219B01AC01C701B6010E94671F71
:102DF0002B013C014092CC0B5092CD0B6092CE0B3C
:102E00007092CF0B20911A0530911B0540911C0543
:102E100050911D05698D7A8D8B8D9C8D0E94BF21EF
:102E20006B017C012091120530911305409114052E
:102E3000509115056D817E818F8198850E94BF21FB
:102E40009B01AC01C701B6010E94671F6B017C01A9
:102E500020912205309123054091240550912505AC
:102E600069857A858B859C850E94BF219B01AC0179
:102E7000C701B6010E94671F6B017C0120912A05E2
:102E800030912B0540912C0550912D056D8D7E8D37
:102E90008F8D98A10E94BF219B01AC01C701B60193
:102EA0000E94671F6B017C01C092D00BD092D10BA6
:102EB000E092D20BF092D30BA3019201C501B401B1
:102EC0000E94661F6D8B7E8B8F8B988F6093DE0BBD
:102ED0007093DF0B8093E00B9093E10BA7019601B9
:102EE0006D857E858F859889F1D74B015C01809235
:102EF000F60B9092F70BA092F80BB092F90B01E948
:102F00001BE08EE3282E85E0382EA981BA81BE878A
:102F1000AD87FD013496FA83E98350962D913D915A
:102F20004D915C915397698D7A8D8B8D9C8D0E940C
:102F3000BF216B017C01AD85BE852D913D914D91E9
:102F40005C916D817E818F8198850E94BF219B015C
:102F5000AC01C701B601BBD76B017C01ED85FE85D5
:102F600020A131A142A153A169857A858B859C85D9
:102F70000E94BF219B01AC01C701B601A8D76B011C
:102F80007C01AD85BE85D0962D913D914D915C9192
:102F9000D3976D8D7E8D8F8D98A10E94BF219B014F
:102FA000AC01C701B60193D76B017C013E862D862B
:102FB000B4E02B0E311CED85FE85208931894289D4
:102FC0005389C501B4010E94BF212B013C01AD858D
:102FD000BE852D913D914D915C916D897E898F8942
:102FE000988D0E94BF219B01AC01C301B2016FD734
:102FF0002B013C01E981FA8124AD35AD46AD57ADD9
:1030000069897A898B899C890E94BF219B01AC01C7
:10301000C301B2015CD7A701960159D7D8016D93BE
:103020007D938D939D938D01E981FA81EE5CF4404F
:1030300009F06BCFC092E60BD092E70BE092E80B61
:10304000F092E90B84ED9BE00E948F0D6091D40B10
:103050007091D50B072E000C880B990B0E946A20EB
:103060002091F6053091F7054091F8055091F9054A
:103070002DD72091C6063091C7064091C8065091C1
:10308000C9060E94BF212B013C0120910E06309100
:103090000F0640911006509111066091DA0B709165
:1030A000DB0B8091DC0B9091DD0B75D7682F661FD1
:1030B0006627661F88E00E94AF0D8090DA0B909023
:1030C000DB0BA090DC0BB090DD0BC0900606D0901F
:1030D0000706E0900806F0900906A7019601C501D1
:1030E000B4010E94BB2118160CF022C2C092DA0B68
:1030F000D092DB0BE092DC0BF092DD0B28C2E98171
:10310000FA813197FA83E9830C943710E981FA81C7
:103110003196FA83E983D7016D917D918D919D91CF
:103120007D01A501940137D7181684F70C94491036
:103130001A8219820C944910E7E1F0E0FA83E983DE
:103140000C944910E981FA812E0E3F1EE9E7FBE05D
:1031500081E99BE0D1014D915D916D917C9141930D
:10316000519361937193B4E62B0E311C8E179F0718
:1031700089F70C949610A5019401C301B201A6D65B
:103180004B015C01A7019601C301B2019FD69B01CF
:10319000AC01C501B40103D74B015C01AC019B013B
:1031A00060E070E080E89FE391D669877A878B873B
:1031B0009C87ED81FE81E20DF31DFE83ED83298165
:1031C0003A81220E331E09E71BE0AD81BE81CD900E
:1031D000DD90ED90FC90F101408051806280738021
:1031E000A3019201C701B601D6D68823B9F0A70181
:1031F0009601C501B4010E94BF216B017C01A301AE
:10320000920169857A858B859C850E94BF219B01EF
:10321000AC01C701B6015BD66B017C01D801CD9230
:10322000DD92ED92FD928D01ED81FE81EC59FF4F13
:10323000FE83ED83F4E62F0E311C21E93BE02A17D3
:103240003B0719F60C9496108091D206813089F5CF
:103250008D859E85AF85B8898093E60B9093E70BAB
:10326000A093E80BB093E90B898D9A8DAB8DBC8D43
:103270008093EA0B9093EB0BA093EC0BB093ED0BC8
:1032800089859A85AB85BC858093EE0B9093EF0B77
:10329000A093F00BB093F10B8D8D9E8DAF8DB8A1E7
:1032A0008093F20B9093F30BA093F40BB093F50B78
:1032B00089C98091A10B9091A20BA091A30BB09111
:1032C000A40B8093E60B9093E70BA093E80BB093CD
:1032D000E90B8091A50B9091A60BA091A70BB09143
:1032E000A80B8093EA0B9093EB0BA093EC0BB0939D
:1032F000ED0B8091A90B9091AA0BA091AB0BB09113
:10330000AC0B8093EE0B9093EF0BA093F00BB0936C
:10331000F10B8091AD0B9091AE0BA091AF0BB091E2
:10332000B00BBECF6091E60B7091E70B8091E80B7C
:103330009091E90BB6D4811114CA6091E60B70919B
:10334000E70B8091E80B9091E90B20E030E040E83A
:1033500057E415D76093E60B7093E70B8093E80B67
:103360009093E90B06CAC701B60186D61BCA6091C5
:10337000E60B7091E70B8091E80B9091E90B91D4EB
:10338000811137CA6091E60B7091E70B8091E80BD1
:103390009091E90B20E030E040E857E4F0D66093EC
:1033A000E60B7093E70B8093E80B9093E90B29CA27
:1033B000C701B60161D63ECA6091E60B7091E70B7A
:1033C0008091E80B9091E90B6CD481115ACA6091FD
:1033D000E60B7091E70B8091E80B9091E90B20E0F0
:1033E00030E040E857E4CBD66093E60B7093E70BF0
:1033F0008093E80B9093E90B4CCAC701B6013CD609
:1034000061CA6091E60B7091E70B8091E80B909197
:10341000E90B47D481117DCA6091E60B7091E70BEF
:103420008091E80B9091E90B20E030E040E857E410
:10343000A6D66093E60B7093E70B8093E80B90930E
:10344000E90B6FCAC701B60117D684CA6091E60BB3
:103450007091E70B8091E80B9091E90B22D48111D8
:103460009CCA6091E60B7091E70B8091E80B9091FC
:10347000E90B20E030E040E857E481D66093E60BAA
:103480007093E70B8093E80B9093E90B8ECAC7010A
:10349000B601F2D58B01A3CA6091E60B7091E70BE0
:1034A0008091E80B9091E90BFCD38111BBCA60912C
:1034B000E60B7091E70B8091E80B9091E90B20E00F
:1034C00030E040E857E45BD66093E60B7093E70B7F
:1034D0008093E80B9093E90BADCAC701B601CCD538
:1034E000C2CA6091E60B7091E70B8091E80B909156
:1034F000E90BD7D38111DECA6091E60B7091E70B1F
:103500008091E80B9091E90B20E030E040E857E42F
:1035100036D66093E60B7093E70B8093E80B90939D
:10352000E90BD0CAC701B601A7D57E836D83E6CA71
:10353000C090CA06D090CB06E090CC06F090CD06A5
:10354000A7019601C501B40126D587FDCFCD6091B5
:10355000460C7091470C8091480C9091490C0E9448
:10356000EE0D9093450C8093440C2091DA0B309132
:10357000DB0B4091DC0B5091DD0B6091CE0670911E
:10358000CF068091D0069091D106F9D6DED56B0199
:103590007C01B0D381119FC1C701B60182D38111D3
:1035A0009AC120E030E040E853E4C701B601E7D516
:1035B0006B017C0120E030E0A901EDD487FF8EC1D2
:1035C000C701B601905858D5619570E090E080E051
:1035D00081D5AB01BC018091440C9091450C0E94B7
:1035E000B70D89A19AA1ABA1BCA18093640C909363
:1035F000650CA093660CB093670C20911E06309169
:103600001F064091200650912106C301B201B7D692
:103610002091680C3091690C40916A0C50916B0CB0
:1036200056D46093680C7093690C80936A0C9093E5
:103630006B0C8DA19EA1AFA1B8A580936C0C90934B
:103640006D0CA0936E0CB0936F0C2091700C3091A8
:10365000710C4091720C5091730C60912A0670911C
:103660002B0680912C0690912D0689D62091910BE6
:103670003091920B4091930B5091940B28D460930E
:10368000700C7093710C8093720C9093730C20915A
:10369000740C3091750C4091760C5091770C6091C0
:1036A000460670914706809148069091490667D674
:1036B0002091950B3091960B4091970B5091980B60
:1036C00006D46093740C7093750C8093760C909371
:1036D000770C2091780C3091790C40917A0C5091B4
:1036E0007B0C6091620670916306809164069091F4
:1036F000650645D62091990B30919A0B40919B0B12
:1037000050919C0BE4D36093780C7093790C809368
:103710007A0C90937B0C20917C0C30917D0C409125
:103720007E0C50917F0C60917E0670917F06809197
:1037300080069091810623D620919D0B30919E0B9F
:1037400040919F0B5091A00BC2D360937C0C70935F
:103750007D0C80937E0C90937F0C2091800C309197
:10376000810C4091820C5091830C60918A0670917B
:103770008B0680918C0690918D0601D62091C00B0E
:103780003091C10B4091C20B5091C30BA0D36093F9
:10379000800C7093810C8093820C9093830C209109
:1037A000840C3091850C4091860C5091870C60916F
:1037B000A2067091A3068091A4069091A506DFD57C
:1037C0002091C40B3091C50B4091C60B5091C70B93
:1037D0007ED36093840C7093850C8093860C9093B9
:1037E000870C2091880C3091890C40918A0C509163
:1037F0008B0C6091BA067091BB068091BC069091CB
:10380000BD06BDD52091C80B3091C90B4091CA0BA4
:103810005091CB0B5CD36093880C7093890C809390
:103820008A0C90938B0C6091E1087091E208809172
:10383000E3089091E4086F5F7F4F8F4F9F4F609335
:10384000E1087093E2088093E3089093E408A09164
:10385000EF08B091F008BA83A9833AD49B01AC0178
:103860006091E5087091E6088091E7089091E8087A
:1038700086D5E981FA816083718382839383809105
:10388000E9089091EA08A091EB08B091EC08019644
:10389000A11DB11D8093E9089093EA08A093EB085D
:1038A000B093EC08AE960FB6F894DEBF0FBECDBF56
:1038B000DF91CF911F910F91FF90EF90DF90CF900C
:1038C000BF90AF909F908F907F906F905F904F9040
:1038D0003F902F900895C12CD12C7601C701B601DD
:1038E000CBD373CE4F925F926F927F92AF92BF9283
:1038F000DF92EF92FF920F931F93CF93DF9384E0B9
:1039000090E098D1E2E6F8E087E9DF011D928A9520
:10391000E9F78DEE98E095838483CFEED8E0D7AFBA
:10392000C6AF05EE18E0138B028BF093CB08E09343
:10393000CA08F383E28321E030E0DC012D933C935D
:103940008BE097E09187808781EF98E09983888367
:1039500042E450E665E67CE3F801408351836283EC
:103960007383E9E7FBE085E8DF011D928A95E9F7BB
:10397000CEEFDBE080E9FE0111928A95E9F78AE556
:1039800094E090935F0C80935E0C82E092E09093C1
:10399000610C8093600C412C512C32014394409275
:1039A0004B0C50924C0C60924D0C70924E0C42E1BC
:1039B00050E063E170E081E090E00E942207DD24A6
:1039C000D394D0924F0C188280910A0690910B06E6
:1039D000A0910C06B0910D068EA39FA3A8A7B9A72E
:1039E00049825A826B827C821AA61BA61CA61DA63F
:1039F00080E090E0A0E8BFE38EA79FA7A8ABB9AB9B
:103A00001AAA1BAA1CAA1DAA1EAA1FAA18AE19AE82
:103A10001AAE1BAE1CAE1DAE80E00E942D01DD82F1
:103A20001092500C4092510C5092520C6092530CD8
:103A30007092540C90E080E00E94820DD092550C60
:103A40001092560C4092570C5092580C6092590CA0
:103A500070925A0C61E088E00E94A70DD0925B0C36
:103A600010923E0C96E4A92E9CE0B92E86E090E0E0
:103A7000A0E0B0E0F50180839183A283B383C3E427
:103A8000DCE0188240923F0C5092400C6092410C56
:103A90007092420CE12CF12C8701A801970166E09D
:103AA00070E080E090E00E94320E04E41CE0D80157
:103AB0008D939C93F50160817181828193810E9435
:103AC000EE0DD8018D939C930E94B60DD882809103
:103AD000FE059091FF05A0910006B091010680932C
:103AE000640C9093650CA093660CB093670C809166
:103AF000220690912306A0912406B091250680937A
:103B0000680C9093690CA0936A0CB0936B0C809135
:103B1000020690910306A0910406B09105068093D9
:103B20006C0C90936D0CA0936E0CB0936F0CDF91A6
:103B3000CF911F910F91FF90EF90DF90BF90AF90CA
:103B40007F906F905F904F90089580914A0C811103
:103B500003C081E080934A0C8091FE0B811103C069
:103B600081E08093FE0B8091500C811103C081E0B5
:103B70008093500C8091560C811103C081E080939A
:103B8000560C80913E0C811136C081E080933E0C32
:103B900080913F0C9091400CA091410CB091420C4F
:103BA0000197A105B10539F58091430C882319F1DE
:103BB0006091460C7091470C8091480C9091490C93
:103BC0000E94EE0D9093450C8093440C40E050E031
:103BD000BA010E94B70D6091460C7091470C80911C
:103BE000480C9091490C0E94EE0D9093450C8093E7
:103BF000440C0C94830E089560E070E080E89FE729
:103C0000089560E070E080E89FE7089560E070E06C
:103C100080E89FEF089560E070E080E89FEF0895EE
:103C200060E070E080EC9FEF089560E070E080EC71
:103C30009FEF0895F5DF60939A0C70939B0C80932F
:103C40009C0C90939D0CF1DF60938E0C70938F0C05
:103C50008093900C9093910CCFDF6093960C7093AF
:103C6000970C8093980C9093990CCBDF6093920CF7
:103C70007093930C8093940C9093950CC7DF609392
:103C80009E0C70939F0C8093A00C9093A10CC3DFAB
:103C90006093A20C7093A30C8093A40C9093A50C3A
:103CA0000895CF92DF92EF92FF92CF936B017C0148
:103CB000AC019B016091920C7091930C8091940CDB
:103CC0009091950C68D1C1E0882369F0A701960115
:103CD0006091A20C7091A30C8091A40C9091A50C02
:103CE0005AD18111C0E08C2FCF91FF90EF90DF90DF
:103CF000CF9008950F931F938B019C0100271127EC
:103D000020783F770115110520483F4749F4AB0162
:103D1000BC016F77772781E0452B462B472B09F4B1
:103D200080E01F910F91089540E052EC61E070E057
:103D300090E080E006D061E08DE049D760E08DE062
:103D400082C78130910579F01CF4892B39F00895F0
:103D50008230910561F0039771F0089526E085E0C7
:103D600099E00C941A2726E082EA99E0FACF26E03F
:103D70008FE39AE0F6CF26E08CED9AE0F2CF1F9227
:103D80000F920FB60F9211240BB60F922F933F9301
:103D90004F935F936F937F938F939F93AF93BF9353
:103DA000EF93FF9385E99CEF909325018093240185
:103DB0008091FA089091FB08019719F461E08DE079
:103DC00042D734D0FF91EF91BF91AF919F918F91E6
:103DD0007F916F915F914F913F912F910F900BBE0B
:103DE0000F900FBE0F901F90189585E99CEF909350
:103DF000250180932401A3E7B0E08C918E7F8C9302
:103E0000E0E2F1E080818C7F8083E1E2F1E080817B
:103E1000877E808380818460808380818C7F8083A3
:103E20008C9181608C93089581E008958091F908C8
:103E300091E0980F9093F908882349F021E030E051
:103E40003093FB082093FA088093F908089578943A
:103E50000E94D10FF8948091F9088150F5CFCF934B
:103E6000DF931092A70C1092A60C15D55DDFC091C0
:103E70001D07D0911E071982188234DDF894B5DF32
:103E800081E028813981232B09F080E08093A60C02
:103E9000789478948091A60C811107C056DEF8942E
:103EA00090E080E0DF91CF91089581E02881398111
:103EB000232B09F480E08093A70C9091A70C81E05C
:103EC000911180E08093A60CAFDFE4CF5058BB2760
:103ED000AA270ED0FFC1F0D130F0F5D120F031F497
:103EE0009F3F11F41EF4E5C10EF4E095E7FBB2C16B
:103EF000E92F01D280F3BA17620773078407950789
:103F000018F071F49EF530C20EF4E0950B2EBA2F26
:103F1000A02D0B01B90190010C01CA01A0011124CF
:103F2000FF27591B99F0593F50F4503E68F11A167B
:103F3000F040A22F232F342F4427585FF3CF46950C
:103F400037952795A795F0405395C9F77EF41F162E
:103F5000BA0B620B730B840BBAF09150A1F0FF0FF8
:103F6000BB1F661F771F881FC2F70EC0BA0F621FE4
:103F7000731F841F48F4879577956795B795F795D4
:103F80009E3F08F0B3CF9395880F08F09927EE0F66
:103F90009795879508953AD108F481E008950CD05B
:103FA00099C191D140F088D130F021F45F3F19F0F0
:103FB00051C15111DAC17DC19ED198F39923C9F342
:103FC0005523B1F3951B550BBB27AA27621773071F
:103FD000840738F09F5F5F4F220F331F441FAA1FD3
:103FE000A9F333D00E2E3AF0E0E830D09150504093
:103FF000E695001CCAF729D0FE2F27D0660F771F41
:10400000881FBB1F261737074807AB07B0E809F022
:10401000BB0B802DBF01FF2793585F4F2AF09E3FB7
:10402000510568F017C1A1C15F3FECF3983EDCF386
:10403000869577956795B795F7959F5FC9F7880F30
:10404000911D9695879597F90895E1E0660F771F82
:10405000881FBB1F621773078407BA0720F0621B13
:10406000730B840BBA0BEE1F88F7E095089504D00C
:104070006894B1117AC1089546D188F09F5790F0A5
:10408000B92F9927B751A0F0D1F0660F771F881F7D
:10409000991F1AF0BA95C9F712C0B13081F064D1F6
:1040A000B1E0089561C1672F782F8827B85F39F094
:1040B000B93FCCF3869577956795B395D9F73EF4DC
:1040C00090958095709561957F4F8F4F9F4F089584
:1040D000E89409C097FB3EF49095809570956195A2
:1040E0007F4F8F4F9F4F9923A9F0F92F96E9BB2758
:1040F0009395F695879577956795B795F111F8CFD4
:10410000FAF4BB0F11F460FF1BC06F5F7F4F8F4F3E
:104110009F4F16C0882311F096E911C0772321F034
:104120009EE8872F762F05C0662371F096E8862FCC
:1041300070E060E02AF09A95660F771F881FDAF723
:10414000880F9695879597F90895F7D080F09F3757
:1041500040F491110EF009C160E070E080E89FEB3F
:10416000089526F41B16611D711D811D79C093C031
:10417000A3D018F011F0A7D038F49BC0F6C0E92FF7
:10418000BAD0B0F35523C9F3E7FB6217730784076E
:104190009507A8F199F3E92FFF2788232AF0319793
:1041A000660F771F881FDAF7952F5527442332F0C3
:1041B00091505040220F331F441FD2F7BB27E91BF9
:1041C000F50B621B730B840BB109C1F222F4620F71
:1041D000731F841FB11D31972AF0660F771F881F48
:1041E000BB1FEFCF915050405AF041F0882332F07E
:1041F000660F771F881F91505040C1F793954BC0B1
:104200008695779567959F5FD9F7F8CF990F000846
:10421000550FAA0BE0E8FEEF16161706E807F90798
:10422000C0F012161306E407F50798F0621B730B33
:10423000840B950B39F40A2661F0232B242B252BB4
:1042400021F408950A2609F4A140A6958FEF811D57
:10425000811D089597F99F6780E870E060E00895F8
:10426000882371F4772321F09850872B762F07C08D
:10427000662311F499270DC09051862B70E060E001
:104280002AF09A95660F771F881FDAF7880F9695A0
:10429000879597F908959F3F31F0915020F48795C5
:1042A00077956795B795880F911D9695879597F99E
:1042B00008959FEF80EC089500240A9416161706BF
:1042C00018060906089500240A9412161306140607
:1042D00005060895092E0394000C11F4882352F06A
:1042E000BB0F40F4BF2B11F460FF04C06F5F7F4F22
:1042F0008F4F9F4F089557FD9058440F551F59F009
:104300005F3F71F04795880F97FB991F61F09F3FC2
:1043100079F087950895121613061406551FF2CFEB
:104320004695F1DF08C0161617061806991FF1CF3B
:1043300086957105610508940895E5DFA0F0BEE754
:10434000B91788F4BB279F3860F41616B11D672F84
:10435000782F8827985FF7CF869577956795B11D59
:1043600093959639C8F30895E894BB276627772775
:10437000CB0197F908954ADF08F48FEF08950BD029
:10438000A9CF9ADF28F09FDF18F0952309F062CFBC
:1043900090CF1124EACFAFDFA0F3959FD1F3950F13
:1043A00050E0551F629FF001729FBB27F00DB11DB9
:1043B000639FAA27F00DB11DAA1F649F6627B00D49
:1043C000A11D661F829F2227B00DA11D621F739F32
:1043D000B00DA11D621F839FA00D611D221F749F40
:1043E0003327A00D611D231F849F600D211D822F87
:1043F000762F6A2F11249F5750408AF0E1F08823CE
:104400004AF0EE0FFF1FBB1F661F771F881F9150DA
:104410005040A9F79E3F510570F01CCFA6CF5F3FDB
:10442000ECF3983EDCF3869577956795B795F7950D
:10443000E7959F5FC1F7FE2B880F911D9695879595
:1044400097F908950895883008F076C0E82FF0E0D5
:10445000EE0FFF1FEB52F94F71836083815087305D
:1044600008F03DC0E82FF0E08827E65CFD4D8F4F57
:104470000C94032C77224122492255226222832266
:104480009022809169008C7F482B40936900E89AC4
:10449000089580916900837F440F551F440F551F75
:1044A000482B40936900E99A0895809169008F7CB8
:1044B00074E0440F551F7A95E1F7482B409369004B
:1044C000EA9A0895809169008F7366E0440F551F42
:1044D0006A95E1F7482B40936900EB9A0895809123
:1044E0006A008C7F482B40936A00EC9A0895809173
:1044F0006A00837F440F551F440F551F482B40937C
:104500006A00ED9A089580916A008F7C24E0440F40
:10451000551F2A95E1F7482B40936A00EE9A0895BB
:1045200080916A008F7396E0440F551F9A95E1F7CA
:10453000482B40936A00EF9A08951F920F920FB68E
:104540000F9211240BB60F922F933F934F935F93CB
:104550006F937F938F939F93AF93BF93EF93FF934B
:10456000E091D906F091DA061995FF91EF91BF918C
:10457000AF919F918F917F916F915F914F913F91FB
:104580002F910F900BBE0F900FBE0F901F9018959C
:104590001F920F920FB60F9211240BB60F922F930A
:1045A0003F934F935F936F937F938F939F93AF93BB
:1045B000BF93EF93FF93E091DB06F091DC06199532
:1045C000FF91EF91BF91AF919F918F917F916F91EB
:1045D0005F914F913F912F910F900BBE0F900FBEA7
:1045E0000F901F9018951F920F920FB60F921124E3
:1045F0000BB60F922F933F934F935F936F937F93DD
:104600008F939F93AF93BF93EF93FF93E091DD065A
:10461000F091DE061995FF91EF91BF91AF919F91B7
:104620008F917F916F915F914F913F912F910F905B
:104630000BBE0F900FBE0F901F9018951F920F92F8
:104640000FB60F9211240BB60F922F933F934F93F7
:104650005F936F937F938F939F93AF93BF93EF93EA
:10466000FF93E091DF06F091E0061995FF91EF913D
:10467000BF91AF919F918F917F916F915F914F917A
:104680003F912F910F900BBE0F900FBE0F901F9078
:1046900018951F920F920FB60F9211240BB60F921E
:1046A0002F933F934F935F936F937F938F939F933A
:1046B000AF93BF93EF93FF93E091D506F091D606A9
:1046C0001995FF91EF91BF91AF919F918F917F913C
:1046D0006F915F914F913F912F910F900BBE0F9073
:1046E0000FBE0F901F9018951F920F920FB60F924A
:1046F00011240BB60F922F933F934F935F936F93B9
:104700007F938F939F93AF93BF93EF93FF93E0912A
:10471000D706F091D8061995FF91EF91BF91AF910F
:104720009F918F917F916F915F914F913F912F91C9
:104730000F900BBE0F900FBE0F901F9018951F92F9
:104740000F920FB60F9211240BB60F922F933F9337
:104750004F935F936F937F938F939F93AF93BF9389
:10476000EF93FF93E091E106F091E2061995FF9136
:10477000EF91BF91AF919F918F917F916F915F91D9
:104780004F913F912F910F900BBE0F900FBE0F9046
:104790001F9018951F920F920FB60F9211240BB60F
:1047A0000F922F933F934F935F936F937F938F93CA
:1047B0009F93AF93BF93EF93FF93E091E306F09144
:1047C000E4061995FF91EF91BF91AF919F918F9161
:1047D0007F916F915F914F913F912F910F900BBE01
:1047E0000F900FBE0F901F9018951F920F920FB64B
:1047F0000F9211242F933F938F939F93AF93BF9367
:104800008091FD089091FE08A091FF08B0910009E9
:104810003091FC0823E0230F2D3758F50196A11D98
:10482000B11D2093FC088093FD089093FE08A0938F
:10483000FF08B09300098091010990910209A091AD
:104840000309B09104090196A11DB11D80930109CE
:1048500090930209A0930309B0930409BF91AF910B
:104860009F918F913F912F910F900FBE0F901F90AE
:10487000189526E8230F0296A11DB11DD2CF2FB7A0
:10488000F8946091FD087091FE088091FF08909166
:1048900000092FBF0895789484B5826084BD84B5E3
:1048A000816084BD85B5826085BD85B5816085BD2B
:1048B000EEE6F0E0808181608083E1E8F0E0108244
:1048C000808182608083808181608083E0E8F0E085
:1048D000808181608083E1EBF0E08081846080836F
:1048E000E0EBF0E0808181608083E1E9F0E08081AD
:1048F00082608083808181608083E0E9F0E0808154
:1049000081608083E1EAF0E0808182608083808141
:1049100081608083E0EAF0E0808181608083E1E271
:10492000F1E0808182608083808181608083E0E229
:10493000F1E0808181608083EAE7F0E0808184603B
:104940008083808182608083808181608083808198
:10495000806880831092C10008951F93CF93DF93E6
:10496000182FEB0161E033D1209731F460E0812F03
:10497000DF91CF911F9167C1CF3FD10511F461E065
:10498000F6CFE12FF0E0EC51FF4FE491E150E2313E
:1049900008F0B2C0F0E08827E053FB4D8F4F33C7DB
:1049A000E224EA24EF24F92403257C250D2515258E
:1049B0001D25272531253B254A2554257C255E25A7
:1049C0006825722584B5806884BDC7BDDF91CF910D
:1049D0001F91089584B5806284BDC8BDF7CF8091D2
:1049E0008000806880938000D0938900C093880005
:1049F000EDCF80918000806280938000D0938B0007
:104A0000C0938A00E3CF809180008860809380000B
:104A1000D0938D00C0938C00D9CF8091B000806876
:104A20008093B000C093B300D1CF8091B00080627A
:104A30008093B000C093B400C9CF8091900080688B
:104A400080939000D0939900C0939800BFCF80913D
:104A50009000806280939000D0939B00C0939A0056
:104A6000B5CF80919000886080939000D0939D0096
:104A7000C0939C00ABCF8091A00080688093A00081
:104A80008091A0008F7B8093A000D093A900C09359
:104A9000A8009CCF8091A00080628093A000D0935A
:104AA000AB00C093AA0092CF8091A0008860809351
:104AB000A000D093AD00C093AC0088CF80912001BE
:104AC000806880932001D0932901C09328017ECF74
:104AD00080912001806280932001D0932B01C093AC
:104AE0002A0174CF80912001886080932001D093A7
:104AF0002D01C0932C016ACFC038D1050CF03FCFF7
:104B000035CF8150823108F059C0E82FF0E0882776
:104B1000E457FA4D8F4F77C6AC25B0259E25A425C6
:104B2000A825DE25B325B925BD25C325C725CB2559
:104B3000D125D525DE25D925DF25E32580918000E7
:104B40008F77809380000895809180008F7DF9CFCA
:104B500080918000877FF5CF84B58F7784BD0895DD
:104B600084B58F7DFBCF8091B0008F778093B000AC
:104B700008958091B0008F7DF9CF809190008F775C
:104B8000809390000895809190008F7DF9CF80915F
:104B90009000877FF5CF8091A0008F778093A00051
:104BA00008958091A0008F7DF9CF8091A000877F2C
:104BB000F5CF809120018F77809320010895809117
:104BC00020018F7DF9CF80912001877FF5CFCF9392
:104BD000DF9390E0FC01E65DFE4F249180599E4FEB
:104BE000FC0184918823C9F090E0880F991FFC0193
:104BF000E053FE4FA591B491FC01EA54FE4FC591DC
:104C0000D49161110DC09FB7F8948C9120958223A7
:104C10008C938881282328839FBFDF91CF910895AB
:104C2000623051F49FB7F8943C91822F8095832392
:104C30008C93E8812E2BEFCF8FB7F894EC912E2B2D
:104C40002C938FBFEACF1F93CF93DF93282F30E0B1
:104C5000F901EC51FF4F8491F901E65DFE4FD491CB
:104C6000F901E059FE4FC491CC23A1F0162F811118
:104C700048DFEC2FF0E0EE0FFF1FEA54FE4FA59146
:104C8000B4918FB7F894EC91111108C0D095DE2340
:104C9000DC938FBFDF91CF911F910895DE2BF8CF6A
:104CA000FC01918D228D892F90E0805C9F4F821BAB
:104CB00091098F7399270895FC01918D828D981722
:104CC00031F0828DE80FF11D858D90E008958FEF12
:104CD0009FEF0895FC01918D828D981761F0A28D50
:104CE000AE0FBF2FB11D5D968C91928D9F5F9F730C
:104CF000928F90E008958FEF9FEF0895FC01538D00
:104D0000448D252F30E0842F90E0821B930B5417A5
:104D100010F0CF96089501970895FC01A48DA80F77
:104D2000B92FB11DA35ABF4F2C91848D90E00196ED
:104D30008F739927848FA689B7892C93A089B1890D
:104D40008C91837080648C93938D848D981306C0AE
:104D50000288F389E02D80818F7D80830895CF9331
:104D6000DF93EC01888D8823B1F0AA89BB89E8899B
:104D7000F9898C9185FD03C0808186FD0CC00FB63A
:104D800007FCF7CF8C9185FFF2CF808185FFEDCFB7
:104D9000CE01C3DFEACFDF91CF910895EF92FF926A
:104DA0000F931F93CF93DF93EC0181E0888F9B8D4E
:104DB0008C8D98131AC0E889F989808185FF15C008
:104DC0009FB7F894EE89FF896083E889F98980812B
:104DD0008370806480839FBF81E090E0DF91CF91FA
:104DE0001F910F91FF90EF900895F62E0B8D10E01C
:104DF0000F5F1F4F0F731127E02E8C8D8E110BC08C
:104E00000FB607FCFACFE889F989808185FFF5CFD5
:104E1000CE0183DFF2CFEB8DEC0FFD2FF11DE35AB6
:104E2000FF4FF0829FB7F8940B8FEA89FB8980814E
:104E30008062D0CFCF92DF92EF92FF921F93CF93F9
:104E4000DF93EC016A017B01122FE889F98982E086
:104E50008083C11481EED806E104F10499F060E08A
:104E600079E08DE390E0A7019601ABD421503109A0
:104E7000410951095695479537952795211580E1A8
:104E8000380790F0E889F989108260E874E88EE1CB
:104E900090E0A701960195D42150310941095109AB
:104EA0005695479537952795EC85FD853083EE859A
:104EB000FF852083188EEC89FD891083EA89FB89A0
:104EC000808180618083EA89FB898081886080831A
:104ED000EA89FB89808180688083EA89FB898081F7
:104EE0008F7D8083DF91CF911F91FF90EF90DF90B6
:104EF000CF9008951F920F920FB60F9211240BB608
:104F00000F922F938F939F93EF93FF93E091150947
:104F1000F09116098081E0911B09F0911C0982FD36
:104F20001DC0908180911E098F5F8F7320911F0992
:104F3000821741F0E0911E09F0E0EB5FF64F958F8C
:104F400080931E09FF91EF919F918F912F910F9068
:104F50000BBE0F900FBE0F901F9018958081F2CF5F
:104F60001F920F920FB60F9211240BB60F922F9330
:104F70003F934F935F936F937F938F939F93AF93E1
:104F8000BF93EF93FF9385E099E0C7DEFF91EF9128
:104F9000BF91AF919F918F917F916F915F914F9151
:104FA0003F912F910F900BBE0F900FBE0F901F904F
:104FB0001895E5E0F9E01382128288EE93E0A0E014
:104FC000B0E084839583A683B78383E297E09183DF
:104FD000808385EC90E09587848784EC90E09787C8
:104FE000868780EC90E0918B808B81EC90E0938BB6
:104FF000828B82EC90E0958B848B86EC90E0978B93
:10500000868B118E128E138E148E08951F920F921E
:105010000FB60F9211240BB60F922F938F939F937D
:10502000EF93FF93E091B209F091B3098081E09191
:10503000B809F091B90982FD1DC090818091BB092A
:105040008F5F8F732091BC09821741F0E091BB09FB
:10505000F0E0EE55F64F958F8093BB09FF91EF91ED
:105060009F918F912F910F900BBE0F900FBE0F90BD
:105070001F9018958081F2CF1F920F920FB60F925A
:1050800011240BB60F922F933F934F935F936F931F
:105090007F938F939F93AF93BF93EF93FF9382EA96
:1050A00099E03BDEFF91EF91BF91AF919F918F917E
:1050B0007F916F915F914F913F912F910F900BBE18
:1050C0000F900FBE0F901F901895E2EAF9E013823F
:1050D000128288EE93E0A0E0B0E084839583A683FB
:1050E000B78383E297E0918380838DEC90E095878E
:1050F00084878CEC90E09787868788EC90E0918B92
:10510000808B89EC90E0938B828B8AEC90E0958B7E
:10511000848B8EEC90E0978B868B118E128E138E83
:10512000148E08951F920F920FB60F9211240BB692
:105130000F922F938F939F93EF93FF93E0914F0ADA
:10514000F091500A8081E091550AF091560A82FD53
:105150001DC090818091580A8F5F8F732091590AEA
:10516000821741F0E091580AF0E0E15CF54F958F2D
:105170008093580AFF91EF919F918F912F910F90FB
:105180000BBE0F900FBE0F901F9018958081F2CF2D
:105190001F920F920FB60F9211240BB60F922F93FE
:1051A0003F934F935F936F937F938F939F93AF93AF
:1051B000BF93EF93FF938FE39AE0AFDDFF91EF9101
:1051C000BF91AF919F918F917F916F915F914F911F
:1051D0003F912F910F900BBE0F900FBE0F901F901D
:1051E0001895EFE3FAE01382128288EE93E0A0E0D4
:1051F000B0E084839583A683B78383E297E09183AD
:10520000808385ED90E09587848784ED90E0978793
:10521000868780ED90E0918B808B81ED90E0938B81
:10522000828B82ED90E0958B848B86ED90E0978B5E
:10523000868B118E128E138E148E08951F920F92EC
:105240000FB60F9211240BB60F922F938F939F934B
:10525000EF93FF93E091EC0AF091ED0A8081E091E9
:10526000F20AF091F30A82FD1DC090818091F50A47
:105270008F5F8F732091F60A821741F0E091F50A53
:10528000F0E0E452F54F958F8093F50AFF91EF918E
:105290009F918F912F910F900BBE0F900FBE0F908B
:1052A0001F9018958081F2CF1F920F920FB60F9228
:1052B00011240BB60F922F933F934F935F936F93ED
:1052C0007F938F939F93AF93BF93EF93FF938CED57
:1052D0009AE023DDFF91EF91BF91AF919F918F9164
:1052E0007F916F915F914F913F912F910F900BBEE6
:1052F0000F900FBE0F901F901895ECEDFAE01382FF
:10530000128288EE93E0A0E0B0E084839583A683C8
:10531000B78383E297E09183808385E391E095876B
:10532000848784E391E09787868780E391E0918B7F
:10533000808B81E391E0938B828B82E391E0958B6C
:10534000848B86E391E0978B868B118E128E138E61
:10535000148E0895AF92BF92CF92DF92EF92FF9298
:105360000F931F93CF93DF936C017B018B01040F8D
:10537000151FEB015E01AE18BF08C017D10759F029
:105380006991D601ED91FC910190F081E02DC6016B
:105390001995892B79F7C501DF91CF911F910F9155
:1053A000FF90EF90DF90CF90BF90AF900895FB01FA
:1053B00001900020E9F73197AF01461B570BDC0144
:1053C000ED91FC910280F381E02D19946115710536
:1053D00009F0EDCF90E080E00895DC01ED91FC91C3
:1053E0000190F081E02D199461E377E0E0CF8F9296
:1053F0009F92AF92BF92EF92FF920F931F93CF9322
:10540000DF93CDB7DEB7A1970FB6F894DEBF0FBE1E
:10541000CDBF7C01FA01CB0119A2223008F42AE0A9
:105420008E010F5D1F4F822E912CB12CA12CBF013C
:10543000A5019401C6D1F901CA016A3004F5605D85
:10544000D8016E938D01232B242B252B81F790E01F
:1054500080E0109719F0BD01C701A9DFA1960FB632
:10546000F894DEBF0FBECDBFDF91CF911F910F919A
:10547000FF90EF90BF90AF909F908F900895695CE0
:10548000DFCFCF92DF92EF92FF920F931F93CF93D4
:10549000DF932115310581F4DC01ED91FC91019040
:1054A000F081E02D642FDF91CF911F910F91FF903C
:1054B000EF90DF90CF9019942A303105F1F42AE073
:1054C00077FF1BC06A017B01EC016DE286DF8C0176
:1054D00044275527BA014C195D096E097F092AE056
:1054E000CE0185DF800F911FDF91CF911F910F912A
:1054F000FF90EF90DF90CF900895DF91CF911F91B3
:105500000F91FF90EF90DF90CF9071CF9A01AB0198
:10551000770F660B770BB5CF0F931F93CF93DF9366
:10552000EC01F4DF8C01CE015FDF800F911FDF9172
:10553000CF911F910F9108950F931F93CF93DF93F6
:10554000EC019FDF8C01CE014FDF800F911FDF91B7
:10555000CF911F910F9108952115310541F4DC0180
:10556000ED91FC910190F081E02D642F19943FCFD3
:105570009A01462F50E070E060E0EECF0F931F934A
:10558000CF93DF93EC01F4DF8C01CE012DDF800F90
:10559000911FDF91CF911F910F9108959A01AB0157
:1055A00070E060E0D9CF0F931F93CF93DF93EC01AE
:1055B000F5DF8C01CE0118DF800F911FDF91CF91B5
:1055C0001F910F9108950F931F93CF93DF93EC01D9
:1055D000C3DF8C01CE0108DF800F911FDF91CF91D7
:1055E0001F910F9108952F923F924F925F926F9269
:1055F0007F928F929F92AF92BF92CF92DF92EF9263
:10560000FF921F93CF93DF93EC016A017B01722E0F
:10561000AB019601CB01B601FED064E377E08111C6
:1056200025C046015701E894B7F82FEF3FEF4FE749
:105630005FE7C501B401EFD081110CC02FEF3FEF40
:105640004FE75FE7C501B4010E94CB1F68E377E035
:10565000181664F02FEF3FEF4FE75FE4C701B60184
:105660000E94BB211816ACF46CE377E0CE01DF9109
:10567000CF911F91FF90EF90DF90CF90BF90AF90B0
:105680009F908F907F906F905F904F903F902F9062
:105690008ECE2FEF3FEF4FE75FECC701B6010E94C0
:1056A000CB1F87FDE1CF20E030E0A901C701B601A3
:1056B0000E94CB1F312C212C87FF08C06DE2CE0148
:1056C0008CDE1C01F7FAF094F7F8F09410E060E03B
:1056D00070E080E09FE3711641F020E030E040E2AE
:1056E00051E40E94CF1F1F5FF6CFA70196010E94D1
:1056F000671F2B013C010E943C204B015C012AE00A
:10570000BC01A401CE0173DE7C01E20CF31C112369
:10571000A1F1C501B4010E9468209B01AC01C30145
:10572000B2010E94661F4B015C016EE2CE0155DEA4
:10573000E80EF91E115008F120E030E040E251E49B
:10574000C501B4010E94BF212B013C010E943C20F5
:105750004B014AE050E0CE0121DFE80EF91EB40112
:1057600090E080E00E9468209B01AC01C301B2017F
:105770000E94661F4B015C01DDCFC701DF91CF9115
:105780001F91FF90EF90DF90CF90BF90AF909F90D0
:105790008F907F906F905F904F903F902F900895E3
:1057A00022CF0F931F93CF93DF93EC011CDF8C016B
:1057B000CE011ADE800F911FDF91CF911F910F91C3
:1057C0000895A1E21A2EAA1BBB1BFD010DC0AA1F42
:1057D000BB1FEE1FFF1FA217B307E407F50720F05A
:1057E000A21BB30BE40BF50B661F771F881F991FD5
:1057F0001A9469F760957095809590959B01AC011E
:10580000BD01CF010895EE0FFF1F881F8BBF0790CA
:10581000F691E02D19940E940621880B990B0895AA
:04582000F894FFCF2A
:10582400E803000000000000000000000000000089
:105834000080000000800000000000000000000064
:105844000000000000000000000000000000000054
:105854000000000000000000000000000000000044
:105864000000000000000000000000000000000034
:105874000000000000000000000000000000000024
:105884000000000000800000000000000000000094
:10589400000000000000000000000000E03E0000E6
:1058A400E03E3333333F3333333FCDCC4C3FCDCC69
:1058B4004C3F0000803F0000803F0000803F00001C
:1058C400803F0000803F0000803F0000803F0000D8
:1058D400803F0000803F0000803F0000803F0000C8
:1058E400803F0000803F0000803F00000000323114
:1058F4008D2432318D24F304B5BEF304B5BE7A820F
:10590400DABE7A82DABEFD00F1BEFD00F1BE00000F
:1059140000BF000000BFF603C4BEF603C4BEF30418
:10592400B5BEF304B5BE0000000000000000F3049F
:10593400B53EF304B53EF603C43E0000003F00004C
:10594400003FF304B53EF304B53EF304B53E000056
:105954000000000000000000000000000000000043
:1059640000000000003E0000003ECDCC4C3ECDCCFB
:105974004C3E0000803E0000803E3333B33E333360
:10598400B33E0000C03E0000C03E0000003F0000E7
:10599400003F0000003F0000003F0000003F000007
:1059A400003F0000003F0000003F0000003F0000F7
:1059B400003F0000000000000000000000000000A4
:1059C4000000000000000000003F0000003FCDCCBC
:1059D4004C3FCDCC4C3F0000803F0000803F333330
:1059E400B33F3333B33F0000C03F0000C03F00006B
:1059F40000400000004000000040000000400000A3
:105A04000040000000400000004000000040000092
:105A14000040000000400000000000000000000002
:105A2400000000000000000000000000003F000033
:105A3400003F0000003F0000003F0000003F000066
:105A4400003F0000003F0000003F0000003F000056
:105A5400003F0000003F0000003F0000003F000046
:105A6400003F0000003F0000003F0000003F000036
:105A7400003F0000003F0000003F00000000000065
:105A8400A0400000A0400000204100002041000090
:105A940048410000484100006041000060410000AE
:105AA40070410000704100008841000088410000FE
:105AB4008C4100008C410000A0410000A041000086
:105AC400B4410000B4410000B8410000C8410000E6
:105AD400C8410000DC410000DC410000F04100004E
