:10000000FAC000000C94A0220C94CB220C94F6228F
:100010000C9421230C944C230C9477230C94A2234E
:100020000C94CD23F4C5000095C60000CFC6000097
:1000300013C1000011C100000FC100000DC100007C
:100040000BC1000009C1000007C1000005C100008C
:1000500003C1000001C10000FFC000000C94F823A0
:10006000FBC000000C947D270C94B327F5C0000062
:10007000F3C00000F1C00000EFC00000EDC00000C0
:10008000EBC00000E9C00000E7C00000E5C00000D0
:100090000C9409280C943F28DFC000000C947D0AC2
:1000A000DBC00000D9C00000D7C00000D5C00000F0
:1000B000D3C00000D1C00000CFC00000CDC0000000
:1000C000CBC00000C9C000000C94C21E0C9495283F
:1000D0000C94CB28C1C000000C9421290C94572902
:1000E000BBC0000000000A0B02090C0D0E0807033C
:1000F00004010000000000000000000000000000FB
:1001000000000000000000000000000000000000EF
:1001100012111000000000000000000000000000AC
:100120000000000000000000000001021020200874
:100130000810204010204080020102010804020142
:1001400001020408102040808040201008040201B1
:10015000800402018040201008040201080402010A
:100160000102040810204080010204081020408091
:1001700005050505070508080808020202020A0A23
:100180000808040404040101010101010101030341
:10019000030303030303040707070C0C0C0C0C0CEC
:1001A0000C0C0202020206060606060606060B0BE9
:1001B0000B0B0B0B0B0B00002200250028002B0063
:1001C0002E003100340002010000050108010B017E
:1001D00000002100240027002A002D0030003300F9
:1001E00001010000040107010A016E09A40DDC27CA
:1001F0006828F428802911241FBECFEFD1E2DEBF8A
:10020000CDBF00E00CBF1BE0A0E0B2E0EAE2F8E501
:1002100000E00BBF02C007900D92AC33B107D9F7D5
:1002200020E1ACE3BBE001C01D92AC39B207E1F7BD
:1002300010E0CBEFD0E000E006C021970109802F4D
:10024000FE010E94062CC53FD10780E00807A9F7F0
:100250000E94321F0C94132CD3CE8823E1F08230FD
:1002600061F0833089F08130B1F440E855E260E01C
:1002700070E081E090E00C94A41E40E855E260E05C
:1002800070E082E090E0F7CF40E855E260E070E097
:1002900083E090E0F0CF08954F925F926F927F924B
:1002A0008F929F92AF92BF92CF92EF92FF920F9355
:1002B0001F93CF93DF93CDB7DEB72B013A01F02E1A
:1002C000B40130E02830310511F424E030E00AE0D8
:1002D00010E0CC2061F091E000E110E0C91639F0A7
:1002E000E2E008E010E0CE1611F002E010E081300C
:1002F00009F4E8C0B0F0823009F4C5C1833009F4D4
:10030000A3C2DF91CF911F910F91FF90EF90CF90FB
:10031000BF90AF909F908F907F906F905F904F9025
:100320000895F1101BC0269DA001279D500D369DFC
:10033000500D1124B20181E09DE0DF91CF911F911A
:100340000F91FF90EF90CF90BF90AF909F908F90C4
:100350007F906F905F904F900C94AD2981E09DE06D
:100360000E94E929E11014C0640C751C6414750422
:1003700041F2F20161912F01F1E0A80181E09DE0DD
:10038000FF1203C00E94BB2AF1CF0E94C12AEECF08
:1003900081E0E81215C091E0691A710808F4B1CF44
:1003A000F201619171912F01F1E0A80181E09DE0DE
:1003B000FF1203C00E94D12AEECF0E94D62AEBCFB3
:1003C00082E0E81217C091E0691A710808F499CF29
:1003D000F20141915191619171912F01F1E09801E8
:1003E00081E09DE0FF1203C00E94AF2AECCF0E9483
:1003F000E62AE9CF83E0E81218C0640C751C641487
:10040000750409F47ECFF20161912F01062E000CD4
:10041000770BF1E0A80181E09DE0FF1203C00E948C
:10042000892AEDCF0E948F2AEACF84E0E81215C016
:1004300091E0691A710808F464CFF2016191719139
:100440002F01F1E0A80181E09DE0FF1203C00E94AE
:10045000892AEECF0E948F2AEBCF85E0E81217C0E1
:1004600091E0691A710808F44CCFF2014191519161
:10047000619171912F01F1E0980181E09DE0FF12FF
:1004800003C00E94442AECCF0E949F2AE9CF86E055
:10049000E81237CFB12C91E0691A710808F431CF16
:1004A000F20141915191619171912F01F1E095011A
:1004B00081E09DE0FF1203C00E94D32BECCF0E948D
:1004C000D42BE9CFF1100BC0269DA001279D500D24
:1004D000369D500D1124B2018EE99DE02ECF8EE99C
:1004E0009DE00E94E929E11015C0640C751C4614BA
:1004F000570409F406CFF20161912F01F1E0A80140
:100500008EE99DE0FF1203C00E94BB2AF0CF0E943B
:10051000C12AEDCF81E0E81215C091E0691A710897
:1005200008F4EFCEF201619171912F01F1E0A80181
:100530008EE99DE0FF1203C00E94D12AEECF0E94F7
:10054000D62AEBCF82E0E81217C091E0691A710851
:1005500008F4D7CEF20141915191619171912F012F
:10056000F1E098018EE99DE0FF1203C00E94AF2ADE
:10057000ECCF0E94E62AE9CF83E0E81218C0640CB1
:10058000751C6414750409F4BCCEF20161912F014D
:10059000062E000C770BF1E0A8018EE99DE0FF121A
:1005A00003C00E94892AEDCF0E948F2AEACF84E0FF
:1005B000E81215C091E0691A710808F4A2CEF201A0
:1005C000619171912F01F1E0A8018EE99DE0FF1288
:1005D00003C00E94892AEECF0E948F2AEBCF85E0CC
:1005E000E81217C091E0691A710808F48ACEF20186
:1005F00041915191619171912F01F1E098018EE942
:100600009DE0FF1203C00E94442AECCF0E949F2A63
:10061000E9CF86E0E81275CEB12C91E0691A710835
:1006200008F46FCEF20141915191619171912F01C6
:10063000F1E0FF1214C0C11006C095018EE99DE0E3
:100640000E94D32BEACFCB01BA010E943A20AB0122
:10065000BC0198018EE99DE00E94442ADECFC110C2
:1006600006C095018EE99DE00E94D42BD6CFCB0128
:10067000BA010E943A20AB01BC0198018EE99DE0CD
:100680000E949F2ACACFF1100BC0269DA001279D72
:10069000500D369D500D1124B2018BE39EE04DCEDE
:1006A0008BE39EE00E94E929E11015C0640C751CE3
:1006B0004614570409F425CEF20161912F01F1E0AF
:1006C000A8018BE39EE0FF1203C00E94BB2AF0CF7B
:1006D0000E94C12AEDCF81E0E81215C091E0691AAD
:1006E000710808F40ECEF201619171912F01F1E0D1
:1006F000A8018BE39EE0FF1203C00E94D12AEECF37
:100700000E94D62AEBCF82E0E81217C091E0691A66
:10071000710808F4F6CDF201419151916191719106
:100720002F01F1E098018BE39EE0FF1203C00E94CD
:10073000AF2AECCF0E94E62AE9CF83E0E81218C086
:10074000640C751C6414750409F4DBCDF20161912D
:100750002F01062E000C770BF1E0A8018BE39EE041
:10076000FF1203C00E94892AEDCF0E948F2AEACF90
:1007700084E0E81215C091E0691A710808F4C1CD4F
:10078000F201619171912F01F1E0A8018BE39EE0EC
:10079000FF1203C00E94892AEECF0E948F2AEBCF5E
:1007A00085E0E81217C091E0691A710808F4A9CD34
:1007B000F20141915191619171912F01F1E0980104
:1007C0008BE39EE0FF1203C00E94442AECCF0E94FC
:1007D0009F2AE9CF86E0E81294CDB12C91E0691A06
:1007E000710808F48ECDF20141915191619171919E
:1007F0002F01F1E0FF1214C0C11006C095018BE378
:100800009EE00E94D32BEACFCB01BA010E943A208E
:10081000AB01BC0198018BE39EE00E94442ADECF2D
:10082000C11006C095018BE39EE00E94D42BD6CF69
:10083000CB01BA010E943A20AB01BC0198018BE3C5
:100840009EE00E949F2ACACFF1100BC0269DA001F6
:10085000279D500D369D500D1124B20188ED9EE06C
:100860006CCD88ED9EE00E94E929E11015C0640C72
:10087000751C6414750409F444CDF20161912F01D3
:10088000F1E0A80188ED9EE0FF1203C00E94BB2AA0
:10089000F0CF0E94C12AEDCF81E0E81215C091E0AF
:1008A000691A710808F42DCDF201619171912F013F
:1008B000F1E0A80188ED9EE0FF1203C00E94D12A5A
:1008C000EECF0E94D62AEBCF82E0E81217C091E06B
:1008D000691A710808F415CDF201419151916191A5
:1008E00071912F01F1E0980188ED9EE0FF1203C0A5
:1008F0000E94AF2AECCF0E94E62AE9CF83E0E812FB
:1009000018C0640C751C6414750409F4FACCF20167
:1009100061912F01062E000C770BF1E0A80188ED04
:100920009EE0FF1203C00E94892AEDCF0E948F2A09
:10093000EACF84E0E81215C091E0691A710808F462
:10094000E0CCF201619171912F01F1E0A80188EDF5
:100950009EE0FF1203C00E94892AEECF0E948F2AD8
:10096000EBCF85E0E81217C091E0691A710808F42E
:10097000C8CCF20141915191619171912F01F1E047
:10098000980188ED9EE0FF1203C00E94442AECCF3C
:100990000E949F2AE9CF86E0E812B3CCB12C91E007
:1009A000691A710808F4ADCCF2014191519161913D
:1009B00071912F01F1E0FF1214C0C11006C0950122
:1009C00088ED9EE00E94D32BEACFCB01BA010E94B2
:1009D0003A20AB01BC01980188ED9EE00E94442AB8
:1009E000DECFC11006C0950188ED9EE00E94D42B99
:1009F000D6CFCB01BA010E943A20AB01BC019801CD
:100A000088ED9EE00E949F2ACACF9CB1892F8072F8
:100A100094FF16C0811116C08091400B9091410B3C
:100A2000A091420BB091430B0196A11DB11D809383
:100A3000400B9093410BA093420BB093430B08954E
:100A40008111EACF8091400B9091410BA091420B14
:100A5000B091430B0197A109B109E9CF99B1892F51
:100A6000847093FF16C08823B1F080914E0B909153
:100A70004F0BA091500BB091510B0196A11DB11DD0
:100A800080934E0B90934F0BA093500BB093510B50
:100A90000895882351F380914E0B90914F0BA091B4
:100AA000500BB091510B0197A109B109E9CF8CB15D
:100AB00090E09C01220F232F221F330B86FF16C0CC
:100AC00080915C0B90915D0BA0915E0BB0915F0BE0
:100AD000232BB9F40196A11DB11D80935C0B90935B
:100AE0005D0BA0935E0BB0935F0B089580915C0B40
:100AF00090915D0BA0915E0BB0915F0B21303105A1
:100B000049F30197A109B109E8CF9CB1892F807100
:100B100095FF16C08823B1F08091400B9091410B56
:100B2000A091420BB091430B0196A11DB11D809382
:100B3000400B9093410BA093420BB093430B08954D
:100B4000882351F38091400B9091410BA091420B6F
:100B5000B091430B0197A109B109E9CF99B1892F50
:100B6000887092FF16C0811116C080914E0B909133
:100B70004F0BA091500BB091510B0196A11DB11DCF
:100B800080934E0B90934F0BA093500BB093510B4F
:100B900008958111EACF80914E0B90914F0BA09157
:100BA000500BB091510B0197A109B109E9CF8CB15C
:100BB00090E086FB222720F930E0880F892F881FDC
:100BC000990B0197B1F480915C0B90915D0BA09112
:100BD0005E0BB0915F0B232BB1F00196A11DB11DEF
:100BE00080935C0B90935D0BA0935E0BB0935F0BB7
:100BF000089580915C0B90915D0BA0915E0BB0917C
:100C00005F0B232B51F30197A109B109E9CF1F9283
:100C10000F920FB60F9211242F933F934F935F9330
:100C20008F939F93AF93BF9383B121E030E0982FD0
:100C3000907285FD02C030E020E080744091800B0E
:100C40005091810B4217530709F062C021E030E058
:100C5000811102C030E020E030937F0B20937E0BA7
:100C6000882309F1911121C08091780B9091790B23
:100C7000A0917A0BB0917B0B0196A11DB11D8093C1
:100C8000780B9093790BA0937A0BB0937B0B8091A8
:100C9000780B9091790BA0917A0BB0917B0B019618
:100CA000A11DB11D20C09111DFCF8091780B9091D3
:100CB000790BA0917A0BB0917B0B0197A109B10937
:100CC0008093780B9093790BA0937A0BB0937B0B66
:100CD0008091780B9091790BA0917A0BB0917B0B5E
:100CE0000197A109B1098093780B9093790BA09398
:100CF0007A0BB0937B0BBF91AF919F918F915F91D6
:100D00004F913F912F910F900FBE0F901F9018950C
:100D10003093810B2093800B992371F0882371F01D
:100D20008091780B9091790BA0917A0BB0917B0B0D
:100D30000196A11DB11DC4CF882391F38091780B3A
:100D40009091790BA0917A0BB0917B0B0197A1093F
:100D5000B10995CF1F920F920FB60F9211248F9366
:100D60009F93AF93BF93809106018170909103018F
:100D700090FF1EC081111EC080916A0B90916B0B79
:100D8000A0916C0BB0916D0B0196A11DB11D8093CC
:100D90006A0B90936B0BA0936C0BB0936D0BBF9190
:100DA000AF919F918F910F900FBE0F901F9018954C
:100DB0008111E2CF80916A0B90916B0BA0916C0B2B
:100DC000B0916D0B0197A109B109E1CF1F920F926C
:100DD0000FB60F9211248F939F93AF93BF9380917F
:100DE000030181709091060190FF1EC08823F1F0ED
:100DF00080916A0B90916B0BA0916C0BB0916D0B75
:100E00000196A11DB11D80936A0B90936B0BA0936B
:100E10006C0BB0936D0BBF91AF919F918F910F9021
:100E20000FBE0F901F901895882311F380916A0BC5
:100E300090916B0BA0916C0BB0916D0B0197A10978
:100E4000B109E1CF0F931F93CF93DF938C018EE015
:100E5000809FE001819FD00D1124C45CD44F798321
:100E600068835B834A838881998160E00E94EA25D8
:100E70008A819B8160E00E94EA258881998161E0F6
:100E80000E9426268A819B8161E00E9426260230EC
:100E9000110509F487C064F40115110501F1013051
:100EA000110509F450C0DF91CF911F910F91089562
:100EB0000330110509F4A5C004301105A1F7809194
:100EC000680081608093680080916B0080628093ED
:100ED0006B0080916B00806480936B00E4CF809105
:100EE0003C0B90913D0B02978431910530F58F5169
:100EF000954FFC018081082E000C990B41E050E0D9
:100F000065E075E00E94262280913E0B90913F0B98
:100F1000029784319105A0F48F51954FFC01808197
:100F2000082E000C990B41E050E065E875E0DF9178
:100F3000CF911F910F910C9426228FEF9FEFDECF60
:100F40008FEF9FEFF0CF80914A0B90914B0B029760
:100F50008431910508F58F51954FFC018081082E51
:100F6000000C990B41E050E06EEA75E00E942622E9
:100F700080914C0B90914D0B02978431910578F440
:100F80008F51954FFC018081082E000C990B41E098
:100F900050E06EE275E0CBCF8FEF9FEFE3CF8FEFA6
:100FA0009FEFF5CF8091580B9091590B02978431A8
:100FB000910508F58F51954FFC018081082E000C9A
:100FC000990B41E050E067E575E00E942622809190
:100FD0005A0B90915B0B02978431910578F48F51F5
:100FE000954FFC018081082E000C990B41E050E0E8
:100FF00067ED75E09CCF8FEF9FEFE3CF8FEF9FEF13
:10100000F5CF8091680084608093680080916800CB
:1010100082608093680080916D00816080936D0094
:1010200080916C00826080936C003DCF2EE0269F03
:10103000F001279FF00D1124E45CF44F6481758169
:1010400086819781089590E080E008958091B60BA5
:101050009091B70B891B990B08959091B70B8091D4
:10106000B60B2FEF3FEF981748F4E92FF0E0E85464
:10107000F44F208130E09F5F9093B70BC901089532
:10108000E091B70B8091B60BE81730F4F0E0E8542C
:10109000F44F808190E008958FEF9FEF08950895B9
:1010A000CF93DF93EC01E0918E0BF0918F0B309793
:1010B000F1F09091B70B8091B60B9817C0F090E0CB
:1010C000292F30E02617370754F4DE01A20FB31F93
:1010D0004C912854344FD9014C939F5FF1CF10921B
:1010E000B70B6093B60BCB01DF91CF911994DF91D1
:1010F000CF910895E091900BF091910B309729F0EA
:101100001092940B1092930B19940895CF93DF9340
:101110001F92CDB7DEB769832091920B2223F9F09D
:101120002091930B203258F021E030E0FC01338312
:10113000228390E080E00F90DF91CF91089580911D
:10114000940BE82FF0E0EB56F44F998190838F5F7A
:101150008093940B8093930B81E090E0ECCF61E05F
:10116000CE01019689D1F8CFCF92DF92EF92FF9214
:101170000F931F93CF93DF937C01CB018A012091C2
:10118000920B222389F0EB016B01C40ED51ECC1506
:10119000DD0561F06991D701ED91FC910190F0813D
:1011A000E02DC7011995F3CF642F66D1C801DF91F7
:1011B000CF911F910F91FF90EF90DF90CF90089506
:1011C0001092B70B1092B60B1092940B1092930BD7
:1011D00096D08AE798E07CD180E598E074C181E000
:1011E0008093920B6093B50B1092940B1092930B1B
:1011F00008950F93062F21E04091930B65E97BE062
:101200008091B50BE2D01092940B1092930B109238
:10121000920B0F9108954F925F926F927F92AF92CF
:10122000BF92CF92EF92FF920F931F93CF93DF93D2
:101230005C01F62ED42F28013901EE2009F1CFDF11
:10124000CE2DC43008F0C3E0C150B8F028E0C29FF2
:10125000C0011124A301920104C05695479537950A
:1012600027958A95D2F7B901D501ED91FC910190AE
:10127000F081E02DC5011995E7CF60E0C501B9DF28
:101280004D2FD13208F040E22C2D68EB7BE08F2D02
:1012900054D01092B70B8093B60BDF91CF911F9172
:1012A0000F91FF90EF90CF90BF90AF907F906F9095
:1012B0005F904F900895CF92EF920F931F93C22E9D
:1012C000E12C00E010E09801A6DF1F910F91EF9054
:1012D000CF90089521E0EFCF61E08BCFE2E8FBE013
:1012E0001382128288EE93E0A0E0B0E084839583BD
:1012F000A683B78389EF9AE0918380830895109243
:10130000450C81E08093430C1092420C61E084E133
:101310000E94262661E085E10E942626E9EBF0E0A6
:1013200080818E7F808380818D7F808388E480931D
:10133000B80085E48093BC000895413208F043C0B2
:101340009091450C9111FCCF91E09093450C209326
:10135000430C2FEF2093D80B10921D0C240F2093D9
:101360001C0C9093440C9091440C880F892B809313
:10137000440C8091420C813009F51092420C80910E
:10138000440C8093BB008091BC0083FDF8CF85ECBA
:101390008093BC008091450C8130E1F380911D0C5D
:1013A000841710F440911D0CAEE1BCE0962FFB01B8
:1013B0008E2F891B841720F0842F089585EEE8CFA7
:1013C0008D918193F5CF40E0F7CF0F93413208F034
:1013D0004BC09091450C9111FCCF92E09093450C3D
:1013E0000093430C9FEF9093D80B10921D0C4093E9
:1013F0001C0C362FAEE1BCE0FB019E2F931B941713
:1014000070F11092440C9091440C880F892B8093BA
:10141000440C8091420C813029F51092420C80914D
:10142000440C8093BB008091BC0083FDF8CF85EC19
:101430008093BC00222321F08091450C8230D1F3AF
:101440008091D80B8F3F91F08091D80B803281F042
:101450008091D80B803371F084E00F9108959191C1
:101460009D93CBCF85EEE4CF81E0F7CF80E0F5CF41
:1014700082E0F3CF83E0F1CF2091FA0B260F3327E0
:10148000331F21323105ECF42091450CFC0190E032
:1014900080E0243069F082E00895A091FA0B219158
:1014A000AC014450544FA40FB52FB11D2C9301969D
:1014B000861798F38091FA0B680F6093FA0B80E01F
:1014C000089581E0089590933F0C80933E0C089519
:1014D0009093410C8093400C089585ED8093BC005F
:1014E0008091BC0084FDFCCF1092450C089585ECE2
:1014F0008093BC001092450C08951F920F920FB676
:101500000F9211240BB60F922F933F934F935F933B
:101510006F937F938F939F93AF93BF93EF93FF93BB
:101520008091B900887F803609F44CC008F03FC034
:10153000883209F4A8C028F5803109F49CC0C8F4A9
:10154000882309F4F8C0883009F495C0FF91EF9121
:10155000BF91AF919F918F917F916F915F914F91CB
:101560003F912F910F900BBE0F900FBE0F901F90C9
:101570001895883109F487C0803241F78093D80BE1
:1015800014C0803409F49CC040F48033B9F388332C
:10159000E9F68093D80BABDFD9CF803509F484C04E
:1015A000883509F495C0883489F697DFCFCF88391C
:1015B00009F48CC038F5883729F050F4883611F0DA
:1015C000803721F683E08093450C1092D90B57C0E9
:1015D000883809F47BC0803919F0803809F0B6CF1B
:1015E0008091D90B803208F071C0E091D90B81E075
:1015F0008E0F8093D90B8091BB00F0E0E652F44F40
:1016000080833DC0803B39F0E0F4803A09F479C032
:10161000883A09F09BCF84E08093450C1092FB0B35
:101620001092FA0BE091400CF091410C19958091C9
:10163000FA0B81110FC081E08093FA0B1092FC0B22
:1016400009C0803C09F475C0883C09F472C0883B2D
:1016500009F07CCFE091FB0B81E08E0F8093FB0BB8
:10166000F0E0E450F44F80818093BB009091FB0B3D
:101670008091FA0B29C08091440C8093BB0085ECCB
:101680008093BC0063CF90911D0C80911C0C981727
:1016900058F5E0911D0C81E08E0F80931D0CF0E059
:1016A000E25EF34F8081E9CFE0911D0C81E08E0F67
:1016B00080931D0C8091BB00F0E0E25EF34F8083CD
:1016C00090911D0C80911C0C9817C8F285E8D8CF1A
:1016D000E0911D0C81E08E0F80931D0C8091BB006A
:1016E000F0E0E25EF34F80838091430C81115DCF87
:1016F00081E08093420C84EA8093BC001092450CF8
:1017000025CFF5DE8091D90B803230F4E091D90BF2
:10171000F0E0E652F44F10826091D90B70E0E09156
:101720003E0CF0913F0C8AED9BE019951092D90B7D
:101730000DCF85ECE1CF1092D80B37CFFF920F93EE
:101740001F93CF93DF93C62F042FF22E132F682FF2
:1017500082E89BE044DD6C2F82E89BE0D7DCCF2D54
:10176000D12F0C0F1D2F111DC017D10729F0699122
:1017700082E89BE0CBDCF8CF82E89BE0ADDD91E036
:10178000811190E0892FDF91CF911F910F91FF90F0
:101790000895CF93DF931F92CDB7DEB749839E01A3
:1017A0002F5F3F4F41E0CADF0F90DF91CF91089547
:1017B0002F923F924F925F926F927F928F929F9261
:1017C000AF92BF92CF92DF92EF92FF920F931F934F
:1017D000CF93DF9300D0CDB7DEB7E82E69834B837C
:1017E00069010E9442244B015C01F12C1A822B8179
:1017F000222E312C2801712C612C8B81F81608F0D7
:1018000044C06E2D82E89BE0EADC698182E89BE0BF
:101810007DDC82E89BE060DD6E2D82E89BE0DFDC12
:10182000A1014F1951094132510514F040E250E035
:101830006E2D82E89BE04EDD82E89BE007DC892B81
:10184000D9F00115110569F482E89BE006DCF60188
:101850009A81E90FF11D97FDFA9580839F5F9A8326
:10186000EBCF0E944224681979098A099B09641503
:1018700075058605970540F382E89BE02DDD8B8199
:10188000813208F080E2F80EB8CF01151105C1F0E1
:101890000E944224681979098A099B0930E020E0F6
:1018A000601771078207930758F02A81822F220F51
:1018B000990B2B812817190619F014F08FEF8A83E2
:1018C0008A810F900F900F90DF91CF911F910F9110
:1018D000FF90EF90DF90CF90BF90AF909F908F9050
:1018E0007F906F905F904F903F902F9008950F934F
:1018F0001F9389019A0141E05BDF1F910F910895C9
:10190000EF92FF920F931F93CF93DF931F92CDB768
:10191000DEB7182F062FE42EF22E20910002309110
:101920000102AE014F5F5F4FE2DF81E090E001C056
:10193000880FEA94EAF74981FF2069F0482B498330
:10194000602F812F26DF0F90DF91CF911F910F9194
:10195000FF90EF90089580954823F1CFDF92EF92AA
:10196000FF920F931F93CF93DF931F92CDB7DEB7F4
:10197000F82EE62E142FD22E209100023091010273
:10198000AE014F5F5F4FB3DF882351F1812F8D1977
:10199000990BAC014F5F5F4F81E090E002C0880F70
:1019A000991FDA94E2F70197042E01C0880F0A9478
:1019B000EAF701C0000F4A95EAF7482F4095998150
:1019C00049238023482B49836E2D8F2DE2DE0F9013
:1019D000DF91CF911F910F91FF90EF90DF900895CD
:1019E00080E0F5CF28E6FC01208308950F93062FB1
:1019F00023E042E06AE1FC018081B0DF0F910895AD
:101A00000F93062F22E044E06BE1FC018081A6DF0A
:101A10000F9108950F93062F22E044E06CE1FC0142
:101A200080819CDF0F9108950F931F93CF93DF93D5
:101A3000EC0100910002109101029C012F5F3F4FC9
:101A400042E063E48881B4DE89819A8198278927FE
:101A50009827DF91CF911F910F9108950F931F93B6
:101A6000CF93DF93EC0100910002109101029C01E1
:101A70002F5F3F4F42E065E488819ADE89819A8139
:101A8000982789279827DF91CF911F910F9108956B
:101A90000F931F93CF93DF93EC01009100021091FD
:101AA00001029C012F5F3F4F42E067E4888180DEA6
:101AB00089819A81982789279827DF91CF911F9153
:101AC0000F910895262F46E06BE6FC01808118CF28
:101AD0000F93062F23E042E06BE6FC0180813EDF9E
:101AE0000F910895CF93DF93EC0161E0F1DF60E0A7
:101AF000CE0186DF60E0CE018DDF60E0CE01DF91B8
:101B0000CF91E0CFCF93C82F82E89BE059DB6C2FB9
:101B100086E49CE06BDF86E49CE0CF91E3CFCF933B
:101B2000DF93EC0186E49CE07FDF9983888386E481
:101B30009CE094DF9B838A8386E49CE0A9DF9D83FD
:101B40008C83DF91CF91089586E49CE04BCF6111A7
:101B500002C00C94EA256130E1F362E0FACF66231B
:101B600019F061E00C94262660E0FCCF0895CF9236
:101B7000DF92EF92FF92CF93882351F16A017B01AC
:101B8000CFEFC80F20E030E0A901CB01B6010E94E1
:101B9000CE1F87FF11C0C701B60190580E943F2099
:101BA0009B01AC016C2F70E090E080E0CF91FF9042
:101BB000EF90DF90CF90B2C0C701B6010E943A20EB
:101BC0008C2FCF91FF90EF90DF90CF900C94B024AA
:101BD000CF91FF90EF90DF90CF9008950F931F93D8
:101BE0008B019C0183E036952795179507958A957B
:101BF000D1F70B5A134F462F477021E030E0F9011F
:101C000002C0EE0FFF1F4A95E2F7AF01F8012081F5
:101C10002423CB010196211102C090E080E01F91A6
:101C20000F9108950F931F938B019C0183E03695CC
:101C30002795179507958A95D1F7677081E090E011
:101C400001C0880F6A95EAF7F801EB5AF34F20813B
:101C5000452B31F48095822380831F910F91089545
:101C6000822BFACF2F923F924F925F926F927F9288
:101C70008F929F92AF92BF92CF92DF92EF92FF929C
:101C80000F931F93CF93DF93D62EC72E782E692EF6
:101C900049015A01280161E08D2D0E94EA25CD2DD0
:101CA000DC2D8E010F5F1F4FA8016D2D7C2D872D20
:101CB000962DB8DF20E030E0A901C201B7010E94F3
:101CC000BE21181664F4C201B7010E943F202B0107
:101CD000C501B4010E943F20A201CE0123D0C8015A
:101CE000DF91CF911F910F91FF90EF90DF90CF90F8
:101CF000BF90AF909F908F907F906F905F904F902C
:101D00003F902F900895882341F08150682F70E014
:101D100090E080E050E040E085CF0895862FB90143
:101D20000C94B0249C01FC01EC51FF4FE491E15074
:101D3000E231E0F4F0E08827EF55F14F8F4F0C943B
:101D4000062CB30EBA0EBD0ED40EE90EB60EFE0E64
:101D50000A0F0E0F250F3A0F4F0F660F7B0FB60EAF
:101D6000900FA70FBC0F84B5806884BD60E0822F00
:101D70000C94262684B58062F8CF809180008C7FF9
:101D800082608093800080918100807E8061682BDA
:101D9000609381005093870040938600809180007B
:101DA000806880938000E2CF809180008C7F826089
:101DB0008093800080918100807E8061682B609399
:101DC000810050938700409386008091800080625C
:101DD000E8CF809180008C7F82608093800080912A
:101DE0008100807E8061682B609381005093870022
:101DF00040938600809180008860D3CF8091B000AE
:101E000080688093B0008091B100887F682B6093D8
:101E1000B100ACCF8091B0008062F3CF8091900090
:101E20008C7F82608093900080919100807E8061A1
:101E3000682B609391005093970040939600809197
:101E4000900080688093900091CF809190008C7F6B
:101E500082608093900080919100807E8061682BE9
:101E6000609391005093970040939600809190006A
:101E70008062E8CF809190008C7F82608093900098
:101E800080919100807E8061682B609391005093D7
:101E9000970040939600809190008860D3CF809106
:101EA000A0008C7F82608093A0008091A100807E42
:101EB0008061682B6093A1005093A7004093A60017
:101EC0008091A00080688093A00050CF8091A000F6
:101ED0008C7F82608093A0008091A100807E8061D1
:101EE000682B6093A1005093A7004093A6008091B7
:101EF000A0008062E8CF8091A0008C7F82608093F8
:101F0000A0008091A100807E8061682B6093A10079
:101F10005093A7004093A6008091A0008860D3CF83
:101F2000809120018C7F826080932001809121012B
:101F3000807E8061682B609321015093270140933C
:101F40002601809120018068809320010FCF80912D
:101F500020018C7F82608093200180912101807E0E
:101F60008061682B609321015093270140932601E3
:101F7000809120018062E8CF809120018C7F826077
:101F80008093200180912101807E8061682B609385
:101F90002101509327014093260180912001886000
:101FA000D3CF2F923F924F925F926F927F928F92F8
:101FB0009F92AF92BF92CF92DF92EF92FF920F93D8
:101FC0001F93CF93DF93CDB7DEB7AE970FB6F894DC
:101FD000DEBF0FBECDBF2090541030905510009141
:101FE000521010915310E091EB0CF091EC0C8080AA
:101FF0009180A280B380A5019401D8016D917D915B
:102000008D919C910E94BE2187FD02C00C9498186E
:10201000A5019401F801EC5AFE4F60817181828123
:1020200093810E94CE1F181614F00C949C18E09116
:102030008010F0918110FA83E9837F01EE0CFF1C80
:10204000EE0CFF1C6801CE0CDF1CA5019401D6012B
:102050006D917D918D919C910E94BE21B4E0EB0E1B
:10206000F11CE00EF11E181614F00C948B18F4E01D
:10207000CF1AD108A5019401D60114966D917D91D6
:102080008D919C9117970E94BE21181614F40C9400
:102090007F1829813A813093811020938010220F7C
:1020A000331F220F331F3E832D83F901E00FF11FF1
:1020B000C080D180E280F3802C5F3F4F3A83298338
:1020C000F901E00FF11F4080518062807380A3010D
:1020D0009201C701B6010E94CE1F81110C94BC1859
:1020E000A7019601C501B4010E94CE1F87FD02C061
:1020F0000C94A2188D819E81820D931D9A838983F1
:10210000E5E7FFE085E89FE0A981BA814D915D9107
:102110006D917C9113974193519361937193A85A58
:10212000BE4FBA83A9838E179F0771F72091810F45
:102130003091820F4091830F5091840F6091EE098E
:102140007091EF098091F0099091F1090E94C221EC
:102150006093CE0F7093CF0F8093D00F9093D10FD9
:1021600061E070E080E090E00E9416086093EE0F5E
:102170007093EF0F8093F00F9093F10F0E946D20FA
:102180002091120A3091130A4091140A5091150AB5
:102190000E94C2212091F6093091F7094091F80977
:1021A0005091F9090E94C2212B013C014092D20FAB
:1021B0005092D30F6092D40F7092D50F2091160ACF
:1021C0003091170A4091180A5091190A0E94C221B1
:1021D00069A37AA38BA39CA380915C1090915D105E
:1021E000A0915E10B0915F108D839E83AF83B887FE
:1021F0002091220A3091230A4091240A5091250A05
:10220000BC01CD010E94C2216DA37EA38FA398A71C
:1022100020916410309165104091661050916710C4
:1022200060912A0A70912B0A80912C0A90912D0AB4
:102230000E94C22120E030E0A9010E946A1F20E034
:1022400030E0A9010E946A1F20E030E0A9010E944D
:102250006A1F6D877E878F87988B6093D60F7093E8
:10226000D70F8093D80F9093D90F20916810309199
:10227000691040916A1050916B106091460A7091FC
:10228000470A8091480A9091490A0E94C22120E0A1
:1022900030E0A9010E946A1F20E030E0A9010E94FD
:1022A0006A1F20E030E0A9010E946A1F698F7A8FBF
:1022B0008B8F9C8F20916C1030916D1040916E101F
:1022C00050916F106091620A7091630A8091640A64
:1022D0009091650A0E94C22120E030E0A9010E948D
:1022E0006A1F20E030E0A9010E946A1F69877A878F
:1022F0008B879C87209170103091711040917210E3
:102300005091731060917E0A70917F0A8091800ACB
:102310009091810A0E94C22120E030E0A9010E9430
:102320006A1F6D8F7E8F8F8F98A3209174103091CC
:102330007510409176105091771060918A0A7091D3
:102340008B0A80918C0A90918D0A0E94C22120E014
:1023500030E0A9010E946A1F20E030E0A9010E943C
:102360006A1F69837A838B839C83209178103091D4
:10237000791040917A1050917B106091A20A70916F
:10238000A30A8091A40A9091A50A0E94C22120E08C
:1023900030E0A9010E946A1F20E030E0A9010E94FC
:1023A0006A1F4B015C0120917C1030917D1040919F
:1023B0007E1050917F106091BA0A7091BB0A809193
:1023C000BC0A9091BD0A0E94C2216B017C01209140
:1023D000A2093091A3094091A4095091A509C30114
:1023E000B2010E94C22129813A814B815C810E9405
:1023F0006A1F698B7A8B8B8B9C8B6093EA0F70932F
:10240000EB0F8093EC0F9093ED0F2091A609309184
:10241000A7094091A8095091A909C301B2010E94DE
:10242000C221A50194010E946A1F6D8B7E8B8F8B48
:10243000988F2091AA093091AB094091AC09509135
:10244000AD09C301B2010E94C2214B015C0120E031
:1024500030E0A901C701B6010E946A1F9B01AC01CF
:10246000C501B4010E946A1F69A77AA78BA79CA720
:102470003EEAA32E39E0B32E05E91FE0AAEBB8E04F
:10248000BA83A9834EEB842E49E0942EBEA6ADA656
:10249000B4E0AB0EB11CEDA5FEA520A131A142A177
:1024A00053A16D897E898F89988D0E94C2216B010D
:1024B0007C01ADA5BEA550962D913D914D915C91AD
:1024C000539769897A898B899C890E94C2219B01D3
:1024D000AC01C701B6010E946A1F6B017C01EDA52A
:1024E000FEA520A931A942A953A969A57AA58BA562
:1024F0009CA50E94C2219B01AC01C701B6010E94AC
:102500006A1F6B017C01ADA5BEA52D913D914D913A
:102510005C91C301B2010E94C2219B01AC01C701C1
:10252000B6010E946A1FF8016193719381939193A0
:102530008F018A149B0409F0A9CF8091CF0A8130C2
:1025400009F085C64092DA0F5092DB0F6092DC0FE3
:102550007092DD0F209158103091591040915A100F
:1025600050915B1069A17AA18BA19CA10E94691F67
:102570006093DE0F7093DF0F8093E00F9093E10F75
:102580008D819E81AF81B8858093E20F9093E30F98
:10259000A093E40FB093E50F20916010309161108B
:1025A00040916210509163106DA17EA18FA198A5FA
:1025B0000E94691F6093E60F7093E70F8093E80F06
:1025C0009093E90FC090CE0FD090CF0FE090D00F36
:1025D000F090D10F2091DA0F3091DB0F4091DC0F9A
:1025E0005091DD0FC701B6010E946A1F20912A0990
:1025F00030912B0940912C0950912D090E94C22144
:102600004B015C012091DE0F3091DF0F4091E00F14
:102610005091E10FC701B6010E946A1F20912E0957
:1026200030912F0940913009509131090E94C22107
:102630009B01AC01C501B4010E946A1F4B015C0102
:102640002091E20F3091E30F4091E40F5091E50F9C
:10265000C701B6010E946A1F2091320930913309E7
:1026600040913409509135090E94C2219B01AC016F
:10267000C501B4010E946A1F4B015C012091E60F65
:102680003091E70F4091E80F5091E90FC701B60173
:102690000E946A1F2091360930913709409138090C
:1026A000509139090E94C2219B01AC01C501B401BE
:1026B0000E946A1F6B017C012091810F3091820F73
:1026C0004091830F5091840F60910E0A70910F0A10
:1026D0008091100A9091110A0E94C2219B01AC01C5
:1026E000C701B6010E946A1F6B017C016D817E816A
:1026F0008F8198859F7720E030E040E45FE30E947F
:10270000CE1F20E030E040E85FE387FD03C020E01B
:1027100030E0A901C701B6010E94C2216093CE0F2B
:102720007093CF0F8093D00F9093D10F20E030E0C3
:1027300040E251E40E946A1F2DEC3CEC4CE455E46D
:102740000E94C2210E94A8206093DA0F7093DB0FD1
:102750008093DC0F9093DD0F0E947D1E882309F487
:10276000E4C51092DA0F1092DB0F1092DC0F10927A
:10277000DD0FC090DA0FD090DB0FE090DC0FF0900F
:10278000DD0F20E030E0A901C701B6010E94CE1F95
:1027900087FFECC5C701B60190580E943F20719594
:1027A000619571097093A60F6093A70F20E030E048
:1027B00040E251E46091D20F7091D30F8091D40F19
:1027C0009091D50F0E946A1F2DEC3CEC4CE455E42F
:1027D0000E94C2210E94A8206093DA0F7093DB0F41
:1027E0008093DC0F9093DD0F0E947D1E882309F4F7
:1027F000C1C51092DA0F1092DB0F1092DC0F10920D
:10280000DD0FC090DA0FD090DB0FE090DC0FF0907E
:10281000DD0F20E030E0A901C701B6010E94CE1F04
:1028200087FFC9C5C701B60190580E943F20719526
:10283000619571097093A80F6093A90F20E030E0B3
:1028400040E251E460915C1070915D1080915E10E7
:1028500090915F100E946A1F2DEC3CEC4CE455E413
:102860000E94C2210E94A8206093DA0F7093DB0FB0
:102870008093DC0F9093DD0F0E947D1E882309F466
:102880009EC51092DA0F1092DB0F1092DC0F10929F
:10289000DD0FC090DA0FD090DB0FE090DC0FF090EE
:1028A000DD0F20E030E0A901C701B6010E94CE1F74
:1028B00087FFA6C5C701B60190580E943F207195B9
:1028C000619571097093AA0F6093AB0F20E030E01F
:1028D00040E251E46091D60F7091D70F8091D80FEC
:1028E0009091D90F0E946A1F2DEC3CEC4CE455E40A
:1028F0000E94C2210E94A8206093DA0F7093DB0F20
:102900008093DC0F9093DD0F0E947D1E882309F4D5
:102910007BC51092DA0F1092DB0F1092DC0F109231
:10292000DD0FC090DA0FD090DB0FE090DC0FF0905D
:10293000DD0F20E030E0A901C701B6010E94CE1FE3
:1029400087FF83C5C701B60190580E943F2071954B
:10295000619571097093AC0F6093AD0F20E030E08A
:1029600040E251E469857A858B859C850E946A1FC7
:102970002DEC3CEC4CE455E40E94C2210E94A820BE
:102980006093DA0F7093DB0F8093DC0F9093DD0F71
:102990000E947D1E882309F45CC51092DA0F109204
:1029A000DB0F1092DC0F1092DD0FC090DA0FD09089
:1029B000DB0FE090DC0FF090DD0F20E030E0A901AC
:1029C000C701B6010E94CE1F87FF64C5C701B601CB
:1029D00090580E943F2000271127061B170B20E06C
:1029E00030E040E251E46091950F7091960F809134
:1029F000970F9091980F0E946A1F2DEC3CEC4CE4CD
:102A000055E40E94C2210E94A8206093DA0F7093BF
:102A1000DB0F8093DC0F9093DD0F0E947D1E8823D7
:102A200009F43DC51092DA0F1092DB0F1092DC0F03
:102A30001092DD0FC090DA0FD090DB0FE090DC0F2A
:102A4000F090DD0F20E030E0A901C701B6010E943F
:102A5000CE1F87FF45C5C701B60190580E943F2091
:102A60007195619571097093B00F6093B10F20E07B
:102A700030E040E251E460919D0F70919E0F809193
:102A80009F0F9091A00F0E946A1F2DEC3CEC4CE42C
:102A900055E40E94C2210E94A8206093DA0F70932F
:102AA000DB0F8093DC0F9093DD0F0E947D1E882347
:102AB00009F41AC51092DA0F1092DB0F1092DC0F96
:102AC0001092DD0FC090DA0FD090DB0FE090DC0F9A
:102AD000F090DD0F20E030E0A901C701B6010E94AF
:102AE000CE1F87FF22C5C701B60190580E943F2024
:102AF000AA27BB27A61BB70BBE83AD83C090060ACF
:102B0000D090070AE090080AF090090AA701960100
:102B1000609118107091191080911A1090911B10EB
:102B20000E94CE1F882341F0C0921810D092191035
:102B3000E0921A10F0921B108091D00A8093A50F9A
:102B40001093AE0F0093AF0FBE81B093B20FED8123
:102B5000E093B30F60912C1070912D1080912E1086
:102B600090912F100E943F20C62E609124107091EA
:102B7000251080912610909127100E943F20E62E6C
:102B8000609128107091291080912A1090912B103B
:102B90000E943F20062F609120107091211080919B
:102BA0002210909123100E943F206D8360911C1091
:102BB00070911D1080911E1090911F100E943F2057
:102BC000862F912C812C92E0A92E2D814FE050E090
:102BD00065EA7FE00E944C018091EA0F9091EB0F33
:102BE000A091EC0FB091ED0F8D839E83AF83B887DA
:102BF00080915C1090915D10A0915E10B0915F107B
:102C00008D879E87AF87B88B8090D20F9090D30F1F
:102C1000A090D40FB090D50F8091CE0F9091CF0F90
:102C2000A091D00FB091D10F898B9A8BAB8BBC8BBD
:102C30000AE519E024EB222E2FE0322E1EA70DA765
:102C40000C5F1F4FADA5BEA51C962D913D914D91DA
:102C50005C911F976D897E898F89988D0E94C22112
:102C60006B017C01EDA5FEA520813181428153815C
:102C70006D817E818F8198850E94C2219B01AC016C
:102C8000C701B6010E946A1F6B017C01D8015496EE
:102C90002D913D914D915C91579769A57AA58BA592
:102CA0009CA50E94C2219B01AC01C701B6010E94F4
:102CB0006A1F6B017C01F80120AD31AD42AD53AD0F
:102CC0006D857E858F8598890E94C2212B013C01EC
:102CD000D8019C962D913D914D915C919F97C50196
:102CE000B4010E94C2219B01AC01C301B2010E9448
:102CF0006A1F2B013C01F80120A131A142A153A17F
:102D000069897A898B899C890E94C2219B01AC01C7
:102D1000C301B2010E946A1F9B01AC01C701B60149
:102D20000E946A1FD1016D937D938D939D931D0128
:102D3000E6E6F9E0E017F10709F080CF8091D60FC1
:102D40009091D70FA091D80FB091D90F8D839E830A
:102D5000AF83B88720910A0930910B0940910C0983
:102D600050910D09BC01CD010E94C2216B017C0173
:102D700020911209309113094091140950911509BD
:102D8000698D7A8D8B8D9C8D0E94C2219B01AC0137
:102D9000C701B6010E946A1F6B017C0120911A09CC
:102DA00030911B0940911C0950911D0969857A8554
:102DB0008B859C850E94C2219B01AC01C701B60195
:102DC0000E946A1F6B017C01209122093091230926
:102DD00040912409509125096D8D7E8D8F8D98A18C
:102DE0000E94C2219B01AC01C701B6010E946A1F6B
:102DF0002B013C014092C00F5092C10F6092C20F54
:102E00007092C30F2091160930911709409118094B
:102E100050911909698D7A8D8B8D9C8D0E94C221EC
:102E20006B017C0120910E0930910F09409110092E
:102E3000509111096D817E818F8198850E94C221F8
:102E40009B01AC01C701B6010E946A1F6B017C01A6
:102E500020911E0930911F094091200950912109AC
:102E600069857A858B859C850E94C2219B01AC0176
:102E7000C701B6010E946A1F6B017C0120912609DF
:102E80003091270940912809509129096D8D7E8D37
:102E90008F8D98A10E94C2219B01AC01C701B60190
:102EA0000E946A1F6B017C01C092C40FD092C50FB3
:102EB000E092C60FF092C70FA3019201C501B401C1
:102EC0000E94691F6D8B7E8B8F8B988F6093D20FC2
:102ED0007093D30F8093D40F9093D50FA7019601D1
:102EE0006D857E858F859889F4D74B015C01809232
:102EF000EA0F9092EB0FA092EC0FB092ED0F05E865
:102F00001FE08AE3282E89E0382EA981BA81BE8786
:102F1000AD87FD013496FA83E98350962D913D915A
:102F20004D915C915397698D7A8D8B8D9C8D0E940C
:102F3000C2216B017C01AD85BE852D913D914D91E6
:102F40005C916D817E818F8198850E94C2219B0159
:102F5000AC01C701B601BED76B017C01ED85FE85D2
:102F600020A131A142A153A169857A858B859C85D9
:102F70000E94C2219B01AC01C701B601ABD76B0116
:102F80007C01AD85BE85D0962D913D914D915C9192
:102F9000D3976D8D7E8D8F8D98A10E94C2219B014C
:102FA000AC01C701B60196D76B017C013E862D8628
:102FB000B4E02B0E311CED85FE85208931894289D4
:102FC0005389C501B4010E94C2212B013C01AD858A
:102FD000BE852D913D914D915C916D897E898F8942
:102FE000988D0E94C2219B01AC01C301B20172D72E
:102FF0002B013C01E981FA8124AD35AD46AD57ADD9
:1030000069897A898B899C890E94C2219B01AC01C4
:10301000C301B2015FD7A70196015CD7D8016D93B8
:103020007D938D939D938D01E981FA81EA5CF8404F
:1030300009F06BCFC092DA0FD092DB0FE092DC0F79
:10304000F092DD0F88EC9FE00E948F0D6091C80F19
:103050007091C90F072E000C880B990B0E946D20F0
:103060002091F2093091F3094091F4095091F5094A
:1030700030D72091C20A3091C30A4091C40A5091BE
:10308000C50A0E94C2212B013C0120910A0A3091FD
:103090000B0A40910C0A50910D0A6091CE0F70916D
:1030A000CF0F8091D00F9091D10F78D7682F661FE6
:1030B0006627661F88E00E94AF0D8090CE0F90902B
:1030C000CF0FA090D00FB090D10FC090020AD09037
:1030D000030AE090040AF090050AA7019601C501D1
:1030E000B4010E94BE2118160CF025C2C092CE0F6A
:1030F000D092CF0FE092D00FF092D10F2BC2E98186
:10310000FA813197FA83E9830C943710E981FA81C7
:103110003196FA83E983D7016D917D918D919D91CF
:103120007D01A50194013AD7181684F70C94491033
:103130001A8219820C944910E4E5F0E0FA83E983DD
:103140000C944910E981FA812E0E3F1EE5E7FFE05D
:1031500085E89FE0D1014D915D916D917C91419306
:10316000519361937193B8EA2B1ABEEF3B0A8E1705
:103170009F0781F70C949610A5019401C301B20139
:10318000A8D64B015C01A7019601C301B201A1D6EB
:103190009B01AC01C501B40105D74B015C01AC0139
:1031A0009B0160E070E080E89FE393D669877A87AF
:1031B0008B879C87ED81FE81E20DF31DFE83ED83FD
:1031C00029813A81220E331E05E71FE0AD81BE81C1
:1031D000CD90DD90ED90FC90F101408051806280B7
:1031E0007380A3019201C701B601D8D68823B9F034
:1031F000A7019601C501B4010E94C2216B017C01A7
:10320000A301920169857A858B859C850E94C221E4
:103210009B01AC01C701B6015DD66B017C01D801F1
:10322000CD92DD92ED92FD928D01ED81FE81E85A05
:10323000FE4FFE83ED83F8EA2F1AFEEF3F0A25E8E2
:103240003FE02A173B0709F0C1CF0C9496108091FC
:10325000CE0A813089F58D859E85AF85B8898093AA
:10326000DA0F9093DB0FA093DC0FB093DD0F898D05
:103270009A8DAB8DBC8D8093DE0F9093DF0FA09362
:10328000E00FB093E10F89859A85AB85BC8580936B
:10329000E20F9093E30FA093E40FB093E50F8D8DB1
:1032A0009E8DAF8DB8A18093E60F9093E70FA0930A
:1032B000E80FB093E90F86C98091950F9091960F12
:1032C000A091970FB091980F8093DA0F9093DB0F36
:1032D000A093DC0FB093DD0F8091990F90919A0F1E
:1032E000A0919B0FB0919C0F8093DE0F9093DF0F06
:1032F000A093E00FB093E10F80919D0F90919E0FEE
:10330000A0919F0FB091A00F8093E20F9093E30FD5
:10331000A093E40FB093E50F8091A10F9091A20FBD
:10332000A091A30FB091A40FBECF6091DA0F70915E
:10333000DB0F8091DC0F9091DD0FB6D4811111CAA3
:103340006091DA0F7091DB0F8091DC0F9091DD0FAF
:1033500020E030E040E857E415D76093DA0F70932F
:10336000DB0F8093DC0F9093DD0F03CAC701B6011A
:1033700086D618CA6091DA0F7091DB0F8091DC0F4E
:103380009091DD0F91D4811134CA6091DA0F709160
:10339000DB0F8091DC0F9091DD0F20E030E040E802
:1033A00057E4F0D66093DA0F7093DB0F8093DC0F55
:1033B0009093DD0F26CAC701B60161D63BCA609162
:1033C000DA0F7091DB0F8091DC0F9091DD0F6CD4E0
:1033D000811157CA6091DA0F7091DB0F8091DC0F79
:1033E0009091DD0F20E030E040E857E4CBD66093C9
:1033F000DA0F7093DB0F8093DC0F9093DD0F49CAD7
:10340000C701B6013CD65ECA6091DA0F7091DB0F3E
:103410008091DC0F9091DD0F47D481117ACA6091C1
:10342000DA0F7091DB0F8091DC0F9091DD0F20E0BF
:1034300030E040E857E4A6D66093DA0F7093DB0FD4
:103440008093DC0F9093DD0F6CCAC701B60117D6CD
:1034500081CA6091DA0F7091DB0F8091DC0F90913F
:10346000DD0F22D4811199CA6091DA0F7091DB0FC0
:103470008091DC0F9091DD0F20E030E040E857E4D0
:1034800081D66093DA0F7093DB0F8093DC0F9093FB
:10349000DD0F8BCAC701B601F2D58B01A0CA6091BE
:1034A000DA0F7091DB0F8091DC0F9091DD0FFCD370
:1034B0008111B8CA6091DA0F7091DB0F8091DC0F37
:1034C0009091DD0F20E030E040E857E45BD6609358
:1034D000DA0F7093DB0F8093DC0F9093DD0FAACA95
:1034E000C701B601CCD5BFCA6091DA0F7091DB0F6E
:1034F0008091DC0F9091DD0FD7D38111DBCA6091F1
:10350000DA0F7091DB0F8091DC0F9091DD0F20E0DE
:1035100030E040E857E436D66093DA0F7093DB0F63
:103520008093DC0F9093DD0FCDCAC701B601A7D5FC
:103530007E836D83E3CAC090C60AD090C70AE0902C
:10354000C80AF090C90AA7019601C501B40126D5A1
:1035500087FDCCCD60913A1070913B1080913C106A
:1035600090913D100E94EE0D909339108093381089
:103570002091CE0F3091CF0F4091D00F5091D10FAD
:103580006091CA0A7091CB0A8091CC0A9091CD0AC1
:10359000F9D6DED56B017C01B0D381119FC1C70183
:1035A000B60182D381119AC120E030E040E853E4B3
:1035B000C701B601E7D56B017C0120E030E0A9012D
:1035C000EDD487FF8EC1C701B601905858D56195DB
:1035D00070E090E080E081D5AB01BC0180913810B3
:1035E000909139100E94B70D89A19AA1ABA1BCA1FD
:1035F0008093581090935910A0935A10B0935B1079
:1036000020911A0A30911B0A40911C0A50911D0A00
:10361000C301B201B7D620915C1030915D1040918A
:103620005E1050915F1056D460935C1070935D10E3
:1036300080935E1090935F108DA19EA1AFA1B8A55D
:103640008093601090936110A0936210B093631008
:103650002091641030916510409166105091671070
:103660006091260A7091270A8091280A9091290A70
:1036700089D62091850F3091860F4091870F509108
:10368000880F28D46093641070936510809366103F
:1036900090936710209168103091691040916A10E2
:1036A00050916B106091420A7091430A8091440AD4
:1036B0009091450A67D62091890F30918A0F4091E9
:1036C0008B0F50918C0F06D4609368107093691023
:1036D00080936A1090936B1020916C1030916D1054
:1036E00040916E1050916F1060915E0A70915F0A68
:1036F0008091600A9091610A45D620918D0F30919A
:103700008E0F40918F0F5091900FE4D360936C1007
:1037100070936D1080936E1090936F1020917010C5
:1037200030917110409172105091731060917A0A2B
:1037300070917B0A80917C0A90917D0A23D620911A
:10374000910F3091920F4091930F5091940FC2D3EB
:103750006093701070937110809372109093731037
:10376000209174103091751040917610509177101F
:103770006091860A7091870A8091880A9091890ADF
:1037800001D62091B40F3091B50F4091B60F5091F2
:10379000B70FA0D360937410709375108093761058
:1037A00090937710209178103091791040917A1091
:1037B00050917B1060919E0A70919F0A8091A00A9F
:1037C0009091A10ADFD52091B80F3091B90F4091A7
:1037D000BA0F5091BB0F7ED360937810709379101D
:1037E00080937A1090937B1020917C1030917D1003
:1037F00040917E1050917F106091B60A7091B70A87
:103800008091B80A9091B90ABDD52091BC0F309132
:10381000BD0F4091BE0F5091BF0F5CD360937C10E1
:1038200070937D1080937E1090937F106091DD0CDB
:103830007091DE0C8091DF0C9091E00C6F5F7F4FF8
:103840008F4F9F4F6093DD0C7093DE0C8093DF0CE5
:103850009093E00CA091EB0CB091EC0CBA83A9838F
:103860003AD49B01AC016091E10C7091E20C809123
:10387000E30C9091E40C86D5E981FA816083718331
:10388000828393838091E50C9091E60CA091E70CE4
:10389000B091E80C0196A11DB11D8093E50C9093A9
:1038A000E60CA093E70CB093E80CAE960FB6F89434
:1038B000DEBF0FBECDBFDF91CF911F910F91FF9063
:1038C000EF90DF90CF90BF90AF909F908F907F90C0
:1038D0006F905F904F903F902F900895C12CD12C06
:1038E0007601C701B601CBD373CE4F925F926F9230
:1038F0007F92AF92BF92DF92EF92FF920F931F934E
:10390000CF93DF9384E090E098D1EEE5FCE087E987
:10391000DF011D928A95E9F789EE9CE09583848307
:10392000CBEEDCE0D7AFC6AF01EE1CE0138B028B11
:10393000F093C70CE093C60CF383E28321E030E000
:10394000DC012D933C9387E09BE0918780878DEE8F
:103950009CE09983888342E450E665E67CE3F801C5
:103960004083518362837383E5E7FFE08DE7DF01E6
:103970001D928A95E9F7C2EFDFE080E9FE0111921E
:103980008A95E9F782E697E090935310809352105E
:1039900082E092E09093551080935410412C512C6A
:1039A0003201439440923F10509240106092411077
:1039B0007092421042E150E063E170E081E090E0FB
:1039C0000E942207DD24D394D09243101882809164
:1039D000060A9091070AA091080AB091090A8EA3DD
:1039E0009FA3A8A7B9A749825A826B827C821AA694
:1039F0001BA61CA61DA680E090E0A0E8BFE38EA752
:103A00009FA7A8ABB9AB1AAA1BAA1CAA1DAA1EAADB
:103A10001FAA18AE19AE1AAE1BAE1CAE1DAE80E0CA
:103A20000E942D01DD821092441040924510509268
:103A30004610609247107092481090E080E00E941B
:103A4000820DD092491010924A1040924B10509221
:103A50004C1060924D1070924E1061E088E00E9410
:103A6000A70DD0924F10109232109AE3A92E90E138
:103A7000B92E86E090E0A0E0B0E0F501808391836C
:103A8000A283B383C7E3D0E11882409233105092EF
:103A900034106092351070923610E12CF12C8701B1
:103AA000A801970166E070E080E090E00E94320E8D
:103AB00008E310E1D8018D939C93F5016081718139
:103AC000828193810E94EE0DD8018D939C930E9478
:103AD000B60DD8828091FA099091FB09A091FC095A
:103AE000B091FD098093581090935910A0935A10EB
:103AF000B0935B1080911E0A90911F0AA091200A3A
:103B0000B091210A80935C1090935D10A0935E1099
:103B1000B0935F108091FE099091FF09A091000A77
:103B2000B091010A8093601090936110A09362108D
:103B3000B0936310DF91CF911F910F91FF90EF90A1
:103B4000DF90BF90AF907F906F905F904F900895FF
:103B500080913E10811103C081E080933E108091DE
:103B6000F20F811103C081E08093F20F8091441025
:103B7000811103C081E08093441080914A1081112B
:103B800003C081E080934A1080913210811136C0C9
:103B900081E0809332108091331090913410A09185
:103BA0003510B09136100197A105B10539F5809116
:103BB0003710882319F160913A1070913B10809171
:103BC0003C1090913D100E94EE0D9093391080931F
:103BD000381040E050E0BA010E94B70D60913A10F1
:103BE00070913B1080913C1090913D100E94EE0D21
:103BF00090933910809338100C94830E089560E0F0
:103C000070E080E89FE7089560E070E080E89FE75B
:103C1000089560E070E080E89FEF089560E070E054
:103C200080E89FEF089560E070E080EC9FEF0895DA
:103C300060E070E080EC9FEF0895F5DF60938E10F8
:103C400070938F108093901090939110F1DF609398
:103C50008210709383108093841090938510CFDF2F
:103C600060938A1070938B1080938C1090938D10BA
:103C7000CBDF6093861070938710809388109093A9
:103C80008910C7DF60939210709393108093941003
:103C900090939510C3DF6093961070939710809364
:103CA0009810909399100895CF92DF92EF92FF921F
:103CB000CF936B017C01AC019B01609186107091E8
:103CC0008710809188109091891068D1C1E0882375
:103CD00069F0A701960160919610709197108091FC
:103CE0009810909199105AD18111C0E08C2FCF91EA
:103CF000FF90EF90DF90CF9008950F931F938B016B
:103D00009C010027112720783F77011511052048D5
:103D10003F4749F4AB01BC016F77772781E0452B22
:103D2000462B472B09F480E01F910F91089540E046
:103D300052EC61E070E090E080E006D061E08DE060
:103D400049D760E08DE082C78130910579F01CF49D
:103D5000892B39F008958230910561F0039771F055
:103D6000089526E081E09DE00C941D2726E08EE971
:103D70009DE0FACF26E08BE39EE0F6CF26E088EDCB
:103D80009EE0F2CF1F920F920FB60F9211240BB646
:103D90000F922F933F934F935F936F937F938F93E4
:103DA0009F93AF93BF93EF93FF9385E99CEF90931D
:103DB0002501809324018091F60C9091F70C0197D6
:103DC00019F461E08DE042D734D0FF91EF91BF91BB
:103DD000AF919F918F917F916F915F914F913F91A3
:103DE0002F910F900BBE0F900FBE0F901F90189544
:103DF00085E99CEF9093250180932401A3E7B0E02F
:103E00008C918E7F8C93E0E2F1E080818C7F8083C7
:103E1000E1E2F1E08081877E80838081846080831D
:103E200080818C7F80838C9181608C93089581E068
:103E300008958091F50C91E0980F9093F50C8823EC
:103E400049F021E030E03093F70C2093F60C80939A
:103E5000F50C089578940E94D10FF8948091F50C98
:103E60008150F5CFCF93DF9310929B1010929A1050
:103E700015D55DDFC091190BD0911A0B19821882EC
:103E800034DDF894B5DF81E028813981232B09F0F6
:103E900080E080939A107894789480919A108111A0
:103EA00007C056DEF89490E080E0DF91CF9108954E
:103EB00081E028813981232B09F480E080939B10D5
:103EC00090919B1081E0911180E080939A10AFDF78
:103ED000E4CF5058BB27AA270ED0FFC1F0D130F055
:103EE000F5D120F031F49F3F11F41EF4E5C10EF43A
:103EF000E095E7FBB2C1E92F01D280F3BA17620760
:103F000073078407950718F071F49EF530C20EF41C
:103F1000E0950B2EBA2FA02D0B01B90190010C01D9
:103F2000CA01A0011124FF27591B99F0593F50F4F1
:103F3000503E68F11A16F040A22F232F342F442749
:103F4000585FF3CF469537952795A795F040539541
:103F5000C9F77EF41F16BA0B620B730B840BBAF011
:103F60009150A1F0FF0FBB1F661F771F881FC2F77C
:103F70000EC0BA0F621F731F841F48F48795779590
:103F80006795B795F7959E3F08F0B3CF9395880F47
:103F900008F09927EE0F9795879508953AD108F480
:103FA00081E008950CD099C191D140F088D130F0D2
:103FB00021F45F3F19F051C15111DAC17DC19ED189
:103FC00098F39923C9F35523B1F3951B550BBB27E0
:103FD000AA2762177307840738F09F5F5F4F220F8D
:103FE000331F441FAA1FA9F333D00E2E3AF0E0E886
:103FF00030D091505040E695001CCAF729D0FE2FD2
:1040000027D0660F771F881FBB1F26173707480763
:10401000AB07B0E809F0BB0B802DBF01FF27935819
:104020005F4F2AF09E3F510568F017C1A1C15F3F65
:10403000ECF3983EDCF3869577956795B795F79501
:104040009F5FC9F7880F911D9695879597F90895F9
:10405000E1E0660F771F881FBB1F62177307840795
:10406000BA0720F0621B730B840BBA0BEE1F88F7A4
:10407000E095089504D06894B1117AC1089546D1AD
:1040800088F09F5790F0B92F9927B751A0F0D1F041
:10409000660F771F881F991F1AF0BA95C9F712C0CB
:1040A000B13081F064D1B1E0089561C1672F782FFC
:1040B0008827B85F39F0B93FCCF386957795679537
:1040C000B395D9F73EF490958095709561957F4FA3
:1040D0008F4F9F4F0895E89409C097FB3EF4909549
:1040E0008095709561957F4F8F4F9F4F9923A9F0D1
:1040F000F92F96E9BB279395F69587957795679560
:10410000B795F111F8CFFAF4BB0F11F460FF1BC0A3
:104110006F5F7F4F8F4F9F4F16C0882311F096E936
:1041200011C0772321F09EE8872F762F05C06623E4
:1041300071F096E8862F70E060E02AF09A95660F9D
:10414000771F881FDAF7880F9695879597F9089556
:10415000F7D080F09F3740F491110EF009C160E074
:1041600070E080E89FEB089526F41B16611D711D19
:10417000811D79C093C0A3D018F011F0A7D038F4F6
:104180009BC0F6C0E92FBAD0B0F35523C9F3E7FBC3
:104190006217730784079507A8F199F3E92FFF27A2
:1041A00088232AF03197660F771F881FDAF7952F3B
:1041B0005527442332F091505040220F331F441FA3
:1041C000D2F7BB27E91BF50B621B730B840BB109FC
:1041D000C1F222F4620F731F841FB11D31972AF0C0
:1041E000660F771F881FBB1FEFCF915050405AF0CA
:1041F00041F0882332F0660F771F881F915050409E
:10420000C1F793954BC08695779567959F5FD9F7D2
:10421000F8CF990F0008550FAA0BE0E8FEEF16162D
:104220001706E807F907C0F012161306E407F507AA
:1042300098F0621B730B840B950B39F40A2661F01E
:10424000232B242B252B21F408950A2609F4A140C1
:10425000A6958FEF811D811D089597F99F6780E8CE
:1042600070E060E00895882371F4772321F098507E
:10427000872B762F07C0662311F499270DC0905124
:10428000862B70E060E02AF09A95660F771F881FF2
:10429000DAF7880F9695879597F908959F3F31F043
:1042A000915020F4879577956795B795880F911D64
:1042B0009695879597F908959FEF80EC08950024CF
:1042C0000A941616170618060906089500240A947B
:1042D00012161306140605060895092E0394000C01
:1042E00011F4882352F0BB0F40F4BF2B11F460FF90
:1042F00004C06F5F7F4F8F4F9F4F089557FD9058B9
:10430000440F551F59F05F3F71F04795880F97FB99
:10431000991F61F09F3F79F0879508951216130653
:104320001406551FF2CF4695F1DF08C01616170682
:104330001806991FF1CF86957105610508940895B7
:10434000E5DFA0F0BEE7B91788F4BB279F3860F41B
:104350001616B11D672F782F8827985FF7CF86959F
:1043600077956795B11D93959639C8F30895E894AC
:10437000BB2766277727CB0197F908954ADF08F412
:104380008FEF08950BD0A9CF9ADF28F09FDF18F0A8
:10439000952309F062CF90CF1124EACFAFDFA0F3CD
:1043A000959FD1F3950F50E0551F629FF001729FCA
:1043B000BB27F00DB11D639FAA27F00DB11DAA1FE9
:1043C000649F6627B00DA11D661F829F2227B00D36
:1043D000A11D621F739FB00DA11D621F839FA00DC1
:1043E000611D221F749F3327A00D611D231F849F11
:1043F000600D211D822F762F6A2F11249F57504068
:104400008AF0E1F088234AF0EE0FFF1FBB1F661F02
:10441000771F881F91505040A9F79E3F510570F0BB
:104420001CCFA6CF5F3FECF3983EDCF386957795E3
:104430006795B795F795E7959F5FC1F7FE2B880FB6
:10444000911D9695879597F908950895883008F0FD
:1044500076C0E82FF0E0EE0FFF1FEF52F54F7183AB
:1044600060838150873008F03DC0E82FF0E0882756
:10447000E35CFD4D8F4F0C94062C7A2244224C2293
:104480005822652286229322809169008C7F482BD6
:1044900040936900E89A089580916900837F440FF2
:1044A000551F440F551F482B40936900E99A089502
:1044B000809169008F7C74E0440F551F7A95E1F775
:1044C000482B40936900EA9A0895809169008F73A0
:1044D00066E0440F551F6A95E1F7482B4093690049
:1044E000EB9A089580916A008C7F482B40936A0074
:1044F000EC9A089580916A00837F440F551F440F02
:10450000551F482B40936A00ED9A089580916A00E8
:104510008F7C24E0440F551F2A95E1F7482B4093E8
:104520006A00EE9A089580916A008F7396E0440FB6
:10453000551F9A95E1F7482B40936A00EF9A08952A
:104540001F920F920FB60F9211240BB60F922F935A
:104550003F934F935F936F937F938F939F93AF930B
:10456000BF93EF93FF93E091D50AF091D60A199586
:10457000FF91EF91BF91AF919F918F917F916F913B
:104580005F914F913F912F910F900BBE0F900FBEF7
:104590000F901F9018951F920F920FB60F92112433
:1045A0000BB60F922F933F934F935F936F937F932D
:1045B0008F939F93AF93BF93EF93FF93E091D70AAD
:1045C000F091D80A1995FF91EF91BF91AF919F910A
:1045D0008F917F916F915F914F913F912F910F90AC
:1045E0000BBE0F900FBE0F901F9018951F920F9249
:1045F0000FB60F9211240BB60F922F933F934F9348
:104600005F936F937F938F939F93AF93BF93EF933A
:10461000FF93E091D90AF091DA0A1995FF91EF9191
:10462000BF91AF919F918F917F916F915F914F91CA
:104630003F912F910F900BBE0F900FBE0F901F90C8
:1046400018951F920F920FB60F9211240BB60F926E
:104650002F933F934F935F936F937F938F939F938A
:10466000AF93BF93EF93FF93E091DB0AF091DC0AE5
:104670001995FF91EF91BF91AF919F918F917F918C
:104680006F915F914F913F912F910F900BBE0F90C3
:104690000FBE0F901F9018951F920F920FB60F929A
:1046A00011240BB60F922F933F934F935F936F9309
:1046B0007F938F939F93AF93BF93EF93FF93E0917B
:1046C000D10AF091D20A1995FF91EF91BF91AF9164
:1046D0009F918F917F916F915F914F913F912F911A
:1046E0000F900BBE0F900FBE0F901F9018951F924A
:1046F0000F920FB60F9211240BB60F922F933F9388
:104700004F935F936F937F938F939F93AF93BF93D9
:10471000EF93FF93E091D30AF091D40A1995FF919A
:10472000EF91BF91AF919F918F917F916F915F9129
:104730004F913F912F910F900BBE0F900FBE0F9096
:104740001F9018951F920F920FB60F9211240BB65F
:104750000F922F933F934F935F936F937F938F931A
:104760009F93AF93BF93EF93FF93E091DD0AF09196
:10477000DE0A1995FF91EF91BF91AF919F918F91B3
:104780007F916F915F914F913F912F910F900BBE51
:104790000F900FBE0F901F9018951F920F920FB69B
:1047A0000F9211240BB60F922F933F934F935F9369
:1047B0006F937F938F939F93AF93BF93EF93FF93E9
:1047C000E091DF0AF091E00A1995FF91EF91BF9116
:1047D000AF919F918F917F916F915F914F913F9199
:1047E0002F910F900BBE0F900FBE0F901F9018953A
:1047F0001F920F920FB60F9211242F933F938F9316
:104800009F93AF93BF938091F90C9091FA0CA09174
:10481000FB0CB091FC0C3091F80C23E0230F2D37EA
:1048200058F50196A11DB11D2093F80C8093F90C49
:104830009093FA0CA093FB0CB093FC0C8091FD0CB0
:104840009091FE0CA091FF0CB091000D0196A11D5E
:10485000B11D8093FD0C9093FE0CA093FF0CB093C0
:10486000000DBF91AF919F918F913F912F910F902C
:104870000FBE0F901F90189526E8230F0296A11DDA
:10488000B11DD2CF2FB7F8946091F90C7091FA0C4A
:104890008091FB0C9091FC0C2FBF0895789484B507
:1048A000826084BD84B5816084BD85B5826085BD2C
:1048B00085B5816085BDEEE6F0E080818160808312
:1048C000E1E8F0E0108280818260808380818160F5
:1048D0008083E0E8F0E0808181608083E1EBF0E0BC
:1048E000808184608083E0EBF0E080818160808360
:1048F000E1E9F0E080818260808380818160808353
:10490000E0E9F0E0808181608083E1EAF0E080818D
:1049100082608083808181608083E0EAF0E0808132
:1049200081608083E1E2F1E0808182608083808128
:1049300081608083E0E2F1E0808181608083EAE74A
:10494000F0E08081846080838081826080838081C8
:10495000816080838081806880831092C100089587
:104960001F93CF93DF93182FEB0161E033D1209792
:1049700031F460E0812FDF91CF911F9167C1CF3F6C
:10498000D10511F461E0F6CFE12FF0E0EC51FF4FDB
:10499000E491E150E23108F0B2C0F0E08827ED5236
:1049A000FB4D8F4F33C7E524ED24F224FC2406256C
:1049B0007F251025182520252A2534253E254D251F
:1049C00057257F2561256B25752584B5806884BDB5
:1049D000C7BDDF91CF911F91089584B5806284BDDA
:1049E000C8BDF7CF80918000806880938000D0930D
:1049F0008900C0938800EDCF809180008062809311
:104A00008000D0938B00C0938A00E3CF8091800018
:104A1000886080938000D0938D00C0938C00D9CFA4
:104A20008091B00080688093B000C093B300D1CF74
:104A30008091B00080628093B000C093B400C9CF71
:104A400080919000806880939000D0939900C093EB
:104A50009800BFCF80919000806280939000D093A7
:104A60009B00C0939A00B5CF80919000886080939E
:104A70009000D0939D00C0939C00ABCF8091A0008C
:104A800080688093A0008091A0008F7B8093A0001D
:104A9000D093A900C093A8009CCF8091A000806211
:104AA0008093A000D093AB00C093AA0092CF8091D6
:104AB000A00088608093A000D093AD00C093AC00AC
:104AC00088CF80912001806880932001D0932901B4
:104AD000C09328017ECF80912001806280932001C5
:104AE000D0932B01C0932A0174CF8091200188605C
:104AF00080932001D0932D01C0932C016ACFC03840
:104B0000D1050CF03FCF35CF8150823108F059C02C
:104B1000E82FF0E08827E157FA4D8F4F77C6AF2591
:104B2000B325A125A725AB25E125B625BC25C025A4
:104B3000C625CA25CE25D425D825E125DC25E225A4
:104B4000E625809180008F77809380000895809182
:104B500080008F7DF9CF80918000877FF5CF84B56D
:104B60008F7784BD089584B58F7DFBCF8091B00091
:104B70008F778093B00008958091B0008F7DF9CF3A
:104B8000809190008F77809390000895809190009D
:104B90008F7DF9CF80919000877FF5CF8091A00025
:104BA0008F778093A00008958091A0008F7DF9CF2A
:104BB0008091A000877FF5CF809120018F7780932F
:104BC00020010895809120018F7DF9CF80912001EF
:104BD000877FF5CFCF93DF9390E0FC01E65DFE4F3A
:104BE000249180599E4FFC0184918823C9F090E064
:104BF000880F991FFC01E053FE4FA591B491FC0171
:104C0000EA54FE4FC591D49161110DC09FB7F8943D
:104C10008C91209582238C938881282328839FBFA1
:104C2000DF91CF910895623051F49FB7F8943C9191
:104C3000822F809583238C93E8812E2BEFCF8FB723
:104C4000F894EC912E2B2C938FBFEACF1F93CF9328
:104C5000DF93282F30E0F901EC51FF4F8491F901E7
:104C6000E65DFE4FD491F901E059FE4FC491CC238B
:104C7000A1F0162F811148DFEC2FF0E0EE0FFF1F9F
:104C8000EA54FE4FA591B4918FB7F894EC911111AD
:104C900008C0D095DE23DC938FBFDF91CF911F91A9
:104CA0000895DE2BF8CFFC01918D228D892F90E0A5
:104CB000805C9F4F821B91098F7399270895FC0197
:104CC000918D828D981731F0828DE80FF11D858DC1
:104CD00090E008958FEF9FEF0895FC01918D828DF4
:104CE000981761F0A28DAE0FBF2FB11D5D968C910C
:104CF000928D9F5F9F73928F90E008958FEF9FEF4B
:104D00000895FC01538D448D252F30E0842F90E0D1
:104D1000821B930B541710F0CF96089501970895B6
:104D2000FC01A48DA80FB92FB11DA35ABF4F2C9120
:104D3000848D90E001968F739927848FA689B78917
:104D40002C93A089B1898C91837080648C93938D0E
:104D5000848D981306C00288F389E02D80818F7DB1
:104D600080830895CF93DF93EC01888D8823B1F081
:104D7000AA89BB89E889F9898C9185FD03C0808166
:104D800086FD0CC00FB607FCF7CF8C9185FFF2CFE4
:104D9000808185FFEDCFCE01C3DFEACFDF91CF91D8
:104DA0000895EF92FF920F931F93CF93DF93EC013F
:104DB00081E0888F9B8D8C8D98131AC0E889F989C2
:104DC000808185FF15C09FB7F894EE89FF896083C5
:104DD000E889F98980818370806480839FBF81E046
:104DE00090E0DF91CF911F910F91FF90EF90089588
:104DF000F62E0B8D10E00F5F1F4F0F731127E02E63
:104E00008C8D8E110BC00FB607FCFACFE889F9899B
:104E1000808185FFF5CFCE0183DFF2CFEB8DEC0FE4
:104E2000FD2FF11DE35AFF4FF0829FB7F8940B8FCF
:104E3000EA89FB8980818062D0CFCF92DF92EF92A6
:104E4000FF921F93CF93DF93EC016A017B01122F36
:104E5000E889F98982E08083C11481EED806E104F3
:104E6000F10499F060E079E08DE390E0A70196010C
:104E7000ABD42150310941095109569547953795D1
:104E80002795211580E1380790F0E889F98910828B
:104E900060E874E88EE190E0A701960195D4215076
:104EA0003109410951095695479537952795EC8564
:104EB000FD853083EE85FF852083188EEC89FD8982
:104EC0001083EA89FB89808180618083EA89FB897C
:104ED000808188608083EA89FB8980818068808303
:104EE000EA89FB8980818F7D8083DF91CF911F913B
:104EF000FF90EF90DF90CF9008951F920F920FB622
:104F00000F9211240BB60F922F938F939F93EF93D1
:104F1000FF93E091110DF091120D8081E091170D3A
:104F2000F091180D82FD1DC0908180911A0D8F5F48
:104F30008F7320911B0D821741F0E0911A0DF0E064
:104F4000EF5FF24F958F80931A0DFF91EF919F9134
:104F50008F912F910F900BBE0F900FBE0F901F904F
:104F600018958081F2CF1F920F920FB60F921124E5
:104F70000BB60F922F933F934F935F936F937F9353
:104F80008F939F93AF93BF93EF93FF9381E09DE047
:104F9000C7DEFF91EF91BF91AF919F918F917F916C
:104FA0006F915F914F913F912F910F900BBE0F909A
:104FB0000FBE0F901F901895E1E0FDE01382128262
:104FC00088EE93E0A0E0B0E084839583A683B78366
:104FD0008FE19BE09183808385EC90E095878487C7
:104FE00084EC90E09787868780EC90E0918B808BB3
:104FF00081EC90E0938B828B82EC90E0958B848B9C
:1050000086EC90E0978B868B118E128E138E148E09
:1050100008951F920F920FB60F9211240BB60F92A4
:105020002F938F939F93EF93FF93E091AE0DF091A9
:10503000AF0D8081E091B40DF091B50D82FD1DC0E2
:1050400090818091B70D8F5F8F732091B80D82177B
:1050500041F0E091B70DF0E0E256F24F958F80936A
:10506000B70DFF91EF919F918F912F910F900BBEF4
:105070000F900FBE0F901F9018958081F2CF1F9256
:105080000F920FB60F9211240BB60F922F933F93EE
:105090004F935F936F937F938F939F93AF93BF9340
:1050A000EF93FF938EE99DE03BDEFF91EF91BF917F
:1050B000AF919F918F917F916F915F914F913F91B0
:1050C0002F910F900BBE0F900FBE0F901F90189551
:1050D000EEE9FDE01382128288EE93E0A0E0B0E0FA
:1050E00084839583A683B7838FE19BE0918380833C
:1050F0008DEC90E0958784878CEC90E0978786878D
:1051000088EC90E0918B808B89EC90E0938B828B84
:105110008AEC90E0958B848B8EEC90E0978B868B5D
:10512000118E128E138E148E08951F920F920FB649
:105130000F9211240BB60F922F938F939F93EF939F
:10514000FF93E0914B0EF0914C0E8081E091510E57
:10515000F091520E82FD1DC090818091540E8F5FA0
:105160008F732091550E821741F0E091540EF0E0BC
:10517000E55CF14F958F8093540EFF91EF919F91D5
:105180008F912F910F900BBE0F900FBE0F901F901D
:1051900018958081F2CF1F920F920FB60F921124B3
:1051A0000BB60F922F933F934F935F936F937F9321
:1051B0008F939F93AF93BF93EF93FF938BE39EE007
:1051C000AFDDFF91EF91BF91AF919F918F917F9153
:1051D0006F915F914F913F912F910F900BBE0F9068
:1051E0000FBE0F901F901895EBE3FEE01382128222
:1051F00088EE93E0A0E0B0E084839583A683B78334
:105200008FE19BE09183808385ED90E09587848793
:1052100084ED90E09787868780ED90E0918B808B7E
:1052200081ED90E0938B828B82ED90E0958B848B67
:1052300086ED90E0978B868B118E128E138E148ED6
:1052400008951F920F920FB60F9211240BB60F9272
:105250002F938F939F93EF93FF93E091E80EF0913C
:10526000E90E8081E091EE0EF091EF0E82FD1DC0FF
:1052700090818091F10E8F5F8F732091F20E8217D3
:1052800041F0E091F10EF0E0E852F14F958F8093FC
:10529000F10EFF91EF919F918F912F910F900BBE87
:1052A0000F900FBE0F901F9018958081F2CF1F9224
:1052B0000F920FB60F9211240BB60F922F933F93BC
:1052C0004F935F936F937F938F939F93AF93BF930E
:1052D000EF93FF9388ED9EE023DDFF91EF91BF9167
:1052E000AF919F918F917F916F915F914F913F917E
:1052F0002F910F900BBE0F900FBE0F901F9018951F
:10530000E8EDFEE01382128288EE93E0A0E0B0E0C8
:1053100084839583A683B7838FE19BE09183808309
:1053200085E391E09587848784E391E0978786877A
:1053300080E391E0918B808B81E391E0938B828B72
:1053400082E391E0958B848B86E391E0978B868B4B
:10535000118E128E138E148E0895AF92BF92CF923B
:10536000DF92EF92FF920F931F93CF93DF936C0125
:105370007B018B01040F151FEB015E01AE18BF0806
:10538000C017D10759F06991D601ED91FC910190B8
:10539000F081E02DC6011995892B79F7C501DF91C0
:1053A000CF911F910F91FF90EF90DF90CF90BF9022
:1053B000AF900895FB0101900020E9F73197AF010C
:1053C000461B570BDC01ED91FC910280F381E02D2F
:1053D00019946115710509F0EDCF90E080E0089512
:1053E000DC01ED91FC910190F081E02D19946DE2CA
:1053F0007BE0E0CF8F929F92AF92BF92EF92FF92AD
:105400000F931F93CF93DF93CDB7DEB7A1970FB65E
:10541000F894DEBF0FBECDBF7C01FA01CB0119A20B
:10542000223008F42AE08E010F5D1F4F822E912C4E
:10543000B12CA12CBF01A5019401C6D1F901CA016B
:105440006A3004F5605DD8016E938D01232B242B07
:10545000252B81F790E080E0109719F0BD01C7017E
:10546000A9DFA1960FB6F894DEBF0FBECDBFDF91C6
:10547000CF911F910F91FF90EF90BF90AF909F90B1
:105480008F900895695CDFCFCF92DF92EF92FF9209
:105490000F931F93CF93DF932115310581F4DC0126
:1054A000ED91FC910190F081E02D642FDF91CF917F
:1054B0001F910F91FF90EF90DF90CF9019942A30B9
:1054C0003105F1F42AE077FF1BC06A017B01EC0192
:1054D0006DE286DF8C0144275527BA014C195D091E
:1054E0006E097F092AE0CE0185DF800F911FDF91D1
:1054F000CF911F910F91FF90EF90DF90CF90089583
:10550000DF91CF911F910F91FF90EF90DF90CF909F
:1055100071CF9A01AB01770F660B770BB5CF0F9365
:105520001F93CF93DF93EC01F4DF8C01CE015FDF9B
:10553000800F911FDF91CF911F910F9108950F93CD
:105540001F93CF93DF93EC019FDF8C01CE014FDFE0
:10555000800F911FDF91CF911F910F910895211519
:10556000310541F4DC01ED91FC910190F081E02DD9
:10557000642F19943FCF9A01462F50E070E060E00D
:10558000EECF0F931F93CF93DF93EC01F4DF8C01E9
:10559000CE012DDF800F911FDF91CF911F910F91D1
:1055A00008959A01AB0170E060E0D9CF0F931F938B
:1055B000CF93DF93EC01F5DF8C01CE0118DF800F74
:1055C000911FDF91CF911F910F9108950F931F931A
:1055D000CF93DF93EC01C3DF8C01CE0108DF800F96
:1055E000911FDF91CF911F910F9108952F923F92BC
:1055F0004F925F926F927F928F929F92AF92BF92E3
:10560000CF92DF92EF92FF921F93CF93DF93EC0143
:105610006A017B01722EAB019601CB01B601FED06F
:1056200060E37BE0811125C046015701E894B7F89B
:105630002FEF3FEF4FE75FE7C501B401EFD08111D6
:105640000CC02FEF3FEF4FE75FE7C501B4010E94A9
:10565000CE1F64E37BE0181664F02FEF3FEF4FE7B7
:105660005FE4C701B6010E94BE211816ACF468E3DE
:105670007BE0CE01DF91CF911F91FF90EF90DF9003
:10568000CF90BF90AF909F908F907F906F905F90E2
:105690004F903F902F908ECE2FEF3FEF4FE75FEC74
:1056A000C701B6010E94CE1F87FDE1CF20E030E0A8
:1056B000A901C701B6010E94CE1F312C212C87FF02
:1056C00008C06DE2CE018CDE1C01F7FAF094F7F809
:1056D000F09410E060E070E080E09FE3711641F02C
:1056E00020E030E040E251E40E94D21F1F5FF6CF7D
:1056F000A70196010E946A1F2B013C010E943F20D6
:105700004B015C012AE0BC01A401CE0173DE7C01E7
:10571000E20CF31C1123A1F1C501B4010E946B201E
:105720009B01AC01C301B2010E94691F4B015C01E6
:105730006EE2CE0155DEE80EF91E115008F120E0B0
:1057400030E040E251E4C501B4010E94C2212B01C6
:105750003C010E943F204B014AE050E0CE0121DF96
:10576000E80EF91EB40190E080E00E946B209B01DE
:10577000AC01C301B2010E94691F4B015C01DDCF86
:10578000C701DF91CF911F91FF90EF90DF90CF90F5
:10579000BF90AF909F908F907F906F905F904F9051
:1057A0003F902F90089522CF0F931F93CF93DF93B5
:1057B000EC011CDF8C01CE011ADE800F911FDF91FE
:1057C000CF911F910F910895A1E21A2EAA1BBB1B26
:1057D000FD010DC0AA1FBB1FEE1FFF1FA217B307BD
:1057E000E407F50720F0A21BB30BE40BF50B661FD3
:1057F000771F881F991F1A9469F760957095809597
:1058000090959B01AC01BD01CF010895EE0FFF1FE4
:10581000881F8BBF0790F691E02D19940E940921F3
:0A582000880B990B0895F894FFCF50
:10582A00E803000000000000000000000000000083
:10583A000080000000808FC2753D8FC2753DD04444
:10584A00D83DD044D83D8FC2F53D8FC2F53DE71D06
:10585A00273EE71D273EEC51383EEC51383E8FC2B9
:10586A00753E24977F3E24977F3E9A99993E9A994E
:10587A00993EEC51B83EEC51B83E3D0AD73E3D0A3E
:10588A00D73E8FC2F53E8FC2F53E713D0A3F713D4C
:10589A000A3F9A99193F9A99193FC3F5283FC3F5C8
:1058AA00283FEC51383FEC51383F14AE473F14AE15
:1058BA00473F3D0A573F3D0A573F6666663F666661
:1058CA00663F8FC2753F8FC2753F8FC2753F8FC2C9
:1058DA00753F8FC2753F8FC2753F8FC2753F8FC2AA
:1058EA00753F8FC2753F8FC2753F8FC2753F8FC29A
:1058FA00753F8FC2753F8FC2753F8FC2753F8FC28A
:10590A00753F8FC2753F8FC2753F8FC2753F8FC279
:10591A00753F8FC2753F8FC2753F8FC2753F8FC269
:10592A00753F8FC2753F8FC2753F8FC2753F8FC259
:10593A00753F8FC2753F8FC2753F8FC2753F8FC249
:10594A00753F8FC2753F8FC2753F8FC2753F8FC239
:10595A00753F8FC2753F8FC2753F8FC2753F8FC229
:10596A00753F8FC2753F8FC2753F8FC2753F8FC219
:10597A00753F8FC2753F8FC2753F0000000000005F
:10598A0000000000000000000000000000005D743C
:10599A00113F5D74113F0000803F0000803F3333A8
:1059AA00933F3333933FCDCCCC3FCDCCCC3F6CC16E
:1059BA00D63F6CC1D63FA54FFA3F00000040000019
:1059CA00004048E1FE3F48E1FE3FF28BFD3FF28B8B
:1059DA00FD3F9D36FC3F9D36FC3F48E1FA3F48E1DA
:1059EA00FA3FF628BC3FF628BC3F48E17A3F48E137
:1059FA007A3F48E1FA3E48E1FA3E00000000000022
:105A0A00000000000000000000000000000000008C
:105A1A00000000000000000000000000000000007C
:105A2A00000000000000000000000000000000006C
:105A3A00000000000000000000000000000000005C
:105A4A00000000000000000000000000000000004C
:105A5A00000000000000000000000000000000003C
:105A6A00000000000000000000000000000000002C
:105A7A00000000000000000000000000000000001C
:105A8A00000000000000000000000000000000000C
:105A9A0000000000000000000000000000000000FC
:105AAA0000000000000000000000000000000000EC
:105ABA0000000000000000000000000000000000DC
:105ACA0000000000000000000000000000000000CC
